{
  "_format": "hh-sol-artifact-1",
  "contractName": "MyNFT",
  "sourceName": "contracts/MyNFT.sol",
  "abi": [
    {
      "inputs": [],
      "stateMutability": "nonpayable",
      "type": "constructor"
    },
    {
      "anonymous": false,
      "inputs": [
        {
          "indexed": true,
          "internalType": "address",
          "name": "owner",
          "type": "address"
        },
        {
          "indexed": true,
          "internalType": "address",
          "name": "approved",
          "type": "address"
        },
        {
          "indexed": true,
          "internalType": "uint256",
          "name": "tokenId",
          "type": "uint256"
        }
      ],
      "name": "Approval",
      "type": "event"
    },
    {
      "anonymous": false,
      "inputs": [
        {
          "indexed": true,
          "internalType": "address",
          "name": "owner",
          "type": "address"
        },
        {
          "indexed": true,
          "internalType": "address",
          "name": "operator",
          "type": "address"
        },
        {
          "indexed": false,
          "internalType": "bool",
          "name": "approved",
          "type": "bool"
        }
      ],
      "name": "ApprovalForAll",
      "type": "event"
    },
    {
      "anonymous": false,
      "inputs": [
        {
          "indexed": true,
          "internalType": "address",
          "name": "previousOwner",
          "type": "address"
        },
        {
          "indexed": true,
          "internalType": "address",
          "name": "newOwner",
          "type": "address"
        }
      ],
      "name": "OwnershipTransferred",
      "type": "event"
    },
    {
      "anonymous": false,
      "inputs": [
        {
          "indexed": true,
          "internalType": "address",
          "name": "from",
          "type": "address"
        },
        {
          "indexed": true,
          "internalType": "address",
          "name": "to",
          "type": "address"
        },
        {
          "indexed": true,
          "internalType": "uint256",
          "name": "tokenId",
          "type": "uint256"
        }
      ],
      "name": "Transfer",
      "type": "event"
    },
    {
      "inputs": [
        {
          "internalType": "address",
          "name": "to",
          "type": "address"
        },
        {
          "internalType": "uint256",
          "name": "tokenId",
          "type": "uint256"
        }
      ],
      "name": "approve",
      "outputs": [],
      "stateMutability": "nonpayable",
      "type": "function"
    },
    {
      "inputs": [
        {
          "internalType": "address",
          "name": "owner",
          "type": "address"
        }
      ],
      "name": "balanceOf",
      "outputs": [
        {
          "internalType": "uint256",
          "name": "",
          "type": "uint256"
        }
      ],
      "stateMutability": "view",
      "type": "function"
    },
    {
      "inputs": [
        {
          "internalType": "uint256",
          "name": "tokenId",
          "type": "uint256"
        }
      ],
      "name": "getApproved",
      "outputs": [
        {
          "internalType": "address",
          "name": "",
          "type": "address"
        }
      ],
      "stateMutability": "view",
      "type": "function"
    },
    {
      "inputs": [
        {
          "internalType": "string",
          "name": "uri",
          "type": "string"
        }
      ],
      "name": "icContentOwned",
      "outputs": [
        {
          "internalType": "bool",
          "name": "",
          "type": "bool"
        }
      ],
      "stateMutability": "view",
      "type": "function"
    },
    {
      "inputs": [
        {
          "internalType": "address",
          "name": "owner",
          "type": "address"
        },
        {
          "internalType": "address",
          "name": "operator",
          "type": "address"
        }
      ],
      "name": "isApprovedForAll",
      "outputs": [
        {
          "internalType": "bool",
          "name": "",
          "type": "bool"
        }
      ],
      "stateMutability": "view",
      "type": "function"
    },
    {
      "inputs": [],
      "name": "name",
      "outputs": [
        {
          "internalType": "string",
          "name": "",
          "type": "string"
        }
      ],
      "stateMutability": "view",
      "type": "function"
    },
    {
      "inputs": [],
      "name": "owner",
      "outputs": [
        {
          "internalType": "address",
          "name": "",
          "type": "address"
        }
      ],
      "stateMutability": "view",
      "type": "function"
    },
    {
      "inputs": [
        {
          "internalType": "uint256",
          "name": "tokenId",
          "type": "uint256"
        }
      ],
      "name": "ownerOf",
      "outputs": [
        {
          "internalType": "address",
          "name": "",
          "type": "address"
        }
      ],
      "stateMutability": "view",
      "type": "function"
    },
    {
      "inputs": [
        {
          "internalType": "address",
          "name": "recipient",
          "type": "address"
        },
        {
          "internalType": "string",
          "name": "metadataURI",
          "type": "string"
        }
      ],
      "name": "payToMint",
      "outputs": [
        {
          "internalType": "uint256",
          "name": "",
          "type": "uint256"
        }
      ],
      "stateMutability": "payable",
      "type": "function"
    },
    {
      "inputs": [],
      "name": "renounceOwnership",
      "outputs": [],
      "stateMutability": "nonpayable",
      "type": "function"
    },
    {
      "inputs": [
        {
          "internalType": "address",
          "name": "to",
          "type": "address"
        },
        {
          "internalType": "string",
          "name": "uri",
          "type": "string"
        }
      ],
      "name": "safeMint",
      "outputs": [],
      "stateMutability": "nonpayable",
      "type": "function"
    },
    {
      "inputs": [
        {
          "internalType": "address",
          "name": "from",
          "type": "address"
        },
        {
          "internalType": "address",
          "name": "to",
          "type": "address"
        },
        {
          "internalType": "uint256",
          "name": "tokenId",
          "type": "uint256"
        }
      ],
      "name": "safeTransferFrom",
      "outputs": [],
      "stateMutability": "nonpayable",
      "type": "function"
    },
    {
      "inputs": [
        {
          "internalType": "address",
          "name": "from",
          "type": "address"
        },
        {
          "internalType": "address",
          "name": "to",
          "type": "address"
        },
        {
          "internalType": "uint256",
          "name": "tokenId",
          "type": "uint256"
        },
        {
          "internalType": "bytes",
          "name": "data",
          "type": "bytes"
        }
      ],
      "name": "safeTransferFrom",
      "outputs": [],
      "stateMutability": "nonpayable",
      "type": "function"
    },
    {
      "inputs": [
        {
          "internalType": "address",
          "name": "operator",
          "type": "address"
        },
        {
          "internalType": "bool",
          "name": "approved",
          "type": "bool"
        }
      ],
      "name": "setApprovalForAll",
      "outputs": [],
      "stateMutability": "nonpayable",
      "type": "function"
    },
    {
      "inputs": [
        {
          "internalType": "bytes4",
          "name": "interfaceId",
          "type": "bytes4"
        }
      ],
      "name": "supportsInterface",
      "outputs": [
        {
          "internalType": "bool",
          "name": "",
          "type": "bool"
        }
      ],
      "stateMutability": "view",
      "type": "function"
    },
    {
      "inputs": [],
      "name": "symbol",
      "outputs": [
        {
          "internalType": "string",
          "name": "",
          "type": "string"
        }
      ],
      "stateMutability": "view",
      "type": "function"
    },
    {
      "inputs": [
        {
          "internalType": "uint256",
          "name": "tokenId",
          "type": "uint256"
        }
      ],
      "name": "tokenURI",
      "outputs": [
        {
          "internalType": "string",
          "name": "",
          "type": "string"
        }
      ],
      "stateMutability": "view",
      "type": "function"
    },
    {
      "inputs": [
        {
          "internalType": "address",
          "name": "from",
          "type": "address"
        },
        {
          "internalType": "address",
          "name": "to",
          "type": "address"
        },
        {
          "internalType": "uint256",
          "name": "tokenId",
          "type": "uint256"
        }
      ],
      "name": "transferFrom",
      "outputs": [],
      "stateMutability": "nonpayable",
      "type": "function"
    },
    {
      "inputs": [
        {
          "internalType": "address",
          "name": "newOwner",
          "type": "address"
        }
      ],
      "name": "transferOwnership",
      "outputs": [],
      "stateMutability": "nonpayable",
      "type": "function"
    }
  ],
  "bytecode": "0x60806040523480156200001157600080fd5b506040518060400160405280600581526020017f4d794e46540000000000000000000000000000000000000000000000000000008152506040518060400160405280600481526020017f4d4e465400000000000000000000000000000000000000000000000000000000815250816000908051906020019062000096929190620001a6565b508060019080519060200190620000af929190620001a6565b505050620000d2620000c6620000d860201b60201c565b620000e060201b60201c565b620002bb565b600033905090565b6000600760009054906101000a900473ffffffffffffffffffffffffffffffffffffffff16905081600760006101000a81548173ffffffffffffffffffffffffffffffffffffffff021916908373ffffffffffffffffffffffffffffffffffffffff1602179055508173ffffffffffffffffffffffffffffffffffffffff168173ffffffffffffffffffffffffffffffffffffffff167f8be0079c531659141344cd1fd0a4f28419497f9722a3daafe3b4186f6b6457e060405160405180910390a35050565b828054620001b49062000285565b90600052602060002090601f016020900481019282620001d8576000855562000224565b82601f10620001f357805160ff191683800117855562000224565b8280016001018555821562000224579182015b828111156200022357825182559160200191906001019062000206565b5b50905062000233919062000237565b5090565b5b808211156200025257600081600090555060010162000238565b5090565b7f4e487b7100000000000000000000000000000000000000000000000000000000600052602260045260246000fd5b600060028204905060018216806200029e57607f821691505b60208210811415620002b557620002b462000256565b5b50919050565b61308680620002cb6000396000f3fe6080604052600436106101145760003560e01c806370a08231116100a0578063b88d4fde11610064578063b88d4fde146103b6578063c87b56dd146103df578063d204c45e1461041c578063e985e9c514610445578063f2fde38b1461048257610114565b806370a08231146102e3578063715018a6146103205780638da5cb5b1461033757806395d89b4114610362578063a22cb4651461038d57610114565b806317908e42116100e757806317908e42146101e757806323b872dd1461022457806342842e0e1461024d578063615fd9e2146102765780636352211e146102a657610114565b806301ffc9a71461011957806306fdde0314610156578063081812fc14610181578063095ea7b3146101be575b600080fd5b34801561012557600080fd5b50610140600480360381019061013b9190611e20565b6104ab565b60405161014d9190611e68565b60405180910390f35b34801561016257600080fd5b5061016b61058d565b6040516101789190611f1c565b60405180910390f35b34801561018d57600080fd5b506101a860048036038101906101a39190611f74565b61061f565b6040516101b59190611fe2565b60405180910390f35b3480156101ca57600080fd5b506101e560048036038101906101e09190612029565b610665565b005b3480156101f357600080fd5b5061020e6004803603810190610209919061219e565b61077d565b60405161021b9190611e68565b60405180910390f35b34801561023057600080fd5b5061024b600480360381019061024691906121e7565b6107b2565b005b34801561025957600080fd5b50610274600480360381019061026f91906121e7565b610812565b005b610290600480360381019061028b919061223a565b610832565b60405161029d91906122a5565b60405180910390f35b3480156102b257600080fd5b506102cd60048036038101906102c89190611f74565b610949565b6040516102da9190611fe2565b60405180910390f35b3480156102ef57600080fd5b5061030a600480360381019061030591906122c0565b6109fb565b60405161031791906122a5565b60405180910390f35b34801561032c57600080fd5b50610335610ab3565b005b34801561034357600080fd5b5061034c610ac7565b6040516103599190611fe2565b60405180910390f35b34801561036e57600080fd5b50610377610af1565b6040516103849190611f1c565b60405180910390f35b34801561039957600080fd5b506103b460048036038101906103af9190612319565b610b83565b005b3480156103c257600080fd5b506103dd60048036038101906103d891906123fa565b610b99565b005b3480156103eb57600080fd5b5061040660048036038101906104019190611f74565b610bfb565b6040516104139190611f1c565b60405180910390f35b34801561042857600080fd5b50610443600480360381019061043e919061223a565b610c0d565b005b34801561045157600080fd5b5061046c6004803603810190610467919061247d565b610c46565b6040516104799190611e68565b60405180910390f35b34801561048e57600080fd5b506104a960048036038101906104a491906122c0565b610cda565b005b60007f80ac58cd000000000000000000000000000000000000000000000000000000007bffffffffffffffffffffffffffffffffffffffffffffffffffffffff1916827bffffffffffffffffffffffffffffffffffffffffffffffffffffffff1916148061057657507f5b5e139f000000000000000000000000000000000000000000000000000000007bffffffffffffffffffffffffffffffffffffffffffffffffffffffff1916827bffffffffffffffffffffffffffffffffffffffffffffffffffffffff1916145b80610586575061058582610d5e565b5b9050919050565b60606000805461059c906124ec565b80601f01602080910402602001604051908101604052809291908181526020018280546105c8906124ec565b80156106155780601f106105ea57610100808354040283529160200191610615565b820191906000526020600020905b8154815290600101906020018083116105f857829003601f168201915b5050505050905090565b600061062a82610dc8565b6004600083815260200190815260200160002060009054906101000a900473ffffffffffffffffffffffffffffffffffffffff169050919050565b600061067082610949565b90508073ffffffffffffffffffffffffffffffffffffffff168373ffffffffffffffffffffffffffffffffffffffff1614156106e1576040517f08c379a00000000000000000000000000000000000000000000000000000000081526004016106d890612590565b60405180910390fd5b8073ffffffffffffffffffffffffffffffffffffffff16610700610e13565b73ffffffffffffffffffffffffffffffffffffffff16148061072f575061072e81610729610e13565b610c46565b5b61076e576040517f08c379a000000000000000000000000000000000000000000000000000000000815260040161076590612622565b60405180910390fd5b6107788383610e1b565b505050565b600060098260405161078f919061267e565b908152602001604051809103902060009054906101000a900460ff169050919050565b6107c36107bd610e13565b82610ed4565b610802576040517f08c379a00000000000000000000000000000000000000000000000000000000081526004016107f990612707565b60405180910390fd5b61080d838383610f69565b505050565b61082d83838360405180602001604052806000815250610b99565b505050565b6000600982604051610844919061267e565b908152602001604051809103902060009054906101000a900460ff16156108a0576040517f08c379a000000000000000000000000000000000000000000000000000000000815260040161089790612773565b60405180910390fd5b66b1a2bc2ec500003410156108ea576040517f08c379a00000000000000000000000000000000000000000000000000000000081526004016108e1906127df565b60405180910390fd5b60016009836040516108fc919061267e565b908152602001604051809103902060006101000a81548160ff02191690831515021790555061092b8383610c0d565b600161093760086111d0565b610941919061282e565b905092915050565b6000806002600084815260200190815260200160002060009054906101000a900473ffffffffffffffffffffffffffffffffffffffff169050600073ffffffffffffffffffffffffffffffffffffffff168173ffffffffffffffffffffffffffffffffffffffff1614156109f2576040517f08c379a00000000000000000000000000000000000000000000000000000000081526004016109e9906128ae565b60405180910390fd5b80915050919050565b60008073ffffffffffffffffffffffffffffffffffffffff168273ffffffffffffffffffffffffffffffffffffffff161415610a6c576040517f08c379a0000000000000000000000000000000000000000000000000000000008152600401610a6390612940565b60405180910390fd5b600360008373ffffffffffffffffffffffffffffffffffffffff1673ffffffffffffffffffffffffffffffffffffffff168152602001908152602001600020549050919050565b610abb6111de565b610ac5600061125c565b565b6000600760009054906101000a900473ffffffffffffffffffffffffffffffffffffffff16905090565b606060018054610b00906124ec565b80601f0160208091040260200160405190810160405280929190818152602001828054610b2c906124ec565b8015610b795780601f10610b4e57610100808354040283529160200191610b79565b820191906000526020600020905b815481529060010190602001808311610b5c57829003601f168201915b5050505050905090565b610b95610b8e610e13565b8383611322565b5050565b610baa610ba4610e13565b83610ed4565b610be9576040517f08c379a0000000000000000000000000000000000000000000000000000000008152600401610be090612707565b60405180910390fd5b610bf58484848461148f565b50505050565b6060610c06826114eb565b9050919050565b610c156111de565b6000610c2160086111d0565b9050610c2d60086115fe565b610c378382611614565b610c418183611632565b505050565b6000600560008473ffffffffffffffffffffffffffffffffffffffff1673ffffffffffffffffffffffffffffffffffffffff16815260200190815260200160002060008373ffffffffffffffffffffffffffffffffffffffff1673ffffffffffffffffffffffffffffffffffffffff16815260200190815260200160002060009054906101000a900460ff16905092915050565b610ce26111de565b600073ffffffffffffffffffffffffffffffffffffffff168173ffffffffffffffffffffffffffffffffffffffff161415610d52576040517f08c379a0000000000000000000000000000000000000000000000000000000008152600401610d49906129d2565b60405180910390fd5b610d5b8161125c565b50565b60007f01ffc9a7000000000000000000000000000000000000000000000000000000007bffffffffffffffffffffffffffffffffffffffffffffffffffffffff1916827bffffffffffffffffffffffffffffffffffffffffffffffffffffffff1916149050919050565b610dd1816116a6565b610e10576040517f08c379a0000000000000000000000000000000000000000000000000000000008152600401610e07906128ae565b60405180910390fd5b50565b600033905090565b816004600083815260200190815260200160002060006101000a81548173ffffffffffffffffffffffffffffffffffffffff021916908373ffffffffffffffffffffffffffffffffffffffff160217905550808273ffffffffffffffffffffffffffffffffffffffff16610e8e83610949565b73ffffffffffffffffffffffffffffffffffffffff167f8c5be1e5ebec7d5bd14f71427d1e84f3dd0314c0f7b2291e5b200ac8c7c3b92560405160405180910390a45050565b600080610ee083610949565b90508073ffffffffffffffffffffffffffffffffffffffff168473ffffffffffffffffffffffffffffffffffffffff161480610f225750610f218185610c46565b5b80610f6057508373ffffffffffffffffffffffffffffffffffffffff16610f488461061f565b73ffffffffffffffffffffffffffffffffffffffff16145b91505092915050565b8273ffffffffffffffffffffffffffffffffffffffff16610f8982610949565b73ffffffffffffffffffffffffffffffffffffffff1614610fdf576040517f08c379a0000000000000000000000000000000000000000000000000000000008152600401610fd690612a64565b60405180910390fd5b600073ffffffffffffffffffffffffffffffffffffffff168273ffffffffffffffffffffffffffffffffffffffff16141561104f576040517f08c379a000000000000000000000000000000000000000000000000000000000815260040161104690612af6565b60405180910390fd5b61105a838383611712565b611065600082610e1b565b6001600360008573ffffffffffffffffffffffffffffffffffffffff1673ffffffffffffffffffffffffffffffffffffffff16815260200190815260200160002060008282546110b5919061282e565b925050819055506001600360008473ffffffffffffffffffffffffffffffffffffffff1673ffffffffffffffffffffffffffffffffffffffff168152602001908152602001600020600082825461110c9190612b16565b92505081905550816002600083815260200190815260200160002060006101000a81548173ffffffffffffffffffffffffffffffffffffffff021916908373ffffffffffffffffffffffffffffffffffffffff160217905550808273ffffffffffffffffffffffffffffffffffffffff168473ffffffffffffffffffffffffffffffffffffffff167fddf252ad1be2c89b69c2b068fc378daa952ba7f163c4a11628f55a4df523b3ef60405160405180910390a46111cb838383611717565b505050565b600081600001549050919050565b6111e6610e13565b73ffffffffffffffffffffffffffffffffffffffff16611204610ac7565b73ffffffffffffffffffffffffffffffffffffffff161461125a576040517f08c379a000000000000000000000000000000000000000000000000000000000815260040161125190612bb8565b60405180910390fd5b565b6000600760009054906101000a900473ffffffffffffffffffffffffffffffffffffffff16905081600760006101000a81548173ffffffffffffffffffffffffffffffffffffffff021916908373ffffffffffffffffffffffffffffffffffffffff1602179055508173ffffffffffffffffffffffffffffffffffffffff168173ffffffffffffffffffffffffffffffffffffffff167f8be0079c531659141344cd1fd0a4f28419497f9722a3daafe3b4186f6b6457e060405160405180910390a35050565b8173ffffffffffffffffffffffffffffffffffffffff168373ffffffffffffffffffffffffffffffffffffffff161415611391576040517f08c379a000000000000000000000000000000000000000000000000000000000815260040161138890612c24565b60405180910390fd5b80600560008573ffffffffffffffffffffffffffffffffffffffff1673ffffffffffffffffffffffffffffffffffffffff16815260200190815260200160002060008473ffffffffffffffffffffffffffffffffffffffff1673ffffffffffffffffffffffffffffffffffffffff16815260200190815260200160002060006101000a81548160ff0219169083151502179055508173ffffffffffffffffffffffffffffffffffffffff168373ffffffffffffffffffffffffffffffffffffffff167f17307eab39ab6107e8899845ad3d59bd9653f200f220920489ca2b5937696c31836040516114829190611e68565b60405180910390a3505050565b61149a848484610f69565b6114a68484848461171c565b6114e5576040517f08c379a00000000000000000000000000000000000000000000000000000000081526004016114dc90612cb6565b60405180910390fd5b50505050565b60606114f682610dc8565b6000600660008481526020019081526020016000208054611516906124ec565b80601f0160208091040260200160405190810160405280929190818152602001828054611542906124ec565b801561158f5780601f106115645761010080835404028352916020019161158f565b820191906000526020600020905b81548152906001019060200180831161157257829003601f168201915b5050505050905060006115a06118b3565b90506000815114156115b65781925050506115f9565b6000825111156115eb5780826040516020016115d3929190612cd6565b604051602081830303815290604052925050506115f9565b6115f4846118f0565b925050505b919050565b6001816000016000828254019250508190555050565b61162e828260405180602001604052806000815250611958565b5050565b61163b826116a6565b61167a576040517f08c379a000000000000000000000000000000000000000000000000000000000815260040161167190612d6c565b60405180910390fd5b806006600084815260200190815260200160002090805190602001906116a1929190611d11565b505050565b60008073ffffffffffffffffffffffffffffffffffffffff166002600084815260200190815260200160002060009054906101000a900473ffffffffffffffffffffffffffffffffffffffff1673ffffffffffffffffffffffffffffffffffffffff1614159050919050565b505050565b505050565b600061173d8473ffffffffffffffffffffffffffffffffffffffff166119b3565b156118a6578373ffffffffffffffffffffffffffffffffffffffff1663150b7a02611766610e13565b8786866040518563ffffffff1660e01b81526004016117889493929190612de1565b602060405180830381600087803b1580156117a257600080fd5b505af19250505080156117d357506040513d601f19601f820116820180604052508101906117d09190612e42565b60015b611856573d8060008114611803576040519150601f19603f3d011682016040523d82523d6000602084013e611808565b606091505b5060008151141561184e576040517f08c379a000000000000000000000000000000000000000000000000000000000815260040161184590612cb6565b60405180910390fd5b805181602001fd5b63150b7a0260e01b7bffffffffffffffffffffffffffffffffffffffffffffffffffffffff1916817bffffffffffffffffffffffffffffffffffffffffffffffffffffffff1916149150506118ab565b600190505b949350505050565b60606040518060400160405280600781526020017f697066733a2f2f00000000000000000000000000000000000000000000000000815250905090565b60606118fb82610dc8565b60006119056118b3565b905060008151116119255760405180602001604052806000815250611950565b8061192f846119d6565b604051602001611940929190612cd6565b6040516020818303038152906040525b915050919050565b6119628383611b37565b61196f600084848461171c565b6119ae576040517f08c379a00000000000000000000000000000000000000000000000000000000081526004016119a590612cb6565b60405180910390fd5b505050565b6000808273ffffffffffffffffffffffffffffffffffffffff163b119050919050565b60606000821415611a1e576040518060400160405280600181526020017f30000000000000000000000000000000000000000000000000000000000000008152509050611b32565b600082905060005b60008214611a50578080611a3990612e6f565b915050600a82611a499190612ee7565b9150611a26565b60008167ffffffffffffffff811115611a6c57611a6b612073565b5b6040519080825280601f01601f191660200182016040528015611a9e5781602001600182028036833780820191505090505b5090505b60008514611b2b57600182611ab7919061282e565b9150600a85611ac69190612f18565b6030611ad29190612b16565b60f81b818381518110611ae857611ae7612f49565b5b60200101907effffffffffffffffffffffffffffffffffffffffffffffffffffffffffffff1916908160001a905350600a85611b249190612ee7565b9450611aa2565b8093505050505b919050565b600073ffffffffffffffffffffffffffffffffffffffff168273ffffffffffffffffffffffffffffffffffffffff161415611ba7576040517f08c379a0000000000000000000000000000000000000000000000000000000008152600401611b9e90612fc4565b60405180910390fd5b611bb0816116a6565b15611bf0576040517f08c379a0000000000000000000000000000000000000000000000000000000008152600401611be790613030565b60405180910390fd5b611bfc60008383611712565b6001600360008473ffffffffffffffffffffffffffffffffffffffff1673ffffffffffffffffffffffffffffffffffffffff1681526020019081526020016000206000828254611c4c9190612b16565b92505081905550816002600083815260200190815260200160002060006101000a81548173ffffffffffffffffffffffffffffffffffffffff021916908373ffffffffffffffffffffffffffffffffffffffff160217905550808273ffffffffffffffffffffffffffffffffffffffff16600073ffffffffffffffffffffffffffffffffffffffff167fddf252ad1be2c89b69c2b068fc378daa952ba7f163c4a11628f55a4df523b3ef60405160405180910390a4611d0d60008383611717565b5050565b828054611d1d906124ec565b90600052602060002090601f016020900481019282611d3f5760008555611d86565b82601f10611d5857805160ff1916838001178555611d86565b82800160010185558215611d86579182015b82811115611d85578251825591602001919060010190611d6a565b5b509050611d939190611d97565b5090565b5b80821115611db0576000816000905550600101611d98565b5090565b6000604051905090565b600080fd5b600080fd5b60007fffffffff0000000000000000000000000000000000000000000000000000000082169050919050565b611dfd81611dc8565b8114611e0857600080fd5b50565b600081359050611e1a81611df4565b92915050565b600060208284031215611e3657611e35611dbe565b5b6000611e4484828501611e0b565b91505092915050565b60008115159050919050565b611e6281611e4d565b82525050565b6000602082019050611e7d6000830184611e59565b92915050565b600081519050919050565b600082825260208201905092915050565b60005b83811015611ebd578082015181840152602081019050611ea2565b83811115611ecc576000848401525b50505050565b6000601f19601f8301169050919050565b6000611eee82611e83565b611ef88185611e8e565b9350611f08818560208601611e9f565b611f1181611ed2565b840191505092915050565b60006020820190508181036000830152611f368184611ee3565b905092915050565b6000819050919050565b611f5181611f3e565b8114611f5c57600080fd5b50565b600081359050611f6e81611f48565b92915050565b600060208284031215611f8a57611f89611dbe565b5b6000611f9884828501611f5f565b91505092915050565b600073ffffffffffffffffffffffffffffffffffffffff82169050919050565b6000611fcc82611fa1565b9050919050565b611fdc81611fc1565b82525050565b6000602082019050611ff76000830184611fd3565b92915050565b61200681611fc1565b811461201157600080fd5b50565b60008135905061202381611ffd565b92915050565b600080604083850312156120405761203f611dbe565b5b600061204e85828601612014565b925050602061205f85828601611f5f565b9150509250929050565b600080fd5b600080fd5b7f4e487b7100000000000000000000000000000000000000000000000000000000600052604160045260246000fd5b6120ab82611ed2565b810181811067ffffffffffffffff821117156120ca576120c9612073565b5b80604052505050565b60006120dd611db4565b90506120e982826120a2565b919050565b600067ffffffffffffffff82111561210957612108612073565b5b61211282611ed2565b9050602081019050919050565b82818337600083830152505050565b600061214161213c846120ee565b6120d3565b90508281526020810184848401111561215d5761215c61206e565b5b61216884828561211f565b509392505050565b600082601f83011261218557612184612069565b5b813561219584826020860161212e565b91505092915050565b6000602082840312156121b4576121b3611dbe565b5b600082013567ffffffffffffffff8111156121d2576121d1611dc3565b5b6121de84828501612170565b91505092915050565b600080600060608486031215612200576121ff611dbe565b5b600061220e86828701612014565b935050602061221f86828701612014565b925050604061223086828701611f5f565b9150509250925092565b6000806040838503121561225157612250611dbe565b5b600061225f85828601612014565b925050602083013567ffffffffffffffff8111156122805761227f611dc3565b5b61228c85828601612170565b9150509250929050565b61229f81611f3e565b82525050565b60006020820190506122ba6000830184612296565b92915050565b6000602082840312156122d6576122d5611dbe565b5b60006122e484828501612014565b91505092915050565b6122f681611e4d565b811461230157600080fd5b50565b600081359050612313816122ed565b92915050565b600080604083850312156123305761232f611dbe565b5b600061233e85828601612014565b925050602061234f85828601612304565b9150509250929050565b600067ffffffffffffffff82111561237457612373612073565b5b61237d82611ed2565b9050602081019050919050565b600061239d61239884612359565b6120d3565b9050828152602081018484840111156123b9576123b861206e565b5b6123c484828561211f565b509392505050565b600082601f8301126123e1576123e0612069565b5b81356123f184826020860161238a565b91505092915050565b6000806000806080858703121561241457612413611dbe565b5b600061242287828801612014565b945050602061243387828801612014565b935050604061244487828801611f5f565b925050606085013567ffffffffffffffff81111561246557612464611dc3565b5b612471878288016123cc565b91505092959194509250565b6000806040838503121561249457612493611dbe565b5b60006124a285828601612014565b92505060206124b385828601612014565b9150509250929050565b7f4e487b7100000000000000000000000000000000000000000000000000000000600052602260045260246000fd5b6000600282049050600182168061250457607f821691505b60208210811415612518576125176124bd565b5b50919050565b7f4552433732313a20617070726f76616c20746f2063757272656e74206f776e6560008201527f7200000000000000000000000000000000000000000000000000000000000000602082015250565b600061257a602183611e8e565b91506125858261251e565b604082019050919050565b600060208201905081810360008301526125a98161256d565b9050919050565b7f4552433732313a20617070726f76652063616c6c6572206973206e6f7420746f60008201527f6b656e206f776e6572206e6f7220617070726f76656420666f7220616c6c0000602082015250565b600061260c603e83611e8e565b9150612617826125b0565b604082019050919050565b6000602082019050818103600083015261263b816125ff565b9050919050565b600081905092915050565b600061265882611e83565b6126628185612642565b9350612672818560208601611e9f565b80840191505092915050565b600061268a828461264d565b915081905092915050565b7f4552433732313a2063616c6c6572206973206e6f7420746f6b656e206f776e6560008201527f72206e6f7220617070726f766564000000000000000000000000000000000000602082015250565b60006126f1602e83611e8e565b91506126fc82612695565b604082019050919050565b60006020820190508181036000830152612720816126e4565b9050919050565b7f4c6963656e63652068617320616c7265616479206265656e206d696e74656400600082015250565b600061275d601f83611e8e565b915061276882612727565b602082019050919050565b6000602082019050818103600083015261278c81612750565b9050919050565b7f5061792075700000000000000000000000000000000000000000000000000000600082015250565b60006127c9600683611e8e565b91506127d482612793565b602082019050919050565b600060208201905081810360008301526127f8816127bc565b9050919050565b7f4e487b7100000000000000000000000000000000000000000000000000000000600052601160045260246000fd5b600061283982611f3e565b915061284483611f3e565b925082821015612857576128566127ff565b5b828203905092915050565b7f4552433732313a20696e76616c696420746f6b656e2049440000000000000000600082015250565b6000612898601883611e8e565b91506128a382612862565b602082019050919050565b600060208201905081810360008301526128c78161288b565b9050919050565b7f4552433732313a2061646472657373207a65726f206973206e6f74206120766160008201527f6c6964206f776e65720000000000000000000000000000000000000000000000602082015250565b600061292a602983611e8e565b9150612935826128ce565b604082019050919050565b600060208201905081810360008301526129598161291d565b9050919050565b7f4f776e61626c653a206e6577206f776e657220697320746865207a65726f206160008201527f6464726573730000000000000000000000000000000000000000000000000000602082015250565b60006129bc602683611e8e565b91506129c782612960565b604082019050919050565b600060208201905081810360008301526129eb816129af565b9050919050565b7f4552433732313a207472616e736665722066726f6d20696e636f72726563742060008201527f6f776e6572000000000000000000000000000000000000000000000000000000602082015250565b6000612a4e602583611e8e565b9150612a59826129f2565b604082019050919050565b60006020820190508181036000830152612a7d81612a41565b9050919050565b7f4552433732313a207472616e7366657220746f20746865207a65726f2061646460008201527f7265737300000000000000000000000000000000000000000000000000000000602082015250565b6000612ae0602483611e8e565b9150612aeb82612a84565b604082019050919050565b60006020820190508181036000830152612b0f81612ad3565b9050919050565b6000612b2182611f3e565b9150612b2c83611f3e565b9250827fffffffffffffffffffffffffffffffffffffffffffffffffffffffffffffffff03821115612b6157612b606127ff565b5b828201905092915050565b7f4f776e61626c653a2063616c6c6572206973206e6f7420746865206f776e6572600082015250565b6000612ba2602083611e8e565b9150612bad82612b6c565b602082019050919050565b60006020820190508181036000830152612bd181612b95565b9050919050565b7f4552433732313a20617070726f766520746f2063616c6c657200000000000000600082015250565b6000612c0e601983611e8e565b9150612c1982612bd8565b602082019050919050565b60006020820190508181036000830152612c3d81612c01565b9050919050565b7f4552433732313a207472616e7366657220746f206e6f6e20455243373231526560008201527f63656976657220696d706c656d656e7465720000000000000000000000000000602082015250565b6000612ca0603283611e8e565b9150612cab82612c44565b604082019050919050565b60006020820190508181036000830152612ccf81612c93565b9050919050565b6000612ce2828561264d565b9150612cee828461264d565b91508190509392505050565b7f45524337323155524953746f726167653a2055524920736574206f66206e6f6e60008201527f6578697374656e7420746f6b656e000000000000000000000000000000000000602082015250565b6000612d56602e83611e8e565b9150612d6182612cfa565b604082019050919050565b60006020820190508181036000830152612d8581612d49565b9050919050565b600081519050919050565b600082825260208201905092915050565b6000612db382612d8c565b612dbd8185612d97565b9350612dcd818560208601611e9f565b612dd681611ed2565b840191505092915050565b6000608082019050612df66000830187611fd3565b612e036020830186611fd3565b612e106040830185612296565b8181036060830152612e228184612da8565b905095945050505050565b600081519050612e3c81611df4565b92915050565b600060208284031215612e5857612e57611dbe565b5b6000612e6684828501612e2d565b91505092915050565b6000612e7a82611f3e565b91507fffffffffffffffffffffffffffffffffffffffffffffffffffffffffffffffff821415612ead57612eac6127ff565b5b600182019050919050565b7f4e487b7100000000000000000000000000000000000000000000000000000000600052601260045260246000fd5b6000612ef282611f3e565b9150612efd83611f3e565b925082612f0d57612f0c612eb8565b5b828204905092915050565b6000612f2382611f3e565b9150612f2e83611f3e565b925082612f3e57612f3d612eb8565b5b828206905092915050565b7f4e487b7100000000000000000000000000000000000000000000000000000000600052603260045260246000fd5b7f4552433732313a206d696e7420746f20746865207a65726f2061646472657373600082015250565b6000612fae602083611e8e565b9150612fb982612f78565b602082019050919050565b60006020820190508181036000830152612fdd81612fa1565b9050919050565b7f4552433732313a20746f6b656e20616c7265616479206d696e74656400000000600082015250565b600061301a601c83611e8e565b915061302582612fe4565b602082019050919050565b600060208201905081810360008301526130498161300d565b905091905056fea264697066735822122044486748c57f84976f71c0ea8897ff1811ac19bdcf54544dd3ed11a8f230894964736f6c63430008090033",
  "linkReferences": {},
  "deployedLinkReferences": {}
}