{
  "contractName": "License",
  "abi": [
    {
      "inputs": [],
      "stateMutability": "nonpayable",
      "type": "constructor"
    },
    {
      "anonymous": false,
      "inputs": [
        {
          "indexed": true,
          "internalType": "address",
          "name": "owner",
          "type": "address"
        },
        {
          "indexed": true,
          "internalType": "address",
          "name": "approved",
          "type": "address"
        },
        {
          "indexed": true,
          "internalType": "uint256",
          "name": "tokenId",
          "type": "uint256"
        }
      ],
      "name": "Approval",
      "type": "event"
    },
    {
      "anonymous": false,
      "inputs": [
        {
          "indexed": true,
          "internalType": "address",
          "name": "owner",
          "type": "address"
        },
        {
          "indexed": true,
          "internalType": "address",
          "name": "operator",
          "type": "address"
        },
        {
          "indexed": false,
          "internalType": "bool",
          "name": "approved",
          "type": "bool"
        }
      ],
      "name": "ApprovalForAll",
      "type": "event"
    },
    {
      "anonymous": false,
      "inputs": [
        {
          "indexed": true,
          "internalType": "address",
          "name": "previousOwner",
          "type": "address"
        },
        {
          "indexed": true,
          "internalType": "address",
          "name": "newOwner",
          "type": "address"
        }
      ],
      "name": "OwnershipTransferred",
      "type": "event"
    },
    {
      "anonymous": false,
      "inputs": [
        {
          "indexed": true,
          "internalType": "address",
          "name": "from",
          "type": "address"
        },
        {
          "indexed": true,
          "internalType": "address",
          "name": "to",
          "type": "address"
        },
        {
          "indexed": true,
          "internalType": "uint256",
          "name": "tokenId",
          "type": "uint256"
        }
      ],
      "name": "Transfer",
      "type": "event"
    },
    {
      "inputs": [
        {
          "internalType": "uint256",
          "name": "serial",
          "type": "uint256"
        }
      ],
      "name": "addSerial",
      "outputs": [],
      "stateMutability": "nonpayable",
      "type": "function"
    },
    {
      "inputs": [
        {
          "internalType": "string",
          "name": "name",
          "type": "string"
        },
        {
          "internalType": "address",
          "name": "_member",
          "type": "address"
        },
        {
          "internalType": "bool",
          "name": "isSellar",
          "type": "bool"
        }
      ],
      "name": "addUser",
      "outputs": [],
      "stateMutability": "nonpayable",
      "type": "function"
    },
    {
      "inputs": [
        {
          "internalType": "address",
          "name": "to",
          "type": "address"
        },
        {
          "internalType": "uint256",
          "name": "tokenId",
          "type": "uint256"
        }
      ],
      "name": "approve",
      "outputs": [],
      "stateMutability": "nonpayable",
      "type": "function"
    },
    {
      "inputs": [
        {
          "internalType": "address",
          "name": "owner",
          "type": "address"
        }
      ],
      "name": "balanceOf",
      "outputs": [
        {
          "internalType": "uint256",
          "name": "",
          "type": "uint256"
        }
      ],
      "stateMutability": "view",
      "type": "function",
      "constant": true
    },
    {
      "inputs": [
        {
          "internalType": "uint256",
          "name": "tokenId",
          "type": "uint256"
        }
      ],
      "name": "getApproved",
      "outputs": [
        {
          "internalType": "address",
          "name": "",
          "type": "address"
        }
      ],
      "stateMutability": "view",
      "type": "function",
      "constant": true
    },
    {
      "inputs": [],
      "name": "getBoughtLicenses",
      "outputs": [
        {
          "internalType": "uint256[]",
          "name": "",
          "type": "uint256[]"
        }
      ],
      "stateMutability": "view",
      "type": "function",
      "constant": true
    },
    {
      "inputs": [],
      "name": "getIssuedLicense",
      "outputs": [
        {
          "internalType": "uint256[]",
          "name": "",
          "type": "uint256[]"
        }
      ],
      "stateMutability": "view",
      "type": "function",
      "constant": true
    },
    {
      "inputs": [
        {
          "internalType": "address",
          "name": "owner",
          "type": "address"
        },
        {
          "internalType": "address",
          "name": "operator",
          "type": "address"
        }
      ],
      "name": "isApprovedForAll",
      "outputs": [
        {
          "internalType": "bool",
          "name": "",
          "type": "bool"
        }
      ],
      "stateMutability": "view",
      "type": "function",
      "constant": true
    },
    {
      "inputs": [],
      "name": "kickSellar",
      "outputs": [],
      "stateMutability": "nonpayable",
      "type": "function"
    },
    {
      "inputs": [],
      "name": "makeSellar",
      "outputs": [],
      "stateMutability": "nonpayable",
      "type": "function"
    },
    {
      "inputs": [],
      "name": "name",
      "outputs": [
        {
          "internalType": "string",
          "name": "",
          "type": "string"
        }
      ],
      "stateMutability": "view",
      "type": "function",
      "constant": true
    },
    {
      "inputs": [],
      "name": "owner",
      "outputs": [
        {
          "internalType": "address",
          "name": "",
          "type": "address"
        }
      ],
      "stateMutability": "view",
      "type": "function",
      "constant": true
    },
    {
      "inputs": [
        {
          "internalType": "uint256",
          "name": "tokenId",
          "type": "uint256"
        }
      ],
      "name": "ownerOf",
      "outputs": [
        {
          "internalType": "address",
          "name": "",
          "type": "address"
        }
      ],
      "stateMutability": "view",
      "type": "function",
      "constant": true
    },
    {
      "inputs": [],
      "name": "renounceOwnership",
      "outputs": [],
      "stateMutability": "nonpayable",
      "type": "function"
    },
    {
      "inputs": [
        {
          "internalType": "address",
          "name": "from",
          "type": "address"
        },
        {
          "internalType": "address",
          "name": "to",
          "type": "address"
        },
        {
          "internalType": "uint256",
          "name": "tokenId",
          "type": "uint256"
        }
      ],
      "name": "safeTransferFrom",
      "outputs": [],
      "stateMutability": "nonpayable",
      "type": "function"
    },
    {
      "inputs": [
        {
          "internalType": "address",
          "name": "from",
          "type": "address"
        },
        {
          "internalType": "address",
          "name": "to",
          "type": "address"
        },
        {
          "internalType": "uint256",
          "name": "tokenId",
          "type": "uint256"
        },
        {
          "internalType": "bytes",
          "name": "data",
          "type": "bytes"
        }
      ],
      "name": "safeTransferFrom",
      "outputs": [],
      "stateMutability": "nonpayable",
      "type": "function"
    },
    {
      "inputs": [
        {
          "internalType": "address",
          "name": "operator",
          "type": "address"
        },
        {
          "internalType": "bool",
          "name": "approved",
          "type": "bool"
        }
      ],
      "name": "setApprovalForAll",
      "outputs": [],
      "stateMutability": "nonpayable",
      "type": "function"
    },
    {
      "inputs": [
        {
          "internalType": "bytes4",
          "name": "interfaceId",
          "type": "bytes4"
        }
      ],
      "name": "supportsInterface",
      "outputs": [
        {
          "internalType": "bool",
          "name": "",
          "type": "bool"
        }
      ],
      "stateMutability": "view",
      "type": "function",
      "constant": true
    },
    {
      "inputs": [],
      "name": "symbol",
      "outputs": [
        {
          "internalType": "string",
          "name": "",
          "type": "string"
        }
      ],
      "stateMutability": "view",
      "type": "function",
      "constant": true
    },
    {
      "inputs": [
        {
          "internalType": "address",
          "name": "from",
          "type": "address"
        },
        {
          "internalType": "address",
          "name": "to",
          "type": "address"
        },
        {
          "internalType": "uint256",
          "name": "tokenId",
          "type": "uint256"
        }
      ],
      "name": "transferFrom",
      "outputs": [],
      "stateMutability": "nonpayable",
      "type": "function"
    },
    {
      "inputs": [
        {
          "internalType": "address",
          "name": "newOwner",
          "type": "address"
        }
      ],
      "name": "transferOwnership",
      "outputs": [],
      "stateMutability": "nonpayable",
      "type": "function"
    },
    {
      "inputs": [
        {
          "internalType": "string",
          "name": "name",
          "type": "string"
        },
        {
          "internalType": "address",
          "name": "to",
          "type": "address"
        },
        {
          "internalType": "uint16[]",
          "name": "seeds",
          "type": "uint16[]"
        },
        {
          "internalType": "string",
          "name": "uri",
          "type": "string"
        },
        {
          "internalType": "uint24",
          "name": "day",
          "type": "uint24"
        }
      ],
      "name": "mint",
      "outputs": [],
      "stateMutability": "nonpayable",
      "type": "function"
    },
    {
      "inputs": [
        {
          "internalType": "uint16[]",
          "name": "parts",
          "type": "uint16[]"
        }
      ],
      "name": "getTokenURI",
      "outputs": [
        {
          "internalType": "string",
          "name": "",
          "type": "string"
        }
      ],
      "stateMutability": "view",
      "type": "function",
      "constant": true
    },
    {
      "inputs": [
        {
          "internalType": "uint256",
          "name": "tokenId",
          "type": "uint256"
        }
      ],
      "name": "tokenURI",
      "outputs": [
        {
          "internalType": "string",
          "name": "",
          "type": "string"
        }
      ],
      "stateMutability": "view",
      "type": "function",
      "constant": true
    }
  ],
  "bytecode": "0x6080604052600067ffffffffffffffff81111562000022576200002162000494565b5b604051908082528060200260200182016040528015620000515781602001602082028036833780820191505090505b50600d908051906020019062000069929190620003e6565b506040518060a00160405280604051806020016040528060008152508152602001600073ffffffffffffffffffffffffffffffffffffffff168152602001600d8054806020026020016040519081016040528092919081815260200182805480156200012b57602002820191906000526020600020905b8160009054906101000a900473ffffffffffffffffffffffffffffffffffffffff1673ffffffffffffffffffffffffffffffffffffffff1681526020019060010190808311620000e0575b50505050508152602001600067ffffffffffffffff168152602001600062ffffff16815250600e60008201518160000190816200016991906200070e565b5060208201518160010160006101000a81548173ffffffffffffffffffffffffffffffffffffffff021916908373ffffffffffffffffffffffffffffffffffffffff1602179055506040820151816002019080519060200190620001cf929190620003e6565b5060608201518160030160006101000a81548167ffffffffffffffff021916908367ffffffffffffffff16021790555060808201518160030160086101000a81548162ffffff021916908362ffffff16021790555050503480156200023357600080fd5b506040518060400160405280600781526020017f4c6963656e7365000000000000000000000000000000000000000000000000008152506040518060400160405280600781526020017f4c6963656e7365000000000000000000000000000000000000000000000000008152508160009081620002b191906200070e565b508060019081620002c391906200070e565b505050620002e6620002da6200031860201b60201c565b6200032060201b60201c565b6001600a600080815260200190815260200160002060006101000a81548160ff021916908315150217905550620007f5565b600033905090565b6000600760009054906101000a900473ffffffffffffffffffffffffffffffffffffffff16905081600760006101000a81548173ffffffffffffffffffffffffffffffffffffffff021916908373ffffffffffffffffffffffffffffffffffffffff1602179055508173ffffffffffffffffffffffffffffffffffffffff168173ffffffffffffffffffffffffffffffffffffffff167f8be0079c531659141344cd1fd0a4f28419497f9722a3daafe3b4186f6b6457e060405160405180910390a35050565b82805482825590600052602060002090810192821562000462579160200282015b82811115620004615782518260006101000a81548173ffffffffffffffffffffffffffffffffffffffff021916908373ffffffffffffffffffffffffffffffffffffffff1602179055509160200191906001019062000407565b5b50905062000471919062000475565b5090565b5b808211156200049057600081600090555060010162000476565b5090565b7f4e487b7100000000000000000000000000000000000000000000000000000000600052604160045260246000fd5b600081519050919050565b7f4e487b7100000000000000000000000000000000000000000000000000000000600052602260045260246000fd5b600060028204905060018216806200051657607f821691505b6020821081036200052c576200052b620004ce565b5b50919050565b60008190508160005260206000209050919050565b60006020601f8301049050919050565b600082821b905092915050565b600060088302620005967fffffffffffffffffffffffffffffffffffffffffffffffffffffffffffffffff8262000557565b620005a2868362000557565b95508019841693508086168417925050509392505050565b6000819050919050565b6000819050919050565b6000620005ef620005e9620005e384620005ba565b620005c4565b620005ba565b9050919050565b6000819050919050565b6200060b83620005ce565b620006236200061a82620005f6565b84845462000564565b825550505050565b600090565b6200063a6200062b565b6200064781848462000600565b505050565b5b818110156200066f576200066360008262000630565b6001810190506200064d565b5050565b601f821115620006be57620006888162000532565b620006938462000547565b81016020851015620006a3578190505b620006bb620006b28562000547565b8301826200064c565b50505b505050565b600082821c905092915050565b6000620006e360001984600802620006c3565b1980831691505092915050565b6000620006fe8383620006d0565b9150826002028217905092915050565b6200071982620004c3565b67ffffffffffffffff81111562000735576200073462000494565b5b620007418254620004fd565b6200074e82828562000673565b600060209050601f83116001811462000786576000841562000771578287015190505b6200077d8582620006f0565b865550620007ed565b601f198416620007968662000532565b60005b82811015620007c05784890151825560018201915060208501945060208101905062000799565b86831015620007e05784890151620007dc601f891682620006d0565b8355505b6001600288020188555050505b505050505050565b61498f80620008056000396000f3fe608060405234801561001057600080fd5b50600436106101585760003560e01c80638da5cb5b116100c3578063d8e753b11161007c578063d8e753b11461039f578063dd49dbd7146103bb578063e7d9c3b0146103c5578063e985e9c5146103f5578063f2fde38b14610425578063fd43d2e01461044157610158565b80638da5cb5b146102df57806395d89b41146102fd578063a22cb4651461031b578063b69c85d614610337578063b88d4fde14610353578063c87b56dd1461036f57610158565b806323b872dd1161011557806323b872dd1461023357806342842e0e1461024f5780636352211e1461026b57806370a082311461029b578063715018a6146102cb57806385a1556e146102d557610158565b806301ffc9a71461015d578063045b94551461018d57806306fdde03146101ab578063081812fc146101c9578063095ea7b3146101f957806320a71c7b14610215575b600080fd5b61017760048036038101906101729190612e8c565b61045d565b6040516101849190612ed4565b60405180910390f35b61019561053f565b6040516101a29190612fb7565b60405180910390f35b6101b36105d7565b6040516101c09190613072565b60405180910390f35b6101e360048036038101906101de91906130c0565b610669565b6040516101f0919061312e565b60405180910390f35b610213600480360381019061020e9190613175565b6106af565b005b61021d6107c6565b60405161022a9190612fb7565b60405180910390f35b61024d600480360381019061024891906131b5565b6108ef565b005b610269600480360381019061026491906131b5565b61094f565b005b610285600480360381019061028091906130c0565b61096f565b604051610292919061312e565b60405180910390f35b6102b560048036038101906102b09190613208565b610a20565b6040516102c29190613244565b60405180910390f35b6102d3610ad7565b005b6102dd610aeb565b005b6102e7610b48565b6040516102f4919061312e565b60405180910390f35b610305610b72565b6040516103129190613072565b60405180910390f35b6103356004803603810190610330919061328b565b610c04565b005b610351600480360381019061034c91906130c0565b610c1a565b005b61036d60048036038101906103689190613400565b610dbe565b005b610389600480360381019061038491906130c0565b610e20565b6040516103969190613072565b60405180910390f35b6103b960048036038101906103b49190613661565b611050565b005b6103c36113f8565b005b6103df60048036038101906103da9190613730565b611455565b6040516103ec9190613072565b60405180910390f35b61040f600480360381019061040a9190613779565b61146f565b60405161041c9190612ed4565b60405180910390f35b61043f600480360381019061043a9190613208565b611503565b005b61045b600480360381019061045691906137b9565b611586565b005b60007f80ac58cd000000000000000000000000000000000000000000000000000000007bffffffffffffffffffffffffffffffffffffffffffffffffffffffff1916827bffffffffffffffffffffffffffffffffffffffffffffffffffffffff1916148061052857507f5b5e139f000000000000000000000000000000000000000000000000000000007bffffffffffffffffffffffffffffffffffffffffffffffffffffffff1916827bffffffffffffffffffffffffffffffffffffffffffffffffffffffff1916145b806105385750610537826117e1565b5b9050919050565b6060600b60003373ffffffffffffffffffffffffffffffffffffffff1673ffffffffffffffffffffffffffffffffffffffff1681526020019081526020016000206001018054806020026020016040519081016040528092919081815260200182805480156105cd57602002820191906000526020600020905b8154815260200190600101908083116105b9575b5050505050905090565b6060600080546105e690613857565b80601f016020809104026020016040519081016040528092919081815260200182805461061290613857565b801561065f5780601f106106345761010080835404028352916020019161065f565b820191906000526020600020905b81548152906001019060200180831161064257829003601f168201915b5050505050905090565b60006106748261184b565b6004600083815260200190815260200160002060009054906101000a900473ffffffffffffffffffffffffffffffffffffffff169050919050565b60006106ba8261096f565b90508073ffffffffffffffffffffffffffffffffffffffff168373ffffffffffffffffffffffffffffffffffffffff160361072a576040517f08c379a0000000000000000000000000000000000000000000000000000000008152600401610721906138fa565b60405180910390fd5b8073ffffffffffffffffffffffffffffffffffffffff16610749611896565b73ffffffffffffffffffffffffffffffffffffffff161480610778575061077781610772611896565b61146f565b5b6107b7576040517f08c379a00000000000000000000000000000000000000000000000000000000081526004016107ae9061398c565b60405180910390fd5b6107c1838361189e565b505050565b606033600b60008273ffffffffffffffffffffffffffffffffffffffff1673ffffffffffffffffffffffffffffffffffffffff16815260200190815260200160002060030160009054906101000a900460ff16610858576040517f08c379a000000000000000000000000000000000000000000000000000000000815260040161084f906139f8565b60405180910390fd5b600b60003373ffffffffffffffffffffffffffffffffffffffff1673ffffffffffffffffffffffffffffffffffffffff1681526020019081526020016000206002018054806020026020016040519081016040528092919081815260200182805480156108e457602002820191906000526020600020905b8154815260200190600101908083116108d0575b505050505091505090565b6109006108fa611896565b82611957565b61093f576040517f08c379a000000000000000000000000000000000000000000000000000000000815260040161093690613a8a565b60405180910390fd5b61094a8383836119ec565b505050565b61096a83838360405180602001604052806000815250610dbe565b505050565b6000806002600084815260200190815260200160002060009054906101000a900473ffffffffffffffffffffffffffffffffffffffff169050600073ffffffffffffffffffffffffffffffffffffffff168173ffffffffffffffffffffffffffffffffffffffff1603610a17576040517f08c379a0000000000000000000000000000000000000000000000000000000008152600401610a0e90613af6565b60405180910390fd5b80915050919050565b60008073ffffffffffffffffffffffffffffffffffffffff168273ffffffffffffffffffffffffffffffffffffffff1603610a90576040517f08c379a0000000000000000000000000000000000000000000000000000000008152600401610a8790613b88565b60405180910390fd5b600360008373ffffffffffffffffffffffffffffffffffffffff1673ffffffffffffffffffffffffffffffffffffffff168152602001908152602001600020549050919050565b610adf611c52565b610ae96000611cd0565b565b6000600b60003373ffffffffffffffffffffffffffffffffffffffff1673ffffffffffffffffffffffffffffffffffffffff16815260200190815260200160002060030160006101000a81548160ff021916908315150217905550565b6000600760009054906101000a900473ffffffffffffffffffffffffffffffffffffffff16905090565b606060018054610b8190613857565b80601f0160208091040260200160405190810160405280929190818152602001828054610bad90613857565b8015610bfa5780601f10610bcf57610100808354040283529160200191610bfa565b820191906000526020600020905b815481529060010190602001808311610bdd57829003601f168201915b5050505050905090565b610c16610c0f611896565b8383611d96565b5050565b600960003373ffffffffffffffffffffffffffffffffffffffff1673ffffffffffffffffffffffffffffffffffffffff16815260200190815260200160002060009054906101000a900460ff16610ca6576040517f08c379a0000000000000000000000000000000000000000000000000000000008152600401610c9d90613bf4565b60405180910390fd5b600a600082815260200190815260200160002060009054906101000a900460ff1615610d4d610d126040518060400160405280600781526020017f53657269616c2000000000000000000000000000000000000000000000000000815250610d0d85611f02565b6120d7565b6040518060400160405280600f81526020017f20616c726561647920696e2075736500000000000000000000000000000000008152506120d7565b90610d8e576040517f08c379a0000000000000000000000000000000000000000000000000000000008152600401610d859190613072565b60405180910390fd5b506001600a600083815260200190815260200160002060006101000a81548160ff02191690831515021790555050565b610dcf610dc9611896565b83611957565b610e0e576040517f08c379a0000000000000000000000000000000000000000000000000000000008152600401610e0590613a8a565b60405180910390fd5b610e1a84848484612103565b50505050565b6060600c600083815260200190815260200160002060010160009054906101000a900473ffffffffffffffffffffffffffffffffffffffff1673ffffffffffffffffffffffffffffffffffffffff163373ffffffffffffffffffffffffffffffffffffffff161480610f345750600c60008381526020019081526020016000206002016001600c600085815260200190815260200160002060020180549050610ec99190613c43565b81548110610eda57610ed9613c77565b5b9060005260206000200160009054906101000a900473ffffffffffffffffffffffffffffffffffffffff1673ffffffffffffffffffffffffffffffffffffffff163373ffffffffffffffffffffffffffffffffffffffff16145b610f73576040517f08c379a0000000000000000000000000000000000000000000000000000000008152600401610f6a90613d18565b60405180910390fd5b6000429050600c600084815260200190815260200160002060030160089054906101000a900462ffffff1662ffffff1662015180600c600086815260200190815260200160002060030160009054906101000a900467ffffffffffffffff1683610fdd9190613d4c565b610fe79190613daf565b67ffffffffffffffff161015611008576110008361215f565b91505061104b565b6000611049576040517f08c379a000000000000000000000000000000000000000000000000000000000815260040161104090613e2c565b60405180910390fd5b505b919050565b600960003373ffffffffffffffffffffffffffffffffffffffff1673ffffffffffffffffffffffffffffffffffffffff16815260200190815260200160002060009054906101000a900460ff166110dc576040517f08c379a00000000000000000000000000000000000000000000000000000000081526004016110d390613bf4565b60405180910390fd5b33600b60008273ffffffffffffffffffffffffffffffffffffffff1673ffffffffffffffffffffffffffffffffffffffff16815260200190815260200160002060030160009054906101000a900460ff1661116c576040517f08c379a0000000000000000000000000000000000000000000000000000000008152600401611163906139f8565b60405180910390fd5b60128360405161117c9190613e88565b908152602001604051809103902060009054906101000a900460ff16156111d8576040517f08c379a00000000000000000000000000000000000000000000000000000000081526004016111cf90613eeb565b60405180910390fd5b60006111e385612271565b90506111ee81610c1a565b6111f886826122dc565b61120281856122fa565b60016012856040516112149190613e88565b908152602001604051809103902060006101000a81548160ff0219169083151502179055506040518060a001604052808881526020013373ffffffffffffffffffffffffffffffffffffffff168152602001600d8054806020026020016040519081016040528092919081815260200182805480156112e857602002820191906000526020600020905b8160009054906101000a900473ffffffffffffffffffffffffffffffffffffffff1673ffffffffffffffffffffffffffffffffffffffff168152602001906001019080831161129e575b505050505081526020014267ffffffffffffffff1681526020018462ffffff16815250600c6000838152602001908152602001600020600082015181600001908161133391906140b7565b5060208201518160010160006101000a81548173ffffffffffffffffffffffffffffffffffffffff021916908373ffffffffffffffffffffffffffffffffffffffff1602179055506040820151816002019080519060200190611397929190612d2c565b5060608201518160030160006101000a81548167ffffffffffffffff021916908367ffffffffffffffff16021790555060808201518160030160086101000a81548162ffffff021916908362ffffff16021790555090505050505050505050565b6001600b60003373ffffffffffffffffffffffffffffffffffffffff1673ffffffffffffffffffffffffffffffffffffffff16815260200190815260200160002060030160006101000a81548160ff021916908315150217905550565b606061146861146383612271565b610e20565b9050919050565b6000600560008473ffffffffffffffffffffffffffffffffffffffff1673ffffffffffffffffffffffffffffffffffffffff16815260200190815260200160002060008373ffffffffffffffffffffffffffffffffffffffff1673ffffffffffffffffffffffffffffffffffffffff16815260200190815260200160002060009054906101000a900460ff16905092915050565b61150b611c52565b600073ffffffffffffffffffffffffffffffffffffffff168173ffffffffffffffffffffffffffffffffffffffff160361157a576040517f08c379a0000000000000000000000000000000000000000000000000000000008152600401611571906141fb565b60405180910390fd5b61158381611cd0565b50565b600960008373ffffffffffffffffffffffffffffffffffffffff1673ffffffffffffffffffffffffffffffffffffffff16815260200190815260200160002060009054906101000a900460ff1615611613576040517f08c379a000000000000000000000000000000000000000000000000000000000815260040161160a90614267565b60405180910390fd5b6001600960008473ffffffffffffffffffffffffffffffffffffffff1673ffffffffffffffffffffffffffffffffffffffff16815260200190815260200160002060006101000a81548160ff02191690831515021790555060008067ffffffffffffffff811115611687576116866132d5565b5b6040519080825280602002602001820160405280156116b55781602001602082028036833780820191505090505b50905060008067ffffffffffffffff8111156116d4576116d36132d5565b5b6040519080825280602002602001820160405280156117025781602001602082028036833780820191505090505b5090506040518060800160405280868152602001838152602001828152602001841515815250600b60008673ffffffffffffffffffffffffffffffffffffffff1673ffffffffffffffffffffffffffffffffffffffff168152602001908152602001600020600082015181600001908161177c91906140b7565b506020820151816001019080519060200190611799929190612db6565b5060408201518160020190805190602001906117b6929190612db6565b5060608201518160030160006101000a81548160ff0219169083151502179055509050505050505050565b60007f01ffc9a7000000000000000000000000000000000000000000000000000000007bffffffffffffffffffffffffffffffffffffffffffffffffffffffff1916827bffffffffffffffffffffffffffffffffffffffffffffffffffffffff1916149050919050565b61185481612367565b611893576040517f08c379a000000000000000000000000000000000000000000000000000000000815260040161188a90613af6565b60405180910390fd5b50565b600033905090565b816004600083815260200190815260200160002060006101000a81548173ffffffffffffffffffffffffffffffffffffffff021916908373ffffffffffffffffffffffffffffffffffffffff160217905550808273ffffffffffffffffffffffffffffffffffffffff166119118361096f565b73ffffffffffffffffffffffffffffffffffffffff167f8c5be1e5ebec7d5bd14f71427d1e84f3dd0314c0f7b2291e5b200ac8c7c3b92560405160405180910390a45050565b6000806119638361096f565b90508073ffffffffffffffffffffffffffffffffffffffff168473ffffffffffffffffffffffffffffffffffffffff1614806119a557506119a4818561146f565b5b806119e357508373ffffffffffffffffffffffffffffffffffffffff166119cb84610669565b73ffffffffffffffffffffffffffffffffffffffff16145b91505092915050565b8273ffffffffffffffffffffffffffffffffffffffff16611a0c8261096f565b73ffffffffffffffffffffffffffffffffffffffff1614611a62576040517f08c379a0000000000000000000000000000000000000000000000000000000008152600401611a59906142f9565b60405180910390fd5b600073ffffffffffffffffffffffffffffffffffffffff168273ffffffffffffffffffffffffffffffffffffffff1603611ad1576040517f08c379a0000000000000000000000000000000000000000000000000000000008152600401611ac89061438b565b60405180910390fd5b611adc8383836123d3565b611ae760008261189e565b6001600360008573ffffffffffffffffffffffffffffffffffffffff1673ffffffffffffffffffffffffffffffffffffffff1681526020019081526020016000206000828254611b379190613c43565b925050819055506001600360008473ffffffffffffffffffffffffffffffffffffffff1673ffffffffffffffffffffffffffffffffffffffff1681526020019081526020016000206000828254611b8e91906143ab565b92505081905550816002600083815260200190815260200160002060006101000a81548173ffffffffffffffffffffffffffffffffffffffff021916908373ffffffffffffffffffffffffffffffffffffffff160217905550808273ffffffffffffffffffffffffffffffffffffffff168473ffffffffffffffffffffffffffffffffffffffff167fddf252ad1be2c89b69c2b068fc378daa952ba7f163c4a11628f55a4df523b3ef60405160405180910390a4611c4d838383612655565b505050565b611c5a611896565b73ffffffffffffffffffffffffffffffffffffffff16611c78610b48565b73ffffffffffffffffffffffffffffffffffffffff1614611cce576040517f08c379a0000000000000000000000000000000000000000000000000000000008152600401611cc59061444d565b60405180910390fd5b565b6000600760009054906101000a900473ffffffffffffffffffffffffffffffffffffffff16905081600760006101000a81548173ffffffffffffffffffffffffffffffffffffffff021916908373ffffffffffffffffffffffffffffffffffffffff1602179055508173ffffffffffffffffffffffffffffffffffffffff168173ffffffffffffffffffffffffffffffffffffffff167f8be0079c531659141344cd1fd0a4f28419497f9722a3daafe3b4186f6b6457e060405160405180910390a35050565b8173ffffffffffffffffffffffffffffffffffffffff168373ffffffffffffffffffffffffffffffffffffffff1603611e04576040517f08c379a0000000000000000000000000000000000000000000000000000000008152600401611dfb906144b9565b60405180910390fd5b80600560008573ffffffffffffffffffffffffffffffffffffffff1673ffffffffffffffffffffffffffffffffffffffff16815260200190815260200160002060008473ffffffffffffffffffffffffffffffffffffffff1673ffffffffffffffffffffffffffffffffffffffff16815260200190815260200160002060006101000a81548160ff0219169083151502179055508173ffffffffffffffffffffffffffffffffffffffff168373ffffffffffffffffffffffffffffffffffffffff167f17307eab39ab6107e8899845ad3d59bd9653f200f220920489ca2b5937696c3183604051611ef59190612ed4565b60405180910390a3505050565b60606000606467ffffffffffffffff811115611f2157611f206132d5565b5b6040519080825280601f01601f191660200182016040528015611f535781602001600182028036833780820191505090505b50905060005b6000841115611fe257600a84611f6f91906144d9565b6030611f7b91906143ab565b60f81b828281518110611f9157611f90613c77565b5b60200101907effffffffffffffffffffffffffffffffffffffffffffffffffffffffffffff1916908160001a905350600a84611fcd919061450a565b93508080611fda9061453b565b915050611f59565b6000825167ffffffffffffffff811115611fff57611ffe6132d5565b5b6040519080825280601f01601f1916602001820160405280156120315781602001600182028036833780820191505090505b50905060005b83518110156120cb578360018286516120509190613c43565b61205a9190613c43565b8151811061206b5761206a613c77565b5b602001015160f81c60f81b82828151811061208957612088613c77565b5b60200101907effffffffffffffffffffffffffffffffffffffffffffffffffffffffffffff1916908160001a90535080806120c39061453b565b915050612037565b50809350505050919050565b606082826040516020016120ec9291906145cf565b604051602081830303815290604052905092915050565b61210e8484846119ec565b61211a8484848461276f565b612159576040517f08c379a000000000000000000000000000000000000000000000000000000000815260040161215090614670565b60405180910390fd5b50505050565b606061216a8261184b565b600060066000848152602001908152602001600020805461218a90613857565b80601f01602080910402602001604051908101604052809291908181526020018280546121b690613857565b80156122035780601f106121d857610100808354040283529160200191612203565b820191906000526020600020905b8154815290600101906020018083116121e657829003601f168201915b5050505050905060006122146128f6565b9050600081510361222957819250505061226c565b60008251111561225e578082604051602001612246929190614690565b6040516020818303038152906040529250505061226c565b6122678461290d565b925050505b919050565b6000806000601090505b600181106122d257836001826122919190613c43565b815181106122a2576122a1613c77565b5b602002602001015161ffff16601083901b6122bd91906143ab565b915080806122ca906146b4565b91505061227b565b5080915050919050565b6122f6828260405180602001604052806000815250612975565b5050565b61230382612367565b612342576040517f08c379a00000000000000000000000000000000000000000000000000000000081526004016123399061474f565b60405180910390fd5b8060066000848152602001908152602001600020908161236291906140b7565b505050565b60008073ffffffffffffffffffffffffffffffffffffffff166002600084815260200190815260200160002060009054906101000a900473ffffffffffffffffffffffffffffffffffffffff1673ffffffffffffffffffffffffffffffffffffffff1614159050919050565b600073ffffffffffffffffffffffffffffffffffffffff168373ffffffffffffffffffffffffffffffffffffffff16146126505760005b600b60008573ffffffffffffffffffffffffffffffffffffffff1673ffffffffffffffffffffffffffffffffffffffff1681526020019081526020016000206001018054905081101561264e5781600b60008673ffffffffffffffffffffffffffffffffffffffff1673ffffffffffffffffffffffffffffffffffffffff16815260200190815260200160002060010182815481106124ac576124ab613c77565b5b90600052602060002001540361263b57600b60008573ffffffffffffffffffffffffffffffffffffffff1673ffffffffffffffffffffffffffffffffffffffff1681526020019081526020016000206001016001600b60008773ffffffffffffffffffffffffffffffffffffffff1673ffffffffffffffffffffffffffffffffffffffff168152602001908152602001600020600101805490506125509190613c43565b8154811061256157612560613c77565b5b9060005260206000200154600b60008673ffffffffffffffffffffffffffffffffffffffff1673ffffffffffffffffffffffffffffffffffffffff16815260200190815260200160002060010182815481106125c0576125bf613c77565b5b9060005260206000200181905550600b60008573ffffffffffffffffffffffffffffffffffffffff1673ffffffffffffffffffffffffffffffffffffffff1681526020019081526020016000206001018054806126205761261f61476f565b5b6001900381819060005260206000200160009055905561264e565b80806126469061453b565b91505061240a565b505b505050565b600073ffffffffffffffffffffffffffffffffffffffff168273ffffffffffffffffffffffffffffffffffffffff161461276a57600b60008373ffffffffffffffffffffffffffffffffffffffff1673ffffffffffffffffffffffffffffffffffffffff168152602001908152602001600020600101819080600181540180825580915050600190039060005260206000200160009091909190915055600c6000828152602001908152602001600020600201829080600181540180825580915050600190039060005260206000200160009091909190916101000a81548173ffffffffffffffffffffffffffffffffffffffff021916908373ffffffffffffffffffffffffffffffffffffffff1602179055505b505050565b60006127908473ffffffffffffffffffffffffffffffffffffffff166129d0565b156128e9578373ffffffffffffffffffffffffffffffffffffffff1663150b7a026127b9611896565b8786866040518563ffffffff1660e01b81526004016127db94939291906147f3565b6020604051808303816000875af192505050801561281757506040513d601f19601f820116820180604052508101906128149190614854565b60015b612899573d8060008114612847576040519150601f19603f3d011682016040523d82523d6000602084013e61284c565b606091505b506000815103612891576040517f08c379a000000000000000000000000000000000000000000000000000000000815260040161288890614670565b60405180910390fd5b805181602001fd5b63150b7a0260e01b7bffffffffffffffffffffffffffffffffffffffffffffffffffffffff1916817bffffffffffffffffffffffffffffffffffffffffffffffffffffffff1916149150506128ee565b600190505b949350505050565b606060405180602001604052806000815250905090565b60606129188261184b565b60006129226128f6565b90506000815111612942576040518060200160405280600081525061296d565b8061294c846129f3565b60405160200161295d929190614690565b6040516020818303038152906040525b915050919050565b61297f8383612b53565b61298c600084848461276f565b6129cb576040517f08c379a00000000000000000000000000000000000000000000000000000000081526004016129c290614670565b60405180910390fd5b505050565b6000808273ffffffffffffffffffffffffffffffffffffffff163b119050919050565b606060008203612a3a576040518060400160405280600181526020017f30000000000000000000000000000000000000000000000000000000000000008152509050612b4e565b600082905060005b60008214612a6c578080612a559061453b565b915050600a82612a65919061450a565b9150612a42565b60008167ffffffffffffffff811115612a8857612a876132d5565b5b6040519080825280601f01601f191660200182016040528015612aba5781602001600182028036833780820191505090505b5090505b60008514612b4757600182612ad39190613c43565b9150600a85612ae291906144d9565b6030612aee91906143ab565b60f81b818381518110612b0457612b03613c77565b5b60200101907effffffffffffffffffffffffffffffffffffffffffffffffffffffffffffff1916908160001a905350600a85612b40919061450a565b9450612abe565b8093505050505b919050565b600073ffffffffffffffffffffffffffffffffffffffff168273ffffffffffffffffffffffffffffffffffffffff1603612bc2576040517f08c379a0000000000000000000000000000000000000000000000000000000008152600401612bb9906148cd565b60405180910390fd5b612bcb81612367565b15612c0b576040517f08c379a0000000000000000000000000000000000000000000000000000000008152600401612c0290614939565b60405180910390fd5b612c17600083836123d3565b6001600360008473ffffffffffffffffffffffffffffffffffffffff1673ffffffffffffffffffffffffffffffffffffffff1681526020019081526020016000206000828254612c6791906143ab565b92505081905550816002600083815260200190815260200160002060006101000a81548173ffffffffffffffffffffffffffffffffffffffff021916908373ffffffffffffffffffffffffffffffffffffffff160217905550808273ffffffffffffffffffffffffffffffffffffffff16600073ffffffffffffffffffffffffffffffffffffffff167fddf252ad1be2c89b69c2b068fc378daa952ba7f163c4a11628f55a4df523b3ef60405160405180910390a4612d2860008383612655565b5050565b828054828255906000526020600020908101928215612da5579160200282015b82811115612da45782518260006101000a81548173ffffffffffffffffffffffffffffffffffffffff021916908373ffffffffffffffffffffffffffffffffffffffff16021790555091602001919060010190612d4c565b5b509050612db29190612e03565b5090565b828054828255906000526020600020908101928215612df2579160200282015b82811115612df1578251825591602001919060010190612dd6565b5b509050612dff9190612e03565b5090565b5b80821115612e1c576000816000905550600101612e04565b5090565b6000604051905090565b600080fd5b600080fd5b60007fffffffff0000000000000000000000000000000000000000000000000000000082169050919050565b612e6981612e34565b8114612e7457600080fd5b50565b600081359050612e8681612e60565b92915050565b600060208284031215612ea257612ea1612e2a565b5b6000612eb084828501612e77565b91505092915050565b60008115159050919050565b612ece81612eb9565b82525050565b6000602082019050612ee96000830184612ec5565b92915050565b600081519050919050565b600082825260208201905092915050565b6000819050602082019050919050565b6000819050919050565b612f2e81612f1b565b82525050565b6000612f408383612f25565b60208301905092915050565b6000602082019050919050565b6000612f6482612eef565b612f6e8185612efa565b9350612f7983612f0b565b8060005b83811015612faa578151612f918882612f34565b9750612f9c83612f4c565b925050600181019050612f7d565b5085935050505092915050565b60006020820190508181036000830152612fd18184612f59565b905092915050565b600081519050919050565b600082825260208201905092915050565b60005b83811015613013578082015181840152602081019050612ff8565b83811115613022576000848401525b50505050565b6000601f19601f8301169050919050565b600061304482612fd9565b61304e8185612fe4565b935061305e818560208601612ff5565b61306781613028565b840191505092915050565b6000602082019050818103600083015261308c8184613039565b905092915050565b61309d81612f1b565b81146130a857600080fd5b50565b6000813590506130ba81613094565b92915050565b6000602082840312156130d6576130d5612e2a565b5b60006130e4848285016130ab565b91505092915050565b600073ffffffffffffffffffffffffffffffffffffffff82169050919050565b6000613118826130ed565b9050919050565b6131288161310d565b82525050565b6000602082019050613143600083018461311f565b92915050565b6131528161310d565b811461315d57600080fd5b50565b60008135905061316f81613149565b92915050565b6000806040838503121561318c5761318b612e2a565b5b600061319a85828601613160565b92505060206131ab858286016130ab565b9150509250929050565b6000806000606084860312156131ce576131cd612e2a565b5b60006131dc86828701613160565b93505060206131ed86828701613160565b92505060406131fe868287016130ab565b9150509250925092565b60006020828403121561321e5761321d612e2a565b5b600061322c84828501613160565b91505092915050565b61323e81612f1b565b82525050565b60006020820190506132596000830184613235565b92915050565b61326881612eb9565b811461327357600080fd5b50565b6000813590506132858161325f565b92915050565b600080604083850312156132a2576132a1612e2a565b5b60006132b085828601613160565b92505060206132c185828601613276565b9150509250929050565b600080fd5b600080fd5b7f4e487b7100000000000000000000000000000000000000000000000000000000600052604160045260246000fd5b61330d82613028565b810181811067ffffffffffffffff8211171561332c5761332b6132d5565b5b80604052505050565b600061333f612e20565b905061334b8282613304565b919050565b600067ffffffffffffffff82111561336b5761336a6132d5565b5b61337482613028565b9050602081019050919050565b82818337600083830152505050565b60006133a361339e84613350565b613335565b9050828152602081018484840111156133bf576133be6132d0565b5b6133ca848285613381565b509392505050565b600082601f8301126133e7576133e66132cb565b5b81356133f7848260208601613390565b91505092915050565b6000806000806080858703121561341a57613419612e2a565b5b600061342887828801613160565b945050602061343987828801613160565b935050604061344a878288016130ab565b925050606085013567ffffffffffffffff81111561346b5761346a612e2f565b5b613477878288016133d2565b91505092959194509250565b600067ffffffffffffffff82111561349e5761349d6132d5565b5b6134a782613028565b9050602081019050919050565b60006134c76134c284613483565b613335565b9050828152602081018484840111156134e3576134e26132d0565b5b6134ee848285613381565b509392505050565b600082601f83011261350b5761350a6132cb565b5b813561351b8482602086016134b4565b91505092915050565b600067ffffffffffffffff82111561353f5761353e6132d5565b5b602082029050602081019050919050565b600080fd5b600061ffff82169050919050565b61356c81613555565b811461357757600080fd5b50565b60008135905061358981613563565b92915050565b60006135a261359d84613524565b613335565b905080838252602082019050602084028301858111156135c5576135c4613550565b5b835b818110156135ee57806135da888261357a565b8452602084019350506020810190506135c7565b5050509392505050565b600082601f83011261360d5761360c6132cb565b5b813561361d84826020860161358f565b91505092915050565b600062ffffff82169050919050565b61363e81613626565b811461364957600080fd5b50565b60008135905061365b81613635565b92915050565b600080600080600060a0868803121561367d5761367c612e2a565b5b600086013567ffffffffffffffff81111561369b5761369a612e2f565b5b6136a7888289016134f6565b95505060206136b888828901613160565b945050604086013567ffffffffffffffff8111156136d9576136d8612e2f565b5b6136e5888289016135f8565b935050606086013567ffffffffffffffff81111561370657613705612e2f565b5b613712888289016134f6565b92505060806137238882890161364c565b9150509295509295909350565b60006020828403121561374657613745612e2a565b5b600082013567ffffffffffffffff81111561376457613763612e2f565b5b613770848285016135f8565b91505092915050565b600080604083850312156137905761378f612e2a565b5b600061379e85828601613160565b92505060206137af85828601613160565b9150509250929050565b6000806000606084860312156137d2576137d1612e2a565b5b600084013567ffffffffffffffff8111156137f0576137ef612e2f565b5b6137fc868287016134f6565b935050602061380d86828701613160565b925050604061381e86828701613276565b9150509250925092565b7f4e487b7100000000000000000000000000000000000000000000000000000000600052602260045260246000fd5b6000600282049050600182168061386f57607f821691505b60208210810361388257613881613828565b5b50919050565b7f4552433732313a20617070726f76616c20746f2063757272656e74206f776e6560008201527f7200000000000000000000000000000000000000000000000000000000000000602082015250565b60006138e4602183612fe4565b91506138ef82613888565b604082019050919050565b60006020820190508181036000830152613913816138d7565b9050919050565b7f4552433732313a20617070726f76652063616c6c6572206973206e6f7420746f60008201527f6b656e206f776e6572206e6f7220617070726f76656420666f7220616c6c0000602082015250565b6000613976603e83612fe4565b91506139818261391a565b604082019050919050565b600060208201905081810360008301526139a581613969565b9050919050565b7f4f6e6c792073656c6c6172732063616e20616363657373207468697300000000600082015250565b60006139e2601c83612fe4565b91506139ed826139ac565b602082019050919050565b60006020820190508181036000830152613a11816139d5565b9050919050565b7f4552433732313a2063616c6c6572206973206e6f7420746f6b656e206f776e6560008201527f72206e6f7220617070726f766564000000000000000000000000000000000000602082015250565b6000613a74602e83612fe4565b9150613a7f82613a18565b604082019050919050565b60006020820190508181036000830152613aa381613a67565b9050919050565b7f4552433732313a20696e76616c696420746f6b656e2049440000000000000000600082015250565b6000613ae0601883612fe4565b9150613aeb82613aaa565b602082019050919050565b60006020820190508181036000830152613b0f81613ad3565b9050919050565b7f4552433732313a2061646472657373207a65726f206973206e6f74206120766160008201527f6c6964206f776e65720000000000000000000000000000000000000000000000602082015250565b6000613b72602983612fe4565b9150613b7d82613b16565b604082019050919050565b60006020820190508181036000830152613ba181613b65565b9050919050565b7f4f6e6c792072656769737465726564206d656d6265727320616c6c6f77656400600082015250565b6000613bde601f83612fe4565b9150613be982613ba8565b602082019050919050565b60006020820190508181036000830152613c0d81613bd1565b9050919050565b7f4e487b7100000000000000000000000000000000000000000000000000000000600052601160045260246000fd5b6000613c4e82612f1b565b9150613c5983612f1b565b925082821015613c6c57613c6b613c14565b5b828203905092915050565b7f4e487b7100000000000000000000000000000000000000000000000000000000600052603260045260246000fd5b7f4f6e6c7920746865206f776e6572206f6620746869732061646472657373206360008201527f616e2073656520697427732064657461696c7300000000000000000000000000602082015250565b6000613d02603383612fe4565b9150613d0d82613ca6565b604082019050919050565b60006020820190508181036000830152613d3181613cf5565b9050919050565b600067ffffffffffffffff82169050919050565b6000613d5782613d38565b9150613d6283613d38565b925082821015613d7557613d74613c14565b5b828203905092915050565b7f4e487b7100000000000000000000000000000000000000000000000000000000600052601260045260246000fd5b6000613dba82613d38565b9150613dc583613d38565b925082613dd557613dd4613d80565b5b828204905092915050565b7f4c6963656e736520697320616c72656164792065787069726564000000000000600082015250565b6000613e16601a83612fe4565b9150613e2182613de0565b602082019050919050565b60006020820190508181036000830152613e4581613e09565b9050919050565b600081905092915050565b6000613e6282612fd9565b613e6c8185613e4c565b9350613e7c818560208601612ff5565b80840191505092915050565b6000613e948284613e57565b915081905092915050565b7f55524920616c726561647920696e207573652e00000000000000000000000000600082015250565b6000613ed5601383612fe4565b9150613ee082613e9f565b602082019050919050565b60006020820190508181036000830152613f0481613ec8565b9050919050565b60008190508160005260206000209050919050565b60006020601f8301049050919050565b600082821b905092915050565b600060088302613f6d7fffffffffffffffffffffffffffffffffffffffffffffffffffffffffffffffff82613f30565b613f778683613f30565b95508019841693508086168417925050509392505050565b6000819050919050565b6000613fb4613faf613faa84612f1b565b613f8f565b612f1b565b9050919050565b6000819050919050565b613fce83613f99565b613fe2613fda82613fbb565b848454613f3d565b825550505050565b600090565b613ff7613fea565b614002818484613fc5565b505050565b5b818110156140265761401b600082613fef565b600181019050614008565b5050565b601f82111561406b5761403c81613f0b565b61404584613f20565b81016020851015614054578190505b61406861406085613f20565b830182614007565b50505b505050565b600082821c905092915050565b600061408e60001984600802614070565b1980831691505092915050565b60006140a7838361407d565b9150826002028217905092915050565b6140c082612fd9565b67ffffffffffffffff8111156140d9576140d86132d5565b5b6140e38254613857565b6140ee82828561402a565b600060209050601f831160018114614121576000841561410f578287015190505b614119858261409b565b865550614181565b601f19841661412f86613f0b565b60005b8281101561415757848901518255600182019150602085019450602081019050614132565b868310156141745784890151614170601f89168261407d565b8355505b6001600288020188555050505b505050505050565b7f4f776e61626c653a206e6577206f776e657220697320746865207a65726f206160008201527f6464726573730000000000000000000000000000000000000000000000000000602082015250565b60006141e5602683612fe4565b91506141f082614189565b604082019050919050565b60006020820190508181036000830152614214816141d8565b9050919050565b7f4164647265737320616c72656164792072656769737465726564000000000000600082015250565b6000614251601a83612fe4565b915061425c8261421b565b602082019050919050565b6000602082019050818103600083015261428081614244565b9050919050565b7f4552433732313a207472616e736665722066726f6d20696e636f72726563742060008201527f6f776e6572000000000000000000000000000000000000000000000000000000602082015250565b60006142e3602583612fe4565b91506142ee82614287565b604082019050919050565b60006020820190508181036000830152614312816142d6565b9050919050565b7f4552433732313a207472616e7366657220746f20746865207a65726f2061646460008201527f7265737300000000000000000000000000000000000000000000000000000000602082015250565b6000614375602483612fe4565b915061438082614319565b604082019050919050565b600060208201905081810360008301526143a481614368565b9050919050565b60006143b682612f1b565b91506143c183612f1b565b9250827fffffffffffffffffffffffffffffffffffffffffffffffffffffffffffffffff038211156143f6576143f5613c14565b5b828201905092915050565b7f4f776e61626c653a2063616c6c6572206973206e6f7420746865206f776e6572600082015250565b6000614437602083612fe4565b915061444282614401565b602082019050919050565b600060208201905081810360008301526144668161442a565b9050919050565b7f4552433732313a20617070726f766520746f2063616c6c657200000000000000600082015250565b60006144a3601983612fe4565b91506144ae8261446d565b602082019050919050565b600060208201905081810360008301526144d281614496565b9050919050565b60006144e482612f1b565b91506144ef83612f1b565b9250826144ff576144fe613d80565b5b828206905092915050565b600061451582612f1b565b915061452083612f1b565b9250826145305761452f613d80565b5b828204905092915050565b600061454682612f1b565b91507fffffffffffffffffffffffffffffffffffffffffffffffffffffffffffffffff820361457857614577613c14565b5b600182019050919050565b7f2000000000000000000000000000000000000000000000000000000000000000600082015250565b60006145b9600183613e4c565b91506145c482614583565b600182019050919050565b60006145db8285613e57565b91506145e6826145ac565b91506145f28284613e57565b91508190509392505050565b7f4552433732313a207472616e7366657220746f206e6f6e20455243373231526560008201527f63656976657220696d706c656d656e7465720000000000000000000000000000602082015250565b600061465a603283612fe4565b9150614665826145fe565b604082019050919050565b600060208201905081810360008301526146898161464d565b9050919050565b600061469c8285613e57565b91506146a88284613e57565b91508190509392505050565b60006146bf82612f1b565b9150600082036146d2576146d1613c14565b5b600182039050919050565b7f45524337323155524953746f726167653a2055524920736574206f66206e6f6e60008201527f6578697374656e7420746f6b656e000000000000000000000000000000000000602082015250565b6000614739602e83612fe4565b9150614744826146dd565b604082019050919050565b600060208201905081810360008301526147688161472c565b9050919050565b7f4e487b7100000000000000000000000000000000000000000000000000000000600052603160045260246000fd5b600081519050919050565b600082825260208201905092915050565b60006147c58261479e565b6147cf81856147a9565b93506147df818560208601612ff5565b6147e881613028565b840191505092915050565b6000608082019050614808600083018761311f565b614815602083018661311f565b6148226040830185613235565b818103606083015261483481846147ba565b905095945050505050565b60008151905061484e81612e60565b92915050565b60006020828403121561486a57614869612e2a565b5b60006148788482850161483f565b91505092915050565b7f4552433732313a206d696e7420746f20746865207a65726f2061646472657373600082015250565b60006148b7602083612fe4565b91506148c282614881565b602082019050919050565b600060208201905081810360008301526148e6816148aa565b9050919050565b7f4552433732313a20746f6b656e20616c7265616479206d696e74656400000000600082015250565b6000614923601c83612fe4565b915061492e826148ed565b602082019050919050565b6000602082019050818103600083015261495281614916565b905091905056fea2646970667358221220d706d0242116c4b5d2cfd3d7e87c07e34858374088872b48ff13808d3f82081f64736f6c634300080f0033",
  "immutableReferences": {},
  "source": "// SPDX-License-Identifier: MIT\npragma solidity ^0.8.4;\n\nimport \"@openzeppelin/contracts/token/ERC721/ERC721.sol\";\nimport \"@openzeppelin/contracts/token/ERC721/extensions/ERC721URIStorage.sol\";\nimport \"./Ownership.sol\";\nimport \"./Misc.sol\";\n\ncontract License is ERC721, ERC721URIStorage, Whitelist {\n    using Counters for Counters.Counter;\n\n    mapping(string => bool) private existingURIs;\n\n    constructor() ERC721(\"License\", \"License\") {}\n\n    // function _baseURI() internal pure override returns (string memory) {\n    //     return \"ipfs://\";\n    // }\n\n    function mint(\n        string memory name,\n        address to,\n        uint16[] memory seeds,\n        string memory uri,\n        uint24 day\n    ) public onlyRegistered onlySellar(msg.sender) {\n        require(!existingURIs[uri], \"URI already in use.\");\n        uint256 tokenId = combine(seeds);\n        addSerial(tokenId);\n        _safeMint(to, tokenId);\n        _setTokenURI(tokenId, uri);\n        existingURIs[uri] = true;\n        serialProductMap[tokenId] = product(\n            name,\n            msg.sender,\n            null_add_arr,\n            uint64(block.timestamp),\n            day\n        );\n    }\n\n    function safeBurn(uint16[] memory parts) internal {\n        _safeBurn(combine(parts));\n    }\n\n    function _safeBurn(uint256 tokenId) internal {\n        usedSerials[tokenId] = false;\n        serialProductMap[tokenId] = null_product;\n        _setTokenURI(tokenId, \"\");\n        _burn(tokenId);\n    }\n\n    function _burn(uint256 tokenId)\n        internal\n        override(ERC721, ERC721URIStorage)\n    {\n        super._burn(tokenId);\n    }\n\n    function getTokenURI(uint16[] memory parts)\n        public\n        view\n        returns (string memory)\n    {\n        return tokenURI(combine(parts));\n    }\n\n    function tokenURI(uint256 tokenId)\n        public\n        view\n        override(ERC721, ERC721URIStorage)\n        returns (string memory)\n    {\n        require(\n            msg.sender == serialProductMap[tokenId].sellar ||\n                msg.sender ==\n                serialProductMap[tokenId].ownerList[\n                    serialProductMap[tokenId].ownerList.length - 1\n                ],\n            \"Only the owner of this address can see it's details\"\n        );\n        uint64 current = uint64(block.timestamp);\n        if (\n            (current - serialProductMap[tokenId].birthtime) / (24 * 3600) <\n            serialProductMap[tokenId].lifespan\n        ) {\n            return super.tokenURI(tokenId);\n        } else {\n            require(false, \"License is already expired\");\n        }\n    }\n\n    function _beforeTokenTransfer(\n        address from,\n        address to,\n        uint256 serial\n    ) internal virtual override {\n        if (from != address(0)) {\n            uint256 i;\n            for (i = 0; i < addressUserMap[from].boughtList.length; i++) {\n                if (addressUserMap[from].boughtList[i] == serial) {\n                    addressUserMap[from].boughtList[i] = addressUserMap[from]\n                        .boughtList[addressUserMap[from].boughtList.length - 1];\n                    addressUserMap[from].boughtList.pop();\n                    break;\n                }\n            }\n        }\n    }\n\n    function _afterTokenTransfer(\n        address from,\n        address to,\n        uint256 serial\n    ) internal virtual override {\n        if (to != address(0)) {\n            addressUserMap[to].boughtList.push(serial);\n            serialProductMap[serial].ownerList.push(to);\n        }\n    }\n}\n",
  "sourcePath": "/Users/monjoy/Desktop/LicenseNFT/smart_contract/contracts/License.sol",
  "compiler": {
    "name": "solc",
    "version": "0.8.15+commit.e14f2714.Emscripten.clang"
  },
  "schemaVersion": "3.4.8",
  "updatedAt": "2022-07-21T16:44:01.545Z",
  "networkType": "ethereum",
  "devdoc": {
    "kind": "dev",
    "methods": {
      "approve(address,uint256)": {
        "details": "See {IERC721-approve}."
      },
      "balanceOf(address)": {
        "details": "See {IERC721-balanceOf}."
      },
      "getApproved(uint256)": {
        "details": "See {IERC721-getApproved}."
      },
      "isApprovedForAll(address,address)": {
        "details": "See {IERC721-isApprovedForAll}."
      },
      "name()": {
        "details": "See {IERC721Metadata-name}."
      },
      "owner()": {
        "details": "Returns the address of the current owner."
      },
      "ownerOf(uint256)": {
        "details": "See {IERC721-ownerOf}."
      },
      "renounceOwnership()": {
        "details": "Leaves the contract without owner. It will not be possible to call `onlyOwner` functions anymore. Can only be called by the current owner. NOTE: Renouncing ownership will leave the contract without an owner, thereby removing any functionality that is only available to the owner."
      },
      "safeTransferFrom(address,address,uint256)": {
        "details": "See {IERC721-safeTransferFrom}."
      },
      "safeTransferFrom(address,address,uint256,bytes)": {
        "details": "See {IERC721-safeTransferFrom}."
      },
      "setApprovalForAll(address,bool)": {
        "details": "See {IERC721-setApprovalForAll}."
      },
      "supportsInterface(bytes4)": {
        "details": "See {IERC165-supportsInterface}."
      },
      "symbol()": {
        "details": "See {IERC721Metadata-symbol}."
      },
      "transferFrom(address,address,uint256)": {
        "details": "See {IERC721-transferFrom}."
      },
      "transferOwnership(address)": {
        "details": "Transfers ownership of the contract to a new account (`newOwner`). Can only be called by the current owner."
      }
    },
    "version": 1
  },
  "userdoc": {
    "kind": "user",
    "methods": {},
    "version": 1
  }
}