{
  "contractName": "License",
  "abi": [
    {
      "inputs": [],
      "stateMutability": "nonpayable",
      "type": "constructor"
    },
    {
      "anonymous": false,
      "inputs": [
        {
          "indexed": true,
          "internalType": "address",
          "name": "owner",
          "type": "address"
        },
        {
          "indexed": true,
          "internalType": "address",
          "name": "approved",
          "type": "address"
        },
        {
          "indexed": true,
          "internalType": "uint256",
          "name": "tokenId",
          "type": "uint256"
        }
      ],
      "name": "Approval",
      "type": "event"
    },
    {
      "anonymous": false,
      "inputs": [
        {
          "indexed": true,
          "internalType": "address",
          "name": "owner",
          "type": "address"
        },
        {
          "indexed": true,
          "internalType": "address",
          "name": "operator",
          "type": "address"
        },
        {
          "indexed": false,
          "internalType": "bool",
          "name": "approved",
          "type": "bool"
        }
      ],
      "name": "ApprovalForAll",
      "type": "event"
    },
    {
      "anonymous": false,
      "inputs": [
        {
          "indexed": true,
          "internalType": "address",
          "name": "from",
          "type": "address"
        },
        {
          "indexed": true,
          "internalType": "address",
          "name": "to",
          "type": "address"
        },
        {
          "indexed": true,
          "internalType": "uint256",
          "name": "tokenId",
          "type": "uint256"
        }
      ],
      "name": "Transfer",
      "type": "event"
    },
    {
      "inputs": [
        {
          "internalType": "uint256",
          "name": "serial",
          "type": "uint256"
        }
      ],
      "name": "addSerial",
      "outputs": [],
      "stateMutability": "nonpayable",
      "type": "function"
    },
    {
      "inputs": [
        {
          "internalType": "string",
          "name": "name",
          "type": "string"
        },
        {
          "internalType": "address",
          "name": "_member",
          "type": "address"
        },
        {
          "internalType": "bool",
          "name": "isSellar",
          "type": "bool"
        }
      ],
      "name": "addUser",
      "outputs": [],
      "stateMutability": "nonpayable",
      "type": "function"
    },
    {
      "inputs": [
        {
          "internalType": "address",
          "name": "to",
          "type": "address"
        },
        {
          "internalType": "uint256",
          "name": "tokenId",
          "type": "uint256"
        }
      ],
      "name": "approve",
      "outputs": [],
      "stateMutability": "nonpayable",
      "type": "function"
    },
    {
      "inputs": [
        {
          "internalType": "address",
          "name": "owner",
          "type": "address"
        }
      ],
      "name": "balanceOf",
      "outputs": [
        {
          "internalType": "uint256",
          "name": "",
          "type": "uint256"
        }
      ],
      "stateMutability": "view",
      "type": "function",
      "constant": true
    },
    {
      "inputs": [
        {
          "internalType": "uint256",
          "name": "tokenId",
          "type": "uint256"
        }
      ],
      "name": "getApproved",
      "outputs": [
        {
          "internalType": "address",
          "name": "",
          "type": "address"
        }
      ],
      "stateMutability": "view",
      "type": "function",
      "constant": true
    },
    {
      "inputs": [],
      "name": "getBoughtLicenses",
      "outputs": [
        {
          "internalType": "uint256[]",
          "name": "",
          "type": "uint256[]"
        }
      ],
      "stateMutability": "view",
      "type": "function",
      "constant": true
    },
    {
      "inputs": [
        {
          "internalType": "uint16[]",
          "name": "parts",
          "type": "uint16[]"
        }
      ],
      "name": "getCurrentOwner",
      "outputs": [
        {
          "internalType": "address",
          "name": "",
          "type": "address"
        }
      ],
      "stateMutability": "view",
      "type": "function",
      "constant": true
    },
    {
      "inputs": [],
      "name": "getIssuedLicenses",
      "outputs": [
        {
          "internalType": "uint256[]",
          "name": "",
          "type": "uint256[]"
        }
      ],
      "stateMutability": "view",
      "type": "function",
      "constant": true
    },
    {
      "inputs": [],
      "name": "getName",
      "outputs": [
        {
          "internalType": "string",
          "name": "",
          "type": "string"
        }
      ],
      "stateMutability": "view",
      "type": "function",
      "constant": true
    },
    {
      "inputs": [
        {
          "internalType": "uint16[]",
          "name": "parts",
          "type": "uint16[]"
        }
      ],
      "name": "getOwnerList",
      "outputs": [
        {
          "internalType": "address[]",
          "name": "",
          "type": "address[]"
        }
      ],
      "stateMutability": "view",
      "type": "function",
      "constant": true
    },
    {
      "inputs": [
        {
          "internalType": "uint16[]",
          "name": "parts",
          "type": "uint16[]"
        }
      ],
      "name": "getProduct",
      "outputs": [
        {
          "components": [
            {
              "internalType": "string",
              "name": "name",
              "type": "string"
            },
            {
              "internalType": "uint256",
              "name": "serialID",
              "type": "uint256"
            },
            {
              "internalType": "address",
              "name": "sellar",
              "type": "address"
            },
            {
              "internalType": "uint64",
              "name": "birthtime",
              "type": "uint64"
            },
            {
              "internalType": "uint64",
              "name": "lifespan",
              "type": "uint64"
            },
            {
              "internalType": "bool",
              "name": "onSale",
              "type": "bool"
            },
            {
              "internalType": "enum Whitelist.ProductType",
              "name": "pType",
              "type": "uint8"
            }
          ],
          "internalType": "struct Whitelist.product",
          "name": "",
          "type": "tuple"
        }
      ],
      "stateMutability": "view",
      "type": "function",
      "constant": true
    },
    {
      "inputs": [
        {
          "internalType": "address",
          "name": "owner",
          "type": "address"
        },
        {
          "internalType": "address",
          "name": "operator",
          "type": "address"
        }
      ],
      "name": "isApprovedForAll",
      "outputs": [
        {
          "internalType": "bool",
          "name": "",
          "type": "bool"
        }
      ],
      "stateMutability": "view",
      "type": "function",
      "constant": true
    },
    {
      "inputs": [
        {
          "internalType": "uint16[]",
          "name": "parts",
          "type": "uint16[]"
        }
      ],
      "name": "isDeleted",
      "outputs": [
        {
          "internalType": "bool",
          "name": "",
          "type": "bool"
        }
      ],
      "stateMutability": "view",
      "type": "function",
      "constant": true
    },
    {
      "inputs": [],
      "name": "isRegistered",
      "outputs": [],
      "stateMutability": "view",
      "type": "function",
      "constant": true
    },
    {
      "inputs": [],
      "name": "kickSellar",
      "outputs": [],
      "stateMutability": "nonpayable",
      "type": "function"
    },
    {
      "inputs": [],
      "name": "makeSellar",
      "outputs": [],
      "stateMutability": "nonpayable",
      "type": "function"
    },
    {
      "inputs": [],
      "name": "name",
      "outputs": [
        {
          "internalType": "string",
          "name": "",
          "type": "string"
        }
      ],
      "stateMutability": "view",
      "type": "function",
      "constant": true
    },
    {
      "inputs": [
        {
          "internalType": "uint256",
          "name": "tokenId",
          "type": "uint256"
        }
      ],
      "name": "ownerOf",
      "outputs": [
        {
          "internalType": "address",
          "name": "",
          "type": "address"
        }
      ],
      "stateMutability": "view",
      "type": "function",
      "constant": true
    },
    {
      "inputs": [
        {
          "internalType": "address",
          "name": "from",
          "type": "address"
        },
        {
          "internalType": "address",
          "name": "to",
          "type": "address"
        },
        {
          "internalType": "uint256",
          "name": "tokenId",
          "type": "uint256"
        }
      ],
      "name": "safeTransferFrom",
      "outputs": [],
      "stateMutability": "nonpayable",
      "type": "function"
    },
    {
      "inputs": [
        {
          "internalType": "address",
          "name": "from",
          "type": "address"
        },
        {
          "internalType": "address",
          "name": "to",
          "type": "address"
        },
        {
          "internalType": "uint256",
          "name": "tokenId",
          "type": "uint256"
        },
        {
          "internalType": "bytes",
          "name": "data",
          "type": "bytes"
        }
      ],
      "name": "safeTransferFrom",
      "outputs": [],
      "stateMutability": "nonpayable",
      "type": "function"
    },
    {
      "inputs": [
        {
          "internalType": "address",
          "name": "operator",
          "type": "address"
        },
        {
          "internalType": "bool",
          "name": "approved",
          "type": "bool"
        }
      ],
      "name": "setApprovalForAll",
      "outputs": [],
      "stateMutability": "nonpayable",
      "type": "function"
    },
    {
      "inputs": [
        {
          "internalType": "uint16[]",
          "name": "parts",
          "type": "uint16[]"
        }
      ],
      "name": "setOnSale",
      "outputs": [],
      "stateMutability": "nonpayable",
      "type": "function"
    },
    {
      "inputs": [
        {
          "internalType": "bytes4",
          "name": "interfaceId",
          "type": "bytes4"
        }
      ],
      "name": "supportsInterface",
      "outputs": [
        {
          "internalType": "bool",
          "name": "",
          "type": "bool"
        }
      ],
      "stateMutability": "view",
      "type": "function",
      "constant": true
    },
    {
      "inputs": [],
      "name": "symbol",
      "outputs": [
        {
          "internalType": "string",
          "name": "",
          "type": "string"
        }
      ],
      "stateMutability": "view",
      "type": "function",
      "constant": true
    },
    {
      "inputs": [
        {
          "internalType": "uint16[]",
          "name": "parts",
          "type": "uint16[]"
        }
      ],
      "name": "takeDownFromSale",
      "outputs": [],
      "stateMutability": "nonpayable",
      "type": "function"
    },
    {
      "inputs": [
        {
          "internalType": "address",
          "name": "from",
          "type": "address"
        },
        {
          "internalType": "address",
          "name": "to",
          "type": "address"
        },
        {
          "internalType": "uint256",
          "name": "tokenId",
          "type": "uint256"
        }
      ],
      "name": "transferFrom",
      "outputs": [],
      "stateMutability": "nonpayable",
      "type": "function"
    },
    {
      "inputs": [
        {
          "internalType": "string",
          "name": "name",
          "type": "string"
        },
        {
          "internalType": "uint256",
          "name": "serialID",
          "type": "uint256"
        },
        {
          "internalType": "address",
          "name": "to",
          "type": "address"
        },
        {
          "internalType": "uint16[]",
          "name": "seeds",
          "type": "uint16[]"
        },
        {
          "internalType": "string",
          "name": "uri",
          "type": "string"
        },
        {
          "internalType": "uint64",
          "name": "secs",
          "type": "uint64"
        },
        {
          "internalType": "enum Whitelist.ProductType",
          "name": "pType",
          "type": "uint8"
        }
      ],
      "name": "mint",
      "outputs": [],
      "stateMutability": "nonpayable",
      "type": "function"
    },
    {
      "inputs": [
        {
          "internalType": "uint16[]",
          "name": "parts",
          "type": "uint16[]"
        }
      ],
      "name": "setTokenURI",
      "outputs": [
        {
          "internalType": "string",
          "name": "",
          "type": "string"
        }
      ],
      "stateMutability": "nonpayable",
      "type": "function"
    },
    {
      "inputs": [],
      "name": "getTokenURI",
      "outputs": [
        {
          "internalType": "string",
          "name": "",
          "type": "string"
        }
      ],
      "stateMutability": "view",
      "type": "function",
      "constant": true
    },
    {
      "inputs": [
        {
          "internalType": "uint256",
          "name": "tokenId",
          "type": "uint256"
        }
      ],
      "name": "tokenURI",
      "outputs": [
        {
          "internalType": "string",
          "name": "",
          "type": "string"
        }
      ],
      "stateMutability": "view",
      "type": "function",
      "constant": true
    }
  ],
  "bytecode": "0x60806040523480156200001157600080fd5b506040518060400160405280600781526020017f4c6963656e7365000000000000000000000000000000000000000000000000008152506040518060400160405280600781526020017f4c6963656e73650000000000000000000000000000000000000000000000000081525081600090816200008f91906200037c565b508060019081620000a191906200037c565b50505060016009600080815260200190815260200160002060006101000a81548160ff02191690831515021790555060016008600080815260200190815260200160002060006101000a81548160ff02191690831515021790555062000463565b600081519050919050565b7f4e487b7100000000000000000000000000000000000000000000000000000000600052604160045260246000fd5b7f4e487b7100000000000000000000000000000000000000000000000000000000600052602260045260246000fd5b600060028204905060018216806200018457607f821691505b6020821081036200019a57620001996200013c565b5b50919050565b60008190508160005260206000209050919050565b60006020601f8301049050919050565b600082821b905092915050565b600060088302620002047fffffffffffffffffffffffffffffffffffffffffffffffffffffffffffffffff82620001c5565b620002108683620001c5565b95508019841693508086168417925050509392505050565b6000819050919050565b6000819050919050565b60006200025d62000257620002518462000228565b62000232565b62000228565b9050919050565b6000819050919050565b62000279836200023c565b62000291620002888262000264565b848454620001d2565b825550505050565b600090565b620002a862000299565b620002b58184846200026e565b505050565b5b81811015620002dd57620002d16000826200029e565b600181019050620002bb565b5050565b601f8211156200032c57620002f681620001a0565b6200030184620001b5565b8101602085101562000311578190505b620003296200032085620001b5565b830182620002ba565b50505b505050565b600082821c905092915050565b6000620003516000198460080262000331565b1980831691505092915050565b60006200036c83836200033e565b9150826002028217905092915050565b620003878262000102565b67ffffffffffffffff811115620003a357620003a26200010d565b5b620003af82546200016b565b620003bc828285620002e1565b600060209050601f831160018114620003f45760008415620003df578287015190505b620003eb85826200035e565b8655506200045b565b601f1984166200040486620001a0565b60005b828110156200042e5784890151825560018201915060208501945060208101905062000407565b868310156200044e57848901516200044a601f8916826200033e565b8355505b6001600288020188555050505b505050505050565b615db080620004736000396000f3fe608060405234801561001057600080fd5b50600436106101da5760003560e01c8063737b237611610104578063b69c85d6116100a2578063dd49dbd711610071578063dd49dbd714610553578063e985e9c51461055d578063f15c1b461461058d578063fd43d2e0146105bd576101da565b8063b69c85d6146104cd578063b88d4fde146104e9578063c87b56dd14610505578063d4a1911614610535576101da565b806395d89b41116100de57806395d89b411461044757806397dee91f14610465578063a22cb46514610481578063b012381e1461049d576101da565b8063737b2376146103f157806385a1556e1461040d5780638c22bfcd14610417576101da565b8063223668441161017c57806342842e0e1161014b57806342842e0e1461034557806350177a25146103615780636352211e1461039157806370a08231146103c1576101da565b806322366844146102d157806323b872dd146102db578063398ade02146102f75780633fbdbc1714610327576101da565b8063081812fc116101b8578063081812fc1461024b578063095ea7b31461027b57806316c23ec61461029757806317d7de7c146102b3576101da565b806301ffc9a7146101df578063045b94551461020f57806306fdde031461022d575b600080fd5b6101f960048036038101906101f49190613f09565b6105d9565b6040516102069190613f51565b60405180910390f35b6102176106bb565b6040516102249190614034565b60405180910390f35b610235610750565b60405161024291906140ef565b60405180910390f35b6102656004803603810190610260919061413d565b6107e2565b60405161027291906141ab565b60405180910390f35b610295600480360381019061029091906141f2565b610828565b005b6102b160048036038101906102ac91906143b4565b61093f565b005b6102bb610b2a565b6040516102c891906140ef565b60405180910390f35b6102d9610c88565b005b6102f560048036038101906102f091906143fd565b610d16565b005b610311600480360381019061030c91906143b4565b610d76565b60405161031e9190613f51565b60405180910390f35b61032f610da8565b60405161033c9190614034565b60405180910390f35b61035f600480360381019061035a91906143fd565b610ece565b005b61037b600480360381019061037691906143b4565b610eee565b604051610388919061450e565b60405180910390f35b6103ab60048036038101906103a6919061413d565b61112e565b6040516103b891906141ab565b60405180910390f35b6103db60048036038101906103d69190614530565b6111df565b6040516103e8919061456c565b60405180910390f35b61040b600480360381019061040691906143b4565b611296565b005b610415611481565b005b610431600480360381019061042c91906143b4565b611563565b60405161043e91906140ef565b60405180910390f35b61044f611829565b60405161045c91906140ef565b60405180910390f35b61047f600480360381019061047a91906146a1565b6118bb565b005b61049b600480360381019061049691906147c3565b611d81565b005b6104b760048036038101906104b291906143b4565b611d97565b6040516104c4919061497e565b60405180910390f35b6104e760048036038101906104e2919061413d565b61203a565b005b61050360048036038101906104fe9190614a41565b6121e3565b005b61051f600480360381019061051a919061413d565b612245565b60405161052c91906140ef565b60405180910390f35b61053d612284565b60405161054a91906140ef565b60405180910390f35b61055b612353565b005b61057760048036038101906105729190614ac4565b6123b0565b6040516105849190613f51565b60405180910390f35b6105a760048036038101906105a291906143b4565b612444565b6040516105b491906141ab565b60405180910390f35b6105d760048036038101906105d29190614b04565b61265e565b005b60007f80ac58cd000000000000000000000000000000000000000000000000000000007bffffffffffffffffffffffffffffffffffffffffffffffffffffffff1916827bffffffffffffffffffffffffffffffffffffffffffffffffffffffff191614806106a457507f5b5e139f000000000000000000000000000000000000000000000000000000007bffffffffffffffffffffffffffffffffffffffffffffffffffffffff1916827bffffffffffffffffffffffffffffffffffffffffffffffffffffffff1916145b806106b457506106b3826127d7565b5b9050919050565b6060600d60003373ffffffffffffffffffffffffffffffffffffffff1673ffffffffffffffffffffffffffffffffffffffff16815260200190815260200160002080548060200260200160405190810160405280929190818152602001828054801561074657602002820191906000526020600020905b815481526020019060010190808311610732575b5050505050905090565b60606000805461075f90614ba2565b80601f016020809104026020016040519081016040528092919081815260200182805461078b90614ba2565b80156107d85780601f106107ad576101008083540402835291602001916107d8565b820191906000526020600020905b8154815290600101906020018083116107bb57829003601f168201915b5050505050905090565b60006107ed82612841565b6004600083815260200190815260200160002060009054906101000a900473ffffffffffffffffffffffffffffffffffffffff169050919050565b60006108338261112e565b90508073ffffffffffffffffffffffffffffffffffffffff168373ffffffffffffffffffffffffffffffffffffffff16036108a3576040517f08c379a000000000000000000000000000000000000000000000000000000000815260040161089a90614c45565b60405180910390fd5b8073ffffffffffffffffffffffffffffffffffffffff166108c261288c565b73ffffffffffffffffffffffffffffffffffffffff1614806108f157506108f0816108eb61288c565b6123b0565b5b610930576040517f08c379a000000000000000000000000000000000000000000000000000000000815260040161092790614cd7565b60405180910390fd5b61093a8383612894565b505050565b806008600061094d8361294d565b815260200190815260200160002060009054906101000a900460ff1615806109c15750600a60003373ffffffffffffffffffffffffffffffffffffffff1673ffffffffffffffffffffffffffffffffffffffff16815260200190815260200160002060010160009054906101000a900460ff165b610a00576040517f08c379a00000000000000000000000000000000000000000000000000000000081526004016109f790614d43565b60405180910390fd5b816000610a0c8261294d565b90503373ffffffffffffffffffffffffffffffffffffffff16600c60008381526020019081526020016000206001600c600085815260200190815260200160002080549050610a5b9190614d92565b81548110610a6c57610a6b614dc6565b5b9060005260206000200160009054906101000a900473ffffffffffffffffffffffffffffffffffffffff1673ffffffffffffffffffffffffffffffffffffffff1614610aed576040517f08c379a0000000000000000000000000000000000000000000000000000000008152600401610ae490614e67565b60405180910390fd5b6000600b6000610afc8761294d565b815260200190815260200160002060030160086101000a81548160ff02191690831515021790555050505050565b6060600760003373ffffffffffffffffffffffffffffffffffffffff1673ffffffffffffffffffffffffffffffffffffffff16815260200190815260200160002060009054906101000a900460ff16610bb8576040517f08c379a0000000000000000000000000000000000000000000000000000000008152600401610baf90614ed3565b60405180910390fd5b600a60003373ffffffffffffffffffffffffffffffffffffffff1673ffffffffffffffffffffffffffffffffffffffff1681526020019081526020016000206000018054610c0590614ba2565b80601f0160208091040260200160405190810160405280929190818152602001828054610c3190614ba2565b8015610c7e5780601f10610c5357610100808354040283529160200191610c7e565b820191906000526020600020905b815481529060010190602001808311610c6157829003601f168201915b5050505050905090565b600760003373ffffffffffffffffffffffffffffffffffffffff1673ffffffffffffffffffffffffffffffffffffffff16815260200190815260200160002060009054906101000a900460ff16610d14576040517f08c379a0000000000000000000000000000000000000000000000000000000008152600401610d0b90614ed3565b60405180910390fd5b565b610d27610d2161288c565b826129b8565b610d66576040517f08c379a0000000000000000000000000000000000000000000000000000000008152600401610d5d90614f65565b60405180910390fd5b610d71838383612a4d565b505050565b600060086000610d858461294d565b815260200190815260200160002060009054906101000a900460ff169050919050565b606033600a60008273ffffffffffffffffffffffffffffffffffffffff1673ffffffffffffffffffffffffffffffffffffffff16815260200190815260200160002060010160009054906101000a900460ff16610e3a576040517f08c379a0000000000000000000000000000000000000000000000000000000008152600401610e3190614fd1565b60405180910390fd5b600e60003373ffffffffffffffffffffffffffffffffffffffff1673ffffffffffffffffffffffffffffffffffffffff168152602001908152602001600020805480602002602001604051908101604052809291908181526020018280548015610ec357602002820191906000526020600020905b815481526020019060010190808311610eaf575b505050505091505090565b610ee9838383604051806020016040528060008152506121e3565b505050565b60608160086000610efe8361294d565b815260200190815260200160002060009054906101000a900460ff161580610f725750600a60003373ffffffffffffffffffffffffffffffffffffffff1673ffffffffffffffffffffffffffffffffffffffff16815260200190815260200160002060010160009054906101000a900460ff165b610fb1576040517f08c379a0000000000000000000000000000000000000000000000000000000008152600401610fa890614d43565b60405180910390fd5b6000610fbc8461294d565b9050600b600082815260200190815260200160002060030160089054906101000a900460ff168061104e57503373ffffffffffffffffffffffffffffffffffffffff16600b600083815260200190815260200160002060020160009054906101000a900473ffffffffffffffffffffffffffffffffffffffff1673ffffffffffffffffffffffffffffffffffffffff16145b61108d576040517f08c379a000000000000000000000000000000000000000000000000000000000815260040161108490615063565b60405180910390fd5b600c600082815260200190815260200160002080548060200260200160405190810160405280929190818152602001828054801561112057602002820191906000526020600020905b8160009054906101000a900473ffffffffffffffffffffffffffffffffffffffff1673ffffffffffffffffffffffffffffffffffffffff16815260200190600101908083116110d6575b505050505092505050919050565b6000806002600084815260200190815260200160002060009054906101000a900473ffffffffffffffffffffffffffffffffffffffff169050600073ffffffffffffffffffffffffffffffffffffffff168173ffffffffffffffffffffffffffffffffffffffff16036111d6576040517f08c379a00000000000000000000000000000000000000000000000000000000081526004016111cd906150cf565b60405180910390fd5b80915050919050565b60008073ffffffffffffffffffffffffffffffffffffffff168273ffffffffffffffffffffffffffffffffffffffff160361124f576040517f08c379a000000000000000000000000000000000000000000000000000000000815260040161124690615161565b60405180910390fd5b600360008373ffffffffffffffffffffffffffffffffffffffff1673ffffffffffffffffffffffffffffffffffffffff168152602001908152602001600020549050919050565b80600860006112a48361294d565b815260200190815260200160002060009054906101000a900460ff1615806113185750600a60003373ffffffffffffffffffffffffffffffffffffffff1673ffffffffffffffffffffffffffffffffffffffff16815260200190815260200160002060010160009054906101000a900460ff165b611357576040517f08c379a000000000000000000000000000000000000000000000000000000000815260040161134e90614d43565b60405180910390fd5b8160006113638261294d565b90503373ffffffffffffffffffffffffffffffffffffffff16600c60008381526020019081526020016000206001600c6000858152602001908152602001600020805490506113b29190614d92565b815481106113c3576113c2614dc6565b5b9060005260206000200160009054906101000a900473ffffffffffffffffffffffffffffffffffffffff1673ffffffffffffffffffffffffffffffffffffffff1614611444576040517f08c379a000000000000000000000000000000000000000000000000000000000815260040161143b90614e67565b60405180910390fd5b6001600b60006114538761294d565b815260200190815260200160002060030160086101000a81548160ff02191690831515021790555050505050565b6000600e60003373ffffffffffffffffffffffffffffffffffffffff1673ffffffffffffffffffffffffffffffffffffffff1681526020019081526020016000208054905014611506576040517f08c379a00000000000000000000000000000000000000000000000000000000081526004016114fd906151f3565b60405180910390fd5b6000600a60003373ffffffffffffffffffffffffffffffffffffffff1673ffffffffffffffffffffffffffffffffffffffff16815260200190815260200160002060010160006101000a81548160ff021916908315150217905550565b606060006115708361294d565b9050600b600082815260200190815260200160002060020160009054906101000a900473ffffffffffffffffffffffffffffffffffffffff1673ffffffffffffffffffffffffffffffffffffffff163373ffffffffffffffffffffffffffffffffffffffff16148061167e5750600c60008281526020019081526020016000206001600c6000848152602001908152602001600020805490506116139190614d92565b8154811061162457611623614dc6565b5b9060005260206000200160009054906101000a900473ffffffffffffffffffffffffffffffffffffffff1673ffffffffffffffffffffffffffffffffffffffff163373ffffffffffffffffffffffffffffffffffffffff16145b6116bd576040517f08c379a00000000000000000000000000000000000000000000000000000000081526004016116b490615285565b60405180910390fd5b6000429050600b600083815260200190815260200160002060030160009054906101000a900467ffffffffffffffff1667ffffffffffffffff16600b600084815260200190815260200160002060020160149054906101000a900467ffffffffffffffff168261172d91906152a5565b67ffffffffffffffff16106117cc5761174582612cb3565b6040518060400160405280601281526020017f4c6963656e736520697320657870697265640000000000000000000000000000815250601060003373ffffffffffffffffffffffffffffffffffffffff1673ffffffffffffffffffffffffffffffffffffffff16815260200190815260200160002090816117c69190615485565b50611822565b6117d582612e14565b601060003373ffffffffffffffffffffffffffffffffffffffff1673ffffffffffffffffffffffffffffffffffffffff16815260200190815260200160002090816118209190615485565b505b5050919050565b60606001805461183890614ba2565b80601f016020809104026020016040519081016040528092919081815260200182805461186490614ba2565b80156118b15780601f10611886576101008083540402835291602001916118b1565b820191906000526020600020905b81548152906001019060200180831161189457829003601f168201915b5050505050905090565b33600a60008273ffffffffffffffffffffffffffffffffffffffff1673ffffffffffffffffffffffffffffffffffffffff16815260200190815260200160002060010160009054906101000a900460ff1661194b576040517f08c379a000000000000000000000000000000000000000000000000000000000815260040161194290614fd1565b60405180910390fd5b600760008773ffffffffffffffffffffffffffffffffffffffff1673ffffffffffffffffffffffffffffffffffffffff16815260200190815260200160002060009054906101000a900460ff166119d7576040517f08c379a00000000000000000000000000000000000000000000000000000000081526004016119ce90614ed3565b60405180910390fd5b600f846040516119e79190615593565b908152602001604051809103902060009054906101000a900460ff1615611a43856040518060400160405280601681526020017f203a2055524920616c726561647920696e207573652e00000000000000000000815250612f26565b90611a84576040517f08c379a0000000000000000000000000000000000000000000000000000000008152600401611a7b91906140ef565b60405180910390fd5b506000611a908661294d565b90506009600082815260200190815260200160002060009054906101000a900460ff1615611af3576040517f08c379a0000000000000000000000000000000000000000000000000000000008152600401611aea906155f6565b60405180910390fd5b611afc8161203a565b611b068782612f52565b611b108186612f70565b6001600f86604051611b229190615593565b908152602001604051809103902060006101000a81548160ff021916908315150217905550600e60003373ffffffffffffffffffffffffffffffffffffffff1673ffffffffffffffffffffffffffffffffffffffff16815260200190815260200160002081908060018154018082558091505060019003906000526020600020016000909190919091505560016009600083815260200190815260200160002060006101000a81548160ff0219169083151502179055506040518060e001604052808a81526020018981526020013373ffffffffffffffffffffffffffffffffffffffff1681526020014267ffffffffffffffff1681526020018567ffffffffffffffff168152602001600015158152602001846005811115611c4857611c4761486b565b5b815250600b60008381526020019081526020016000206000820151816000019081611c739190615485565b506020820151816001015560408201518160020160006101000a81548173ffffffffffffffffffffffffffffffffffffffff021916908373ffffffffffffffffffffffffffffffffffffffff16021790555060608201518160020160146101000a81548167ffffffffffffffff021916908367ffffffffffffffff16021790555060808201518160030160006101000a81548167ffffffffffffffff021916908367ffffffffffffffff16021790555060a08201518160030160086101000a81548160ff02191690831515021790555060c08201518160030160096101000a81548160ff02191690836005811115611d6e57611d6d61486b565b5b0217905550905050505050505050505050565b611d93611d8c61288c565b8383612fdd565b5050565b611d9f613dc5565b8160086000611dad8361294d565b815260200190815260200160002060009054906101000a900460ff161580611e215750600a60003373ffffffffffffffffffffffffffffffffffffffff1673ffffffffffffffffffffffffffffffffffffffff16815260200190815260200160002060010160009054906101000a900460ff165b611e60576040517f08c379a0000000000000000000000000000000000000000000000000000000008152600401611e5790614d43565b60405180910390fd5b600b6000611e6d8561294d565b81526020019081526020016000206040518060e0016040529081600082018054611e9690614ba2565b80601f0160208091040260200160405190810160405280929190818152602001828054611ec290614ba2565b8015611f0f5780601f10611ee457610100808354040283529160200191611f0f565b820191906000526020600020905b815481529060010190602001808311611ef257829003601f168201915b50505050508152602001600182015481526020016002820160009054906101000a900473ffffffffffffffffffffffffffffffffffffffff1673ffffffffffffffffffffffffffffffffffffffff1673ffffffffffffffffffffffffffffffffffffffff1681526020016002820160149054906101000a900467ffffffffffffffff1667ffffffffffffffff1667ffffffffffffffff1681526020016003820160009054906101000a900467ffffffffffffffff1667ffffffffffffffff1667ffffffffffffffff1681526020016003820160089054906101000a900460ff161515151581526020016003820160099054906101000a900460ff16600581111561201c5761201b61486b565b5b600581111561202e5761202d61486b565b5b81525050915050919050565b33600a60008273ffffffffffffffffffffffffffffffffffffffff1673ffffffffffffffffffffffffffffffffffffffff16815260200190815260200160002060010160009054906101000a900460ff166120ca576040517f08c379a00000000000000000000000000000000000000000000000000000000081526004016120c190614fd1565b60405180910390fd5b6009600083815260200190815260200160002060009054906101000a900460ff16156121716121366040518060400160405280600781526020017f53657269616c200000000000000000000000000000000000000000000000000081525061213186613149565b612f26565b6040518060400160405280600f81526020017f20616c726561647920696e207573650000000000000000000000000000000000815250612f26565b906121b2576040517f08c379a00000000000000000000000000000000000000000000000000000000081526004016121a991906140ef565b60405180910390fd5b5060016009600084815260200190815260200160002060006101000a81548160ff0219169083151502179055505050565b6121f46121ee61288c565b836129b8565b612233576040517f08c379a000000000000000000000000000000000000000000000000000000000815260040161222a90614f65565b60405180910390fd5b61223f8484848461331e565b50505050565b60606040518060400160405280600e81526020017f496c6c6567616c204163636573730000000000000000000000000000000000008152509050919050565b6060601060003373ffffffffffffffffffffffffffffffffffffffff1673ffffffffffffffffffffffffffffffffffffffff16815260200190815260200160002080546122d090614ba2565b80601f01602080910402602001604051908101604052809291908181526020018280546122fc90614ba2565b80156123495780601f1061231e57610100808354040283529160200191612349565b820191906000526020600020905b81548152906001019060200180831161232c57829003601f168201915b5050505050905090565b6001600a60003373ffffffffffffffffffffffffffffffffffffffff1673ffffffffffffffffffffffffffffffffffffffff16815260200190815260200160002060010160006101000a81548160ff021916908315150217905550565b6000600560008473ffffffffffffffffffffffffffffffffffffffff1673ffffffffffffffffffffffffffffffffffffffff16815260200190815260200160002060008373ffffffffffffffffffffffffffffffffffffffff1673ffffffffffffffffffffffffffffffffffffffff16815260200190815260200160002060009054906101000a900460ff16905092915050565b600081600860006124548361294d565b815260200190815260200160002060009054906101000a900460ff1615806124c85750600a60003373ffffffffffffffffffffffffffffffffffffffff1673ffffffffffffffffffffffffffffffffffffffff16815260200190815260200160002060010160009054906101000a900460ff165b612507576040517f08c379a00000000000000000000000000000000000000000000000000000000081526004016124fe90614d43565b60405180910390fd5b60006125128461294d565b9050600b600082815260200190815260200160002060030160089054906101000a900460ff16806125a457503373ffffffffffffffffffffffffffffffffffffffff16600b600083815260200190815260200160002060020160009054906101000a900473ffffffffffffffffffffffffffffffffffffffff1673ffffffffffffffffffffffffffffffffffffffff16145b6125e3576040517f08c379a00000000000000000000000000000000000000000000000000000000081526004016125da90615688565b60405180910390fd5b600c60008281526020019081526020016000206001600c6000848152602001908152602001600020805490506126199190614d92565b8154811061262a57612629614dc6565b5b9060005260206000200160009054906101000a900473ffffffffffffffffffffffffffffffffffffffff1692505050919050565b600760008373ffffffffffffffffffffffffffffffffffffffff1673ffffffffffffffffffffffffffffffffffffffff16815260200190815260200160002060009054906101000a900460ff16156126eb576040517f08c379a00000000000000000000000000000000000000000000000000000000081526004016126e2906156f4565b60405180910390fd5b6001600760008473ffffffffffffffffffffffffffffffffffffffff1673ffffffffffffffffffffffffffffffffffffffff16815260200190815260200160002060006101000a81548160ff0219169083151502179055506040518060400160405280848152602001821515815250600a60008473ffffffffffffffffffffffffffffffffffffffff1673ffffffffffffffffffffffffffffffffffffffff16815260200190815260200160002060008201518160000190816127ae9190615485565b5060208201518160010160006101000a81548160ff021916908315150217905550905050505050565b60007f01ffc9a7000000000000000000000000000000000000000000000000000000007bffffffffffffffffffffffffffffffffffffffffffffffffffffffff1916827bffffffffffffffffffffffffffffffffffffffffffffffffffffffff1916149050919050565b61284a8161337a565b612889576040517f08c379a0000000000000000000000000000000000000000000000000000000008152600401612880906150cf565b60405180910390fd5b50565b600033905090565b816004600083815260200190815260200160002060006101000a81548173ffffffffffffffffffffffffffffffffffffffff021916908373ffffffffffffffffffffffffffffffffffffffff160217905550808273ffffffffffffffffffffffffffffffffffffffff166129078361112e565b73ffffffffffffffffffffffffffffffffffffffff167f8c5be1e5ebec7d5bd14f71427d1e84f3dd0314c0f7b2291e5b200ac8c7c3b92560405160405180910390a45050565b6000806000601090505b600181106129ae578360018261296d9190614d92565b8151811061297e5761297d614dc6565b5b602002602001015161ffff16601083901b6129999190615714565b915080806129a69061576a565b915050612957565b5080915050919050565b6000806129c48361112e565b90508073ffffffffffffffffffffffffffffffffffffffff168473ffffffffffffffffffffffffffffffffffffffff161480612a065750612a0581856123b0565b5b80612a4457508373ffffffffffffffffffffffffffffffffffffffff16612a2c846107e2565b73ffffffffffffffffffffffffffffffffffffffff16145b91505092915050565b8273ffffffffffffffffffffffffffffffffffffffff16612a6d8261112e565b73ffffffffffffffffffffffffffffffffffffffff1614612ac3576040517f08c379a0000000000000000000000000000000000000000000000000000000008152600401612aba90615805565b60405180910390fd5b600073ffffffffffffffffffffffffffffffffffffffff168273ffffffffffffffffffffffffffffffffffffffff1603612b32576040517f08c379a0000000000000000000000000000000000000000000000000000000008152600401612b2990615897565b60405180910390fd5b612b3d8383836133e6565b612b48600082612894565b6001600360008573ffffffffffffffffffffffffffffffffffffffff1673ffffffffffffffffffffffffffffffffffffffff1681526020019081526020016000206000828254612b989190614d92565b925050819055506001600360008473ffffffffffffffffffffffffffffffffffffffff1673ffffffffffffffffffffffffffffffffffffffff1681526020019081526020016000206000828254612bef9190615714565b92505081905550816002600083815260200190815260200160002060006101000a81548173ffffffffffffffffffffffffffffffffffffffff021916908373ffffffffffffffffffffffffffffffffffffffff160217905550808273ffffffffffffffffffffffffffffffffffffffff168473ffffffffffffffffffffffffffffffffffffffff167fddf252ad1be2c89b69c2b068fc378daa952ba7f163c4a11628f55a4df523b3ef60405160405180910390a4612cae838383613549565b505050565b60016008600083815260200190815260200160002060006101000a81548160ff02191690831515021790555060005b600d60003373ffffffffffffffffffffffffffffffffffffffff1673ffffffffffffffffffffffffffffffffffffffff16815260200190815260200160002080549050811015612e075781600d60003373ffffffffffffffffffffffffffffffffffffffff1673ffffffffffffffffffffffffffffffffffffffff1681526020019081526020016000208281548110612d7e57612d7d614dc6565b5b906000526020600020015403612df4576000600d60003373ffffffffffffffffffffffffffffffffffffffff1673ffffffffffffffffffffffffffffffffffffffff1681526020019081526020016000208281548110612de157612de0614dc6565b5b9060005260206000200181905550612e07565b8080612dff906158b7565b915050612ce2565b612e108261368c565b5050565b6060612e1f82612841565b6000600660008481526020019081526020016000208054612e3f90614ba2565b80601f0160208091040260200160405190810160405280929190818152602001828054612e6b90614ba2565b8015612eb85780601f10612e8d57610100808354040283529160200191612eb8565b820191906000526020600020905b815481529060010190602001808311612e9b57829003601f168201915b505050505090506000612ec9613698565b90506000815103612ede578192505050612f21565b600082511115612f13578082604051602001612efb9291906158ff565b60405160208183030381529060405292505050612f21565b612f1c846136af565b925050505b919050565b60608282604051602001612f3b92919061596f565b604051602081830303815290604052905092915050565b612f6c828260405180602001604052806000815250613717565b5050565b612f798261337a565b612fb8576040517f08c379a0000000000000000000000000000000000000000000000000000000008152600401612faf90615a10565b60405180910390fd5b80600660008481526020019081526020016000209081612fd89190615485565b505050565b8173ffffffffffffffffffffffffffffffffffffffff168373ffffffffffffffffffffffffffffffffffffffff160361304b576040517f08c379a000000000000000000000000000000000000000000000000000000000815260040161304290615a7c565b60405180910390fd5b80600560008573ffffffffffffffffffffffffffffffffffffffff1673ffffffffffffffffffffffffffffffffffffffff16815260200190815260200160002060008473ffffffffffffffffffffffffffffffffffffffff1673ffffffffffffffffffffffffffffffffffffffff16815260200190815260200160002060006101000a81548160ff0219169083151502179055508173ffffffffffffffffffffffffffffffffffffffff168373ffffffffffffffffffffffffffffffffffffffff167f17307eab39ab6107e8899845ad3d59bd9653f200f220920489ca2b5937696c318360405161313c9190613f51565b60405180910390a3505050565b60606000606467ffffffffffffffff81111561316857613167614237565b5b6040519080825280601f01601f19166020018201604052801561319a5781602001600182028036833780820191505090505b50905060005b600084111561322957600a846131b69190615acb565b60306131c29190615714565b60f81b8282815181106131d8576131d7614dc6565b5b60200101907effffffffffffffffffffffffffffffffffffffffffffffffffffffffffffff1916908160001a905350600a846132149190615afc565b93508080613221906158b7565b9150506131a0565b6000825167ffffffffffffffff81111561324657613245614237565b5b6040519080825280601f01601f1916602001820160405280156132785781602001600182028036833780820191505090505b50905060005b8351811015613312578360018286516132979190614d92565b6132a19190614d92565b815181106132b2576132b1614dc6565b5b602001015160f81c60f81b8282815181106132d0576132cf614dc6565b5b60200101907effffffffffffffffffffffffffffffffffffffffffffffffffffffffffffff1916908160001a905350808061330a906158b7565b91505061327e565b50809350505050919050565b613329848484612a4d565b61333584848484613772565b613374576040517f08c379a000000000000000000000000000000000000000000000000000000000815260040161336b90615b9f565b60405180910390fd5b50505050565b60008073ffffffffffffffffffffffffffffffffffffffff166002600084815260200190815260200160002060009054906101000a900473ffffffffffffffffffffffffffffffffffffffff1673ffffffffffffffffffffffffffffffffffffffff1614159050919050565b600073ffffffffffffffffffffffffffffffffffffffff168373ffffffffffffffffffffffffffffffffffffffff16146135445760005b600d60008573ffffffffffffffffffffffffffffffffffffffff1673ffffffffffffffffffffffffffffffffffffffff168152602001908152602001600020805490508110156135425781600d60008673ffffffffffffffffffffffffffffffffffffffff1673ffffffffffffffffffffffffffffffffffffffff16815260200190815260200160002082815481106134b9576134b8614dc6565b5b90600052602060002001540361352f576000600d60008673ffffffffffffffffffffffffffffffffffffffff1673ffffffffffffffffffffffffffffffffffffffff168152602001908152602001600020828154811061351c5761351b614dc6565b5b9060005260206000200181905550613542565b808061353a906158b7565b91505061341d565b505b505050565b600073ffffffffffffffffffffffffffffffffffffffff168273ffffffffffffffffffffffffffffffffffffffff161461368757600d60008373ffffffffffffffffffffffffffffffffffffffff1673ffffffffffffffffffffffffffffffffffffffff168152602001908152602001600020819080600181540180825580915050600190039060005260206000200160009091909190915055600c6000828152602001908152602001600020829080600181540180825580915050600190039060005260206000200160009091909190916101000a81548173ffffffffffffffffffffffffffffffffffffffff021916908373ffffffffffffffffffffffffffffffffffffffff1602179055506000600b600083815260200190815260200160002060030160086101000a81548160ff0219169083151502179055505b505050565b613695816138f9565b50565b606060405180602001604052806000815250905090565b60606136ba82612841565b60006136c4613698565b905060008151116136e4576040518060200160405280600081525061370f565b806136ee8461394c565b6040516020016136ff9291906158ff565b6040516020818303038152906040525b915050919050565b6137218383613aac565b61372e6000848484613772565b61376d576040517f08c379a000000000000000000000000000000000000000000000000000000000815260040161376490615b9f565b60405180910390fd5b505050565b60006137938473ffffffffffffffffffffffffffffffffffffffff16613c85565b156138ec578373ffffffffffffffffffffffffffffffffffffffff1663150b7a026137bc61288c565b8786866040518563ffffffff1660e01b81526004016137de9493929190615c14565b6020604051808303816000875af192505050801561381a57506040513d601f19601f820116820180604052508101906138179190615c75565b60015b61389c573d806000811461384a576040519150601f19603f3d011682016040523d82523d6000602084013e61384f565b606091505b506000815103613894576040517f08c379a000000000000000000000000000000000000000000000000000000000815260040161388b90615b9f565b60405180910390fd5b805181602001fd5b63150b7a0260e01b7bffffffffffffffffffffffffffffffffffffffffffffffffffffffff1916817bffffffffffffffffffffffffffffffffffffffffffffffffffffffff1916149150506138f1565b600190505b949350505050565b61390281613ca8565b600060066000838152602001908152602001600020805461392290614ba2565b905014613949576006600082815260200190815260200160002060006139489190613e40565b5b50565b606060008203613993576040518060400160405280600181526020017f30000000000000000000000000000000000000000000000000000000000000008152509050613aa7565b600082905060005b600082146139c55780806139ae906158b7565b915050600a826139be9190615afc565b915061399b565b60008167ffffffffffffffff8111156139e1576139e0614237565b5b6040519080825280601f01601f191660200182016040528015613a135781602001600182028036833780820191505090505b5090505b60008514613aa057600182613a2c9190614d92565b9150600a85613a3b9190615acb565b6030613a479190615714565b60f81b818381518110613a5d57613a5c614dc6565b5b60200101907effffffffffffffffffffffffffffffffffffffffffffffffffffffffffffff1916908160001a905350600a85613a999190615afc565b9450613a17565b8093505050505b919050565b600073ffffffffffffffffffffffffffffffffffffffff168273ffffffffffffffffffffffffffffffffffffffff1603613b1b576040517f08c379a0000000000000000000000000000000000000000000000000000000008152600401613b1290615cee565b60405180910390fd5b613b248161337a565b15613b64576040517f08c379a0000000000000000000000000000000000000000000000000000000008152600401613b5b90615d5a565b60405180910390fd5b613b70600083836133e6565b6001600360008473ffffffffffffffffffffffffffffffffffffffff1673ffffffffffffffffffffffffffffffffffffffff1681526020019081526020016000206000828254613bc09190615714565b92505081905550816002600083815260200190815260200160002060006101000a81548173ffffffffffffffffffffffffffffffffffffffff021916908373ffffffffffffffffffffffffffffffffffffffff160217905550808273ffffffffffffffffffffffffffffffffffffffff16600073ffffffffffffffffffffffffffffffffffffffff167fddf252ad1be2c89b69c2b068fc378daa952ba7f163c4a11628f55a4df523b3ef60405160405180910390a4613c8160008383613549565b5050565b6000808273ffffffffffffffffffffffffffffffffffffffff163b119050919050565b6000613cb38261112e565b9050613cc1816000846133e6565b613ccc600083612894565b6001600360008373ffffffffffffffffffffffffffffffffffffffff1673ffffffffffffffffffffffffffffffffffffffff1681526020019081526020016000206000828254613d1c9190614d92565b925050819055506002600083815260200190815260200160002060006101000a81549073ffffffffffffffffffffffffffffffffffffffff021916905581600073ffffffffffffffffffffffffffffffffffffffff168273ffffffffffffffffffffffffffffffffffffffff167fddf252ad1be2c89b69c2b068fc378daa952ba7f163c4a11628f55a4df523b3ef60405160405180910390a4613dc181600084613549565b5050565b6040518060e001604052806060815260200160008152602001600073ffffffffffffffffffffffffffffffffffffffff168152602001600067ffffffffffffffff168152602001600067ffffffffffffffff16815260200160001515815260200160006005811115613e3a57613e3961486b565b5b81525090565b508054613e4c90614ba2565b6000825580601f10613e5e5750613e7d565b601f016020900490600052602060002090810190613e7c9190613e80565b5b50565b5b80821115613e99576000816000905550600101613e81565b5090565b6000604051905090565b600080fd5b600080fd5b60007fffffffff0000000000000000000000000000000000000000000000000000000082169050919050565b613ee681613eb1565b8114613ef157600080fd5b50565b600081359050613f0381613edd565b92915050565b600060208284031215613f1f57613f1e613ea7565b5b6000613f2d84828501613ef4565b91505092915050565b60008115159050919050565b613f4b81613f36565b82525050565b6000602082019050613f666000830184613f42565b92915050565b600081519050919050565b600082825260208201905092915050565b6000819050602082019050919050565b6000819050919050565b613fab81613f98565b82525050565b6000613fbd8383613fa2565b60208301905092915050565b6000602082019050919050565b6000613fe182613f6c565b613feb8185613f77565b9350613ff683613f88565b8060005b8381101561402757815161400e8882613fb1565b975061401983613fc9565b925050600181019050613ffa565b5085935050505092915050565b6000602082019050818103600083015261404e8184613fd6565b905092915050565b600081519050919050565b600082825260208201905092915050565b60005b83811015614090578082015181840152602081019050614075565b8381111561409f576000848401525b50505050565b6000601f19601f8301169050919050565b60006140c182614056565b6140cb8185614061565b93506140db818560208601614072565b6140e4816140a5565b840191505092915050565b6000602082019050818103600083015261410981846140b6565b905092915050565b61411a81613f98565b811461412557600080fd5b50565b60008135905061413781614111565b92915050565b60006020828403121561415357614152613ea7565b5b600061416184828501614128565b91505092915050565b600073ffffffffffffffffffffffffffffffffffffffff82169050919050565b60006141958261416a565b9050919050565b6141a58161418a565b82525050565b60006020820190506141c0600083018461419c565b92915050565b6141cf8161418a565b81146141da57600080fd5b50565b6000813590506141ec816141c6565b92915050565b6000806040838503121561420957614208613ea7565b5b6000614217858286016141dd565b925050602061422885828601614128565b9150509250929050565b600080fd5b7f4e487b7100000000000000000000000000000000000000000000000000000000600052604160045260246000fd5b61426f826140a5565b810181811067ffffffffffffffff8211171561428e5761428d614237565b5b80604052505050565b60006142a1613e9d565b90506142ad8282614266565b919050565b600067ffffffffffffffff8211156142cd576142cc614237565b5b602082029050602081019050919050565b600080fd5b600061ffff82169050919050565b6142fa816142e3565b811461430557600080fd5b50565b600081359050614317816142f1565b92915050565b600061433061432b846142b2565b614297565b90508083825260208201905060208402830185811115614353576143526142de565b5b835b8181101561437c57806143688882614308565b845260208401935050602081019050614355565b5050509392505050565b600082601f83011261439b5761439a614232565b5b81356143ab84826020860161431d565b91505092915050565b6000602082840312156143ca576143c9613ea7565b5b600082013567ffffffffffffffff8111156143e8576143e7613eac565b5b6143f484828501614386565b91505092915050565b60008060006060848603121561441657614415613ea7565b5b6000614424868287016141dd565b9350506020614435868287016141dd565b925050604061444686828701614128565b9150509250925092565b600081519050919050565b600082825260208201905092915050565b6000819050602082019050919050565b6144858161418a565b82525050565b6000614497838361447c565b60208301905092915050565b6000602082019050919050565b60006144bb82614450565b6144c5818561445b565b93506144d08361446c565b8060005b838110156145015781516144e8888261448b565b97506144f3836144a3565b9250506001810190506144d4565b5085935050505092915050565b6000602082019050818103600083015261452881846144b0565b905092915050565b60006020828403121561454657614545613ea7565b5b6000614554848285016141dd565b91505092915050565b61456681613f98565b82525050565b6000602082019050614581600083018461455d565b92915050565b600080fd5b600067ffffffffffffffff8211156145a7576145a6614237565b5b6145b0826140a5565b9050602081019050919050565b82818337600083830152505050565b60006145df6145da8461458c565b614297565b9050828152602081018484840111156145fb576145fa614587565b5b6146068482856145bd565b509392505050565b600082601f83011261462357614622614232565b5b81356146338482602086016145cc565b91505092915050565b600067ffffffffffffffff82169050919050565b6146598161463c565b811461466457600080fd5b50565b60008135905061467681614650565b92915050565b6006811061468957600080fd5b50565b60008135905061469b8161467c565b92915050565b600080600080600080600060e0888a0312156146c0576146bf613ea7565b5b600088013567ffffffffffffffff8111156146de576146dd613eac565b5b6146ea8a828b0161460e565b97505060206146fb8a828b01614128565b965050604061470c8a828b016141dd565b955050606088013567ffffffffffffffff81111561472d5761472c613eac565b5b6147398a828b01614386565b945050608088013567ffffffffffffffff81111561475a57614759613eac565b5b6147668a828b0161460e565b93505060a06147778a828b01614667565b92505060c06147888a828b0161468c565b91505092959891949750929550565b6147a081613f36565b81146147ab57600080fd5b50565b6000813590506147bd81614797565b92915050565b600080604083850312156147da576147d9613ea7565b5b60006147e8858286016141dd565b92505060206147f9858286016147ae565b9150509250929050565b600082825260208201905092915050565b600061481f82614056565b6148298185614803565b9350614839818560208601614072565b614842816140a5565b840191505092915050565b6148568161463c565b82525050565b61486581613f36565b82525050565b7f4e487b7100000000000000000000000000000000000000000000000000000000600052602160045260246000fd5b600681106148ab576148aa61486b565b5b50565b60008190506148bc8261489a565b919050565b60006148cc826148ae565b9050919050565b6148dc816148c1565b82525050565b600060e08301600083015184820360008601526148ff8282614814565b91505060208301516149146020860182613fa2565b506040830151614927604086018261447c565b50606083015161493a606086018261484d565b50608083015161494d608086018261484d565b5060a083015161496060a086018261485c565b5060c083015161497360c08601826148d3565b508091505092915050565b6000602082019050818103600083015261499881846148e2565b905092915050565b600067ffffffffffffffff8211156149bb576149ba614237565b5b6149c4826140a5565b9050602081019050919050565b60006149e46149df846149a0565b614297565b905082815260208101848484011115614a00576149ff614587565b5b614a0b8482856145bd565b509392505050565b600082601f830112614a2857614a27614232565b5b8135614a388482602086016149d1565b91505092915050565b60008060008060808587031215614a5b57614a5a613ea7565b5b6000614a69878288016141dd565b9450506020614a7a878288016141dd565b9350506040614a8b87828801614128565b925050606085013567ffffffffffffffff811115614aac57614aab613eac565b5b614ab887828801614a13565b91505092959194509250565b60008060408385031215614adb57614ada613ea7565b5b6000614ae9858286016141dd565b9250506020614afa858286016141dd565b9150509250929050565b600080600060608486031215614b1d57614b1c613ea7565b5b600084013567ffffffffffffffff811115614b3b57614b3a613eac565b5b614b478682870161460e565b9350506020614b58868287016141dd565b9250506040614b69868287016147ae565b9150509250925092565b7f4e487b7100000000000000000000000000000000000000000000000000000000600052602260045260246000fd5b60006002820490506001821680614bba57607f821691505b602082108103614bcd57614bcc614b73565b5b50919050565b7f4552433732313a20617070726f76616c20746f2063757272656e74206f776e6560008201527f7200000000000000000000000000000000000000000000000000000000000000602082015250565b6000614c2f602183614061565b9150614c3a82614bd3565b604082019050919050565b60006020820190508181036000830152614c5e81614c22565b9050919050565b7f4552433732313a20617070726f76652063616c6c6572206973206e6f7420746f60008201527f6b656e206f776e6572206e6f7220617070726f76656420666f7220616c6c0000602082015250565b6000614cc1603e83614061565b9150614ccc82614c65565b604082019050919050565b60006020820190508181036000830152614cf081614cb4565b9050919050565b7f546869732070726f6475637420686173206265656e2064656c657465642e0000600082015250565b6000614d2d601e83614061565b9150614d3882614cf7565b602082019050919050565b60006020820190508181036000830152614d5c81614d20565b9050919050565b7f4e487b7100000000000000000000000000000000000000000000000000000000600052601160045260246000fd5b6000614d9d82613f98565b9150614da883613f98565b925082821015614dbb57614dba614d63565b5b828203905092915050565b7f4e487b7100000000000000000000000000000000000000000000000000000000600052603260045260246000fd5b7f204f6e6c7920746865206f776e6572206f6620746869732070726f647563742060008201527f63616e2061636365737320746869730000000000000000000000000000000000602082015250565b6000614e51602f83614061565b9150614e5c82614df5565b604082019050919050565b60006020820190508181036000830152614e8081614e44565b9050919050565b7f4f6e6c792072656769737465726564206d656d6265727320616c6c6f77656400600082015250565b6000614ebd601f83614061565b9150614ec882614e87565b602082019050919050565b60006020820190508181036000830152614eec81614eb0565b9050919050565b7f4552433732313a2063616c6c6572206973206e6f7420746f6b656e206f776e6560008201527f72206e6f7220617070726f766564000000000000000000000000000000000000602082015250565b6000614f4f602e83614061565b9150614f5a82614ef3565b604082019050919050565b60006020820190508181036000830152614f7e81614f42565b9050919050565b7f4f6e6c792073656c6c6172732063616e20616363657373207468697300000000600082015250565b6000614fbb601c83614061565b9150614fc682614f85565b602082019050919050565b60006020820190508181036000830152614fea81614fae565b9050919050565b7f46756e6374696f6e2061636365737369626c65206f6e6c79206279207468652060008201527f6d656d626572206f6620746865206272616e6421210000000000000000000000602082015250565b600061504d603583614061565b915061505882614ff1565b604082019050919050565b6000602082019050818103600083015261507c81615040565b9050919050565b7f4552433732313a20696e76616c696420746f6b656e2049440000000000000000600082015250565b60006150b9601883614061565b91506150c482615083565b602082019050919050565b600060208201905081810360008301526150e8816150ac565b9050919050565b7f4552433732313a2061646472657373207a65726f206973206e6f74206120766160008201527f6c6964206f776e65720000000000000000000000000000000000000000000000602082015250565b600061514b602983614061565b9150615156826150ef565b604082019050919050565b6000602082019050818103600083015261517a8161513e565b9050919050565b7f416c6c206c6963656e736573206e65656420746f20657870697265206265666f60008201527f7265206c656176696e672074686520627573696e657373000000000000000000602082015250565b60006151dd603783614061565b91506151e882615181565b604082019050919050565b6000602082019050818103600083015261520c816151d0565b9050919050565b7f4f6e6c7920746865206f776e6572206f6620746869732061646472657373206360008201527f616e2073656520697427732064657461696c7300000000000000000000000000602082015250565b600061526f603383614061565b915061527a82615213565b604082019050919050565b6000602082019050818103600083015261529e81615262565b9050919050565b60006152b08261463c565b91506152bb8361463c565b9250828210156152ce576152cd614d63565b5b828203905092915050565b60008190508160005260206000209050919050565b60006020601f8301049050919050565b600082821b905092915050565b60006008830261533b7fffffffffffffffffffffffffffffffffffffffffffffffffffffffffffffffff826152fe565b61534586836152fe565b95508019841693508086168417925050509392505050565b6000819050919050565b600061538261537d61537884613f98565b61535d565b613f98565b9050919050565b6000819050919050565b61539c83615367565b6153b06153a882615389565b84845461530b565b825550505050565b600090565b6153c56153b8565b6153d0818484615393565b505050565b5b818110156153f4576153e96000826153bd565b6001810190506153d6565b5050565b601f8211156154395761540a816152d9565b615413846152ee565b81016020851015615422578190505b61543661542e856152ee565b8301826153d5565b50505b505050565b600082821c905092915050565b600061545c6000198460080261543e565b1980831691505092915050565b6000615475838361544b565b9150826002028217905092915050565b61548e82614056565b67ffffffffffffffff8111156154a7576154a6614237565b5b6154b18254614ba2565b6154bc8282856153f8565b600060209050601f8311600181146154ef57600084156154dd578287015190505b6154e78582615469565b86555061554f565b601f1984166154fd866152d9565b60005b8281101561552557848901518255600182019150602085019450602081019050615500565b86831015615542578489015161553e601f89168261544b565b8355505b6001600288020188555050505b505050505050565b600081905092915050565b600061556d82614056565b6155778185615557565b9350615587818560208601614072565b80840191505092915050565b600061559f8284615562565b915081905092915050565b7f53657269616c204944206d75737420626520756e757365640000000000000000600082015250565b60006155e0601883614061565b91506155eb826155aa565b602082019050919050565b6000602082019050818103600083015261560f816155d3565b9050919050565b7f50726f64756374206d757374206265206f6e2073616c6520746f20616363657360008201527f7320746869730000000000000000000000000000000000000000000000000000602082015250565b6000615672602683614061565b915061567d82615616565b604082019050919050565b600060208201905081810360008301526156a181615665565b9050919050565b7f4164647265737320616c72656164792072656769737465726564000000000000600082015250565b60006156de601a83614061565b91506156e9826156a8565b602082019050919050565b6000602082019050818103600083015261570d816156d1565b9050919050565b600061571f82613f98565b915061572a83613f98565b9250827fffffffffffffffffffffffffffffffffffffffffffffffffffffffffffffffff0382111561575f5761575e614d63565b5b828201905092915050565b600061577582613f98565b91506000820361578857615787614d63565b5b600182039050919050565b7f4552433732313a207472616e736665722066726f6d20696e636f72726563742060008201527f6f776e6572000000000000000000000000000000000000000000000000000000602082015250565b60006157ef602583614061565b91506157fa82615793565b604082019050919050565b6000602082019050818103600083015261581e816157e2565b9050919050565b7f4552433732313a207472616e7366657220746f20746865207a65726f2061646460008201527f7265737300000000000000000000000000000000000000000000000000000000602082015250565b6000615881602483614061565b915061588c82615825565b604082019050919050565b600060208201905081810360008301526158b081615874565b9050919050565b60006158c282613f98565b91507fffffffffffffffffffffffffffffffffffffffffffffffffffffffffffffffff82036158f4576158f3614d63565b5b600182019050919050565b600061590b8285615562565b91506159178284615562565b91508190509392505050565b7f2000000000000000000000000000000000000000000000000000000000000000600082015250565b6000615959600183615557565b915061596482615923565b600182019050919050565b600061597b8285615562565b91506159868261594c565b91506159928284615562565b91508190509392505050565b7f45524337323155524953746f726167653a2055524920736574206f66206e6f6e60008201527f6578697374656e7420746f6b656e000000000000000000000000000000000000602082015250565b60006159fa602e83614061565b9150615a058261599e565b604082019050919050565b60006020820190508181036000830152615a29816159ed565b9050919050565b7f4552433732313a20617070726f766520746f2063616c6c657200000000000000600082015250565b6000615a66601983614061565b9150615a7182615a30565b602082019050919050565b60006020820190508181036000830152615a9581615a59565b9050919050565b7f4e487b7100000000000000000000000000000000000000000000000000000000600052601260045260246000fd5b6000615ad682613f98565b9150615ae183613f98565b925082615af157615af0615a9c565b5b828206905092915050565b6000615b0782613f98565b9150615b1283613f98565b925082615b2257615b21615a9c565b5b828204905092915050565b7f4552433732313a207472616e7366657220746f206e6f6e20455243373231526560008201527f63656976657220696d706c656d656e7465720000000000000000000000000000602082015250565b6000615b89603283614061565b9150615b9482615b2d565b604082019050919050565b60006020820190508181036000830152615bb881615b7c565b9050919050565b600081519050919050565b600082825260208201905092915050565b6000615be682615bbf565b615bf08185615bca565b9350615c00818560208601614072565b615c09816140a5565b840191505092915050565b6000608082019050615c29600083018761419c565b615c36602083018661419c565b615c43604083018561455d565b8181036060830152615c558184615bdb565b905095945050505050565b600081519050615c6f81613edd565b92915050565b600060208284031215615c8b57615c8a613ea7565b5b6000615c9984828501615c60565b91505092915050565b7f4552433732313a206d696e7420746f20746865207a65726f2061646472657373600082015250565b6000615cd8602083614061565b9150615ce382615ca2565b602082019050919050565b60006020820190508181036000830152615d0781615ccb565b9050919050565b7f4552433732313a20746f6b656e20616c7265616479206d696e74656400000000600082015250565b6000615d44601c83614061565b9150615d4f82615d0e565b602082019050919050565b60006020820190508181036000830152615d7381615d37565b905091905056fea26469706673582212206419651466269103b7e596c9db140004fe9542a52c6ff0d800561c16248e8dbe64736f6c634300080f0033",
  "immutableReferences": {},
  "source": "// SPDX-License-Identifier: MIT\npragma solidity ^0.8.4;\n\nimport \"@openzeppelin/contracts/token/ERC721/ERC721.sol\";\nimport \"@openzeppelin/contracts/token/ERC721/extensions/ERC721URIStorage.sol\";\nimport \"./Ownership.sol\";\nimport \"./Misc.sol\";\n\ncontract License is ERC721, ERC721URIStorage, Whitelist {\n    mapping(string => bool) private existingURIs;\n    mapping(address => string) private addressURIMap;\n\n    constructor() ERC721(\"License\", \"License\") {}\n\n    // function _baseURI() internal pure override returns (string memory) {\n    //     return \"ipfs://\";\n    // }\n\n    function mint(\n        string memory name,\n        uint256 serialID,\n        address to,\n        uint16[] memory seeds,\n        string memory uri,\n        uint64 secs,\n        ProductType pType\n    ) public onlySellar(msg.sender) {\n        require(usedBrandIDs[to], \"Only registered members allowed\");\n        require(!existingURIs[uri], concatenate(uri, \" : URI already in use.\"));\n        uint256 tokenId = combine(seeds);\n        require(!usedSerials[tokenId], \"Serial ID must be unused\");\n        addSerial(tokenId);\n        _safeMint(to, tokenId);\n        _setTokenURI(tokenId, uri);\n        existingURIs[uri] = true;\n        addressSoldListMap[msg.sender].push(tokenId);\n        usedSerials[tokenId] = true;\n        serialProductMap[tokenId] = product(\n            name,\n            serialID,\n            msg.sender,\n            uint64(block.timestamp),\n            secs,\n            false,\n            pType\n        );\n    }\n\n    function safeBurn(uint256 tokenId) internal {\n        deletedSerials[tokenId] = true;\n        uint256 i;\n        for (i = 0; i < addressBoughtListMap[msg.sender].length; i++) {\n            if (addressBoughtListMap[msg.sender][i] == tokenId) {\n                addressBoughtListMap[msg.sender][i] = 0;\n                break;\n            }\n        }\n        _burn(tokenId);\n    }\n\n    function _burn(uint256 tokenId)\n        internal\n        override(ERC721, ERC721URIStorage)\n    {\n        super._burn(tokenId);\n    }\n\n    function setTokenURI(uint16[] memory parts) public returns (string memory) {\n        uint256 tokenId = combine(parts);\n        require(\n            msg.sender == serialProductMap[tokenId].sellar ||\n                msg.sender ==\n                serialOwnerListMap[tokenId][\n                    serialOwnerListMap[tokenId].length - 1\n                ],\n            \"Only the owner of this address can see it's details\"\n        );\n        uint64 current = uint64(block.timestamp);\n        if (\n            (current - serialProductMap[tokenId].birthtime) >=\n            serialProductMap[tokenId].lifespan\n        ) {\n            safeBurn(tokenId);\n            addressURIMap[msg.sender] = \"License is expired\";\n        } else {\n            addressURIMap[msg.sender] = super.tokenURI(tokenId);\n        }\n    }\n\n    function getTokenURI() public view returns (string memory) {\n        return addressURIMap[msg.sender];\n    }\n\n    function tokenURI(uint256 tokenId)\n        public\n        view\n        override(ERC721, ERC721URIStorage)\n        returns (string memory)\n    {\n        return \"Illegal Access\";\n    }\n\n    function _beforeTokenTransfer(\n        address from,\n        address to,\n        uint256 serial\n    ) internal virtual override {\n        if (from != address(0)) {\n            uint256 i;\n            for (i = 0; i < addressBoughtListMap[from].length; i++) {\n                if (addressBoughtListMap[from][i] == serial) {\n                    addressBoughtListMap[from][i] = 0;\n                    break;\n                }\n            }\n        }\n    }\n\n    function _afterTokenTransfer(\n        address from,\n        address to,\n        uint256 serial\n    ) internal virtual override {\n        if (to != address(0)) {\n            addressBoughtListMap[to].push(serial);\n            serialOwnerListMap[serial].push(to);\n            serialProductMap[serial].onSale = false;\n        }\n    }\n}\n",
  "sourcePath": "/Users/monjoy/Desktop/LicenseNFT/smart_contract/contracts/License.sol",
  "compiler": {
    "name": "solc",
    "version": "0.8.15+commit.e14f2714.Emscripten.clang"
  },
  "schemaVersion": "3.4.8",
  "updatedAt": "2022-07-25T09:22:42.136Z",
  "networkType": "ethereum",
  "devdoc": {
    "kind": "dev",
    "methods": {
      "approve(address,uint256)": {
        "details": "See {IERC721-approve}."
      },
      "balanceOf(address)": {
        "details": "See {IERC721-balanceOf}."
      },
      "getApproved(uint256)": {
        "details": "See {IERC721-getApproved}."
      },
      "isApprovedForAll(address,address)": {
        "details": "See {IERC721-isApprovedForAll}."
      },
      "name()": {
        "details": "See {IERC721Metadata-name}."
      },
      "ownerOf(uint256)": {
        "details": "See {IERC721-ownerOf}."
      },
      "safeTransferFrom(address,address,uint256)": {
        "details": "See {IERC721-safeTransferFrom}."
      },
      "safeTransferFrom(address,address,uint256,bytes)": {
        "details": "See {IERC721-safeTransferFrom}."
      },
      "setApprovalForAll(address,bool)": {
        "details": "See {IERC721-setApprovalForAll}."
      },
      "supportsInterface(bytes4)": {
        "details": "See {IERC165-supportsInterface}."
      },
      "symbol()": {
        "details": "See {IERC721Metadata-symbol}."
      },
      "transferFrom(address,address,uint256)": {
        "details": "See {IERC721-transferFrom}."
      }
    },
    "version": 1
  },
  "userdoc": {
    "kind": "user",
    "methods": {},
    "version": 1
  }
}