{
  "contractName": "License",
  "abi": [
    {
      "inputs": [],
      "stateMutability": "nonpayable",
      "type": "constructor"
    },
    {
      "anonymous": false,
      "inputs": [
        {
          "indexed": true,
          "internalType": "address",
          "name": "owner",
          "type": "address"
        },
        {
          "indexed": true,
          "internalType": "address",
          "name": "approved",
          "type": "address"
        },
        {
          "indexed": true,
          "internalType": "uint256",
          "name": "tokenId",
          "type": "uint256"
        }
      ],
      "name": "Approval",
      "type": "event"
    },
    {
      "anonymous": false,
      "inputs": [
        {
          "indexed": true,
          "internalType": "address",
          "name": "owner",
          "type": "address"
        },
        {
          "indexed": true,
          "internalType": "address",
          "name": "operator",
          "type": "address"
        },
        {
          "indexed": false,
          "internalType": "bool",
          "name": "approved",
          "type": "bool"
        }
      ],
      "name": "ApprovalForAll",
      "type": "event"
    },
    {
      "anonymous": false,
      "inputs": [
        {
          "indexed": true,
          "internalType": "address",
          "name": "previousOwner",
          "type": "address"
        },
        {
          "indexed": true,
          "internalType": "address",
          "name": "newOwner",
          "type": "address"
        }
      ],
      "name": "OwnershipTransferred",
      "type": "event"
    },
    {
      "anonymous": false,
      "inputs": [
        {
          "indexed": true,
          "internalType": "address",
          "name": "from",
          "type": "address"
        },
        {
          "indexed": true,
          "internalType": "address",
          "name": "to",
          "type": "address"
        },
        {
          "indexed": true,
          "internalType": "uint256",
          "name": "tokenId",
          "type": "uint256"
        }
      ],
      "name": "Transfer",
      "type": "event"
    },
    {
      "inputs": [
        {
          "internalType": "address",
          "name": "_member",
          "type": "address"
        }
      ],
      "name": "addMember",
      "outputs": [],
      "stateMutability": "nonpayable",
      "type": "function"
    },
    {
      "inputs": [
        {
          "internalType": "uint256",
          "name": "serial",
          "type": "uint256"
        },
        {
          "internalType": "address",
          "name": "to",
          "type": "address"
        }
      ],
      "name": "addSerial",
      "outputs": [],
      "stateMutability": "nonpayable",
      "type": "function"
    },
    {
      "inputs": [
        {
          "internalType": "address",
          "name": "to",
          "type": "address"
        },
        {
          "internalType": "uint256",
          "name": "tokenId",
          "type": "uint256"
        }
      ],
      "name": "approve",
      "outputs": [],
      "stateMutability": "nonpayable",
      "type": "function"
    },
    {
      "inputs": [
        {
          "internalType": "address",
          "name": "owner",
          "type": "address"
        }
      ],
      "name": "balanceOf",
      "outputs": [
        {
          "internalType": "uint256",
          "name": "",
          "type": "uint256"
        }
      ],
      "stateMutability": "view",
      "type": "function",
      "constant": true
    },
    {
      "inputs": [
        {
          "internalType": "uint256",
          "name": "tokenId",
          "type": "uint256"
        }
      ],
      "name": "getApproved",
      "outputs": [
        {
          "internalType": "address",
          "name": "",
          "type": "address"
        }
      ],
      "stateMutability": "view",
      "type": "function",
      "constant": true
    },
    {
      "inputs": [],
      "name": "getBoughtLicenses",
      "outputs": [
        {
          "internalType": "uint256[]",
          "name": "",
          "type": "uint256[]"
        }
      ],
      "stateMutability": "view",
      "type": "function",
      "constant": true
    },
    {
      "inputs": [],
      "name": "getIssuedLicense",
      "outputs": [
        {
          "internalType": "uint256[]",
          "name": "",
          "type": "uint256[]"
        }
      ],
      "stateMutability": "view",
      "type": "function",
      "constant": true
    },
    {
      "inputs": [
        {
          "internalType": "address",
          "name": "owner",
          "type": "address"
        },
        {
          "internalType": "address",
          "name": "operator",
          "type": "address"
        }
      ],
      "name": "isApprovedForAll",
      "outputs": [
        {
          "internalType": "bool",
          "name": "",
          "type": "bool"
        }
      ],
      "stateMutability": "view",
      "type": "function",
      "constant": true
    },
    {
      "inputs": [],
      "name": "name",
      "outputs": [
        {
          "internalType": "string",
          "name": "",
          "type": "string"
        }
      ],
      "stateMutability": "view",
      "type": "function",
      "constant": true
    },
    {
      "inputs": [],
      "name": "owner",
      "outputs": [
        {
          "internalType": "address",
          "name": "",
          "type": "address"
        }
      ],
      "stateMutability": "view",
      "type": "function",
      "constant": true
    },
    {
      "inputs": [
        {
          "internalType": "uint256",
          "name": "tokenId",
          "type": "uint256"
        }
      ],
      "name": "ownerOf",
      "outputs": [
        {
          "internalType": "address",
          "name": "",
          "type": "address"
        }
      ],
      "stateMutability": "view",
      "type": "function",
      "constant": true
    },
    {
      "inputs": [],
      "name": "renounceOwnership",
      "outputs": [],
      "stateMutability": "nonpayable",
      "type": "function"
    },
    {
      "inputs": [
        {
          "internalType": "address",
          "name": "from",
          "type": "address"
        },
        {
          "internalType": "address",
          "name": "to",
          "type": "address"
        },
        {
          "internalType": "uint256",
          "name": "tokenId",
          "type": "uint256"
        }
      ],
      "name": "safeTransferFrom",
      "outputs": [],
      "stateMutability": "nonpayable",
      "type": "function"
    },
    {
      "inputs": [
        {
          "internalType": "address",
          "name": "from",
          "type": "address"
        },
        {
          "internalType": "address",
          "name": "to",
          "type": "address"
        },
        {
          "internalType": "uint256",
          "name": "tokenId",
          "type": "uint256"
        },
        {
          "internalType": "bytes",
          "name": "data",
          "type": "bytes"
        }
      ],
      "name": "safeTransferFrom",
      "outputs": [],
      "stateMutability": "nonpayable",
      "type": "function"
    },
    {
      "inputs": [
        {
          "internalType": "address",
          "name": "operator",
          "type": "address"
        },
        {
          "internalType": "bool",
          "name": "approved",
          "type": "bool"
        }
      ],
      "name": "setApprovalForAll",
      "outputs": [],
      "stateMutability": "nonpayable",
      "type": "function"
    },
    {
      "inputs": [
        {
          "internalType": "bytes4",
          "name": "interfaceId",
          "type": "bytes4"
        }
      ],
      "name": "supportsInterface",
      "outputs": [
        {
          "internalType": "bool",
          "name": "",
          "type": "bool"
        }
      ],
      "stateMutability": "view",
      "type": "function",
      "constant": true
    },
    {
      "inputs": [],
      "name": "symbol",
      "outputs": [
        {
          "internalType": "string",
          "name": "",
          "type": "string"
        }
      ],
      "stateMutability": "view",
      "type": "function",
      "constant": true
    },
    {
      "inputs": [
        {
          "internalType": "address",
          "name": "from",
          "type": "address"
        },
        {
          "internalType": "address",
          "name": "to",
          "type": "address"
        },
        {
          "internalType": "uint256",
          "name": "tokenId",
          "type": "uint256"
        }
      ],
      "name": "transferFrom",
      "outputs": [],
      "stateMutability": "nonpayable",
      "type": "function"
    },
    {
      "inputs": [
        {
          "internalType": "address",
          "name": "newOwner",
          "type": "address"
        }
      ],
      "name": "transferOwnership",
      "outputs": [],
      "stateMutability": "nonpayable",
      "type": "function"
    },
    {
      "inputs": [
        {
          "internalType": "address",
          "name": "to",
          "type": "address"
        },
        {
          "internalType": "uint16[]",
          "name": "seeds",
          "type": "uint16[]"
        },
        {
          "internalType": "string",
          "name": "uri",
          "type": "string"
        },
        {
          "internalType": "uint24",
          "name": "day",
          "type": "uint24"
        }
      ],
      "name": "mint",
      "outputs": [],
      "stateMutability": "nonpayable",
      "type": "function"
    },
    {
      "inputs": [
        {
          "internalType": "uint16[]",
          "name": "parts",
          "type": "uint16[]"
        }
      ],
      "name": "getTokenURI",
      "outputs": [
        {
          "internalType": "string",
          "name": "",
          "type": "string"
        }
      ],
      "stateMutability": "view",
      "type": "function",
      "constant": true
    },
    {
      "inputs": [
        {
          "internalType": "uint256",
          "name": "tokenId",
          "type": "uint256"
        }
      ],
      "name": "tokenURI",
      "outputs": [
        {
          "internalType": "string",
          "name": "",
          "type": "string"
        }
      ],
      "stateMutability": "view",
      "type": "function",
      "constant": true
    }
  ],
  "bytecode": "0x60806040523480156200001157600080fd5b506040518060400160405280600781526020017f4c6963656e7365000000000000000000000000000000000000000000000000008152506040518060400160405280600781526020017f4c6963656e73650000000000000000000000000000000000000000000000000081525081600090816200008f91906200046a565b508060019081620000a191906200046a565b505050620000c4620000b86200012260201b60201c565b6200012a60201b60201c565b6001600960003373ffffffffffffffffffffffffffffffffffffffff1673ffffffffffffffffffffffffffffffffffffffff16815260200190815260200160002060006101000a81548160ff02191690831515021790555062000551565b600033905090565b6000600760009054906101000a900473ffffffffffffffffffffffffffffffffffffffff16905081600760006101000a81548173ffffffffffffffffffffffffffffffffffffffff021916908373ffffffffffffffffffffffffffffffffffffffff1602179055508173ffffffffffffffffffffffffffffffffffffffff168173ffffffffffffffffffffffffffffffffffffffff167f8be0079c531659141344cd1fd0a4f28419497f9722a3daafe3b4186f6b6457e060405160405180910390a35050565b600081519050919050565b7f4e487b7100000000000000000000000000000000000000000000000000000000600052604160045260246000fd5b7f4e487b7100000000000000000000000000000000000000000000000000000000600052602260045260246000fd5b600060028204905060018216806200027257607f821691505b6020821081036200028857620002876200022a565b5b50919050565b60008190508160005260206000209050919050565b60006020601f8301049050919050565b600082821b905092915050565b600060088302620002f27fffffffffffffffffffffffffffffffffffffffffffffffffffffffffffffffff82620002b3565b620002fe8683620002b3565b95508019841693508086168417925050509392505050565b6000819050919050565b6000819050919050565b60006200034b620003456200033f8462000316565b62000320565b62000316565b9050919050565b6000819050919050565b62000367836200032a565b6200037f620003768262000352565b848454620002c0565b825550505050565b600090565b6200039662000387565b620003a38184846200035c565b505050565b5b81811015620003cb57620003bf6000826200038c565b600181019050620003a9565b5050565b601f8211156200041a57620003e4816200028e565b620003ef84620002a3565b81016020851015620003ff578190505b620004176200040e85620002a3565b830182620003a8565b50505b505050565b600082821c905092915050565b60006200043f600019846008026200041f565b1980831691505092915050565b60006200045a83836200042c565b9150826002028217905092915050565b6200047582620001f0565b67ffffffffffffffff811115620004915762000490620001fb565b5b6200049d825462000259565b620004aa828285620003cf565b600060209050601f831160018114620004e25760008415620004cd578287015190505b620004d985826200044c565b86555062000549565b601f198416620004f2866200028e565b60005b828110156200051c57848901518255600182019150602085019450602081019050620004f5565b868310156200053c578489015162000538601f8916826200042c565b8355505b6001600288020188555050505b505050505050565b61434a80620005616000396000f3fe608060405234801561001057600080fd5b50600436106101425760003560e01c806370a08231116100b8578063b88d4fde1161007c578063b88d4fde1461034f578063c87b56dd1461036b578063ca6d56dc1461039b578063e7d9c3b0146103b7578063e985e9c5146103e7578063f2fde38b1461041757610142565b806370a08231146102bd578063715018a6146102ed5780638da5cb5b146102f757806395d89b4114610315578063a22cb4651461033357610142565b80630cb947641161010a5780630cb94764146101ff57806320a71c7b1461021b57806323b872dd1461023957806342842e0e146102555780634a7065b5146102715780636352211e1461028d57610142565b806301ffc9a714610147578063045b94551461017757806306fdde0314610195578063081812fc146101b3578063095ea7b3146101e3575b600080fd5b610161600480360381019061015c9190612943565b610433565b60405161016e919061298b565b60405180910390f35b61017f610515565b60405161018c9190612a6e565b60405180910390f35b61019d6105aa565b6040516101aa9190612b29565b60405180910390f35b6101cd60048036038101906101c89190612b77565b61063c565b6040516101da9190612be5565b60405180910390f35b6101fd60048036038101906101f89190612c2c565b610682565b005b61021960048036038101906102149190612ede565b610799565b005b610223610964565b6040516102309190612a6e565b60405180910390f35b610253600480360381019061024e9190612f7d565b6109f9565b005b61026f600480360381019061026a9190612f7d565b610a59565b005b61028b60048036038101906102869190612fd0565b610a79565b005b6102a760048036038101906102a29190612b77565b610d28565b6040516102b49190612be5565b60405180910390f35b6102d760048036038101906102d29190613010565b610dd9565b6040516102e4919061304c565b60405180910390f35b6102f5610e90565b005b6102ff610ea4565b60405161030c9190612be5565b60405180910390f35b61031d610ece565b60405161032a9190612b29565b60405180910390f35b61034d60048036038101906103489190613093565b610f60565b005b61036960048036038101906103649190613174565b610f76565b005b61038560048036038101906103809190612b77565b610fd8565b6040516103929190612b29565b60405180910390f35b6103b560048036038101906103b09190613010565b6111ad565b005b6103d160048036038101906103cc91906131f7565b611295565b6040516103de9190612b29565b60405180910390f35b61040160048036038101906103fc9190613240565b6112af565b60405161040e919061298b565b60405180910390f35b610431600480360381019061042c9190613010565b611343565b005b60007f80ac58cd000000000000000000000000000000000000000000000000000000007bffffffffffffffffffffffffffffffffffffffffffffffffffffffff1916827bffffffffffffffffffffffffffffffffffffffffffffffffffffffff191614806104fe57507f5b5e139f000000000000000000000000000000000000000000000000000000007bffffffffffffffffffffffffffffffffffffffffffffffffffffffff1916827bffffffffffffffffffffffffffffffffffffffffffffffffffffffff1916145b8061050e575061050d826113c6565b5b9050919050565b6060600d60003373ffffffffffffffffffffffffffffffffffffffff1673ffffffffffffffffffffffffffffffffffffffff1681526020019081526020016000208054806020026020016040519081016040528092919081815260200182805480156105a057602002820191906000526020600020905b81548152602001906001019080831161058c575b5050505050905090565b6060600080546105b9906132af565b80601f01602080910402602001604051908101604052809291908181526020018280546105e5906132af565b80156106325780601f1061060757610100808354040283529160200191610632565b820191906000526020600020905b81548152906001019060200180831161061557829003601f168201915b5050505050905090565b600061064782611430565b6004600083815260200190815260200160002060009054906101000a900473ffffffffffffffffffffffffffffffffffffffff169050919050565b600061068d82610d28565b90508073ffffffffffffffffffffffffffffffffffffffff168373ffffffffffffffffffffffffffffffffffffffff16036106fd576040517f08c379a00000000000000000000000000000000000000000000000000000000081526004016106f490613352565b60405180910390fd5b8073ffffffffffffffffffffffffffffffffffffffff1661071c61147b565b73ffffffffffffffffffffffffffffffffffffffff16148061074b575061074a8161074561147b565b6112af565b5b61078a576040517f08c379a0000000000000000000000000000000000000000000000000000000008152600401610781906133e4565b60405180910390fd5b6107948383611483565b505050565b600960003373ffffffffffffffffffffffffffffffffffffffff1673ffffffffffffffffffffffffffffffffffffffff16815260200190815260200160002060009054906101000a900460ff16610825576040517f08c379a000000000000000000000000000000000000000000000000000000000815260040161081c90613450565b60405180910390fd5b600f8260405161083591906134ac565b908152602001604051809103902060009054906101000a900460ff1615610891576040517f08c379a00000000000000000000000000000000000000000000000000000000081526004016108889061350f565b60405180910390fd5b600061089c8461153c565b90506108a88186610a79565b6108b285826115a7565b6108bc81846115c5565b6001600f846040516108ce91906134ac565b908152602001604051809103902060006101000a81548160ff021916908315150217905550816011600083815260200190815260200160002060006101000a81548162ffffff021916908362ffffff160217905550426010600083815260200190815260200160002060006101000a81548167ffffffffffffffff021916908367ffffffffffffffff1602179055505050505050565b6060600e60003373ffffffffffffffffffffffffffffffffffffffff1673ffffffffffffffffffffffffffffffffffffffff1681526020019081526020016000208054806020026020016040519081016040528092919081815260200182805480156109ef57602002820191906000526020600020905b8154815260200190600101908083116109db575b5050505050905090565b610a0a610a0461147b565b82611632565b610a49576040517f08c379a0000000000000000000000000000000000000000000000000000000008152600401610a40906135a1565b60405180910390fd5b610a548383836116c7565b505050565b610a7483838360405180602001604052806000815250610f76565b505050565b600960003373ffffffffffffffffffffffffffffffffffffffff1673ffffffffffffffffffffffffffffffffffffffff16815260200190815260200160002060009054906101000a900460ff16610b05576040517f08c379a0000000000000000000000000000000000000000000000000000000008152600401610afc90613450565b60405180910390fd5b600a600083815260200190815260200160002060009054906101000a900460ff1615610bac610b716040518060400160405280600781526020017f53657269616c2000000000000000000000000000000000000000000000000000815250610b6c8661192d565b611b02565b6040518060400160405280600f81526020017f20616c726561647920696e207573650000000000000000000000000000000000815250611b02565b90610bed576040517f08c379a0000000000000000000000000000000000000000000000000000000008152600401610be49190612b29565b60405180910390fd5b506001600a600084815260200190815260200160002060006101000a81548160ff02191690831515021790555033600b600084815260200190815260200160002060006101000a81548173ffffffffffffffffffffffffffffffffffffffff021916908373ffffffffffffffffffffffffffffffffffffffff160217905550600e60003373ffffffffffffffffffffffffffffffffffffffff1673ffffffffffffffffffffffffffffffffffffffff16815260200190815260200160002082908060018154018082558091505060019003906000526020600020016000909190919091505580600c600084815260200190815260200160002060006101000a81548173ffffffffffffffffffffffffffffffffffffffff021916908373ffffffffffffffffffffffffffffffffffffffff1602179055505050565b6000806002600084815260200190815260200160002060009054906101000a900473ffffffffffffffffffffffffffffffffffffffff169050600073ffffffffffffffffffffffffffffffffffffffff168173ffffffffffffffffffffffffffffffffffffffff1603610dd0576040517f08c379a0000000000000000000000000000000000000000000000000000000008152600401610dc79061360d565b60405180910390fd5b80915050919050565b60008073ffffffffffffffffffffffffffffffffffffffff168273ffffffffffffffffffffffffffffffffffffffff1603610e49576040517f08c379a0000000000000000000000000000000000000000000000000000000008152600401610e409061369f565b60405180910390fd5b600360008373ffffffffffffffffffffffffffffffffffffffff1673ffffffffffffffffffffffffffffffffffffffff168152602001908152602001600020549050919050565b610e98611b2e565b610ea26000611bac565b565b6000600760009054906101000a900473ffffffffffffffffffffffffffffffffffffffff16905090565b606060018054610edd906132af565b80601f0160208091040260200160405190810160405280929190818152602001828054610f09906132af565b8015610f565780601f10610f2b57610100808354040283529160200191610f56565b820191906000526020600020905b815481529060010190602001808311610f3957829003601f168201915b5050505050905090565b610f72610f6b61147b565b8383611c72565b5050565b610f87610f8161147b565b83611632565b610fc6576040517f08c379a0000000000000000000000000000000000000000000000000000000008152600401610fbd906135a1565b60405180910390fd5b610fd284848484611dde565b50505050565b6060600b600083815260200190815260200160002060009054906101000a900473ffffffffffffffffffffffffffffffffffffffff1673ffffffffffffffffffffffffffffffffffffffff163373ffffffffffffffffffffffffffffffffffffffff1614806110a55750600c600083815260200190815260200160002060009054906101000a900473ffffffffffffffffffffffffffffffffffffffff1673ffffffffffffffffffffffffffffffffffffffff163373ffffffffffffffffffffffffffffffffffffffff16145b6110e4576040517f08c379a00000000000000000000000000000000000000000000000000000000081526004016110db90613731565b60405180910390fd5b60004290506011600084815260200190815260200160002060009054906101000a900462ffffff1662ffffff166010600085815260200190815260200160002060009054906101000a900467ffffffffffffffff16826111449190613794565b67ffffffffffffffff1610156111655761115d83611e3a565b9150506111a8565b60006111a6576040517f08c379a000000000000000000000000000000000000000000000000000000000815260040161119d90613814565b60405180910390fd5b505b919050565b600960008273ffffffffffffffffffffffffffffffffffffffff1673ffffffffffffffffffffffffffffffffffffffff16815260200190815260200160002060009054906101000a900460ff161561123a576040517f08c379a000000000000000000000000000000000000000000000000000000000815260040161123190613880565b60405180910390fd5b6001600960008373ffffffffffffffffffffffffffffffffffffffff1673ffffffffffffffffffffffffffffffffffffffff16815260200190815260200160002060006101000a81548160ff02191690831515021790555050565b60606112a86112a38361153c565b610fd8565b9050919050565b6000600560008473ffffffffffffffffffffffffffffffffffffffff1673ffffffffffffffffffffffffffffffffffffffff16815260200190815260200160002060008373ffffffffffffffffffffffffffffffffffffffff1673ffffffffffffffffffffffffffffffffffffffff16815260200190815260200160002060009054906101000a900460ff16905092915050565b61134b611b2e565b600073ffffffffffffffffffffffffffffffffffffffff168173ffffffffffffffffffffffffffffffffffffffff16036113ba576040517f08c379a00000000000000000000000000000000000000000000000000000000081526004016113b190613912565b60405180910390fd5b6113c381611bac565b50565b60007f01ffc9a7000000000000000000000000000000000000000000000000000000007bffffffffffffffffffffffffffffffffffffffffffffffffffffffff1916827bffffffffffffffffffffffffffffffffffffffffffffffffffffffff1916149050919050565b61143981611f4c565b611478576040517f08c379a000000000000000000000000000000000000000000000000000000000815260040161146f9061360d565b60405180910390fd5b50565b600033905090565b816004600083815260200190815260200160002060006101000a81548173ffffffffffffffffffffffffffffffffffffffff021916908373ffffffffffffffffffffffffffffffffffffffff160217905550808273ffffffffffffffffffffffffffffffffffffffff166114f683610d28565b73ffffffffffffffffffffffffffffffffffffffff167f8c5be1e5ebec7d5bd14f71427d1e84f3dd0314c0f7b2291e5b200ac8c7c3b92560405160405180910390a45050565b6000806000601090505b6001811061159d578360018261155c9190613932565b8151811061156d5761156c613966565b5b602002602001015161ffff16601083901b6115889190613995565b91508080611595906139eb565b915050611546565b5080915050919050565b6115c1828260405180602001604052806000815250611fb8565b5050565b6115ce82611f4c565b61160d576040517f08c379a000000000000000000000000000000000000000000000000000000000815260040161160490613a86565b60405180910390fd5b8060066000848152602001908152602001600020908161162d9190613c52565b505050565b60008061163e83610d28565b90508073ffffffffffffffffffffffffffffffffffffffff168473ffffffffffffffffffffffffffffffffffffffff161480611680575061167f81856112af565b5b806116be57508373ffffffffffffffffffffffffffffffffffffffff166116a68461063c565b73ffffffffffffffffffffffffffffffffffffffff16145b91505092915050565b8273ffffffffffffffffffffffffffffffffffffffff166116e782610d28565b73ffffffffffffffffffffffffffffffffffffffff161461173d576040517f08c379a000000000000000000000000000000000000000000000000000000000815260040161173490613d96565b60405180910390fd5b600073ffffffffffffffffffffffffffffffffffffffff168273ffffffffffffffffffffffffffffffffffffffff16036117ac576040517f08c379a00000000000000000000000000000000000000000000000000000000081526004016117a390613e28565b60405180910390fd5b6117b7838383612013565b6117c2600082611483565b6001600360008573ffffffffffffffffffffffffffffffffffffffff1673ffffffffffffffffffffffffffffffffffffffff16815260200190815260200160002060008282546118129190613932565b925050819055506001600360008473ffffffffffffffffffffffffffffffffffffffff1673ffffffffffffffffffffffffffffffffffffffff16815260200190815260200160002060008282546118699190613995565b92505081905550816002600083815260200190815260200160002060006101000a81548173ffffffffffffffffffffffffffffffffffffffff021916908373ffffffffffffffffffffffffffffffffffffffff160217905550808273ffffffffffffffffffffffffffffffffffffffff168473ffffffffffffffffffffffffffffffffffffffff167fddf252ad1be2c89b69c2b068fc378daa952ba7f163c4a11628f55a4df523b3ef60405160405180910390a4611928838383612283565b505050565b60606000606467ffffffffffffffff81111561194c5761194b612c71565b5b6040519080825280601f01601f19166020018201604052801561197e5781602001600182028036833780820191505090505b50905060005b6000841115611a0d57600a8461199a9190613e77565b60306119a69190613995565b60f81b8282815181106119bc576119bb613966565b5b60200101907effffffffffffffffffffffffffffffffffffffffffffffffffffffffffffff1916908160001a905350600a846119f89190613ea8565b93508080611a0590613ed9565b915050611984565b6000825167ffffffffffffffff811115611a2a57611a29612c71565b5b6040519080825280601f01601f191660200182016040528015611a5c5781602001600182028036833780820191505090505b50905060005b8351811015611af657836001828651611a7b9190613932565b611a859190613932565b81518110611a9657611a95613966565b5b602001015160f81c60f81b828281518110611ab457611ab3613966565b5b60200101907effffffffffffffffffffffffffffffffffffffffffffffffffffffffffffff1916908160001a9053508080611aee90613ed9565b915050611a62565b50809350505050919050565b60608282604051602001611b17929190613f6d565b604051602081830303815290604052905092915050565b611b3661147b565b73ffffffffffffffffffffffffffffffffffffffff16611b54610ea4565b73ffffffffffffffffffffffffffffffffffffffff1614611baa576040517f08c379a0000000000000000000000000000000000000000000000000000000008152600401611ba190613fe8565b60405180910390fd5b565b6000600760009054906101000a900473ffffffffffffffffffffffffffffffffffffffff16905081600760006101000a81548173ffffffffffffffffffffffffffffffffffffffff021916908373ffffffffffffffffffffffffffffffffffffffff1602179055508173ffffffffffffffffffffffffffffffffffffffff168173ffffffffffffffffffffffffffffffffffffffff167f8be0079c531659141344cd1fd0a4f28419497f9722a3daafe3b4186f6b6457e060405160405180910390a35050565b8173ffffffffffffffffffffffffffffffffffffffff168373ffffffffffffffffffffffffffffffffffffffff1603611ce0576040517f08c379a0000000000000000000000000000000000000000000000000000000008152600401611cd790614054565b60405180910390fd5b80600560008573ffffffffffffffffffffffffffffffffffffffff1673ffffffffffffffffffffffffffffffffffffffff16815260200190815260200160002060008473ffffffffffffffffffffffffffffffffffffffff1673ffffffffffffffffffffffffffffffffffffffff16815260200190815260200160002060006101000a81548160ff0219169083151502179055508173ffffffffffffffffffffffffffffffffffffffff168373ffffffffffffffffffffffffffffffffffffffff167f17307eab39ab6107e8899845ad3d59bd9653f200f220920489ca2b5937696c3183604051611dd1919061298b565b60405180910390a3505050565b611de98484846116c7565b611df584848484612375565b611e34576040517f08c379a0000000000000000000000000000000000000000000000000000000008152600401611e2b906140e6565b60405180910390fd5b50505050565b6060611e4582611430565b6000600660008481526020019081526020016000208054611e65906132af565b80601f0160208091040260200160405190810160405280929190818152602001828054611e91906132af565b8015611ede5780601f10611eb357610100808354040283529160200191611ede565b820191906000526020600020905b815481529060010190602001808311611ec157829003601f168201915b505050505090506000611eef6124fc565b90506000815103611f04578192505050611f47565b600082511115611f39578082604051602001611f21929190614106565b60405160208183030381529060405292505050611f47565b611f4284612513565b925050505b919050565b60008073ffffffffffffffffffffffffffffffffffffffff166002600084815260200190815260200160002060009054906101000a900473ffffffffffffffffffffffffffffffffffffffff1673ffffffffffffffffffffffffffffffffffffffff1614159050919050565b611fc2838361257b565b611fcf6000848484612375565b61200e576040517f08c379a0000000000000000000000000000000000000000000000000000000008152600401612005906140e6565b60405180910390fd5b505050565b600073ffffffffffffffffffffffffffffffffffffffff168373ffffffffffffffffffffffffffffffffffffffff161461227e5760005b600d60008573ffffffffffffffffffffffffffffffffffffffff1673ffffffffffffffffffffffffffffffffffffffff1681526020019081526020016000208054905081101561227c5781600d60008673ffffffffffffffffffffffffffffffffffffffff1673ffffffffffffffffffffffffffffffffffffffff16815260200190815260200160002082815481106120e6576120e5613966565b5b90600052602060002001540361226957600d60008573ffffffffffffffffffffffffffffffffffffffff1673ffffffffffffffffffffffffffffffffffffffff1681526020019081526020016000206001600d60008773ffffffffffffffffffffffffffffffffffffffff1673ffffffffffffffffffffffffffffffffffffffff168152602001908152602001600020805490506121849190613932565b8154811061219557612194613966565b5b9060005260206000200154600d60008673ffffffffffffffffffffffffffffffffffffffff1673ffffffffffffffffffffffffffffffffffffffff16815260200190815260200160002082815481106121f1576121f0613966565b5b9060005260206000200181905550600d60008573ffffffffffffffffffffffffffffffffffffffff1673ffffffffffffffffffffffffffffffffffffffff16815260200190815260200160002080548061224e5761224d61412a565b5b6001900381819060005260206000200160009055905561227c565b808061227490613ed9565b91505061204a565b505b505050565b600073ffffffffffffffffffffffffffffffffffffffff168273ffffffffffffffffffffffffffffffffffffffff161461237057600d60008373ffffffffffffffffffffffffffffffffffffffff1673ffffffffffffffffffffffffffffffffffffffff16815260200190815260200160002081908060018154018082558091505060019003906000526020600020016000909190919091505581600c600083815260200190815260200160002060006101000a81548173ffffffffffffffffffffffffffffffffffffffff021916908373ffffffffffffffffffffffffffffffffffffffff1602179055505b505050565b60006123968473ffffffffffffffffffffffffffffffffffffffff16612754565b156124ef578373ffffffffffffffffffffffffffffffffffffffff1663150b7a026123bf61147b565b8786866040518563ffffffff1660e01b81526004016123e194939291906141ae565b6020604051808303816000875af192505050801561241d57506040513d601f19601f8201168201806040525081019061241a919061420f565b60015b61249f573d806000811461244d576040519150601f19603f3d011682016040523d82523d6000602084013e612452565b606091505b506000815103612497576040517f08c379a000000000000000000000000000000000000000000000000000000000815260040161248e906140e6565b60405180910390fd5b805181602001fd5b63150b7a0260e01b7bffffffffffffffffffffffffffffffffffffffffffffffffffffffff1916817bffffffffffffffffffffffffffffffffffffffffffffffffffffffff1916149150506124f4565b600190505b949350505050565b606060405180602001604052806000815250905090565b606061251e82611430565b60006125286124fc565b905060008151116125485760405180602001604052806000815250612573565b8061255284612777565b604051602001612563929190614106565b6040516020818303038152906040525b915050919050565b600073ffffffffffffffffffffffffffffffffffffffff168273ffffffffffffffffffffffffffffffffffffffff16036125ea576040517f08c379a00000000000000000000000000000000000000000000000000000000081526004016125e190614288565b60405180910390fd5b6125f381611f4c565b15612633576040517f08c379a000000000000000000000000000000000000000000000000000000000815260040161262a906142f4565b60405180910390fd5b61263f60008383612013565b6001600360008473ffffffffffffffffffffffffffffffffffffffff1673ffffffffffffffffffffffffffffffffffffffff168152602001908152602001600020600082825461268f9190613995565b92505081905550816002600083815260200190815260200160002060006101000a81548173ffffffffffffffffffffffffffffffffffffffff021916908373ffffffffffffffffffffffffffffffffffffffff160217905550808273ffffffffffffffffffffffffffffffffffffffff16600073ffffffffffffffffffffffffffffffffffffffff167fddf252ad1be2c89b69c2b068fc378daa952ba7f163c4a11628f55a4df523b3ef60405160405180910390a461275060008383612283565b5050565b6000808273ffffffffffffffffffffffffffffffffffffffff163b119050919050565b6060600082036127be576040518060400160405280600181526020017f300000000000000000000000000000000000000000000000000000000000000081525090506128d2565b600082905060005b600082146127f05780806127d990613ed9565b915050600a826127e99190613ea8565b91506127c6565b60008167ffffffffffffffff81111561280c5761280b612c71565b5b6040519080825280601f01601f19166020018201604052801561283e5781602001600182028036833780820191505090505b5090505b600085146128cb576001826128579190613932565b9150600a856128669190613e77565b60306128729190613995565b60f81b81838151811061288857612887613966565b5b60200101907effffffffffffffffffffffffffffffffffffffffffffffffffffffffffffff1916908160001a905350600a856128c49190613ea8565b9450612842565b8093505050505b919050565b6000604051905090565b600080fd5b600080fd5b60007fffffffff0000000000000000000000000000000000000000000000000000000082169050919050565b612920816128eb565b811461292b57600080fd5b50565b60008135905061293d81612917565b92915050565b600060208284031215612959576129586128e1565b5b60006129678482850161292e565b91505092915050565b60008115159050919050565b61298581612970565b82525050565b60006020820190506129a0600083018461297c565b92915050565b600081519050919050565b600082825260208201905092915050565b6000819050602082019050919050565b6000819050919050565b6129e5816129d2565b82525050565b60006129f783836129dc565b60208301905092915050565b6000602082019050919050565b6000612a1b826129a6565b612a2581856129b1565b9350612a30836129c2565b8060005b83811015612a61578151612a4888826129eb565b9750612a5383612a03565b925050600181019050612a34565b5085935050505092915050565b60006020820190508181036000830152612a888184612a10565b905092915050565b600081519050919050565b600082825260208201905092915050565b60005b83811015612aca578082015181840152602081019050612aaf565b83811115612ad9576000848401525b50505050565b6000601f19601f8301169050919050565b6000612afb82612a90565b612b058185612a9b565b9350612b15818560208601612aac565b612b1e81612adf565b840191505092915050565b60006020820190508181036000830152612b438184612af0565b905092915050565b612b54816129d2565b8114612b5f57600080fd5b50565b600081359050612b7181612b4b565b92915050565b600060208284031215612b8d57612b8c6128e1565b5b6000612b9b84828501612b62565b91505092915050565b600073ffffffffffffffffffffffffffffffffffffffff82169050919050565b6000612bcf82612ba4565b9050919050565b612bdf81612bc4565b82525050565b6000602082019050612bfa6000830184612bd6565b92915050565b612c0981612bc4565b8114612c1457600080fd5b50565b600081359050612c2681612c00565b92915050565b60008060408385031215612c4357612c426128e1565b5b6000612c5185828601612c17565b9250506020612c6285828601612b62565b9150509250929050565b600080fd5b7f4e487b7100000000000000000000000000000000000000000000000000000000600052604160045260246000fd5b612ca982612adf565b810181811067ffffffffffffffff82111715612cc857612cc7612c71565b5b80604052505050565b6000612cdb6128d7565b9050612ce78282612ca0565b919050565b600067ffffffffffffffff821115612d0757612d06612c71565b5b602082029050602081019050919050565b600080fd5b600061ffff82169050919050565b612d3481612d1d565b8114612d3f57600080fd5b50565b600081359050612d5181612d2b565b92915050565b6000612d6a612d6584612cec565b612cd1565b90508083825260208201905060208402830185811115612d8d57612d8c612d18565b5b835b81811015612db65780612da28882612d42565b845260208401935050602081019050612d8f565b5050509392505050565b600082601f830112612dd557612dd4612c6c565b5b8135612de5848260208601612d57565b91505092915050565b600080fd5b600067ffffffffffffffff821115612e0e57612e0d612c71565b5b612e1782612adf565b9050602081019050919050565b82818337600083830152505050565b6000612e46612e4184612df3565b612cd1565b905082815260208101848484011115612e6257612e61612dee565b5b612e6d848285612e24565b509392505050565b600082601f830112612e8a57612e89612c6c565b5b8135612e9a848260208601612e33565b91505092915050565b600062ffffff82169050919050565b612ebb81612ea3565b8114612ec657600080fd5b50565b600081359050612ed881612eb2565b92915050565b60008060008060808587031215612ef857612ef76128e1565b5b6000612f0687828801612c17565b945050602085013567ffffffffffffffff811115612f2757612f266128e6565b5b612f3387828801612dc0565b935050604085013567ffffffffffffffff811115612f5457612f536128e6565b5b612f6087828801612e75565b9250506060612f7187828801612ec9565b91505092959194509250565b600080600060608486031215612f9657612f956128e1565b5b6000612fa486828701612c17565b9350506020612fb586828701612c17565b9250506040612fc686828701612b62565b9150509250925092565b60008060408385031215612fe757612fe66128e1565b5b6000612ff585828601612b62565b925050602061300685828601612c17565b9150509250929050565b600060208284031215613026576130256128e1565b5b600061303484828501612c17565b91505092915050565b613046816129d2565b82525050565b6000602082019050613061600083018461303d565b92915050565b61307081612970565b811461307b57600080fd5b50565b60008135905061308d81613067565b92915050565b600080604083850312156130aa576130a96128e1565b5b60006130b885828601612c17565b92505060206130c98582860161307e565b9150509250929050565b600067ffffffffffffffff8211156130ee576130ed612c71565b5b6130f782612adf565b9050602081019050919050565b6000613117613112846130d3565b612cd1565b90508281526020810184848401111561313357613132612dee565b5b61313e848285612e24565b509392505050565b600082601f83011261315b5761315a612c6c565b5b813561316b848260208601613104565b91505092915050565b6000806000806080858703121561318e5761318d6128e1565b5b600061319c87828801612c17565b94505060206131ad87828801612c17565b93505060406131be87828801612b62565b925050606085013567ffffffffffffffff8111156131df576131de6128e6565b5b6131eb87828801613146565b91505092959194509250565b60006020828403121561320d5761320c6128e1565b5b600082013567ffffffffffffffff81111561322b5761322a6128e6565b5b61323784828501612dc0565b91505092915050565b60008060408385031215613257576132566128e1565b5b600061326585828601612c17565b925050602061327685828601612c17565b9150509250929050565b7f4e487b7100000000000000000000000000000000000000000000000000000000600052602260045260246000fd5b600060028204905060018216806132c757607f821691505b6020821081036132da576132d9613280565b5b50919050565b7f4552433732313a20617070726f76616c20746f2063757272656e74206f776e6560008201527f7200000000000000000000000000000000000000000000000000000000000000602082015250565b600061333c602183612a9b565b9150613347826132e0565b604082019050919050565b6000602082019050818103600083015261336b8161332f565b9050919050565b7f4552433732313a20617070726f76652063616c6c6572206973206e6f7420746f60008201527f6b656e206f776e6572206e6f7220617070726f76656420666f7220616c6c0000602082015250565b60006133ce603e83612a9b565b91506133d982613372565b604082019050919050565b600060208201905081810360008301526133fd816133c1565b9050919050565b7f4f6e6c792072656769737465726564206d656d6265727320616c6c6f77656400600082015250565b600061343a601f83612a9b565b915061344582613404565b602082019050919050565b600060208201905081810360008301526134698161342d565b9050919050565b600081905092915050565b600061348682612a90565b6134908185613470565b93506134a0818560208601612aac565b80840191505092915050565b60006134b8828461347b565b915081905092915050565b7f55524920616c726561647920696e207573652e00000000000000000000000000600082015250565b60006134f9601383612a9b565b9150613504826134c3565b602082019050919050565b60006020820190508181036000830152613528816134ec565b9050919050565b7f4552433732313a2063616c6c6572206973206e6f7420746f6b656e206f776e6560008201527f72206e6f7220617070726f766564000000000000000000000000000000000000602082015250565b600061358b602e83612a9b565b91506135968261352f565b604082019050919050565b600060208201905081810360008301526135ba8161357e565b9050919050565b7f4552433732313a20696e76616c696420746f6b656e2049440000000000000000600082015250565b60006135f7601883612a9b565b9150613602826135c1565b602082019050919050565b60006020820190508181036000830152613626816135ea565b9050919050565b7f4552433732313a2061646472657373207a65726f206973206e6f74206120766160008201527f6c6964206f776e65720000000000000000000000000000000000000000000000602082015250565b6000613689602983612a9b565b91506136948261362d565b604082019050919050565b600060208201905081810360008301526136b88161367c565b9050919050565b7f4f6e6c7920746865206f776e6572206f6620746869732061646472657373206360008201527f616e2073656520697427732064657461696c7300000000000000000000000000602082015250565b600061371b603383612a9b565b9150613726826136bf565b604082019050919050565b6000602082019050818103600083015261374a8161370e565b9050919050565b600067ffffffffffffffff82169050919050565b7f4e487b7100000000000000000000000000000000000000000000000000000000600052601160045260246000fd5b600061379f82613751565b91506137aa83613751565b9250828210156137bd576137bc613765565b5b828203905092915050565b7f4c6963656e736520697320616c72656164792065787069726564000000000000600082015250565b60006137fe601a83612a9b565b9150613809826137c8565b602082019050919050565b6000602082019050818103600083015261382d816137f1565b9050919050565b7f4164647265737320616c72656164792072656769737465726564000000000000600082015250565b600061386a601a83612a9b565b915061387582613834565b602082019050919050565b600060208201905081810360008301526138998161385d565b9050919050565b7f4f776e61626c653a206e6577206f776e657220697320746865207a65726f206160008201527f6464726573730000000000000000000000000000000000000000000000000000602082015250565b60006138fc602683612a9b565b9150613907826138a0565b604082019050919050565b6000602082019050818103600083015261392b816138ef565b9050919050565b600061393d826129d2565b9150613948836129d2565b92508282101561395b5761395a613765565b5b828203905092915050565b7f4e487b7100000000000000000000000000000000000000000000000000000000600052603260045260246000fd5b60006139a0826129d2565b91506139ab836129d2565b9250827fffffffffffffffffffffffffffffffffffffffffffffffffffffffffffffffff038211156139e0576139df613765565b5b828201905092915050565b60006139f6826129d2565b915060008203613a0957613a08613765565b5b600182039050919050565b7f45524337323155524953746f726167653a2055524920736574206f66206e6f6e60008201527f6578697374656e7420746f6b656e000000000000000000000000000000000000602082015250565b6000613a70602e83612a9b565b9150613a7b82613a14565b604082019050919050565b60006020820190508181036000830152613a9f81613a63565b9050919050565b60008190508160005260206000209050919050565b60006020601f8301049050919050565b600082821b905092915050565b600060088302613b087fffffffffffffffffffffffffffffffffffffffffffffffffffffffffffffffff82613acb565b613b128683613acb565b95508019841693508086168417925050509392505050565b6000819050919050565b6000613b4f613b4a613b45846129d2565b613b2a565b6129d2565b9050919050565b6000819050919050565b613b6983613b34565b613b7d613b7582613b56565b848454613ad8565b825550505050565b600090565b613b92613b85565b613b9d818484613b60565b505050565b5b81811015613bc157613bb6600082613b8a565b600181019050613ba3565b5050565b601f821115613c0657613bd781613aa6565b613be084613abb565b81016020851015613bef578190505b613c03613bfb85613abb565b830182613ba2565b50505b505050565b600082821c905092915050565b6000613c2960001984600802613c0b565b1980831691505092915050565b6000613c428383613c18565b9150826002028217905092915050565b613c5b82612a90565b67ffffffffffffffff811115613c7457613c73612c71565b5b613c7e82546132af565b613c89828285613bc5565b600060209050601f831160018114613cbc5760008415613caa578287015190505b613cb48582613c36565b865550613d1c565b601f198416613cca86613aa6565b60005b82811015613cf257848901518255600182019150602085019450602081019050613ccd565b86831015613d0f5784890151613d0b601f891682613c18565b8355505b6001600288020188555050505b505050505050565b7f4552433732313a207472616e736665722066726f6d20696e636f72726563742060008201527f6f776e6572000000000000000000000000000000000000000000000000000000602082015250565b6000613d80602583612a9b565b9150613d8b82613d24565b604082019050919050565b60006020820190508181036000830152613daf81613d73565b9050919050565b7f4552433732313a207472616e7366657220746f20746865207a65726f2061646460008201527f7265737300000000000000000000000000000000000000000000000000000000602082015250565b6000613e12602483612a9b565b9150613e1d82613db6565b604082019050919050565b60006020820190508181036000830152613e4181613e05565b9050919050565b7f4e487b7100000000000000000000000000000000000000000000000000000000600052601260045260246000fd5b6000613e82826129d2565b9150613e8d836129d2565b925082613e9d57613e9c613e48565b5b828206905092915050565b6000613eb3826129d2565b9150613ebe836129d2565b925082613ece57613ecd613e48565b5b828204905092915050565b6000613ee4826129d2565b91507fffffffffffffffffffffffffffffffffffffffffffffffffffffffffffffffff8203613f1657613f15613765565b5b600182019050919050565b7f2000000000000000000000000000000000000000000000000000000000000000600082015250565b6000613f57600183613470565b9150613f6282613f21565b600182019050919050565b6000613f79828561347b565b9150613f8482613f4a565b9150613f90828461347b565b91508190509392505050565b7f4f776e61626c653a2063616c6c6572206973206e6f7420746865206f776e6572600082015250565b6000613fd2602083612a9b565b9150613fdd82613f9c565b602082019050919050565b6000602082019050818103600083015261400181613fc5565b9050919050565b7f4552433732313a20617070726f766520746f2063616c6c657200000000000000600082015250565b600061403e601983612a9b565b915061404982614008565b602082019050919050565b6000602082019050818103600083015261406d81614031565b9050919050565b7f4552433732313a207472616e7366657220746f206e6f6e20455243373231526560008201527f63656976657220696d706c656d656e7465720000000000000000000000000000602082015250565b60006140d0603283612a9b565b91506140db82614074565b604082019050919050565b600060208201905081810360008301526140ff816140c3565b9050919050565b6000614112828561347b565b915061411e828461347b565b91508190509392505050565b7f4e487b7100000000000000000000000000000000000000000000000000000000600052603160045260246000fd5b600081519050919050565b600082825260208201905092915050565b600061418082614159565b61418a8185614164565b935061419a818560208601612aac565b6141a381612adf565b840191505092915050565b60006080820190506141c36000830187612bd6565b6141d06020830186612bd6565b6141dd604083018561303d565b81810360608301526141ef8184614175565b905095945050505050565b60008151905061420981612917565b92915050565b600060208284031215614225576142246128e1565b5b6000614233848285016141fa565b91505092915050565b7f4552433732313a206d696e7420746f20746865207a65726f2061646472657373600082015250565b6000614272602083612a9b565b915061427d8261423c565b602082019050919050565b600060208201905081810360008301526142a181614265565b9050919050565b7f4552433732313a20746f6b656e20616c7265616479206d696e74656400000000600082015250565b60006142de601c83612a9b565b91506142e9826142a8565b602082019050919050565b6000602082019050818103600083015261430d816142d1565b905091905056fea26469706673582212203f0a6338c06fd3ac49793595512285b6aae23d31741bc643f17f7bcb464e530464736f6c634300080f0033",
  "immutableReferences": {},
  "source": "// SPDX-License-Identifier: MIT\npragma solidity ^0.8.4;\n\nimport \"@openzeppelin/contracts/token/ERC721/ERC721.sol\";\nimport \"@openzeppelin/contracts/token/ERC721/extensions/ERC721URIStorage.sol\";\nimport \"./Ownership.sol\";\nimport \"./Misc.sol\";\n\ncontract License is ERC721, ERC721URIStorage, Whitelist {\n    using Counters for Counters.Counter;\n\n    mapping(string => bool) private existingURIs;\n    mapping(uint256 => uint64) private birthtime;\n    mapping(uint256 => uint24) private lifespan;\n\n    constructor() ERC721(\"License\", \"License\") {}\n\n    // function _baseURI() internal pure override returns (string memory) {\n    //     return \"ipfs://\";\n    // }\n\n    function mint(\n        address to,\n        uint16[] memory seeds,\n        string memory uri,\n        uint24 day\n    ) public onlyRegistered {\n        require(!existingURIs[uri], \"URI already in use.\");\n        uint256 tokenId = combine(seeds);\n        addSerial(tokenId, to);\n        _safeMint(to, tokenId);\n        _setTokenURI(tokenId, uri);\n        existingURIs[uri] = true;\n        lifespan[tokenId] = day;\n        birthtime[tokenId] = uint64(block.timestamp);\n    }\n\n    function safeBurn(uint16[] memory parts) internal {\n        _safeBurn(combine(parts));\n    }\n\n    function _safeBurn(uint256 tokenId) internal {\n        birthtime[tokenId] = 0;\n        lifespan[tokenId] = 0;\n        usedSerials[tokenId] = false;\n        address temp = serialBrandMap[tokenId];\n        for (uint256 i = 0; i < brandSerialMap[temp].length; i++) {\n            if (brandSerialMap[temp][i] == tokenId) {\n                brandSerialMap[temp][i] = brandSerialMap[temp][\n                    brandSerialMap[temp].length - 1\n                ];\n                brandSerialMap[temp].pop();\n                break;\n            }\n        }\n        serialBrandMap[tokenId] = address(0);\n        temp = serialUserMap[tokenId];\n        for (uint256 i = 0; i < userSerialMap[temp].length; i++) {\n            if (userSerialMap[temp][i] == tokenId) {\n                userSerialMap[temp][i] = userSerialMap[temp][\n                    userSerialMap[temp].length - 1\n                ];\n                userSerialMap[temp].pop();\n                break;\n            }\n        }\n        serialUserMap[tokenId] = address(0);\n        _burn(tokenId);\n    }\n\n    function _burn(uint256 tokenId)\n        internal\n        override(ERC721, ERC721URIStorage)\n    {\n        super._burn(tokenId);\n    }\n\n    function getTokenURI(uint16[] memory parts)\n        public\n        view\n        returns (string memory)\n    {\n        return tokenURI(combine(parts));\n    }\n\n    function tokenURI(uint256 tokenId)\n        public\n        view\n        override(ERC721, ERC721URIStorage)\n        returns (string memory)\n    {\n        require(\n            msg.sender == serialBrandMap[tokenId] ||\n                msg.sender == serialUserMap[tokenId],\n            \"Only the owner of this address can see it's details\"\n        );\n        uint64 current = uint64(block.timestamp);\n        if ((current - birthtime[tokenId]) < lifespan[tokenId]) {\n            return super.tokenURI(tokenId);\n        } else {\n            require(false, \"License is already expired\");\n        }\n    }\n\n    function _beforeTokenTransfer(\n        address from,\n        address to,\n        uint256 serial\n    ) internal virtual override {\n        if (from != address(0)) {\n            uint256 i;\n            for (i = 0; i < userSerialMap[from].length; i++) {\n                if (userSerialMap[from][i] == serial) {\n                    userSerialMap[from][i] = userSerialMap[from][\n                        userSerialMap[from].length - 1\n                    ];\n                    userSerialMap[from].pop();\n                    break;\n                }\n            }\n        }\n    }\n\n    function _afterTokenTransfer(\n        address from,\n        address to,\n        uint256 serial\n    ) internal virtual override {\n        if (to != address(0)) {\n            userSerialMap[to].push(serial);\n            serialUserMap[serial] = to;\n        }\n    }\n}\n",
  "sourcePath": "/Users/monjoy/Desktop/LicenseNFT/smart_contract/contracts/License.sol",
  "compiler": {
    "name": "solc",
    "version": "0.8.15+commit.e14f2714.Emscripten.clang"
  },
  "schemaVersion": "3.4.8",
  "updatedAt": "2022-07-21T10:10:12.186Z",
  "networkType": "ethereum",
  "devdoc": {
    "kind": "dev",
    "methods": {
      "approve(address,uint256)": {
        "details": "See {IERC721-approve}."
      },
      "balanceOf(address)": {
        "details": "See {IERC721-balanceOf}."
      },
      "getApproved(uint256)": {
        "details": "See {IERC721-getApproved}."
      },
      "isApprovedForAll(address,address)": {
        "details": "See {IERC721-isApprovedForAll}."
      },
      "name()": {
        "details": "See {IERC721Metadata-name}."
      },
      "owner()": {
        "details": "Returns the address of the current owner."
      },
      "ownerOf(uint256)": {
        "details": "See {IERC721-ownerOf}."
      },
      "renounceOwnership()": {
        "details": "Leaves the contract without owner. It will not be possible to call `onlyOwner` functions anymore. Can only be called by the current owner. NOTE: Renouncing ownership will leave the contract without an owner, thereby removing any functionality that is only available to the owner."
      },
      "safeTransferFrom(address,address,uint256)": {
        "details": "See {IERC721-safeTransferFrom}."
      },
      "safeTransferFrom(address,address,uint256,bytes)": {
        "details": "See {IERC721-safeTransferFrom}."
      },
      "setApprovalForAll(address,bool)": {
        "details": "See {IERC721-setApprovalForAll}."
      },
      "supportsInterface(bytes4)": {
        "details": "See {IERC165-supportsInterface}."
      },
      "symbol()": {
        "details": "See {IERC721Metadata-symbol}."
      },
      "transferFrom(address,address,uint256)": {
        "details": "See {IERC721-transferFrom}."
      },
      "transferOwnership(address)": {
        "details": "Transfers ownership of the contract to a new account (`newOwner`). Can only be called by the current owner."
      }
    },
    "version": 1
  },
  "userdoc": {
    "kind": "user",
    "methods": {},
    "version": 1
  }
}