{
  "contractName": "License",
  "abi": [
    {
      "inputs": [],
      "stateMutability": "nonpayable",
      "type": "constructor"
    },
    {
      "anonymous": false,
      "inputs": [
        {
          "indexed": true,
          "internalType": "address",
          "name": "owner",
          "type": "address"
        },
        {
          "indexed": true,
          "internalType": "address",
          "name": "approved",
          "type": "address"
        },
        {
          "indexed": true,
          "internalType": "uint256",
          "name": "tokenId",
          "type": "uint256"
        }
      ],
      "name": "Approval",
      "type": "event"
    },
    {
      "anonymous": false,
      "inputs": [
        {
          "indexed": true,
          "internalType": "address",
          "name": "owner",
          "type": "address"
        },
        {
          "indexed": true,
          "internalType": "address",
          "name": "operator",
          "type": "address"
        },
        {
          "indexed": false,
          "internalType": "bool",
          "name": "approved",
          "type": "bool"
        }
      ],
      "name": "ApprovalForAll",
      "type": "event"
    },
    {
      "anonymous": false,
      "inputs": [
        {
          "indexed": true,
          "internalType": "address",
          "name": "previousOwner",
          "type": "address"
        },
        {
          "indexed": true,
          "internalType": "address",
          "name": "newOwner",
          "type": "address"
        }
      ],
      "name": "OwnershipTransferred",
      "type": "event"
    },
    {
      "anonymous": false,
      "inputs": [
        {
          "indexed": true,
          "internalType": "address",
          "name": "from",
          "type": "address"
        },
        {
          "indexed": true,
          "internalType": "address",
          "name": "to",
          "type": "address"
        },
        {
          "indexed": true,
          "internalType": "uint256",
          "name": "tokenId",
          "type": "uint256"
        }
      ],
      "name": "Transfer",
      "type": "event"
    },
    {
      "inputs": [
        {
          "internalType": "uint256",
          "name": "serial",
          "type": "uint256"
        }
      ],
      "name": "addSerial",
      "outputs": [],
      "stateMutability": "nonpayable",
      "type": "function"
    },
    {
      "inputs": [
        {
          "internalType": "string",
          "name": "name",
          "type": "string"
        },
        {
          "internalType": "address",
          "name": "_member",
          "type": "address"
        },
        {
          "internalType": "bool",
          "name": "isSellar",
          "type": "bool"
        }
      ],
      "name": "addUser",
      "outputs": [],
      "stateMutability": "nonpayable",
      "type": "function"
    },
    {
      "inputs": [
        {
          "internalType": "address",
          "name": "to",
          "type": "address"
        },
        {
          "internalType": "uint256",
          "name": "tokenId",
          "type": "uint256"
        }
      ],
      "name": "approve",
      "outputs": [],
      "stateMutability": "nonpayable",
      "type": "function"
    },
    {
      "inputs": [
        {
          "internalType": "address",
          "name": "owner",
          "type": "address"
        }
      ],
      "name": "balanceOf",
      "outputs": [
        {
          "internalType": "uint256",
          "name": "",
          "type": "uint256"
        }
      ],
      "stateMutability": "view",
      "type": "function",
      "constant": true
    },
    {
      "inputs": [
        {
          "internalType": "uint256",
          "name": "tokenId",
          "type": "uint256"
        }
      ],
      "name": "getApproved",
      "outputs": [
        {
          "internalType": "address",
          "name": "",
          "type": "address"
        }
      ],
      "stateMutability": "view",
      "type": "function",
      "constant": true
    },
    {
      "inputs": [],
      "name": "getBoughtLicenses",
      "outputs": [
        {
          "internalType": "uint256[]",
          "name": "",
          "type": "uint256[]"
        }
      ],
      "stateMutability": "view",
      "type": "function",
      "constant": true
    },
    {
      "inputs": [],
      "name": "getIssuedLicense",
      "outputs": [
        {
          "internalType": "uint256[]",
          "name": "",
          "type": "uint256[]"
        }
      ],
      "stateMutability": "view",
      "type": "function",
      "constant": true
    },
    {
      "inputs": [],
      "name": "getName",
      "outputs": [
        {
          "internalType": "string",
          "name": "",
          "type": "string"
        }
      ],
      "stateMutability": "view",
      "type": "function",
      "constant": true
    },
    {
      "inputs": [
        {
          "internalType": "uint16[]",
          "name": "parts",
          "type": "uint16[]"
        }
      ],
      "name": "getOwnerList",
      "outputs": [
        {
          "internalType": "address[]",
          "name": "",
          "type": "address[]"
        }
      ],
      "stateMutability": "view",
      "type": "function",
      "constant": true
    },
    {
      "inputs": [
        {
          "internalType": "uint16[]",
          "name": "parts",
          "type": "uint16[]"
        }
      ],
      "name": "getProduct",
      "outputs": [
        {
          "components": [
            {
              "internalType": "string",
              "name": "name",
              "type": "string"
            },
            {
              "internalType": "uint256",
              "name": "serialID",
              "type": "uint256"
            },
            {
              "internalType": "address",
              "name": "sellar",
              "type": "address"
            },
            {
              "internalType": "uint64",
              "name": "birthtime",
              "type": "uint64"
            },
            {
              "internalType": "uint24",
              "name": "lifespan",
              "type": "uint24"
            }
          ],
          "internalType": "struct Whitelist.product",
          "name": "",
          "type": "tuple"
        }
      ],
      "stateMutability": "view",
      "type": "function",
      "constant": true
    },
    {
      "inputs": [
        {
          "internalType": "address",
          "name": "owner",
          "type": "address"
        },
        {
          "internalType": "address",
          "name": "operator",
          "type": "address"
        }
      ],
      "name": "isApprovedForAll",
      "outputs": [
        {
          "internalType": "bool",
          "name": "",
          "type": "bool"
        }
      ],
      "stateMutability": "view",
      "type": "function",
      "constant": true
    },
    {
      "inputs": [],
      "name": "isRegistered",
      "outputs": [],
      "stateMutability": "view",
      "type": "function",
      "constant": true
    },
    {
      "inputs": [],
      "name": "kickSellar",
      "outputs": [],
      "stateMutability": "nonpayable",
      "type": "function"
    },
    {
      "inputs": [],
      "name": "makeSellar",
      "outputs": [],
      "stateMutability": "nonpayable",
      "type": "function"
    },
    {
      "inputs": [],
      "name": "name",
      "outputs": [
        {
          "internalType": "string",
          "name": "",
          "type": "string"
        }
      ],
      "stateMutability": "view",
      "type": "function",
      "constant": true
    },
    {
      "inputs": [],
      "name": "owner",
      "outputs": [
        {
          "internalType": "address",
          "name": "",
          "type": "address"
        }
      ],
      "stateMutability": "view",
      "type": "function",
      "constant": true
    },
    {
      "inputs": [
        {
          "internalType": "uint256",
          "name": "tokenId",
          "type": "uint256"
        }
      ],
      "name": "ownerOf",
      "outputs": [
        {
          "internalType": "address",
          "name": "",
          "type": "address"
        }
      ],
      "stateMutability": "view",
      "type": "function",
      "constant": true
    },
    {
      "inputs": [],
      "name": "renounceOwnership",
      "outputs": [],
      "stateMutability": "nonpayable",
      "type": "function"
    },
    {
      "inputs": [
        {
          "internalType": "address",
          "name": "from",
          "type": "address"
        },
        {
          "internalType": "address",
          "name": "to",
          "type": "address"
        },
        {
          "internalType": "uint256",
          "name": "tokenId",
          "type": "uint256"
        }
      ],
      "name": "safeTransferFrom",
      "outputs": [],
      "stateMutability": "nonpayable",
      "type": "function"
    },
    {
      "inputs": [
        {
          "internalType": "address",
          "name": "from",
          "type": "address"
        },
        {
          "internalType": "address",
          "name": "to",
          "type": "address"
        },
        {
          "internalType": "uint256",
          "name": "tokenId",
          "type": "uint256"
        },
        {
          "internalType": "bytes",
          "name": "data",
          "type": "bytes"
        }
      ],
      "name": "safeTransferFrom",
      "outputs": [],
      "stateMutability": "nonpayable",
      "type": "function"
    },
    {
      "inputs": [
        {
          "internalType": "address",
          "name": "operator",
          "type": "address"
        },
        {
          "internalType": "bool",
          "name": "approved",
          "type": "bool"
        }
      ],
      "name": "setApprovalForAll",
      "outputs": [],
      "stateMutability": "nonpayable",
      "type": "function"
    },
    {
      "inputs": [
        {
          "internalType": "bytes4",
          "name": "interfaceId",
          "type": "bytes4"
        }
      ],
      "name": "supportsInterface",
      "outputs": [
        {
          "internalType": "bool",
          "name": "",
          "type": "bool"
        }
      ],
      "stateMutability": "view",
      "type": "function",
      "constant": true
    },
    {
      "inputs": [],
      "name": "symbol",
      "outputs": [
        {
          "internalType": "string",
          "name": "",
          "type": "string"
        }
      ],
      "stateMutability": "view",
      "type": "function",
      "constant": true
    },
    {
      "inputs": [],
      "name": "time",
      "outputs": [
        {
          "internalType": "uint256",
          "name": "",
          "type": "uint256"
        }
      ],
      "stateMutability": "view",
      "type": "function",
      "constant": true
    },
    {
      "inputs": [
        {
          "internalType": "address",
          "name": "from",
          "type": "address"
        },
        {
          "internalType": "address",
          "name": "to",
          "type": "address"
        },
        {
          "internalType": "uint256",
          "name": "tokenId",
          "type": "uint256"
        }
      ],
      "name": "transferFrom",
      "outputs": [],
      "stateMutability": "nonpayable",
      "type": "function"
    },
    {
      "inputs": [
        {
          "internalType": "address",
          "name": "newOwner",
          "type": "address"
        }
      ],
      "name": "transferOwnership",
      "outputs": [],
      "stateMutability": "nonpayable",
      "type": "function"
    },
    {
      "inputs": [],
      "name": "getTime",
      "outputs": [
        {
          "internalType": "string",
          "name": "",
          "type": "string"
        }
      ],
      "stateMutability": "view",
      "type": "function",
      "constant": true
    },
    {
      "inputs": [
        {
          "internalType": "string",
          "name": "name",
          "type": "string"
        },
        {
          "internalType": "uint256",
          "name": "serialID",
          "type": "uint256"
        },
        {
          "internalType": "address",
          "name": "to",
          "type": "address"
        },
        {
          "internalType": "uint16[]",
          "name": "seeds",
          "type": "uint16[]"
        },
        {
          "internalType": "string",
          "name": "uri",
          "type": "string"
        },
        {
          "internalType": "uint24",
          "name": "day",
          "type": "uint24"
        }
      ],
      "name": "mint",
      "outputs": [],
      "stateMutability": "nonpayable",
      "type": "function"
    },
    {
      "inputs": [
        {
          "internalType": "uint16[]",
          "name": "parts",
          "type": "uint16[]"
        }
      ],
      "name": "getTokenURI",
      "outputs": [
        {
          "internalType": "string",
          "name": "",
          "type": "string"
        }
      ],
      "stateMutability": "view",
      "type": "function",
      "constant": true
    },
    {
      "inputs": [
        {
          "internalType": "uint256",
          "name": "tokenId",
          "type": "uint256"
        }
      ],
      "name": "tokenURI",
      "outputs": [
        {
          "internalType": "string",
          "name": "",
          "type": "string"
        }
      ],
      "stateMutability": "view",
      "type": "function",
      "constant": true
    }
  ],
  "bytecode": "0x60806040523480156200001157600080fd5b506040518060400160405280600781526020017f4c6963656e7365000000000000000000000000000000000000000000000000008152506040518060400160405280600781526020017f4c6963656e73650000000000000000000000000000000000000000000000000081525081600090816200008f91906200043e565b508060019081620000a191906200043e565b505050620000c4620000b8620000f660201b60201c565b620000fe60201b60201c565b60016009600080815260200190815260200160002060006101000a81548160ff02191690831515021790555062000525565b600033905090565b6000600760009054906101000a900473ffffffffffffffffffffffffffffffffffffffff16905081600760006101000a81548173ffffffffffffffffffffffffffffffffffffffff021916908373ffffffffffffffffffffffffffffffffffffffff1602179055508173ffffffffffffffffffffffffffffffffffffffff168173ffffffffffffffffffffffffffffffffffffffff167f8be0079c531659141344cd1fd0a4f28419497f9722a3daafe3b4186f6b6457e060405160405180910390a35050565b600081519050919050565b7f4e487b7100000000000000000000000000000000000000000000000000000000600052604160045260246000fd5b7f4e487b7100000000000000000000000000000000000000000000000000000000600052602260045260246000fd5b600060028204905060018216806200024657607f821691505b6020821081036200025c576200025b620001fe565b5b50919050565b60008190508160005260206000209050919050565b60006020601f8301049050919050565b600082821b905092915050565b600060088302620002c67fffffffffffffffffffffffffffffffffffffffffffffffffffffffffffffffff8262000287565b620002d2868362000287565b95508019841693508086168417925050509392505050565b6000819050919050565b6000819050919050565b60006200031f620003196200031384620002ea565b620002f4565b620002ea565b9050919050565b6000819050919050565b6200033b83620002fe565b620003536200034a8262000326565b84845462000294565b825550505050565b600090565b6200036a6200035b565b6200037781848462000330565b505050565b5b818110156200039f576200039360008262000360565b6001810190506200037d565b5050565b601f821115620003ee57620003b88162000262565b620003c38462000277565b81016020851015620003d3578190505b620003eb620003e28562000277565b8301826200037c565b50505b505050565b600082821c905092915050565b60006200041360001984600802620003f3565b1980831691505092915050565b60006200042e838362000400565b9150826002028217905092915050565b6200044982620001c4565b67ffffffffffffffff811115620004655762000464620001cf565b5b6200047182546200022d565b6200047e828285620003a3565b600060209050601f831160018114620004b65760008415620004a1578287015190505b620004ad858262000420565b8655506200051d565b601f198416620004c68662000262565b60005b82811015620004f057848901518255600182019150602085019450602081019050620004c9565b868310156200051057848901516200050c601f89168262000400565b8355505b6001600288020188555050505b505050505050565b61530780620005356000396000f3fe608060405234801561001057600080fd5b50600436106101da5760003560e01c806370a0823111610104578063b69c85d6116100a2578063e7d9c3b011610071578063e7d9c3b01461050b578063e985e9c51461053b578063f2fde38b1461056b578063fd43d2e014610587576101da565b8063b69c85d614610499578063b88d4fde146104b5578063c87b56dd146104d1578063dd49dbd714610501576101da565b80638da5cb5b116100de5780638da5cb5b1461041157806395d89b411461042f578063a22cb4651461044d578063b012381e14610469576101da565b806370a08231146103cd578063715018a6146103fd57806385a1556e14610407576101da565b806317d7de7c1161017c57806342842e0e1161014b57806342842e0e1461033357806350177a251461034f578063557ed1ba1461037f5780636352211e1461039d576101da565b806317d7de7c146102d157806320a71c7b146102ef578063223668441461030d57806323b872dd14610317576101da565b8063081812fc116101b8578063081812fc1461024b578063095ea7b31461027b578063097599a81461029757806316ada547146102b3576101da565b806301ffc9a7146101df578063045b94551461020f57806306fdde031461022d575b600080fd5b6101f960048036038101906101f491906134ee565b6105a3565b6040516102069190613536565b60405180910390f35b610217610685565b6040516102249190613619565b60405180910390f35b61023561071d565b60405161024291906136d4565b60405180910390f35b61026560048036038101906102609190613722565b6107af565b6040516102729190613790565b60405180910390f35b610295600480360381019061029091906137d7565b6107f5565b005b6102b160048036038101906102ac9190613a89565b61090c565b005b6102bb610caf565b6040516102c89190613b79565b60405180910390f35b6102d9610cb5565b6040516102e691906136d4565b60405180910390f35b6102f7610e13565b6040516103049190613619565b60405180910390f35b610315610f3c565b005b610331600480360381019061032c9190613b94565b610fca565b005b61034d60048036038101906103489190613b94565b61102a565b005b61036960048036038101906103649190613be7565b61104a565b6040516103769190613cee565b60405180910390f35b61038761119d565b60405161039491906136d4565b60405180910390f35b6103b760048036038101906103b29190613722565b6111af565b6040516103c49190613790565b60405180910390f35b6103e760048036038101906103e29190613d10565b611260565b6040516103f49190613b79565b60405180910390f35b610405611317565b005b61040f61132b565b005b610419611410565b6040516104269190613790565b60405180910390f35b61043761143a565b60405161044491906136d4565b60405180910390f35b61046760048036038101906104629190613d69565b6114cc565b005b610483600480360381019061047e9190613be7565b6114e2565b6040516104909190613e9b565b60405180910390f35b6104b360048036038101906104ae9190613722565b61165e565b005b6104cf60048036038101906104ca9190613f5e565b611807565b005b6104eb60048036038101906104e69190613722565b611869565b6040516104f891906136d4565b60405180910390f35b610509611a93565b005b61052560048036038101906105209190613be7565b611af0565b60405161053291906136d4565b60405180910390f35b61055560048036038101906105509190613fe1565b611b0a565b6040516105629190613536565b60405180910390f35b61058560048036038101906105809190613d10565b611b9e565b005b6105a1600480360381019061059c9190614021565b611c21565b005b60007f80ac58cd000000000000000000000000000000000000000000000000000000007bffffffffffffffffffffffffffffffffffffffffffffffffffffffff1916827bffffffffffffffffffffffffffffffffffffffffffffffffffffffff1916148061066e57507f5b5e139f000000000000000000000000000000000000000000000000000000007bffffffffffffffffffffffffffffffffffffffffffffffffffffffff1916827bffffffffffffffffffffffffffffffffffffffffffffffffffffffff1916145b8061067e575061067d82611e7c565b5b9050919050565b6060600a60003373ffffffffffffffffffffffffffffffffffffffff1673ffffffffffffffffffffffffffffffffffffffff16815260200190815260200160002060010180548060200260200160405190810160405280929190818152602001828054801561071357602002820191906000526020600020905b8154815260200190600101908083116106ff575b5050505050905090565b60606000805461072c906140bf565b80601f0160208091040260200160405190810160405280929190818152602001828054610758906140bf565b80156107a55780601f1061077a576101008083540402835291602001916107a5565b820191906000526020600020905b81548152906001019060200180831161078857829003601f168201915b5050505050905090565b60006107ba82611ee6565b6004600083815260200190815260200160002060009054906101000a900473ffffffffffffffffffffffffffffffffffffffff169050919050565b6000610800826111af565b90508073ffffffffffffffffffffffffffffffffffffffff168373ffffffffffffffffffffffffffffffffffffffff1603610870576040517f08c379a000000000000000000000000000000000000000000000000000000000815260040161086790614162565b60405180910390fd5b8073ffffffffffffffffffffffffffffffffffffffff1661088f611f31565b73ffffffffffffffffffffffffffffffffffffffff1614806108be57506108bd816108b8611f31565b611b0a565b5b6108fd576040517f08c379a00000000000000000000000000000000000000000000000000000000081526004016108f4906141f4565b60405180910390fd5b6109078383611f39565b505050565b600860003373ffffffffffffffffffffffffffffffffffffffff1673ffffffffffffffffffffffffffffffffffffffff16815260200190815260200160002060009054906101000a900460ff16610998576040517f08c379a000000000000000000000000000000000000000000000000000000000815260040161098f90614260565b60405180910390fd5b33600a60008273ffffffffffffffffffffffffffffffffffffffff1673ffffffffffffffffffffffffffffffffffffffff16815260200190815260200160002060030160009054906101000a900460ff16610a28576040517f08c379a0000000000000000000000000000000000000000000000000000000008152600401610a1f906142cc565b60405180910390fd5b600860008673ffffffffffffffffffffffffffffffffffffffff1673ffffffffffffffffffffffffffffffffffffffff16815260200190815260200160002060009054906101000a900460ff16610ab4576040517f08c379a0000000000000000000000000000000000000000000000000000000008152600401610aab90614260565b60405180910390fd5b600d83604051610ac49190614328565b908152602001604051809103902060009054906101000a900460ff1615610b20576040517f08c379a0000000000000000000000000000000000000000000000000000000008152600401610b179061438b565b60405180910390fd5b6000610b2b85611ff2565b9050610b368161165e565b610b40868261205d565b610b4a818561207b565b6001600d85604051610b5c9190614328565b908152602001604051809103902060006101000a81548160ff0219169083151502179055506040518060a001604052808981526020018881526020013373ffffffffffffffffffffffffffffffffffffffff1681526020014267ffffffffffffffff1681526020018462ffffff16815250600b60008381526020019081526020016000206000820151816000019081610bf59190614557565b506020820151816001015560408201518160020160006101000a81548173ffffffffffffffffffffffffffffffffffffffff021916908373ffffffffffffffffffffffffffffffffffffffff16021790555060608201518160020160146101000a81548167ffffffffffffffff021916908367ffffffffffffffff160217905550608082015181600201601c6101000a81548162ffffff021916908362ffffff16021790555090505042600e819055505050505050505050565b600e5481565b6060600860003373ffffffffffffffffffffffffffffffffffffffff1673ffffffffffffffffffffffffffffffffffffffff16815260200190815260200160002060009054906101000a900460ff16610d43576040517f08c379a0000000000000000000000000000000000000000000000000000000008152600401610d3a90614260565b60405180910390fd5b600a60003373ffffffffffffffffffffffffffffffffffffffff1673ffffffffffffffffffffffffffffffffffffffff1681526020019081526020016000206000018054610d90906140bf565b80601f0160208091040260200160405190810160405280929190818152602001828054610dbc906140bf565b8015610e095780601f10610dde57610100808354040283529160200191610e09565b820191906000526020600020905b815481529060010190602001808311610dec57829003601f168201915b5050505050905090565b606033600a60008273ffffffffffffffffffffffffffffffffffffffff1673ffffffffffffffffffffffffffffffffffffffff16815260200190815260200160002060030160009054906101000a900460ff16610ea5576040517f08c379a0000000000000000000000000000000000000000000000000000000008152600401610e9c906142cc565b60405180910390fd5b600a60003373ffffffffffffffffffffffffffffffffffffffff1673ffffffffffffffffffffffffffffffffffffffff168152602001908152602001600020600201805480602002602001604051908101604052809291908181526020018280548015610f3157602002820191906000526020600020905b815481526020019060010190808311610f1d575b505050505091505090565b600860003373ffffffffffffffffffffffffffffffffffffffff1673ffffffffffffffffffffffffffffffffffffffff16815260200190815260200160002060009054906101000a900460ff16610fc8576040517f08c379a0000000000000000000000000000000000000000000000000000000008152600401610fbf90614260565b60405180910390fd5b565b610fdb610fd5611f31565b826120e8565b61101a576040517f08c379a00000000000000000000000000000000000000000000000000000000081526004016110119061469b565b60405180910390fd5b61102583838361217d565b505050565b61104583838360405180602001604052806000815250611807565b505050565b6060600061105783611ff2565b90503373ffffffffffffffffffffffffffffffffffffffff16600b600083815260200190815260200160002060020160009054906101000a900473ffffffffffffffffffffffffffffffffffffffff1673ffffffffffffffffffffffffffffffffffffffff16146110fd576040517f08c379a00000000000000000000000000000000000000000000000000000000081526004016110f49061472d565b60405180910390fd5b600c600082815260200190815260200160002080548060200260200160405190810160405280929190818152602001828054801561119057602002820191906000526020600020905b8160009054906101000a900473ffffffffffffffffffffffffffffffffffffffff1673ffffffffffffffffffffffffffffffffffffffff1681526020019060010190808311611146575b5050505050915050919050565b60606111aa600e546123e3565b905090565b6000806002600084815260200190815260200160002060009054906101000a900473ffffffffffffffffffffffffffffffffffffffff169050600073ffffffffffffffffffffffffffffffffffffffff168173ffffffffffffffffffffffffffffffffffffffff1603611257576040517f08c379a000000000000000000000000000000000000000000000000000000000815260040161124e90614799565b60405180910390fd5b80915050919050565b60008073ffffffffffffffffffffffffffffffffffffffff168273ffffffffffffffffffffffffffffffffffffffff16036112d0576040517f08c379a00000000000000000000000000000000000000000000000000000000081526004016112c79061482b565b60405180910390fd5b600360008373ffffffffffffffffffffffffffffffffffffffff1673ffffffffffffffffffffffffffffffffffffffff168152602001908152602001600020549050919050565b61131f6125b8565b6113296000612636565b565b6000600a60003373ffffffffffffffffffffffffffffffffffffffff1673ffffffffffffffffffffffffffffffffffffffff16815260200190815260200160002060020180549050146113b3576040517f08c379a00000000000000000000000000000000000000000000000000000000081526004016113aa906148bd565b60405180910390fd5b6000600a60003373ffffffffffffffffffffffffffffffffffffffff1673ffffffffffffffffffffffffffffffffffffffff16815260200190815260200160002060030160006101000a81548160ff021916908315150217905550565b6000600760009054906101000a900473ffffffffffffffffffffffffffffffffffffffff16905090565b606060018054611449906140bf565b80601f0160208091040260200160405190810160405280929190818152602001828054611475906140bf565b80156114c25780601f10611497576101008083540402835291602001916114c2565b820191906000526020600020905b8154815290600101906020018083116114a557829003601f168201915b5050505050905090565b6114de6114d7611f31565b83836126fc565b5050565b6114ea6133c4565b600b60006114f784611ff2565b81526020019081526020016000206040518060a0016040529081600082018054611520906140bf565b80601f016020809104026020016040519081016040528092919081815260200182805461154c906140bf565b80156115995780601f1061156e57610100808354040283529160200191611599565b820191906000526020600020905b81548152906001019060200180831161157c57829003601f168201915b50505050508152602001600182015481526020016002820160009054906101000a900473ffffffffffffffffffffffffffffffffffffffff1673ffffffffffffffffffffffffffffffffffffffff1673ffffffffffffffffffffffffffffffffffffffff1681526020016002820160149054906101000a900467ffffffffffffffff1667ffffffffffffffff1667ffffffffffffffff16815260200160028201601c9054906101000a900462ffffff1662ffffff1662ffffff16815250509050919050565b33600a60008273ffffffffffffffffffffffffffffffffffffffff1673ffffffffffffffffffffffffffffffffffffffff16815260200190815260200160002060030160009054906101000a900460ff166116ee576040517f08c379a00000000000000000000000000000000000000000000000000000000081526004016116e5906142cc565b60405180910390fd5b6009600083815260200190815260200160002060009054906101000a900460ff161561179561175a6040518060400160405280600781526020017f53657269616c2000000000000000000000000000000000000000000000000000815250611755866123e3565b612868565b6040518060400160405280600f81526020017f20616c726561647920696e207573650000000000000000000000000000000000815250612868565b906117d6576040517f08c379a00000000000000000000000000000000000000000000000000000000081526004016117cd91906136d4565b60405180910390fd5b5060016009600084815260200190815260200160002060006101000a81548160ff0219169083151502179055505050565b611818611812611f31565b836120e8565b611857576040517f08c379a000000000000000000000000000000000000000000000000000000000815260040161184e9061469b565b60405180910390fd5b61186384848484612894565b50505050565b6060600b600083815260200190815260200160002060020160009054906101000a900473ffffffffffffffffffffffffffffffffffffffff1673ffffffffffffffffffffffffffffffffffffffff163373ffffffffffffffffffffffffffffffffffffffff1614806119775750600c60008381526020019081526020016000206001600c60008581526020019081526020016000208054905061190c919061490c565b8154811061191d5761191c614940565b5b9060005260206000200160009054906101000a900473ffffffffffffffffffffffffffffffffffffffff1673ffffffffffffffffffffffffffffffffffffffff163373ffffffffffffffffffffffffffffffffffffffff16145b6119b6576040517f08c379a00000000000000000000000000000000000000000000000000000000081526004016119ad906149e1565b60405180910390fd5b6000429050600b6000848152602001908152602001600020600201601c9054906101000a900462ffffff1662ffffff1662015180600b600086815260200190815260200160002060020160149054906101000a900467ffffffffffffffff1683611a209190614a01565b611a2a9190614a64565b67ffffffffffffffff161015611a4b57611a43836128f0565b915050611a8e565b6000611a8c576040517f08c379a0000000000000000000000000000000000000000000000000000000008152600401611a8390614ae1565b60405180910390fd5b505b919050565b6001600a60003373ffffffffffffffffffffffffffffffffffffffff1673ffffffffffffffffffffffffffffffffffffffff16815260200190815260200160002060030160006101000a81548160ff021916908315150217905550565b6060611b03611afe83611ff2565b611869565b9050919050565b6000600560008473ffffffffffffffffffffffffffffffffffffffff1673ffffffffffffffffffffffffffffffffffffffff16815260200190815260200160002060008373ffffffffffffffffffffffffffffffffffffffff1673ffffffffffffffffffffffffffffffffffffffff16815260200190815260200160002060009054906101000a900460ff16905092915050565b611ba66125b8565b600073ffffffffffffffffffffffffffffffffffffffff168173ffffffffffffffffffffffffffffffffffffffff1603611c15576040517f08c379a0000000000000000000000000000000000000000000000000000000008152600401611c0c90614b73565b60405180910390fd5b611c1e81612636565b50565b600860008373ffffffffffffffffffffffffffffffffffffffff1673ffffffffffffffffffffffffffffffffffffffff16815260200190815260200160002060009054906101000a900460ff1615611cae576040517f08c379a0000000000000000000000000000000000000000000000000000000008152600401611ca590614bdf565b60405180910390fd5b6001600860008473ffffffffffffffffffffffffffffffffffffffff1673ffffffffffffffffffffffffffffffffffffffff16815260200190815260200160002060006101000a81548160ff02191690831515021790555060008067ffffffffffffffff811115611d2257611d21613821565b5b604051908082528060200260200182016040528015611d505781602001602082028036833780820191505090505b50905060008067ffffffffffffffff811115611d6f57611d6e613821565b5b604051908082528060200260200182016040528015611d9d5781602001602082028036833780820191505090505b5090506040518060800160405280868152602001838152602001828152602001841515815250600a60008673ffffffffffffffffffffffffffffffffffffffff1673ffffffffffffffffffffffffffffffffffffffff1681526020019081526020016000206000820151816000019081611e179190614557565b506020820151816001019080519060200190611e34929190613418565b506040820151816002019080519060200190611e51929190613418565b5060608201518160030160006101000a81548160ff0219169083151502179055509050505050505050565b60007f01ffc9a7000000000000000000000000000000000000000000000000000000007bffffffffffffffffffffffffffffffffffffffffffffffffffffffff1916827bffffffffffffffffffffffffffffffffffffffffffffffffffffffff1916149050919050565b611eef81612a02565b611f2e576040517f08c379a0000000000000000000000000000000000000000000000000000000008152600401611f2590614799565b60405180910390fd5b50565b600033905090565b816004600083815260200190815260200160002060006101000a81548173ffffffffffffffffffffffffffffffffffffffff021916908373ffffffffffffffffffffffffffffffffffffffff160217905550808273ffffffffffffffffffffffffffffffffffffffff16611fac836111af565b73ffffffffffffffffffffffffffffffffffffffff167f8c5be1e5ebec7d5bd14f71427d1e84f3dd0314c0f7b2291e5b200ac8c7c3b92560405160405180910390a45050565b6000806000601090505b600181106120535783600182612012919061490c565b8151811061202357612022614940565b5b602002602001015161ffff16601083901b61203e9190614bff565b9150808061204b90614c55565b915050611ffc565b5080915050919050565b612077828260405180602001604052806000815250612a6e565b5050565b61208482612a02565b6120c3576040517f08c379a00000000000000000000000000000000000000000000000000000000081526004016120ba90614cf0565b60405180910390fd5b806006600084815260200190815260200160002090816120e39190614557565b505050565b6000806120f4836111af565b90508073ffffffffffffffffffffffffffffffffffffffff168473ffffffffffffffffffffffffffffffffffffffff16148061213657506121358185611b0a565b5b8061217457508373ffffffffffffffffffffffffffffffffffffffff1661215c846107af565b73ffffffffffffffffffffffffffffffffffffffff16145b91505092915050565b8273ffffffffffffffffffffffffffffffffffffffff1661219d826111af565b73ffffffffffffffffffffffffffffffffffffffff16146121f3576040517f08c379a00000000000000000000000000000000000000000000000000000000081526004016121ea90614d82565b60405180910390fd5b600073ffffffffffffffffffffffffffffffffffffffff168273ffffffffffffffffffffffffffffffffffffffff1603612262576040517f08c379a000000000000000000000000000000000000000000000000000000000815260040161225990614e14565b60405180910390fd5b61226d838383612ac9565b612278600082611f39565b6001600360008573ffffffffffffffffffffffffffffffffffffffff1673ffffffffffffffffffffffffffffffffffffffff16815260200190815260200160002060008282546122c8919061490c565b925050819055506001600360008473ffffffffffffffffffffffffffffffffffffffff1673ffffffffffffffffffffffffffffffffffffffff168152602001908152602001600020600082825461231f9190614bff565b92505081905550816002600083815260200190815260200160002060006101000a81548173ffffffffffffffffffffffffffffffffffffffff021916908373ffffffffffffffffffffffffffffffffffffffff160217905550808273ffffffffffffffffffffffffffffffffffffffff168473ffffffffffffffffffffffffffffffffffffffff167fddf252ad1be2c89b69c2b068fc378daa952ba7f163c4a11628f55a4df523b3ef60405160405180910390a46123de838383612d4b565b505050565b60606000606467ffffffffffffffff81111561240257612401613821565b5b6040519080825280601f01601f1916602001820160405280156124345781602001600182028036833780820191505090505b50905060005b60008411156124c357600a846124509190614e34565b603061245c9190614bff565b60f81b82828151811061247257612471614940565b5b60200101907effffffffffffffffffffffffffffffffffffffffffffffffffffffffffffff1916908160001a905350600a846124ae9190614e65565b935080806124bb90614e96565b91505061243a565b6000825167ffffffffffffffff8111156124e0576124df613821565b5b6040519080825280601f01601f1916602001820160405280156125125781602001600182028036833780820191505090505b50905060005b83518110156125ac57836001828651612531919061490c565b61253b919061490c565b8151811061254c5761254b614940565b5b602001015160f81c60f81b82828151811061256a57612569614940565b5b60200101907effffffffffffffffffffffffffffffffffffffffffffffffffffffffffffff1916908160001a90535080806125a490614e96565b915050612518565b50809350505050919050565b6125c0611f31565b73ffffffffffffffffffffffffffffffffffffffff166125de611410565b73ffffffffffffffffffffffffffffffffffffffff1614612634576040517f08c379a000000000000000000000000000000000000000000000000000000000815260040161262b90614f2a565b60405180910390fd5b565b6000600760009054906101000a900473ffffffffffffffffffffffffffffffffffffffff16905081600760006101000a81548173ffffffffffffffffffffffffffffffffffffffff021916908373ffffffffffffffffffffffffffffffffffffffff1602179055508173ffffffffffffffffffffffffffffffffffffffff168173ffffffffffffffffffffffffffffffffffffffff167f8be0079c531659141344cd1fd0a4f28419497f9722a3daafe3b4186f6b6457e060405160405180910390a35050565b8173ffffffffffffffffffffffffffffffffffffffff168373ffffffffffffffffffffffffffffffffffffffff160361276a576040517f08c379a000000000000000000000000000000000000000000000000000000000815260040161276190614f96565b60405180910390fd5b80600560008573ffffffffffffffffffffffffffffffffffffffff1673ffffffffffffffffffffffffffffffffffffffff16815260200190815260200160002060008473ffffffffffffffffffffffffffffffffffffffff1673ffffffffffffffffffffffffffffffffffffffff16815260200190815260200160002060006101000a81548160ff0219169083151502179055508173ffffffffffffffffffffffffffffffffffffffff168373ffffffffffffffffffffffffffffffffffffffff167f17307eab39ab6107e8899845ad3d59bd9653f200f220920489ca2b5937696c318360405161285b9190613536565b60405180910390a3505050565b6060828260405160200161287d929190615002565b604051602081830303815290604052905092915050565b61289f84848461217d565b6128ab84848484612e62565b6128ea576040517f08c379a00000000000000000000000000000000000000000000000000000000081526004016128e1906150a3565b60405180910390fd5b50505050565b60606128fb82611ee6565b600060066000848152602001908152602001600020805461291b906140bf565b80601f0160208091040260200160405190810160405280929190818152602001828054612947906140bf565b80156129945780601f1061296957610100808354040283529160200191612994565b820191906000526020600020905b81548152906001019060200180831161297757829003601f168201915b5050505050905060006129a5612fe9565b905060008151036129ba5781925050506129fd565b6000825111156129ef5780826040516020016129d79291906150c3565b604051602081830303815290604052925050506129fd565b6129f884613000565b925050505b919050565b60008073ffffffffffffffffffffffffffffffffffffffff166002600084815260200190815260200160002060009054906101000a900473ffffffffffffffffffffffffffffffffffffffff1673ffffffffffffffffffffffffffffffffffffffff1614159050919050565b612a788383613068565b612a856000848484612e62565b612ac4576040517f08c379a0000000000000000000000000000000000000000000000000000000008152600401612abb906150a3565b60405180910390fd5b505050565b600073ffffffffffffffffffffffffffffffffffffffff168373ffffffffffffffffffffffffffffffffffffffff1614612d465760005b600a60008573ffffffffffffffffffffffffffffffffffffffff1673ffffffffffffffffffffffffffffffffffffffff16815260200190815260200160002060010180549050811015612d445781600a60008673ffffffffffffffffffffffffffffffffffffffff1673ffffffffffffffffffffffffffffffffffffffff1681526020019081526020016000206001018281548110612ba257612ba1614940565b5b906000526020600020015403612d3157600a60008573ffffffffffffffffffffffffffffffffffffffff1673ffffffffffffffffffffffffffffffffffffffff1681526020019081526020016000206001016001600a60008773ffffffffffffffffffffffffffffffffffffffff1673ffffffffffffffffffffffffffffffffffffffff16815260200190815260200160002060010180549050612c46919061490c565b81548110612c5757612c56614940565b5b9060005260206000200154600a60008673ffffffffffffffffffffffffffffffffffffffff1673ffffffffffffffffffffffffffffffffffffffff1681526020019081526020016000206001018281548110612cb657612cb5614940565b5b9060005260206000200181905550600a60008573ffffffffffffffffffffffffffffffffffffffff1673ffffffffffffffffffffffffffffffffffffffff168152602001908152602001600020600101805480612d1657612d156150e7565b5b60019003818190600052602060002001600090559055612d44565b8080612d3c90614e96565b915050612b00565b505b505050565b600073ffffffffffffffffffffffffffffffffffffffff168273ffffffffffffffffffffffffffffffffffffffff1614612e5d57600a60008373ffffffffffffffffffffffffffffffffffffffff1673ffffffffffffffffffffffffffffffffffffffff168152602001908152602001600020600101819080600181540180825580915050600190039060005260206000200160009091909190915055600c6000828152602001908152602001600020829080600181540180825580915050600190039060005260206000200160009091909190916101000a81548173ffffffffffffffffffffffffffffffffffffffff021916908373ffffffffffffffffffffffffffffffffffffffff1602179055505b505050565b6000612e838473ffffffffffffffffffffffffffffffffffffffff16613241565b15612fdc578373ffffffffffffffffffffffffffffffffffffffff1663150b7a02612eac611f31565b8786866040518563ffffffff1660e01b8152600401612ece949392919061516b565b6020604051808303816000875af1925050508015612f0a57506040513d601f19601f82011682018060405250810190612f0791906151cc565b60015b612f8c573d8060008114612f3a576040519150601f19603f3d011682016040523d82523d6000602084013e612f3f565b606091505b506000815103612f84576040517f08c379a0000000000000000000000000000000000000000000000000000000008152600401612f7b906150a3565b60405180910390fd5b805181602001fd5b63150b7a0260e01b7bffffffffffffffffffffffffffffffffffffffffffffffffffffffff1916817bffffffffffffffffffffffffffffffffffffffffffffffffffffffff191614915050612fe1565b600190505b949350505050565b606060405180602001604052806000815250905090565b606061300b82611ee6565b6000613015612fe9565b905060008151116130355760405180602001604052806000815250613060565b8061303f84613264565b6040516020016130509291906150c3565b6040516020818303038152906040525b915050919050565b600073ffffffffffffffffffffffffffffffffffffffff168273ffffffffffffffffffffffffffffffffffffffff16036130d7576040517f08c379a00000000000000000000000000000000000000000000000000000000081526004016130ce90615245565b60405180910390fd5b6130e081612a02565b15613120576040517f08c379a0000000000000000000000000000000000000000000000000000000008152600401613117906152b1565b60405180910390fd5b61312c60008383612ac9565b6001600360008473ffffffffffffffffffffffffffffffffffffffff1673ffffffffffffffffffffffffffffffffffffffff168152602001908152602001600020600082825461317c9190614bff565b92505081905550816002600083815260200190815260200160002060006101000a81548173ffffffffffffffffffffffffffffffffffffffff021916908373ffffffffffffffffffffffffffffffffffffffff160217905550808273ffffffffffffffffffffffffffffffffffffffff16600073ffffffffffffffffffffffffffffffffffffffff167fddf252ad1be2c89b69c2b068fc378daa952ba7f163c4a11628f55a4df523b3ef60405160405180910390a461323d60008383612d4b565b5050565b6000808273ffffffffffffffffffffffffffffffffffffffff163b119050919050565b6060600082036132ab576040518060400160405280600181526020017f300000000000000000000000000000000000000000000000000000000000000081525090506133bf565b600082905060005b600082146132dd5780806132c690614e96565b915050600a826132d69190614e65565b91506132b3565b60008167ffffffffffffffff8111156132f9576132f8613821565b5b6040519080825280601f01601f19166020018201604052801561332b5781602001600182028036833780820191505090505b5090505b600085146133b857600182613344919061490c565b9150600a856133539190614e34565b603061335f9190614bff565b60f81b81838151811061337557613374614940565b5b60200101907effffffffffffffffffffffffffffffffffffffffffffffffffffffffffffff1916908160001a905350600a856133b19190614e65565b945061332f565b8093505050505b919050565b6040518060a001604052806060815260200160008152602001600073ffffffffffffffffffffffffffffffffffffffff168152602001600067ffffffffffffffff168152602001600062ffffff1681525090565b828054828255906000526020600020908101928215613454579160200282015b82811115613453578251825591602001919060010190613438565b5b5090506134619190613465565b5090565b5b8082111561347e576000816000905550600101613466565b5090565b6000604051905090565b600080fd5b600080fd5b60007fffffffff0000000000000000000000000000000000000000000000000000000082169050919050565b6134cb81613496565b81146134d657600080fd5b50565b6000813590506134e8816134c2565b92915050565b6000602082840312156135045761350361348c565b5b6000613512848285016134d9565b91505092915050565b60008115159050919050565b6135308161351b565b82525050565b600060208201905061354b6000830184613527565b92915050565b600081519050919050565b600082825260208201905092915050565b6000819050602082019050919050565b6000819050919050565b6135908161357d565b82525050565b60006135a28383613587565b60208301905092915050565b6000602082019050919050565b60006135c682613551565b6135d0818561355c565b93506135db8361356d565b8060005b8381101561360c5781516135f38882613596565b97506135fe836135ae565b9250506001810190506135df565b5085935050505092915050565b6000602082019050818103600083015261363381846135bb565b905092915050565b600081519050919050565b600082825260208201905092915050565b60005b8381101561367557808201518184015260208101905061365a565b83811115613684576000848401525b50505050565b6000601f19601f8301169050919050565b60006136a68261363b565b6136b08185613646565b93506136c0818560208601613657565b6136c98161368a565b840191505092915050565b600060208201905081810360008301526136ee818461369b565b905092915050565b6136ff8161357d565b811461370a57600080fd5b50565b60008135905061371c816136f6565b92915050565b6000602082840312156137385761373761348c565b5b60006137468482850161370d565b91505092915050565b600073ffffffffffffffffffffffffffffffffffffffff82169050919050565b600061377a8261374f565b9050919050565b61378a8161376f565b82525050565b60006020820190506137a56000830184613781565b92915050565b6137b48161376f565b81146137bf57600080fd5b50565b6000813590506137d1816137ab565b92915050565b600080604083850312156137ee576137ed61348c565b5b60006137fc858286016137c2565b925050602061380d8582860161370d565b9150509250929050565b600080fd5b600080fd5b7f4e487b7100000000000000000000000000000000000000000000000000000000600052604160045260246000fd5b6138598261368a565b810181811067ffffffffffffffff8211171561387857613877613821565b5b80604052505050565b600061388b613482565b90506138978282613850565b919050565b600067ffffffffffffffff8211156138b7576138b6613821565b5b6138c08261368a565b9050602081019050919050565b82818337600083830152505050565b60006138ef6138ea8461389c565b613881565b90508281526020810184848401111561390b5761390a61381c565b5b6139168482856138cd565b509392505050565b600082601f83011261393357613932613817565b5b81356139438482602086016138dc565b91505092915050565b600067ffffffffffffffff82111561396757613966613821565b5b602082029050602081019050919050565b600080fd5b600061ffff82169050919050565b6139948161397d565b811461399f57600080fd5b50565b6000813590506139b18161398b565b92915050565b60006139ca6139c58461394c565b613881565b905080838252602082019050602084028301858111156139ed576139ec613978565b5b835b81811015613a165780613a0288826139a2565b8452602084019350506020810190506139ef565b5050509392505050565b600082601f830112613a3557613a34613817565b5b8135613a458482602086016139b7565b91505092915050565b600062ffffff82169050919050565b613a6681613a4e565b8114613a7157600080fd5b50565b600081359050613a8381613a5d565b92915050565b60008060008060008060c08789031215613aa657613aa561348c565b5b600087013567ffffffffffffffff811115613ac457613ac3613491565b5b613ad089828a0161391e565b9650506020613ae189828a0161370d565b9550506040613af289828a016137c2565b945050606087013567ffffffffffffffff811115613b1357613b12613491565b5b613b1f89828a01613a20565b935050608087013567ffffffffffffffff811115613b4057613b3f613491565b5b613b4c89828a0161391e565b92505060a0613b5d89828a01613a74565b9150509295509295509295565b613b738161357d565b82525050565b6000602082019050613b8e6000830184613b6a565b92915050565b600080600060608486031215613bad57613bac61348c565b5b6000613bbb868287016137c2565b9350506020613bcc868287016137c2565b9250506040613bdd8682870161370d565b9150509250925092565b600060208284031215613bfd57613bfc61348c565b5b600082013567ffffffffffffffff811115613c1b57613c1a613491565b5b613c2784828501613a20565b91505092915050565b600081519050919050565b600082825260208201905092915050565b6000819050602082019050919050565b613c658161376f565b82525050565b6000613c778383613c5c565b60208301905092915050565b6000602082019050919050565b6000613c9b82613c30565b613ca58185613c3b565b9350613cb083613c4c565b8060005b83811015613ce1578151613cc88882613c6b565b9750613cd383613c83565b925050600181019050613cb4565b5085935050505092915050565b60006020820190508181036000830152613d088184613c90565b905092915050565b600060208284031215613d2657613d2561348c565b5b6000613d34848285016137c2565b91505092915050565b613d468161351b565b8114613d5157600080fd5b50565b600081359050613d6381613d3d565b92915050565b60008060408385031215613d8057613d7f61348c565b5b6000613d8e858286016137c2565b9250506020613d9f85828601613d54565b9150509250929050565b600082825260208201905092915050565b6000613dc58261363b565b613dcf8185613da9565b9350613ddf818560208601613657565b613de88161368a565b840191505092915050565b600067ffffffffffffffff82169050919050565b613e1081613df3565b82525050565b613e1f81613a4e565b82525050565b600060a0830160008301518482036000860152613e428282613dba565b9150506020830151613e576020860182613587565b506040830151613e6a6040860182613c5c565b506060830151613e7d6060860182613e07565b506080830151613e906080860182613e16565b508091505092915050565b60006020820190508181036000830152613eb58184613e25565b905092915050565b600067ffffffffffffffff821115613ed857613ed7613821565b5b613ee18261368a565b9050602081019050919050565b6000613f01613efc84613ebd565b613881565b905082815260208101848484011115613f1d57613f1c61381c565b5b613f288482856138cd565b509392505050565b600082601f830112613f4557613f44613817565b5b8135613f55848260208601613eee565b91505092915050565b60008060008060808587031215613f7857613f7761348c565b5b6000613f86878288016137c2565b9450506020613f97878288016137c2565b9350506040613fa88782880161370d565b925050606085013567ffffffffffffffff811115613fc957613fc8613491565b5b613fd587828801613f30565b91505092959194509250565b60008060408385031215613ff857613ff761348c565b5b6000614006858286016137c2565b9250506020614017858286016137c2565b9150509250929050565b60008060006060848603121561403a5761403961348c565b5b600084013567ffffffffffffffff81111561405857614057613491565b5b6140648682870161391e565b9350506020614075868287016137c2565b925050604061408686828701613d54565b9150509250925092565b7f4e487b7100000000000000000000000000000000000000000000000000000000600052602260045260246000fd5b600060028204905060018216806140d757607f821691505b6020821081036140ea576140e9614090565b5b50919050565b7f4552433732313a20617070726f76616c20746f2063757272656e74206f776e6560008201527f7200000000000000000000000000000000000000000000000000000000000000602082015250565b600061414c602183613646565b9150614157826140f0565b604082019050919050565b6000602082019050818103600083015261417b8161413f565b9050919050565b7f4552433732313a20617070726f76652063616c6c6572206973206e6f7420746f60008201527f6b656e206f776e6572206e6f7220617070726f76656420666f7220616c6c0000602082015250565b60006141de603e83613646565b91506141e982614182565b604082019050919050565b6000602082019050818103600083015261420d816141d1565b9050919050565b7f4f6e6c792072656769737465726564206d656d6265727320616c6c6f77656400600082015250565b600061424a601f83613646565b915061425582614214565b602082019050919050565b600060208201905081810360008301526142798161423d565b9050919050565b7f4f6e6c792073656c6c6172732063616e20616363657373207468697300000000600082015250565b60006142b6601c83613646565b91506142c182614280565b602082019050919050565b600060208201905081810360008301526142e5816142a9565b9050919050565b600081905092915050565b60006143028261363b565b61430c81856142ec565b935061431c818560208601613657565b80840191505092915050565b600061433482846142f7565b915081905092915050565b7f55524920616c726561647920696e207573652e00000000000000000000000000600082015250565b6000614375601383613646565b91506143808261433f565b602082019050919050565b600060208201905081810360008301526143a481614368565b9050919050565b60008190508160005260206000209050919050565b60006020601f8301049050919050565b600082821b905092915050565b60006008830261440d7fffffffffffffffffffffffffffffffffffffffffffffffffffffffffffffffff826143d0565b61441786836143d0565b95508019841693508086168417925050509392505050565b6000819050919050565b600061445461444f61444a8461357d565b61442f565b61357d565b9050919050565b6000819050919050565b61446e83614439565b61448261447a8261445b565b8484546143dd565b825550505050565b600090565b61449761448a565b6144a2818484614465565b505050565b5b818110156144c6576144bb60008261448f565b6001810190506144a8565b5050565b601f82111561450b576144dc816143ab565b6144e5846143c0565b810160208510156144f4578190505b614508614500856143c0565b8301826144a7565b50505b505050565b600082821c905092915050565b600061452e60001984600802614510565b1980831691505092915050565b6000614547838361451d565b9150826002028217905092915050565b6145608261363b565b67ffffffffffffffff81111561457957614578613821565b5b61458382546140bf565b61458e8282856144ca565b600060209050601f8311600181146145c157600084156145af578287015190505b6145b9858261453b565b865550614621565b601f1984166145cf866143ab565b60005b828110156145f7578489015182556001820191506020850194506020810190506145d2565b868310156146145784890151614610601f89168261451d565b8355505b6001600288020188555050505b505050505050565b7f4552433732313a2063616c6c6572206973206e6f7420746f6b656e206f776e6560008201527f72206e6f7220617070726f766564000000000000000000000000000000000000602082015250565b6000614685602e83613646565b915061469082614629565b604082019050919050565b600060208201905081810360008301526146b481614678565b9050919050565b7f46756e6374696f6e2061636365737369626c65206f6e6c79206279207468652060008201527f6d656d626572206f6620746865206272616e6421210000000000000000000000602082015250565b6000614717603583613646565b9150614722826146bb565b604082019050919050565b600060208201905081810360008301526147468161470a565b9050919050565b7f4552433732313a20696e76616c696420746f6b656e2049440000000000000000600082015250565b6000614783601883613646565b915061478e8261474d565b602082019050919050565b600060208201905081810360008301526147b281614776565b9050919050565b7f4552433732313a2061646472657373207a65726f206973206e6f74206120766160008201527f6c6964206f776e65720000000000000000000000000000000000000000000000602082015250565b6000614815602983613646565b9150614820826147b9565b604082019050919050565b6000602082019050818103600083015261484481614808565b9050919050565b7f416c6c206c6963656e736573206e65656420746f20657870697265206265666f60008201527f7265206c656176696e672074686520627573696e657373000000000000000000602082015250565b60006148a7603783613646565b91506148b28261484b565b604082019050919050565b600060208201905081810360008301526148d68161489a565b9050919050565b7f4e487b7100000000000000000000000000000000000000000000000000000000600052601160045260246000fd5b60006149178261357d565b91506149228361357d565b925082821015614935576149346148dd565b5b828203905092915050565b7f4e487b7100000000000000000000000000000000000000000000000000000000600052603260045260246000fd5b7f4f6e6c7920746865206f776e6572206f6620746869732061646472657373206360008201527f616e2073656520697427732064657461696c7300000000000000000000000000602082015250565b60006149cb603383613646565b91506149d68261496f565b604082019050919050565b600060208201905081810360008301526149fa816149be565b9050919050565b6000614a0c82613df3565b9150614a1783613df3565b925082821015614a2a57614a296148dd565b5b828203905092915050565b7f4e487b7100000000000000000000000000000000000000000000000000000000600052601260045260246000fd5b6000614a6f82613df3565b9150614a7a83613df3565b925082614a8a57614a89614a35565b5b828204905092915050565b7f4c6963656e736520697320616c72656164792065787069726564000000000000600082015250565b6000614acb601a83613646565b9150614ad682614a95565b602082019050919050565b60006020820190508181036000830152614afa81614abe565b9050919050565b7f4f776e61626c653a206e6577206f776e657220697320746865207a65726f206160008201527f6464726573730000000000000000000000000000000000000000000000000000602082015250565b6000614b5d602683613646565b9150614b6882614b01565b604082019050919050565b60006020820190508181036000830152614b8c81614b50565b9050919050565b7f4164647265737320616c72656164792072656769737465726564000000000000600082015250565b6000614bc9601a83613646565b9150614bd482614b93565b602082019050919050565b60006020820190508181036000830152614bf881614bbc565b9050919050565b6000614c0a8261357d565b9150614c158361357d565b9250827fffffffffffffffffffffffffffffffffffffffffffffffffffffffffffffffff03821115614c4a57614c496148dd565b5b828201905092915050565b6000614c608261357d565b915060008203614c7357614c726148dd565b5b600182039050919050565b7f45524337323155524953746f726167653a2055524920736574206f66206e6f6e60008201527f6578697374656e7420746f6b656e000000000000000000000000000000000000602082015250565b6000614cda602e83613646565b9150614ce582614c7e565b604082019050919050565b60006020820190508181036000830152614d0981614ccd565b9050919050565b7f4552433732313a207472616e736665722066726f6d20696e636f72726563742060008201527f6f776e6572000000000000000000000000000000000000000000000000000000602082015250565b6000614d6c602583613646565b9150614d7782614d10565b604082019050919050565b60006020820190508181036000830152614d9b81614d5f565b9050919050565b7f4552433732313a207472616e7366657220746f20746865207a65726f2061646460008201527f7265737300000000000000000000000000000000000000000000000000000000602082015250565b6000614dfe602483613646565b9150614e0982614da2565b604082019050919050565b60006020820190508181036000830152614e2d81614df1565b9050919050565b6000614e3f8261357d565b9150614e4a8361357d565b925082614e5a57614e59614a35565b5b828206905092915050565b6000614e708261357d565b9150614e7b8361357d565b925082614e8b57614e8a614a35565b5b828204905092915050565b6000614ea18261357d565b91507fffffffffffffffffffffffffffffffffffffffffffffffffffffffffffffffff8203614ed357614ed26148dd565b5b600182019050919050565b7f4f776e61626c653a2063616c6c6572206973206e6f7420746865206f776e6572600082015250565b6000614f14602083613646565b9150614f1f82614ede565b602082019050919050565b60006020820190508181036000830152614f4381614f07565b9050919050565b7f4552433732313a20617070726f766520746f2063616c6c657200000000000000600082015250565b6000614f80601983613646565b9150614f8b82614f4a565b602082019050919050565b60006020820190508181036000830152614faf81614f73565b9050919050565b7f2000000000000000000000000000000000000000000000000000000000000000600082015250565b6000614fec6001836142ec565b9150614ff782614fb6565b600182019050919050565b600061500e82856142f7565b915061501982614fdf565b915061502582846142f7565b91508190509392505050565b7f4552433732313a207472616e7366657220746f206e6f6e20455243373231526560008201527f63656976657220696d706c656d656e7465720000000000000000000000000000602082015250565b600061508d603283613646565b915061509882615031565b604082019050919050565b600060208201905081810360008301526150bc81615080565b9050919050565b60006150cf82856142f7565b91506150db82846142f7565b91508190509392505050565b7f4e487b7100000000000000000000000000000000000000000000000000000000600052603160045260246000fd5b600081519050919050565b600082825260208201905092915050565b600061513d82615116565b6151478185615121565b9350615157818560208601613657565b6151608161368a565b840191505092915050565b60006080820190506151806000830187613781565b61518d6020830186613781565b61519a6040830185613b6a565b81810360608301526151ac8184615132565b905095945050505050565b6000815190506151c6816134c2565b92915050565b6000602082840312156151e2576151e161348c565b5b60006151f0848285016151b7565b91505092915050565b7f4552433732313a206d696e7420746f20746865207a65726f2061646472657373600082015250565b600061522f602083613646565b915061523a826151f9565b602082019050919050565b6000602082019050818103600083015261525e81615222565b9050919050565b7f4552433732313a20746f6b656e20616c7265616479206d696e74656400000000600082015250565b600061529b601c83613646565b91506152a682615265565b602082019050919050565b600060208201905081810360008301526152ca8161528e565b905091905056fea26469706673582212206a898b52754baa4ee83ea88c8517ac35483b1fc160f38a85b0bcca1c531fed1f64736f6c634300080f0033",
  "immutableReferences": {},
  "source": "// SPDX-License-Identifier: MIT\npragma solidity ^0.8.4;\n\nimport \"@openzeppelin/contracts/token/ERC721/ERC721.sol\";\nimport \"@openzeppelin/contracts/token/ERC721/extensions/ERC721URIStorage.sol\";\nimport \"./Ownership.sol\";\nimport \"./Misc.sol\";\n\ncontract License is ERC721, ERC721URIStorage, Whitelist {\n    mapping(string => bool) private existingURIs;\n\n    constructor() ERC721(\"License\", \"License\") {}\n\n    // function _baseURI() internal pure override returns (string memory) {\n    //     return \"ipfs://\";\n    // }\n\n    uint256 public time;\n\n    function getTime() public view returns (string memory) {\n        return uintToString(time);\n    }\n\n    function mint(\n        string memory name,\n        uint256 serialID,\n        address to,\n        uint16[] memory seeds,\n        string memory uri,\n        uint24 day\n    ) public onlyRegistered onlySellar(msg.sender) {\n        require(usedBrandIDs[to], \"Only registered members allowed\");\n        require(!existingURIs[uri], \"URI already in use.\");\n        uint256 tokenId = combine(seeds);\n        addSerial(tokenId);\n        _safeMint(to, tokenId);\n        _setTokenURI(tokenId, uri);\n        existingURIs[uri] = true;\n        serialProductMap[tokenId] = product(\n            name,\n            serialID,\n            msg.sender,\n            uint64(block.timestamp),\n            day\n        );\n        time = block.timestamp;\n    }\n\n    function safeBurn(uint16[] memory parts) internal {\n        _safeBurn(combine(parts));\n    }\n\n    function _safeBurn(uint256 tokenId) internal {\n        usedSerials[tokenId] = false;\n        serialProductMap[tokenId] = product(\n            \"\",\n            0,\n            address(0),\n            uint64(0),\n            uint24(0)\n        );\n        _setTokenURI(tokenId, \"\");\n        _burn(tokenId);\n    }\n\n    function _burn(uint256 tokenId)\n        internal\n        override(ERC721, ERC721URIStorage)\n    {\n        super._burn(tokenId);\n    }\n\n    function getTokenURI(uint16[] memory parts)\n        public\n        view\n        returns (string memory)\n    {\n        return tokenURI(combine(parts));\n    }\n\n    function tokenURI(uint256 tokenId)\n        public\n        view\n        override(ERC721, ERC721URIStorage)\n        returns (string memory)\n    {\n        require(\n            msg.sender == serialProductMap[tokenId].sellar ||\n                msg.sender ==\n                serialOwnerListMap[tokenId][\n                    serialOwnerListMap[tokenId].length - 1\n                ],\n            \"Only the owner of this address can see it's details\"\n        );\n        uint64 current = uint64(block.timestamp);\n        if (\n            (current - serialProductMap[tokenId].birthtime) / (24 * 3600) <\n            serialProductMap[tokenId].lifespan\n        ) {\n            return super.tokenURI(tokenId);\n        } else {\n            require(false, \"License is already expired\");\n        }\n    }\n\n    function _beforeTokenTransfer(\n        address from,\n        address to,\n        uint256 serial\n    ) internal virtual override {\n        if (from != address(0)) {\n            uint256 i;\n            for (i = 0; i < addressUserMap[from].boughtList.length; i++) {\n                if (addressUserMap[from].boughtList[i] == serial) {\n                    addressUserMap[from].boughtList[i] = addressUserMap[from]\n                        .boughtList[addressUserMap[from].boughtList.length - 1];\n                    addressUserMap[from].boughtList.pop();\n                    break;\n                }\n            }\n        }\n    }\n\n    function _afterTokenTransfer(\n        address from,\n        address to,\n        uint256 serial\n    ) internal virtual override {\n        if (to != address(0)) {\n            addressUserMap[to].boughtList.push(serial);\n            serialOwnerListMap[serial].push(to);\n        }\n    }\n}\n",
  "sourcePath": "/Users/monjoy/Desktop/LicenseNFT/smart_contract/contracts/License.sol",
  "compiler": {
    "name": "solc",
    "version": "0.8.15+commit.e14f2714.Emscripten.clang"
  },
  "schemaVersion": "3.4.8",
  "updatedAt": "2022-07-23T05:26:53.119Z",
  "networkType": "ethereum",
  "devdoc": {
    "kind": "dev",
    "methods": {
      "approve(address,uint256)": {
        "details": "See {IERC721-approve}."
      },
      "balanceOf(address)": {
        "details": "See {IERC721-balanceOf}."
      },
      "getApproved(uint256)": {
        "details": "See {IERC721-getApproved}."
      },
      "isApprovedForAll(address,address)": {
        "details": "See {IERC721-isApprovedForAll}."
      },
      "name()": {
        "details": "See {IERC721Metadata-name}."
      },
      "owner()": {
        "details": "Returns the address of the current owner."
      },
      "ownerOf(uint256)": {
        "details": "See {IERC721-ownerOf}."
      },
      "renounceOwnership()": {
        "details": "Leaves the contract without owner. It will not be possible to call `onlyOwner` functions anymore. Can only be called by the current owner. NOTE: Renouncing ownership will leave the contract without an owner, thereby removing any functionality that is only available to the owner."
      },
      "safeTransferFrom(address,address,uint256)": {
        "details": "See {IERC721-safeTransferFrom}."
      },
      "safeTransferFrom(address,address,uint256,bytes)": {
        "details": "See {IERC721-safeTransferFrom}."
      },
      "setApprovalForAll(address,bool)": {
        "details": "See {IERC721-setApprovalForAll}."
      },
      "supportsInterface(bytes4)": {
        "details": "See {IERC165-supportsInterface}."
      },
      "symbol()": {
        "details": "See {IERC721Metadata-symbol}."
      },
      "transferFrom(address,address,uint256)": {
        "details": "See {IERC721-transferFrom}."
      },
      "transferOwnership(address)": {
        "details": "Transfers ownership of the contract to a new account (`newOwner`). Can only be called by the current owner."
      }
    },
    "version": 1
  },
  "userdoc": {
    "kind": "user",
    "methods": {},
    "version": 1
  }
}