{
  "contractName": "License",
  "abi": [
    {
      "inputs": [],
      "stateMutability": "nonpayable",
      "type": "constructor"
    },
    {
      "anonymous": false,
      "inputs": [
        {
          "indexed": true,
          "internalType": "address",
          "name": "owner",
          "type": "address"
        },
        {
          "indexed": true,
          "internalType": "address",
          "name": "approved",
          "type": "address"
        },
        {
          "indexed": true,
          "internalType": "uint256",
          "name": "tokenId",
          "type": "uint256"
        }
      ],
      "name": "Approval",
      "type": "event"
    },
    {
      "anonymous": false,
      "inputs": [
        {
          "indexed": true,
          "internalType": "address",
          "name": "owner",
          "type": "address"
        },
        {
          "indexed": true,
          "internalType": "address",
          "name": "operator",
          "type": "address"
        },
        {
          "indexed": false,
          "internalType": "bool",
          "name": "approved",
          "type": "bool"
        }
      ],
      "name": "ApprovalForAll",
      "type": "event"
    },
    {
      "anonymous": false,
      "inputs": [
        {
          "indexed": true,
          "internalType": "address",
          "name": "from",
          "type": "address"
        },
        {
          "indexed": true,
          "internalType": "address",
          "name": "to",
          "type": "address"
        },
        {
          "indexed": true,
          "internalType": "uint256",
          "name": "tokenId",
          "type": "uint256"
        }
      ],
      "name": "Transfer",
      "type": "event"
    },
    {
      "inputs": [
        {
          "internalType": "uint256",
          "name": "serial",
          "type": "uint256"
        }
      ],
      "name": "addSerial",
      "outputs": [],
      "stateMutability": "nonpayable",
      "type": "function"
    },
    {
      "inputs": [
        {
          "internalType": "string",
          "name": "name",
          "type": "string"
        },
        {
          "internalType": "address",
          "name": "_member",
          "type": "address"
        },
        {
          "internalType": "bool",
          "name": "isSellar",
          "type": "bool"
        }
      ],
      "name": "addUser",
      "outputs": [],
      "stateMutability": "nonpayable",
      "type": "function"
    },
    {
      "inputs": [
        {
          "internalType": "address",
          "name": "to",
          "type": "address"
        },
        {
          "internalType": "uint256",
          "name": "tokenId",
          "type": "uint256"
        }
      ],
      "name": "approve",
      "outputs": [],
      "stateMutability": "nonpayable",
      "type": "function"
    },
    {
      "inputs": [
        {
          "internalType": "address",
          "name": "owner",
          "type": "address"
        }
      ],
      "name": "balanceOf",
      "outputs": [
        {
          "internalType": "uint256",
          "name": "",
          "type": "uint256"
        }
      ],
      "stateMutability": "view",
      "type": "function",
      "constant": true
    },
    {
      "inputs": [
        {
          "internalType": "uint256",
          "name": "tokenId",
          "type": "uint256"
        }
      ],
      "name": "getApproved",
      "outputs": [
        {
          "internalType": "address",
          "name": "",
          "type": "address"
        }
      ],
      "stateMutability": "view",
      "type": "function",
      "constant": true
    },
    {
      "inputs": [],
      "name": "getBoughtLicenses",
      "outputs": [
        {
          "internalType": "uint256[]",
          "name": "",
          "type": "uint256[]"
        }
      ],
      "stateMutability": "view",
      "type": "function",
      "constant": true
    },
    {
      "inputs": [
        {
          "internalType": "uint16[]",
          "name": "parts",
          "type": "uint16[]"
        }
      ],
      "name": "getCurrentOwner",
      "outputs": [
        {
          "internalType": "address",
          "name": "",
          "type": "address"
        }
      ],
      "stateMutability": "view",
      "type": "function",
      "constant": true
    },
    {
      "inputs": [],
      "name": "getIssuedLicense",
      "outputs": [
        {
          "internalType": "uint256[]",
          "name": "",
          "type": "uint256[]"
        }
      ],
      "stateMutability": "view",
      "type": "function",
      "constant": true
    },
    {
      "inputs": [],
      "name": "getName",
      "outputs": [
        {
          "internalType": "string",
          "name": "",
          "type": "string"
        }
      ],
      "stateMutability": "view",
      "type": "function",
      "constant": true
    },
    {
      "inputs": [
        {
          "internalType": "uint16[]",
          "name": "parts",
          "type": "uint16[]"
        }
      ],
      "name": "getOwnerList",
      "outputs": [
        {
          "internalType": "address[]",
          "name": "",
          "type": "address[]"
        }
      ],
      "stateMutability": "view",
      "type": "function",
      "constant": true
    },
    {
      "inputs": [
        {
          "internalType": "uint16[]",
          "name": "parts",
          "type": "uint16[]"
        }
      ],
      "name": "getProduct",
      "outputs": [
        {
          "components": [
            {
              "internalType": "string",
              "name": "name",
              "type": "string"
            },
            {
              "internalType": "uint256",
              "name": "serialID",
              "type": "uint256"
            },
            {
              "internalType": "address",
              "name": "sellar",
              "type": "address"
            },
            {
              "internalType": "uint64",
              "name": "birthtime",
              "type": "uint64"
            },
            {
              "internalType": "uint64",
              "name": "lifespan",
              "type": "uint64"
            },
            {
              "internalType": "bool",
              "name": "onSale",
              "type": "bool"
            },
            {
              "internalType": "enum Whitelist.ProductType",
              "name": "pType",
              "type": "uint8"
            }
          ],
          "internalType": "struct Whitelist.product",
          "name": "",
          "type": "tuple"
        }
      ],
      "stateMutability": "view",
      "type": "function",
      "constant": true
    },
    {
      "inputs": [
        {
          "internalType": "address",
          "name": "owner",
          "type": "address"
        },
        {
          "internalType": "address",
          "name": "operator",
          "type": "address"
        }
      ],
      "name": "isApprovedForAll",
      "outputs": [
        {
          "internalType": "bool",
          "name": "",
          "type": "bool"
        }
      ],
      "stateMutability": "view",
      "type": "function",
      "constant": true
    },
    {
      "inputs": [
        {
          "internalType": "uint16[]",
          "name": "parts",
          "type": "uint16[]"
        }
      ],
      "name": "isDeleted",
      "outputs": [
        {
          "internalType": "bool",
          "name": "",
          "type": "bool"
        }
      ],
      "stateMutability": "view",
      "type": "function",
      "constant": true
    },
    {
      "inputs": [],
      "name": "isRegistered",
      "outputs": [],
      "stateMutability": "view",
      "type": "function",
      "constant": true
    },
    {
      "inputs": [],
      "name": "kickSellar",
      "outputs": [],
      "stateMutability": "nonpayable",
      "type": "function"
    },
    {
      "inputs": [],
      "name": "makeSellar",
      "outputs": [],
      "stateMutability": "nonpayable",
      "type": "function"
    },
    {
      "inputs": [],
      "name": "name",
      "outputs": [
        {
          "internalType": "string",
          "name": "",
          "type": "string"
        }
      ],
      "stateMutability": "view",
      "type": "function",
      "constant": true
    },
    {
      "inputs": [
        {
          "internalType": "uint256",
          "name": "tokenId",
          "type": "uint256"
        }
      ],
      "name": "ownerOf",
      "outputs": [
        {
          "internalType": "address",
          "name": "",
          "type": "address"
        }
      ],
      "stateMutability": "view",
      "type": "function",
      "constant": true
    },
    {
      "inputs": [
        {
          "internalType": "address",
          "name": "from",
          "type": "address"
        },
        {
          "internalType": "address",
          "name": "to",
          "type": "address"
        },
        {
          "internalType": "uint256",
          "name": "tokenId",
          "type": "uint256"
        }
      ],
      "name": "safeTransferFrom",
      "outputs": [],
      "stateMutability": "nonpayable",
      "type": "function"
    },
    {
      "inputs": [
        {
          "internalType": "address",
          "name": "from",
          "type": "address"
        },
        {
          "internalType": "address",
          "name": "to",
          "type": "address"
        },
        {
          "internalType": "uint256",
          "name": "tokenId",
          "type": "uint256"
        },
        {
          "internalType": "bytes",
          "name": "data",
          "type": "bytes"
        }
      ],
      "name": "safeTransferFrom",
      "outputs": [],
      "stateMutability": "nonpayable",
      "type": "function"
    },
    {
      "inputs": [
        {
          "internalType": "address",
          "name": "operator",
          "type": "address"
        },
        {
          "internalType": "bool",
          "name": "approved",
          "type": "bool"
        }
      ],
      "name": "setApprovalForAll",
      "outputs": [],
      "stateMutability": "nonpayable",
      "type": "function"
    },
    {
      "inputs": [
        {
          "internalType": "uint16[]",
          "name": "parts",
          "type": "uint16[]"
        }
      ],
      "name": "setOnSale",
      "outputs": [],
      "stateMutability": "nonpayable",
      "type": "function"
    },
    {
      "inputs": [
        {
          "internalType": "bytes4",
          "name": "interfaceId",
          "type": "bytes4"
        }
      ],
      "name": "supportsInterface",
      "outputs": [
        {
          "internalType": "bool",
          "name": "",
          "type": "bool"
        }
      ],
      "stateMutability": "view",
      "type": "function",
      "constant": true
    },
    {
      "inputs": [],
      "name": "symbol",
      "outputs": [
        {
          "internalType": "string",
          "name": "",
          "type": "string"
        }
      ],
      "stateMutability": "view",
      "type": "function",
      "constant": true
    },
    {
      "inputs": [
        {
          "internalType": "uint16[]",
          "name": "parts",
          "type": "uint16[]"
        }
      ],
      "name": "takeDownFromSale",
      "outputs": [],
      "stateMutability": "nonpayable",
      "type": "function"
    },
    {
      "inputs": [
        {
          "internalType": "address",
          "name": "from",
          "type": "address"
        },
        {
          "internalType": "address",
          "name": "to",
          "type": "address"
        },
        {
          "internalType": "uint256",
          "name": "tokenId",
          "type": "uint256"
        }
      ],
      "name": "transferFrom",
      "outputs": [],
      "stateMutability": "nonpayable",
      "type": "function"
    },
    {
      "inputs": [
        {
          "internalType": "string",
          "name": "name",
          "type": "string"
        },
        {
          "internalType": "uint256",
          "name": "serialID",
          "type": "uint256"
        },
        {
          "internalType": "address",
          "name": "to",
          "type": "address"
        },
        {
          "internalType": "uint16[]",
          "name": "seeds",
          "type": "uint16[]"
        },
        {
          "internalType": "string",
          "name": "uri",
          "type": "string"
        },
        {
          "internalType": "uint64",
          "name": "secs",
          "type": "uint64"
        },
        {
          "internalType": "enum Whitelist.ProductType",
          "name": "pType",
          "type": "uint8"
        }
      ],
      "name": "mint",
      "outputs": [],
      "stateMutability": "nonpayable",
      "type": "function"
    },
    {
      "inputs": [
        {
          "internalType": "uint16[]",
          "name": "parts",
          "type": "uint16[]"
        }
      ],
      "name": "setTokenURI",
      "outputs": [
        {
          "internalType": "string",
          "name": "",
          "type": "string"
        }
      ],
      "stateMutability": "nonpayable",
      "type": "function"
    },
    {
      "inputs": [
        {
          "internalType": "uint256",
          "name": "tokenId",
          "type": "uint256"
        }
      ],
      "name": "tokenURI",
      "outputs": [
        {
          "internalType": "string",
          "name": "",
          "type": "string"
        }
      ],
      "stateMutability": "view",
      "type": "function",
      "constant": true
    }
  ],
  "bytecode": "0x60806040523480156200001157600080fd5b506040518060400160405280600781526020017f4c6963656e7365000000000000000000000000000000000000000000000000008152506040518060400160405280600781526020017f4c6963656e73650000000000000000000000000000000000000000000000000081525081600090816200008f91906200037c565b508060019081620000a191906200037c565b50505060016009600080815260200190815260200160002060006101000a81548160ff02191690831515021790555060016008600080815260200190815260200160002060006101000a81548160ff02191690831515021790555062000463565b600081519050919050565b7f4e487b7100000000000000000000000000000000000000000000000000000000600052604160045260246000fd5b7f4e487b7100000000000000000000000000000000000000000000000000000000600052602260045260246000fd5b600060028204905060018216806200018457607f821691505b6020821081036200019a57620001996200013c565b5b50919050565b60008190508160005260206000209050919050565b60006020601f8301049050919050565b600082821b905092915050565b600060088302620002047fffffffffffffffffffffffffffffffffffffffffffffffffffffffffffffffff82620001c5565b620002108683620001c5565b95508019841693508086168417925050509392505050565b6000819050919050565b6000819050919050565b60006200025d62000257620002518462000228565b62000232565b62000228565b9050919050565b6000819050919050565b62000279836200023c565b62000291620002888262000264565b848454620001d2565b825550505050565b600090565b620002a862000299565b620002b58184846200026e565b505050565b5b81811015620002dd57620002d16000826200029e565b600181019050620002bb565b5050565b601f8211156200032c57620002f681620001a0565b6200030184620001b5565b8101602085101562000311578190505b620003296200032085620001b5565b830182620002ba565b50505b505050565b600082821c905092915050565b6000620003516000198460080262000331565b1980831691505092915050565b60006200036c83836200033e565b9150826002028217905092915050565b620003878262000102565b67ffffffffffffffff811115620003a357620003a26200010d565b5b620003af82546200016b565b620003bc828285620002e1565b600060209050601f831160018114620003f45760008415620003df578287015190505b620003eb85826200035e565b8655506200045b565b601f1984166200040486620001a0565b60005b828110156200042e5784890151825560018201915060208501945060208101905062000407565b868310156200044e57848901516200044a601f8916826200033e565b8355505b6001600288020188555050505b505050505050565b615b9780620004736000396000f3fe608060405234801561001057600080fd5b50600436106101cf5760003560e01c806370a0823111610104578063b012381e116100a2578063dd49dbd711610071578063dd49dbd71461052a578063e985e9c514610534578063f15c1b4614610564578063fd43d2e014610594576101cf565b8063b012381e14610492578063b69c85d6146104c2578063b88d4fde146104de578063c87b56dd146104fa576101cf565b80638c22bfcd116100de5780638c22bfcd1461040c57806395d89b411461043c57806397dee91f1461045a578063a22cb46514610476576101cf565b806370a08231146103b6578063737b2376146103e657806385a1556e14610402576101cf565b806320a71c7b11610171578063398ade021161014b578063398ade021461030a57806342842e0e1461033a57806350177a25146103565780636352211e14610386576101cf565b806320a71c7b146102c657806322366844146102e457806323b872dd146102ee576101cf565b8063081812fc116101ad578063081812fc14610240578063095ea7b31461027057806316c23ec61461028c57806317d7de7c146102a8576101cf565b806301ffc9a7146101d4578063045b94551461020457806306fdde0314610222575b600080fd5b6101ee60048036038101906101e99190613cf0565b6105b0565b6040516101fb9190613d38565b60405180910390f35b61020c610692565b6040516102199190613e1b565b60405180910390f35b61022a610727565b6040516102379190613ed6565b60405180910390f35b61025a60048036038101906102559190613f24565b6107b9565b6040516102679190613f92565b60405180910390f35b61028a60048036038101906102859190613fd9565b6107ff565b005b6102a660048036038101906102a1919061419b565b610916565b005b6102b0610aaa565b6040516102bd9190613ed6565b60405180910390f35b6102ce610c08565b6040516102db9190613e1b565b60405180910390f35b6102ec610d2e565b005b610308600480360381019061030391906141e4565b610dbc565b005b610324600480360381019061031f919061419b565b610e1c565b6040516103319190613d38565b60405180910390f35b610354600480360381019061034f91906141e4565b610e4e565b005b610370600480360381019061036b919061419b565b610e6e565b60405161037d91906142f5565b60405180910390f35b6103a0600480360381019061039b9190613f24565b611057565b6040516103ad9190613f92565b60405180910390f35b6103d060048036038101906103cb9190614317565b611108565b6040516103dd9190614353565b60405180910390f35b61040060048036038101906103fb919061419b565b6111bf565b005b61040a611353565b005b6104266004803603810190610421919061419b565b611435565b6040516104339190613ed6565b60405180910390f35b6104446116fb565b6040516104519190613ed6565b60405180910390f35b610474600480360381019061046f9190614488565b61178d565b005b610490600480360381019061048b91906145aa565b611c53565b005b6104ac60048036038101906104a7919061419b565b611c69565b6040516104b99190614765565b60405180910390f35b6104dc60048036038101906104d79190613f24565b611eb5565b005b6104f860048036038101906104f39190614828565b61205e565b005b610514600480360381019061050f9190613f24565b6120c0565b6040516105219190613ed6565b60405180910390f35b610532612191565b005b61054e600480360381019061054991906148ab565b6121ee565b60405161055b9190613d38565b60405180910390f35b61057e6004803603810190610579919061419b565b612282565b60405161058b9190613f92565b60405180910390f35b6105ae60048036038101906105a991906148eb565b612445565b005b60007f80ac58cd000000000000000000000000000000000000000000000000000000007bffffffffffffffffffffffffffffffffffffffffffffffffffffffff1916827bffffffffffffffffffffffffffffffffffffffffffffffffffffffff1916148061067b57507f5b5e139f000000000000000000000000000000000000000000000000000000007bffffffffffffffffffffffffffffffffffffffffffffffffffffffff1916827bffffffffffffffffffffffffffffffffffffffffffffffffffffffff1916145b8061068b575061068a826125be565b5b9050919050565b6060600d60003373ffffffffffffffffffffffffffffffffffffffff1673ffffffffffffffffffffffffffffffffffffffff16815260200190815260200160002080548060200260200160405190810160405280929190818152602001828054801561071d57602002820191906000526020600020905b815481526020019060010190808311610709575b5050505050905090565b60606000805461073690614989565b80601f016020809104026020016040519081016040528092919081815260200182805461076290614989565b80156107af5780601f10610784576101008083540402835291602001916107af565b820191906000526020600020905b81548152906001019060200180831161079257829003601f168201915b5050505050905090565b60006107c482612628565b6004600083815260200190815260200160002060009054906101000a900473ffffffffffffffffffffffffffffffffffffffff169050919050565b600061080a82611057565b90508073ffffffffffffffffffffffffffffffffffffffff168373ffffffffffffffffffffffffffffffffffffffff160361087a576040517f08c379a000000000000000000000000000000000000000000000000000000000815260040161087190614a2c565b60405180910390fd5b8073ffffffffffffffffffffffffffffffffffffffff16610899612673565b73ffffffffffffffffffffffffffffffffffffffff1614806108c857506108c7816108c2612673565b6121ee565b5b610907576040517f08c379a00000000000000000000000000000000000000000000000000000000081526004016108fe90614abe565b60405180910390fd5b610911838361267b565b505050565b806008600061092483612734565b815260200190815260200160002060009054906101000a900460ff1615610980576040517f08c379a000000000000000000000000000000000000000000000000000000000815260040161097790614b2a565b60405180910390fd5b81600061098c82612734565b90503373ffffffffffffffffffffffffffffffffffffffff16600c60008381526020019081526020016000206001600c6000858152602001908152602001600020805490506109db9190614b79565b815481106109ec576109eb614bad565b5b9060005260206000200160009054906101000a900473ffffffffffffffffffffffffffffffffffffffff1673ffffffffffffffffffffffffffffffffffffffff1614610a6d576040517f08c379a0000000000000000000000000000000000000000000000000000000008152600401610a6490614c4e565b60405180910390fd5b6000600b6000610a7c87612734565b815260200190815260200160002060030160086101000a81548160ff02191690831515021790555050505050565b6060600760003373ffffffffffffffffffffffffffffffffffffffff1673ffffffffffffffffffffffffffffffffffffffff16815260200190815260200160002060009054906101000a900460ff16610b38576040517f08c379a0000000000000000000000000000000000000000000000000000000008152600401610b2f90614cba565b60405180910390fd5b600a60003373ffffffffffffffffffffffffffffffffffffffff1673ffffffffffffffffffffffffffffffffffffffff1681526020019081526020016000206000018054610b8590614989565b80601f0160208091040260200160405190810160405280929190818152602001828054610bb190614989565b8015610bfe5780601f10610bd357610100808354040283529160200191610bfe565b820191906000526020600020905b815481529060010190602001808311610be157829003601f168201915b5050505050905090565b606033600a60008273ffffffffffffffffffffffffffffffffffffffff1673ffffffffffffffffffffffffffffffffffffffff16815260200190815260200160002060010160009054906101000a900460ff16610c9a576040517f08c379a0000000000000000000000000000000000000000000000000000000008152600401610c9190614d26565b60405180910390fd5b600e60003373ffffffffffffffffffffffffffffffffffffffff1673ffffffffffffffffffffffffffffffffffffffff168152602001908152602001600020805480602002602001604051908101604052809291908181526020018280548015610d2357602002820191906000526020600020905b815481526020019060010190808311610d0f575b505050505091505090565b600760003373ffffffffffffffffffffffffffffffffffffffff1673ffffffffffffffffffffffffffffffffffffffff16815260200190815260200160002060009054906101000a900460ff16610dba576040517f08c379a0000000000000000000000000000000000000000000000000000000008152600401610db190614cba565b60405180910390fd5b565b610dcd610dc7612673565b8261279f565b610e0c576040517f08c379a0000000000000000000000000000000000000000000000000000000008152600401610e0390614db8565b60405180910390fd5b610e17838383612834565b505050565b600060086000610e2b84612734565b815260200190815260200160002060009054906101000a900460ff169050919050565b610e698383836040518060200160405280600081525061205e565b505050565b60608160086000610e7e83612734565b815260200190815260200160002060009054906101000a900460ff1615610eda576040517f08c379a0000000000000000000000000000000000000000000000000000000008152600401610ed190614b2a565b60405180910390fd5b6000610ee584612734565b9050600b600082815260200190815260200160002060030160089054906101000a900460ff1680610f7757503373ffffffffffffffffffffffffffffffffffffffff16600b600083815260200190815260200160002060020160009054906101000a900473ffffffffffffffffffffffffffffffffffffffff1673ffffffffffffffffffffffffffffffffffffffff16145b610fb6576040517f08c379a0000000000000000000000000000000000000000000000000000000008152600401610fad90614e4a565b60405180910390fd5b600c600082815260200190815260200160002080548060200260200160405190810160405280929190818152602001828054801561104957602002820191906000526020600020905b8160009054906101000a900473ffffffffffffffffffffffffffffffffffffffff1673ffffffffffffffffffffffffffffffffffffffff1681526020019060010190808311610fff575b505050505092505050919050565b6000806002600084815260200190815260200160002060009054906101000a900473ffffffffffffffffffffffffffffffffffffffff169050600073ffffffffffffffffffffffffffffffffffffffff168173ffffffffffffffffffffffffffffffffffffffff16036110ff576040517f08c379a00000000000000000000000000000000000000000000000000000000081526004016110f690614eb6565b60405180910390fd5b80915050919050565b60008073ffffffffffffffffffffffffffffffffffffffff168273ffffffffffffffffffffffffffffffffffffffff1603611178576040517f08c379a000000000000000000000000000000000000000000000000000000000815260040161116f90614f48565b60405180910390fd5b600360008373ffffffffffffffffffffffffffffffffffffffff1673ffffffffffffffffffffffffffffffffffffffff168152602001908152602001600020549050919050565b80600860006111cd83612734565b815260200190815260200160002060009054906101000a900460ff1615611229576040517f08c379a000000000000000000000000000000000000000000000000000000000815260040161122090614b2a565b60405180910390fd5b81600061123582612734565b90503373ffffffffffffffffffffffffffffffffffffffff16600c60008381526020019081526020016000206001600c6000858152602001908152602001600020805490506112849190614b79565b8154811061129557611294614bad565b5b9060005260206000200160009054906101000a900473ffffffffffffffffffffffffffffffffffffffff1673ffffffffffffffffffffffffffffffffffffffff1614611316576040517f08c379a000000000000000000000000000000000000000000000000000000000815260040161130d90614c4e565b60405180910390fd5b6001600b600061132587612734565b815260200190815260200160002060030160086101000a81548160ff02191690831515021790555050505050565b6000600e60003373ffffffffffffffffffffffffffffffffffffffff1673ffffffffffffffffffffffffffffffffffffffff16815260200190815260200160002080549050146113d8576040517f08c379a00000000000000000000000000000000000000000000000000000000081526004016113cf90614fda565b60405180910390fd5b6000600a60003373ffffffffffffffffffffffffffffffffffffffff1673ffffffffffffffffffffffffffffffffffffffff16815260200190815260200160002060010160006101000a81548160ff021916908315150217905550565b6060600061144283612734565b9050600b600082815260200190815260200160002060020160009054906101000a900473ffffffffffffffffffffffffffffffffffffffff1673ffffffffffffffffffffffffffffffffffffffff163373ffffffffffffffffffffffffffffffffffffffff1614806115505750600c60008281526020019081526020016000206001600c6000848152602001908152602001600020805490506114e59190614b79565b815481106114f6576114f5614bad565b5b9060005260206000200160009054906101000a900473ffffffffffffffffffffffffffffffffffffffff1673ffffffffffffffffffffffffffffffffffffffff163373ffffffffffffffffffffffffffffffffffffffff16145b61158f576040517f08c379a00000000000000000000000000000000000000000000000000000000081526004016115869061506c565b60405180910390fd5b6000429050600b600083815260200190815260200160002060030160009054906101000a900467ffffffffffffffff1667ffffffffffffffff16600b600084815260200190815260200160002060020160149054906101000a900467ffffffffffffffff16826115ff919061508c565b67ffffffffffffffff161061169e5761161782612a9a565b6040518060400160405280601281526020017f4c6963656e736520697320657870697265640000000000000000000000000000815250601060003373ffffffffffffffffffffffffffffffffffffffff1673ffffffffffffffffffffffffffffffffffffffff1681526020019081526020016000209081611698919061526c565b506116f4565b6116a782612bfb565b601060003373ffffffffffffffffffffffffffffffffffffffff1673ffffffffffffffffffffffffffffffffffffffff16815260200190815260200160002090816116f2919061526c565b505b5050919050565b60606001805461170a90614989565b80601f016020809104026020016040519081016040528092919081815260200182805461173690614989565b80156117835780601f1061175857610100808354040283529160200191611783565b820191906000526020600020905b81548152906001019060200180831161176657829003601f168201915b5050505050905090565b33600a60008273ffffffffffffffffffffffffffffffffffffffff1673ffffffffffffffffffffffffffffffffffffffff16815260200190815260200160002060010160009054906101000a900460ff1661181d576040517f08c379a000000000000000000000000000000000000000000000000000000000815260040161181490614d26565b60405180910390fd5b600760008773ffffffffffffffffffffffffffffffffffffffff1673ffffffffffffffffffffffffffffffffffffffff16815260200190815260200160002060009054906101000a900460ff166118a9576040517f08c379a00000000000000000000000000000000000000000000000000000000081526004016118a090614cba565b60405180910390fd5b600f846040516118b9919061537a565b908152602001604051809103902060009054906101000a900460ff1615611915856040518060400160405280601681526020017f203a2055524920616c726561647920696e207573652e00000000000000000000815250612d0d565b90611956576040517f08c379a000000000000000000000000000000000000000000000000000000000815260040161194d9190613ed6565b60405180910390fd5b50600061196286612734565b90506009600082815260200190815260200160002060009054906101000a900460ff16156119c5576040517f08c379a00000000000000000000000000000000000000000000000000000000081526004016119bc906153dd565b60405180910390fd5b6119ce81611eb5565b6119d88782612d39565b6119e28186612d57565b6001600f866040516119f4919061537a565b908152602001604051809103902060006101000a81548160ff021916908315150217905550600e60003373ffffffffffffffffffffffffffffffffffffffff1673ffffffffffffffffffffffffffffffffffffffff16815260200190815260200160002081908060018154018082558091505060019003906000526020600020016000909190919091505560016009600083815260200190815260200160002060006101000a81548160ff0219169083151502179055506040518060e001604052808a81526020018981526020013373ffffffffffffffffffffffffffffffffffffffff1681526020014267ffffffffffffffff1681526020018567ffffffffffffffff168152602001600015158152602001846005811115611b1a57611b19614652565b5b815250600b60008381526020019081526020016000206000820151816000019081611b45919061526c565b506020820151816001015560408201518160020160006101000a81548173ffffffffffffffffffffffffffffffffffffffff021916908373ffffffffffffffffffffffffffffffffffffffff16021790555060608201518160020160146101000a81548167ffffffffffffffff021916908367ffffffffffffffff16021790555060808201518160030160006101000a81548167ffffffffffffffff021916908367ffffffffffffffff16021790555060a08201518160030160086101000a81548160ff02191690831515021790555060c08201518160030160096101000a81548160ff02191690836005811115611c4057611c3f614652565b5b0217905550905050505050505050505050565b611c65611c5e612673565b8383612dc4565b5050565b611c71613bac565b8160086000611c7f83612734565b815260200190815260200160002060009054906101000a900460ff1615611cdb576040517f08c379a0000000000000000000000000000000000000000000000000000000008152600401611cd290614b2a565b60405180910390fd5b600b6000611ce885612734565b81526020019081526020016000206040518060e0016040529081600082018054611d1190614989565b80601f0160208091040260200160405190810160405280929190818152602001828054611d3d90614989565b8015611d8a5780601f10611d5f57610100808354040283529160200191611d8a565b820191906000526020600020905b815481529060010190602001808311611d6d57829003601f168201915b50505050508152602001600182015481526020016002820160009054906101000a900473ffffffffffffffffffffffffffffffffffffffff1673ffffffffffffffffffffffffffffffffffffffff1673ffffffffffffffffffffffffffffffffffffffff1681526020016002820160149054906101000a900467ffffffffffffffff1667ffffffffffffffff1667ffffffffffffffff1681526020016003820160009054906101000a900467ffffffffffffffff1667ffffffffffffffff1667ffffffffffffffff1681526020016003820160089054906101000a900460ff161515151581526020016003820160099054906101000a900460ff166005811115611e9757611e96614652565b5b6005811115611ea957611ea8614652565b5b81525050915050919050565b33600a60008273ffffffffffffffffffffffffffffffffffffffff1673ffffffffffffffffffffffffffffffffffffffff16815260200190815260200160002060010160009054906101000a900460ff16611f45576040517f08c379a0000000000000000000000000000000000000000000000000000000008152600401611f3c90614d26565b60405180910390fd5b6009600083815260200190815260200160002060009054906101000a900460ff1615611fec611fb16040518060400160405280600781526020017f53657269616c2000000000000000000000000000000000000000000000000000815250611fac86612f30565b612d0d565b6040518060400160405280600f81526020017f20616c726561647920696e207573650000000000000000000000000000000000815250612d0d565b9061202d576040517f08c379a00000000000000000000000000000000000000000000000000000000081526004016120249190613ed6565b60405180910390fd5b5060016009600084815260200190815260200160002060006101000a81548160ff0219169083151502179055505050565b61206f612069612673565b8361279f565b6120ae576040517f08c379a00000000000000000000000000000000000000000000000000000000081526004016120a590614db8565b60405180910390fd5b6120ba84848484613105565b50505050565b6060601060003373ffffffffffffffffffffffffffffffffffffffff1673ffffffffffffffffffffffffffffffffffffffff168152602001908152602001600020805461210c90614989565b80601f016020809104026020016040519081016040528092919081815260200182805461213890614989565b80156121855780601f1061215a57610100808354040283529160200191612185565b820191906000526020600020905b81548152906001019060200180831161216857829003601f168201915b50505050509050919050565b6001600a60003373ffffffffffffffffffffffffffffffffffffffff1673ffffffffffffffffffffffffffffffffffffffff16815260200190815260200160002060010160006101000a81548160ff021916908315150217905550565b6000600560008473ffffffffffffffffffffffffffffffffffffffff1673ffffffffffffffffffffffffffffffffffffffff16815260200190815260200160002060008373ffffffffffffffffffffffffffffffffffffffff1673ffffffffffffffffffffffffffffffffffffffff16815260200190815260200160002060009054906101000a900460ff16905092915050565b6000816008600061229283612734565b815260200190815260200160002060009054906101000a900460ff16156122ee576040517f08c379a00000000000000000000000000000000000000000000000000000000081526004016122e590614b2a565b60405180910390fd5b60006122f984612734565b9050600b600082815260200190815260200160002060030160089054906101000a900460ff168061238b57503373ffffffffffffffffffffffffffffffffffffffff16600b600083815260200190815260200160002060020160009054906101000a900473ffffffffffffffffffffffffffffffffffffffff1673ffffffffffffffffffffffffffffffffffffffff16145b6123ca576040517f08c379a00000000000000000000000000000000000000000000000000000000081526004016123c19061546f565b60405180910390fd5b600c60008281526020019081526020016000206001600c6000848152602001908152602001600020805490506124009190614b79565b8154811061241157612410614bad565b5b9060005260206000200160009054906101000a900473ffffffffffffffffffffffffffffffffffffffff1692505050919050565b600760008373ffffffffffffffffffffffffffffffffffffffff1673ffffffffffffffffffffffffffffffffffffffff16815260200190815260200160002060009054906101000a900460ff16156124d2576040517f08c379a00000000000000000000000000000000000000000000000000000000081526004016124c9906154db565b60405180910390fd5b6001600760008473ffffffffffffffffffffffffffffffffffffffff1673ffffffffffffffffffffffffffffffffffffffff16815260200190815260200160002060006101000a81548160ff0219169083151502179055506040518060400160405280848152602001821515815250600a60008473ffffffffffffffffffffffffffffffffffffffff1673ffffffffffffffffffffffffffffffffffffffff1681526020019081526020016000206000820151816000019081612595919061526c565b5060208201518160010160006101000a81548160ff021916908315150217905550905050505050565b60007f01ffc9a7000000000000000000000000000000000000000000000000000000007bffffffffffffffffffffffffffffffffffffffffffffffffffffffff1916827bffffffffffffffffffffffffffffffffffffffffffffffffffffffff1916149050919050565b61263181613161565b612670576040517f08c379a000000000000000000000000000000000000000000000000000000000815260040161266790614eb6565b60405180910390fd5b50565b600033905090565b816004600083815260200190815260200160002060006101000a81548173ffffffffffffffffffffffffffffffffffffffff021916908373ffffffffffffffffffffffffffffffffffffffff160217905550808273ffffffffffffffffffffffffffffffffffffffff166126ee83611057565b73ffffffffffffffffffffffffffffffffffffffff167f8c5be1e5ebec7d5bd14f71427d1e84f3dd0314c0f7b2291e5b200ac8c7c3b92560405160405180910390a45050565b6000806000601090505b6001811061279557836001826127549190614b79565b8151811061276557612764614bad565b5b602002602001015161ffff16601083901b61278091906154fb565b9150808061278d90615551565b91505061273e565b5080915050919050565b6000806127ab83611057565b90508073ffffffffffffffffffffffffffffffffffffffff168473ffffffffffffffffffffffffffffffffffffffff1614806127ed57506127ec81856121ee565b5b8061282b57508373ffffffffffffffffffffffffffffffffffffffff16612813846107b9565b73ffffffffffffffffffffffffffffffffffffffff16145b91505092915050565b8273ffffffffffffffffffffffffffffffffffffffff1661285482611057565b73ffffffffffffffffffffffffffffffffffffffff16146128aa576040517f08c379a00000000000000000000000000000000000000000000000000000000081526004016128a1906155ec565b60405180910390fd5b600073ffffffffffffffffffffffffffffffffffffffff168273ffffffffffffffffffffffffffffffffffffffff1603612919576040517f08c379a00000000000000000000000000000000000000000000000000000000081526004016129109061567e565b60405180910390fd5b6129248383836131cd565b61292f60008261267b565b6001600360008573ffffffffffffffffffffffffffffffffffffffff1673ffffffffffffffffffffffffffffffffffffffff168152602001908152602001600020600082825461297f9190614b79565b925050819055506001600360008473ffffffffffffffffffffffffffffffffffffffff1673ffffffffffffffffffffffffffffffffffffffff16815260200190815260200160002060008282546129d691906154fb565b92505081905550816002600083815260200190815260200160002060006101000a81548173ffffffffffffffffffffffffffffffffffffffff021916908373ffffffffffffffffffffffffffffffffffffffff160217905550808273ffffffffffffffffffffffffffffffffffffffff168473ffffffffffffffffffffffffffffffffffffffff167fddf252ad1be2c89b69c2b068fc378daa952ba7f163c4a11628f55a4df523b3ef60405160405180910390a4612a95838383613330565b505050565b60016008600083815260200190815260200160002060006101000a81548160ff02191690831515021790555060005b600d60003373ffffffffffffffffffffffffffffffffffffffff1673ffffffffffffffffffffffffffffffffffffffff16815260200190815260200160002080549050811015612bee5781600d60003373ffffffffffffffffffffffffffffffffffffffff1673ffffffffffffffffffffffffffffffffffffffff1681526020019081526020016000208281548110612b6557612b64614bad565b5b906000526020600020015403612bdb576000600d60003373ffffffffffffffffffffffffffffffffffffffff1673ffffffffffffffffffffffffffffffffffffffff1681526020019081526020016000208281548110612bc857612bc7614bad565b5b9060005260206000200181905550612bee565b8080612be69061569e565b915050612ac9565b612bf782613473565b5050565b6060612c0682612628565b6000600660008481526020019081526020016000208054612c2690614989565b80601f0160208091040260200160405190810160405280929190818152602001828054612c5290614989565b8015612c9f5780601f10612c7457610100808354040283529160200191612c9f565b820191906000526020600020905b815481529060010190602001808311612c8257829003601f168201915b505050505090506000612cb061347f565b90506000815103612cc5578192505050612d08565b600082511115612cfa578082604051602001612ce29291906156e6565b60405160208183030381529060405292505050612d08565b612d0384613496565b925050505b919050565b60608282604051602001612d22929190615756565b604051602081830303815290604052905092915050565b612d538282604051806020016040528060008152506134fe565b5050565b612d6082613161565b612d9f576040517f08c379a0000000000000000000000000000000000000000000000000000000008152600401612d96906157f7565b60405180910390fd5b80600660008481526020019081526020016000209081612dbf919061526c565b505050565b8173ffffffffffffffffffffffffffffffffffffffff168373ffffffffffffffffffffffffffffffffffffffff1603612e32576040517f08c379a0000000000000000000000000000000000000000000000000000000008152600401612e2990615863565b60405180910390fd5b80600560008573ffffffffffffffffffffffffffffffffffffffff1673ffffffffffffffffffffffffffffffffffffffff16815260200190815260200160002060008473ffffffffffffffffffffffffffffffffffffffff1673ffffffffffffffffffffffffffffffffffffffff16815260200190815260200160002060006101000a81548160ff0219169083151502179055508173ffffffffffffffffffffffffffffffffffffffff168373ffffffffffffffffffffffffffffffffffffffff167f17307eab39ab6107e8899845ad3d59bd9653f200f220920489ca2b5937696c3183604051612f239190613d38565b60405180910390a3505050565b60606000606467ffffffffffffffff811115612f4f57612f4e61401e565b5b6040519080825280601f01601f191660200182016040528015612f815781602001600182028036833780820191505090505b50905060005b600084111561301057600a84612f9d91906158b2565b6030612fa991906154fb565b60f81b828281518110612fbf57612fbe614bad565b5b60200101907effffffffffffffffffffffffffffffffffffffffffffffffffffffffffffff1916908160001a905350600a84612ffb91906158e3565b935080806130089061569e565b915050612f87565b6000825167ffffffffffffffff81111561302d5761302c61401e565b5b6040519080825280601f01601f19166020018201604052801561305f5781602001600182028036833780820191505090505b50905060005b83518110156130f95783600182865161307e9190614b79565b6130889190614b79565b8151811061309957613098614bad565b5b602001015160f81c60f81b8282815181106130b7576130b6614bad565b5b60200101907effffffffffffffffffffffffffffffffffffffffffffffffffffffffffffff1916908160001a90535080806130f19061569e565b915050613065565b50809350505050919050565b613110848484612834565b61311c84848484613559565b61315b576040517f08c379a000000000000000000000000000000000000000000000000000000000815260040161315290615986565b60405180910390fd5b50505050565b60008073ffffffffffffffffffffffffffffffffffffffff166002600084815260200190815260200160002060009054906101000a900473ffffffffffffffffffffffffffffffffffffffff1673ffffffffffffffffffffffffffffffffffffffff1614159050919050565b600073ffffffffffffffffffffffffffffffffffffffff168373ffffffffffffffffffffffffffffffffffffffff161461332b5760005b600d60008573ffffffffffffffffffffffffffffffffffffffff1673ffffffffffffffffffffffffffffffffffffffff168152602001908152602001600020805490508110156133295781600d60008673ffffffffffffffffffffffffffffffffffffffff1673ffffffffffffffffffffffffffffffffffffffff16815260200190815260200160002082815481106132a05761329f614bad565b5b906000526020600020015403613316576000600d60008673ffffffffffffffffffffffffffffffffffffffff1673ffffffffffffffffffffffffffffffffffffffff168152602001908152602001600020828154811061330357613302614bad565b5b9060005260206000200181905550613329565b80806133219061569e565b915050613204565b505b505050565b600073ffffffffffffffffffffffffffffffffffffffff168273ffffffffffffffffffffffffffffffffffffffff161461346e57600d60008373ffffffffffffffffffffffffffffffffffffffff1673ffffffffffffffffffffffffffffffffffffffff168152602001908152602001600020819080600181540180825580915050600190039060005260206000200160009091909190915055600c6000828152602001908152602001600020829080600181540180825580915050600190039060005260206000200160009091909190916101000a81548173ffffffffffffffffffffffffffffffffffffffff021916908373ffffffffffffffffffffffffffffffffffffffff1602179055506000600b600083815260200190815260200160002060030160086101000a81548160ff0219169083151502179055505b505050565b61347c816136e0565b50565b606060405180602001604052806000815250905090565b60606134a182612628565b60006134ab61347f565b905060008151116134cb57604051806020016040528060008152506134f6565b806134d584613733565b6040516020016134e69291906156e6565b6040516020818303038152906040525b915050919050565b6135088383613893565b6135156000848484613559565b613554576040517f08c379a000000000000000000000000000000000000000000000000000000000815260040161354b90615986565b60405180910390fd5b505050565b600061357a8473ffffffffffffffffffffffffffffffffffffffff16613a6c565b156136d3578373ffffffffffffffffffffffffffffffffffffffff1663150b7a026135a3612673565b8786866040518563ffffffff1660e01b81526004016135c594939291906159fb565b6020604051808303816000875af192505050801561360157506040513d601f19601f820116820180604052508101906135fe9190615a5c565b60015b613683573d8060008114613631576040519150601f19603f3d011682016040523d82523d6000602084013e613636565b606091505b50600081510361367b576040517f08c379a000000000000000000000000000000000000000000000000000000000815260040161367290615986565b60405180910390fd5b805181602001fd5b63150b7a0260e01b7bffffffffffffffffffffffffffffffffffffffffffffffffffffffff1916817bffffffffffffffffffffffffffffffffffffffffffffffffffffffff1916149150506136d8565b600190505b949350505050565b6136e981613a8f565b600060066000838152602001908152602001600020805461370990614989565b9050146137305760066000828152602001908152602001600020600061372f9190613c27565b5b50565b60606000820361377a576040518060400160405280600181526020017f3000000000000000000000000000000000000000000000000000000000000000815250905061388e565b600082905060005b600082146137ac5780806137959061569e565b915050600a826137a591906158e3565b9150613782565b60008167ffffffffffffffff8111156137c8576137c761401e565b5b6040519080825280601f01601f1916602001820160405280156137fa5781602001600182028036833780820191505090505b5090505b60008514613887576001826138139190614b79565b9150600a8561382291906158b2565b603061382e91906154fb565b60f81b81838151811061384457613843614bad565b5b60200101907effffffffffffffffffffffffffffffffffffffffffffffffffffffffffffff1916908160001a905350600a8561388091906158e3565b94506137fe565b8093505050505b919050565b600073ffffffffffffffffffffffffffffffffffffffff168273ffffffffffffffffffffffffffffffffffffffff1603613902576040517f08c379a00000000000000000000000000000000000000000000000000000000081526004016138f990615ad5565b60405180910390fd5b61390b81613161565b1561394b576040517f08c379a000000000000000000000000000000000000000000000000000000000815260040161394290615b41565b60405180910390fd5b613957600083836131cd565b6001600360008473ffffffffffffffffffffffffffffffffffffffff1673ffffffffffffffffffffffffffffffffffffffff16815260200190815260200160002060008282546139a791906154fb565b92505081905550816002600083815260200190815260200160002060006101000a81548173ffffffffffffffffffffffffffffffffffffffff021916908373ffffffffffffffffffffffffffffffffffffffff160217905550808273ffffffffffffffffffffffffffffffffffffffff16600073ffffffffffffffffffffffffffffffffffffffff167fddf252ad1be2c89b69c2b068fc378daa952ba7f163c4a11628f55a4df523b3ef60405160405180910390a4613a6860008383613330565b5050565b6000808273ffffffffffffffffffffffffffffffffffffffff163b119050919050565b6000613a9a82611057565b9050613aa8816000846131cd565b613ab360008361267b565b6001600360008373ffffffffffffffffffffffffffffffffffffffff1673ffffffffffffffffffffffffffffffffffffffff1681526020019081526020016000206000828254613b039190614b79565b925050819055506002600083815260200190815260200160002060006101000a81549073ffffffffffffffffffffffffffffffffffffffff021916905581600073ffffffffffffffffffffffffffffffffffffffff168273ffffffffffffffffffffffffffffffffffffffff167fddf252ad1be2c89b69c2b068fc378daa952ba7f163c4a11628f55a4df523b3ef60405160405180910390a4613ba881600084613330565b5050565b6040518060e001604052806060815260200160008152602001600073ffffffffffffffffffffffffffffffffffffffff168152602001600067ffffffffffffffff168152602001600067ffffffffffffffff16815260200160001515815260200160006005811115613c2157613c20614652565b5b81525090565b508054613c3390614989565b6000825580601f10613c455750613c64565b601f016020900490600052602060002090810190613c639190613c67565b5b50565b5b80821115613c80576000816000905550600101613c68565b5090565b6000604051905090565b600080fd5b600080fd5b60007fffffffff0000000000000000000000000000000000000000000000000000000082169050919050565b613ccd81613c98565b8114613cd857600080fd5b50565b600081359050613cea81613cc4565b92915050565b600060208284031215613d0657613d05613c8e565b5b6000613d1484828501613cdb565b91505092915050565b60008115159050919050565b613d3281613d1d565b82525050565b6000602082019050613d4d6000830184613d29565b92915050565b600081519050919050565b600082825260208201905092915050565b6000819050602082019050919050565b6000819050919050565b613d9281613d7f565b82525050565b6000613da48383613d89565b60208301905092915050565b6000602082019050919050565b6000613dc882613d53565b613dd28185613d5e565b9350613ddd83613d6f565b8060005b83811015613e0e578151613df58882613d98565b9750613e0083613db0565b925050600181019050613de1565b5085935050505092915050565b60006020820190508181036000830152613e358184613dbd565b905092915050565b600081519050919050565b600082825260208201905092915050565b60005b83811015613e77578082015181840152602081019050613e5c565b83811115613e86576000848401525b50505050565b6000601f19601f8301169050919050565b6000613ea882613e3d565b613eb28185613e48565b9350613ec2818560208601613e59565b613ecb81613e8c565b840191505092915050565b60006020820190508181036000830152613ef08184613e9d565b905092915050565b613f0181613d7f565b8114613f0c57600080fd5b50565b600081359050613f1e81613ef8565b92915050565b600060208284031215613f3a57613f39613c8e565b5b6000613f4884828501613f0f565b91505092915050565b600073ffffffffffffffffffffffffffffffffffffffff82169050919050565b6000613f7c82613f51565b9050919050565b613f8c81613f71565b82525050565b6000602082019050613fa76000830184613f83565b92915050565b613fb681613f71565b8114613fc157600080fd5b50565b600081359050613fd381613fad565b92915050565b60008060408385031215613ff057613fef613c8e565b5b6000613ffe85828601613fc4565b925050602061400f85828601613f0f565b9150509250929050565b600080fd5b7f4e487b7100000000000000000000000000000000000000000000000000000000600052604160045260246000fd5b61405682613e8c565b810181811067ffffffffffffffff821117156140755761407461401e565b5b80604052505050565b6000614088613c84565b9050614094828261404d565b919050565b600067ffffffffffffffff8211156140b4576140b361401e565b5b602082029050602081019050919050565b600080fd5b600061ffff82169050919050565b6140e1816140ca565b81146140ec57600080fd5b50565b6000813590506140fe816140d8565b92915050565b600061411761411284614099565b61407e565b9050808382526020820190506020840283018581111561413a576141396140c5565b5b835b81811015614163578061414f88826140ef565b84526020840193505060208101905061413c565b5050509392505050565b600082601f83011261418257614181614019565b5b8135614192848260208601614104565b91505092915050565b6000602082840312156141b1576141b0613c8e565b5b600082013567ffffffffffffffff8111156141cf576141ce613c93565b5b6141db8482850161416d565b91505092915050565b6000806000606084860312156141fd576141fc613c8e565b5b600061420b86828701613fc4565b935050602061421c86828701613fc4565b925050604061422d86828701613f0f565b9150509250925092565b600081519050919050565b600082825260208201905092915050565b6000819050602082019050919050565b61426c81613f71565b82525050565b600061427e8383614263565b60208301905092915050565b6000602082019050919050565b60006142a282614237565b6142ac8185614242565b93506142b783614253565b8060005b838110156142e85781516142cf8882614272565b97506142da8361428a565b9250506001810190506142bb565b5085935050505092915050565b6000602082019050818103600083015261430f8184614297565b905092915050565b60006020828403121561432d5761432c613c8e565b5b600061433b84828501613fc4565b91505092915050565b61434d81613d7f565b82525050565b60006020820190506143686000830184614344565b92915050565b600080fd5b600067ffffffffffffffff82111561438e5761438d61401e565b5b61439782613e8c565b9050602081019050919050565b82818337600083830152505050565b60006143c66143c184614373565b61407e565b9050828152602081018484840111156143e2576143e161436e565b5b6143ed8482856143a4565b509392505050565b600082601f83011261440a57614409614019565b5b813561441a8482602086016143b3565b91505092915050565b600067ffffffffffffffff82169050919050565b61444081614423565b811461444b57600080fd5b50565b60008135905061445d81614437565b92915050565b6006811061447057600080fd5b50565b60008135905061448281614463565b92915050565b600080600080600080600060e0888a0312156144a7576144a6613c8e565b5b600088013567ffffffffffffffff8111156144c5576144c4613c93565b5b6144d18a828b016143f5565b97505060206144e28a828b01613f0f565b96505060406144f38a828b01613fc4565b955050606088013567ffffffffffffffff81111561451457614513613c93565b5b6145208a828b0161416d565b945050608088013567ffffffffffffffff81111561454157614540613c93565b5b61454d8a828b016143f5565b93505060a061455e8a828b0161444e565b92505060c061456f8a828b01614473565b91505092959891949750929550565b61458781613d1d565b811461459257600080fd5b50565b6000813590506145a48161457e565b92915050565b600080604083850312156145c1576145c0613c8e565b5b60006145cf85828601613fc4565b92505060206145e085828601614595565b9150509250929050565b600082825260208201905092915050565b600061460682613e3d565b61461081856145ea565b9350614620818560208601613e59565b61462981613e8c565b840191505092915050565b61463d81614423565b82525050565b61464c81613d1d565b82525050565b7f4e487b7100000000000000000000000000000000000000000000000000000000600052602160045260246000fd5b6006811061469257614691614652565b5b50565b60008190506146a382614681565b919050565b60006146b382614695565b9050919050565b6146c3816146a8565b82525050565b600060e08301600083015184820360008601526146e682826145fb565b91505060208301516146fb6020860182613d89565b50604083015161470e6040860182614263565b5060608301516147216060860182614634565b5060808301516147346080860182614634565b5060a083015161474760a0860182614643565b5060c083015161475a60c08601826146ba565b508091505092915050565b6000602082019050818103600083015261477f81846146c9565b905092915050565b600067ffffffffffffffff8211156147a2576147a161401e565b5b6147ab82613e8c565b9050602081019050919050565b60006147cb6147c684614787565b61407e565b9050828152602081018484840111156147e7576147e661436e565b5b6147f28482856143a4565b509392505050565b600082601f83011261480f5761480e614019565b5b813561481f8482602086016147b8565b91505092915050565b6000806000806080858703121561484257614841613c8e565b5b600061485087828801613fc4565b945050602061486187828801613fc4565b935050604061487287828801613f0f565b925050606085013567ffffffffffffffff81111561489357614892613c93565b5b61489f878288016147fa565b91505092959194509250565b600080604083850312156148c2576148c1613c8e565b5b60006148d085828601613fc4565b92505060206148e185828601613fc4565b9150509250929050565b60008060006060848603121561490457614903613c8e565b5b600084013567ffffffffffffffff81111561492257614921613c93565b5b61492e868287016143f5565b935050602061493f86828701613fc4565b925050604061495086828701614595565b9150509250925092565b7f4e487b7100000000000000000000000000000000000000000000000000000000600052602260045260246000fd5b600060028204905060018216806149a157607f821691505b6020821081036149b4576149b361495a565b5b50919050565b7f4552433732313a20617070726f76616c20746f2063757272656e74206f776e6560008201527f7200000000000000000000000000000000000000000000000000000000000000602082015250565b6000614a16602183613e48565b9150614a21826149ba565b604082019050919050565b60006020820190508181036000830152614a4581614a09565b9050919050565b7f4552433732313a20617070726f76652063616c6c6572206973206e6f7420746f60008201527f6b656e206f776e6572206e6f7220617070726f76656420666f7220616c6c0000602082015250565b6000614aa8603e83613e48565b9150614ab382614a4c565b604082019050919050565b60006020820190508181036000830152614ad781614a9b565b9050919050565b7f546869732070726f6475637420686173206265656e2064656c657465642e0000600082015250565b6000614b14601e83613e48565b9150614b1f82614ade565b602082019050919050565b60006020820190508181036000830152614b4381614b07565b9050919050565b7f4e487b7100000000000000000000000000000000000000000000000000000000600052601160045260246000fd5b6000614b8482613d7f565b9150614b8f83613d7f565b925082821015614ba257614ba1614b4a565b5b828203905092915050565b7f4e487b7100000000000000000000000000000000000000000000000000000000600052603260045260246000fd5b7f204f6e6c7920746865206f776e6572206f6620746869732070726f647563742060008201527f63616e2061636365737320746869730000000000000000000000000000000000602082015250565b6000614c38602f83613e48565b9150614c4382614bdc565b604082019050919050565b60006020820190508181036000830152614c6781614c2b565b9050919050565b7f4f6e6c792072656769737465726564206d656d6265727320616c6c6f77656400600082015250565b6000614ca4601f83613e48565b9150614caf82614c6e565b602082019050919050565b60006020820190508181036000830152614cd381614c97565b9050919050565b7f4f6e6c792073656c6c6172732063616e20616363657373207468697300000000600082015250565b6000614d10601c83613e48565b9150614d1b82614cda565b602082019050919050565b60006020820190508181036000830152614d3f81614d03565b9050919050565b7f4552433732313a2063616c6c6572206973206e6f7420746f6b656e206f776e6560008201527f72206e6f7220617070726f766564000000000000000000000000000000000000602082015250565b6000614da2602e83613e48565b9150614dad82614d46565b604082019050919050565b60006020820190508181036000830152614dd181614d95565b9050919050565b7f46756e6374696f6e2061636365737369626c65206f6e6c79206279207468652060008201527f6d656d626572206f6620746865206272616e6421210000000000000000000000602082015250565b6000614e34603583613e48565b9150614e3f82614dd8565b604082019050919050565b60006020820190508181036000830152614e6381614e27565b9050919050565b7f4552433732313a20696e76616c696420746f6b656e2049440000000000000000600082015250565b6000614ea0601883613e48565b9150614eab82614e6a565b602082019050919050565b60006020820190508181036000830152614ecf81614e93565b9050919050565b7f4552433732313a2061646472657373207a65726f206973206e6f74206120766160008201527f6c6964206f776e65720000000000000000000000000000000000000000000000602082015250565b6000614f32602983613e48565b9150614f3d82614ed6565b604082019050919050565b60006020820190508181036000830152614f6181614f25565b9050919050565b7f416c6c206c6963656e736573206e65656420746f20657870697265206265666f60008201527f7265206c656176696e672074686520627573696e657373000000000000000000602082015250565b6000614fc4603783613e48565b9150614fcf82614f68565b604082019050919050565b60006020820190508181036000830152614ff381614fb7565b9050919050565b7f4f6e6c7920746865206f776e6572206f6620746869732061646472657373206360008201527f616e2073656520697427732064657461696c7300000000000000000000000000602082015250565b6000615056603383613e48565b915061506182614ffa565b604082019050919050565b6000602082019050818103600083015261508581615049565b9050919050565b600061509782614423565b91506150a283614423565b9250828210156150b5576150b4614b4a565b5b828203905092915050565b60008190508160005260206000209050919050565b60006020601f8301049050919050565b600082821b905092915050565b6000600883026151227fffffffffffffffffffffffffffffffffffffffffffffffffffffffffffffffff826150e5565b61512c86836150e5565b95508019841693508086168417925050509392505050565b6000819050919050565b600061516961516461515f84613d7f565b615144565b613d7f565b9050919050565b6000819050919050565b6151838361514e565b61519761518f82615170565b8484546150f2565b825550505050565b600090565b6151ac61519f565b6151b781848461517a565b505050565b5b818110156151db576151d06000826151a4565b6001810190506151bd565b5050565b601f821115615220576151f1816150c0565b6151fa846150d5565b81016020851015615209578190505b61521d615215856150d5565b8301826151bc565b50505b505050565b600082821c905092915050565b600061524360001984600802615225565b1980831691505092915050565b600061525c8383615232565b9150826002028217905092915050565b61527582613e3d565b67ffffffffffffffff81111561528e5761528d61401e565b5b6152988254614989565b6152a38282856151df565b600060209050601f8311600181146152d657600084156152c4578287015190505b6152ce8582615250565b865550615336565b601f1984166152e4866150c0565b60005b8281101561530c578489015182556001820191506020850194506020810190506152e7565b868310156153295784890151615325601f891682615232565b8355505b6001600288020188555050505b505050505050565b600081905092915050565b600061535482613e3d565b61535e818561533e565b935061536e818560208601613e59565b80840191505092915050565b60006153868284615349565b915081905092915050565b7f53657269616c204944206d75737420626520756e757365640000000000000000600082015250565b60006153c7601883613e48565b91506153d282615391565b602082019050919050565b600060208201905081810360008301526153f6816153ba565b9050919050565b7f50726f64756374206d757374206265206f6e2073616c6520746f20616363657360008201527f7320746869730000000000000000000000000000000000000000000000000000602082015250565b6000615459602683613e48565b9150615464826153fd565b604082019050919050565b600060208201905081810360008301526154888161544c565b9050919050565b7f4164647265737320616c72656164792072656769737465726564000000000000600082015250565b60006154c5601a83613e48565b91506154d08261548f565b602082019050919050565b600060208201905081810360008301526154f4816154b8565b9050919050565b600061550682613d7f565b915061551183613d7f565b9250827fffffffffffffffffffffffffffffffffffffffffffffffffffffffffffffffff0382111561554657615545614b4a565b5b828201905092915050565b600061555c82613d7f565b91506000820361556f5761556e614b4a565b5b600182039050919050565b7f4552433732313a207472616e736665722066726f6d20696e636f72726563742060008201527f6f776e6572000000000000000000000000000000000000000000000000000000602082015250565b60006155d6602583613e48565b91506155e18261557a565b604082019050919050565b60006020820190508181036000830152615605816155c9565b9050919050565b7f4552433732313a207472616e7366657220746f20746865207a65726f2061646460008201527f7265737300000000000000000000000000000000000000000000000000000000602082015250565b6000615668602483613e48565b91506156738261560c565b604082019050919050565b600060208201905081810360008301526156978161565b565b9050919050565b60006156a982613d7f565b91507fffffffffffffffffffffffffffffffffffffffffffffffffffffffffffffffff82036156db576156da614b4a565b5b600182019050919050565b60006156f28285615349565b91506156fe8284615349565b91508190509392505050565b7f2000000000000000000000000000000000000000000000000000000000000000600082015250565b600061574060018361533e565b915061574b8261570a565b600182019050919050565b60006157628285615349565b915061576d82615733565b91506157798284615349565b91508190509392505050565b7f45524337323155524953746f726167653a2055524920736574206f66206e6f6e60008201527f6578697374656e7420746f6b656e000000000000000000000000000000000000602082015250565b60006157e1602e83613e48565b91506157ec82615785565b604082019050919050565b60006020820190508181036000830152615810816157d4565b9050919050565b7f4552433732313a20617070726f766520746f2063616c6c657200000000000000600082015250565b600061584d601983613e48565b915061585882615817565b602082019050919050565b6000602082019050818103600083015261587c81615840565b9050919050565b7f4e487b7100000000000000000000000000000000000000000000000000000000600052601260045260246000fd5b60006158bd82613d7f565b91506158c883613d7f565b9250826158d8576158d7615883565b5b828206905092915050565b60006158ee82613d7f565b91506158f983613d7f565b92508261590957615908615883565b5b828204905092915050565b7f4552433732313a207472616e7366657220746f206e6f6e20455243373231526560008201527f63656976657220696d706c656d656e7465720000000000000000000000000000602082015250565b6000615970603283613e48565b915061597b82615914565b604082019050919050565b6000602082019050818103600083015261599f81615963565b9050919050565b600081519050919050565b600082825260208201905092915050565b60006159cd826159a6565b6159d781856159b1565b93506159e7818560208601613e59565b6159f081613e8c565b840191505092915050565b6000608082019050615a106000830187613f83565b615a1d6020830186613f83565b615a2a6040830185614344565b8181036060830152615a3c81846159c2565b905095945050505050565b600081519050615a5681613cc4565b92915050565b600060208284031215615a7257615a71613c8e565b5b6000615a8084828501615a47565b91505092915050565b7f4552433732313a206d696e7420746f20746865207a65726f2061646472657373600082015250565b6000615abf602083613e48565b9150615aca82615a89565b602082019050919050565b60006020820190508181036000830152615aee81615ab2565b9050919050565b7f4552433732313a20746f6b656e20616c7265616479206d696e74656400000000600082015250565b6000615b2b601c83613e48565b9150615b3682615af5565b602082019050919050565b60006020820190508181036000830152615b5a81615b1e565b905091905056fea2646970667358221220bdcdb5e5fbd7003708414165af9c017005b4841538cfef5cc592d5ba878fc82864736f6c634300080f0033",
  "immutableReferences": {},
  "source": "// SPDX-License-Identifier: MIT\npragma solidity ^0.8.4;\n\nimport \"@openzeppelin/contracts/token/ERC721/ERC721.sol\";\nimport \"@openzeppelin/contracts/token/ERC721/extensions/ERC721URIStorage.sol\";\nimport \"./Ownership.sol\";\nimport \"./Misc.sol\";\n\ncontract License is ERC721, ERC721URIStorage, Whitelist {\n    mapping(string => bool) private existingURIs;\n    mapping(address => string) private addressURIMap;\n\n    constructor() ERC721(\"License\", \"License\") {}\n\n    // function _baseURI() internal pure override returns (string memory) {\n    //     return \"ipfs://\";\n    // }\n\n    function mint(\n        string memory name,\n        uint256 serialID,\n        address to,\n        uint16[] memory seeds,\n        string memory uri,\n        uint64 secs,\n        ProductType pType\n    ) public onlySellar(msg.sender) {\n        require(usedBrandIDs[to], \"Only registered members allowed\");\n        require(!existingURIs[uri], concatenate(uri, \" : URI already in use.\"));\n        uint256 tokenId = combine(seeds);\n        require(!usedSerials[tokenId], \"Serial ID must be unused\");\n        addSerial(tokenId);\n        _safeMint(to, tokenId);\n        _setTokenURI(tokenId, uri);\n        existingURIs[uri] = true;\n        addressSoldListMap[msg.sender].push(tokenId);\n        usedSerials[tokenId] = true;\n        serialProductMap[tokenId] = product(\n            name,\n            serialID,\n            msg.sender,\n            uint64(block.timestamp),\n            secs,\n            false,\n            pType\n        );\n    }\n\n    function safeBurn(uint256 tokenId) internal {\n        deletedSerials[tokenId] = true;\n        uint256 i;\n        for (i = 0; i < addressBoughtListMap[msg.sender].length; i++) {\n            if (addressBoughtListMap[msg.sender][i] == tokenId) {\n                addressBoughtListMap[msg.sender][i] = 0;\n                break;\n            }\n        }\n        _burn(tokenId);\n    }\n\n    function _burn(uint256 tokenId)\n        internal\n        override(ERC721, ERC721URIStorage)\n    {\n        super._burn(tokenId);\n    }\n\n    function setTokenURI(uint16[] memory parts) public returns (string memory) {\n        uint256 tokenId = combine(parts);\n        require(\n            msg.sender == serialProductMap[tokenId].sellar ||\n                msg.sender ==\n                serialOwnerListMap[tokenId][\n                    serialOwnerListMap[tokenId].length - 1\n                ],\n            \"Only the owner of this address can see it's details\"\n        );\n        uint64 current = uint64(block.timestamp);\n        if (\n            (current - serialProductMap[tokenId].birthtime) >=\n            serialProductMap[tokenId].lifespan\n        ) {\n            safeBurn(tokenId);\n            addressURIMap[msg.sender] = \"License is expired\";\n        } else {\n            addressURIMap[msg.sender] = super.tokenURI(tokenId);\n        }\n    }\n\n    function tokenURI(uint256 tokenId)\n        public\n        view\n        override(ERC721, ERC721URIStorage)\n        returns (string memory)\n    {\n        return addressURIMap[msg.sender];\n    }\n\n    function _beforeTokenTransfer(\n        address from,\n        address to,\n        uint256 serial\n    ) internal virtual override {\n        if (from != address(0)) {\n            uint256 i;\n            for (i = 0; i < addressBoughtListMap[from].length; i++) {\n                if (addressBoughtListMap[from][i] == serial) {\n                    addressBoughtListMap[from][i] = 0;\n                    break;\n                }\n            }\n        }\n    }\n\n    function _afterTokenTransfer(\n        address from,\n        address to,\n        uint256 serial\n    ) internal virtual override {\n        if (to != address(0)) {\n            addressBoughtListMap[to].push(serial);\n            serialOwnerListMap[serial].push(to);\n            serialProductMap[serial].onSale = false;\n        }\n    }\n}\n",
  "sourcePath": "/Users/monjoy/Desktop/LicenseNFT/smart_contract/contracts/License.sol",
  "compiler": {
    "name": "solc",
    "version": "0.8.15+commit.e14f2714.Emscripten.clang"
  },
  "schemaVersion": "3.4.8",
  "updatedAt": "2022-07-25T07:10:19.795Z",
  "networkType": "ethereum",
  "devdoc": {
    "kind": "dev",
    "methods": {
      "approve(address,uint256)": {
        "details": "See {IERC721-approve}."
      },
      "balanceOf(address)": {
        "details": "See {IERC721-balanceOf}."
      },
      "getApproved(uint256)": {
        "details": "See {IERC721-getApproved}."
      },
      "isApprovedForAll(address,address)": {
        "details": "See {IERC721-isApprovedForAll}."
      },
      "name()": {
        "details": "See {IERC721Metadata-name}."
      },
      "ownerOf(uint256)": {
        "details": "See {IERC721-ownerOf}."
      },
      "safeTransferFrom(address,address,uint256)": {
        "details": "See {IERC721-safeTransferFrom}."
      },
      "safeTransferFrom(address,address,uint256,bytes)": {
        "details": "See {IERC721-safeTransferFrom}."
      },
      "setApprovalForAll(address,bool)": {
        "details": "See {IERC721-setApprovalForAll}."
      },
      "supportsInterface(bytes4)": {
        "details": "See {IERC165-supportsInterface}."
      },
      "symbol()": {
        "details": "See {IERC721Metadata-symbol}."
      },
      "transferFrom(address,address,uint256)": {
        "details": "See {IERC721-transferFrom}."
      }
    },
    "version": 1
  },
  "userdoc": {
    "kind": "user",
    "methods": {},
    "version": 1
  }
}