{
  "contractName": "License",
  "abi": [
    {
      "inputs": [],
      "stateMutability": "nonpayable",
      "type": "constructor"
    },
    {
      "anonymous": false,
      "inputs": [
        {
          "indexed": true,
          "internalType": "address",
          "name": "owner",
          "type": "address"
        },
        {
          "indexed": true,
          "internalType": "address",
          "name": "approved",
          "type": "address"
        },
        {
          "indexed": true,
          "internalType": "uint256",
          "name": "tokenId",
          "type": "uint256"
        }
      ],
      "name": "Approval",
      "type": "event"
    },
    {
      "anonymous": false,
      "inputs": [
        {
          "indexed": true,
          "internalType": "address",
          "name": "owner",
          "type": "address"
        },
        {
          "indexed": true,
          "internalType": "address",
          "name": "operator",
          "type": "address"
        },
        {
          "indexed": false,
          "internalType": "bool",
          "name": "approved",
          "type": "bool"
        }
      ],
      "name": "ApprovalForAll",
      "type": "event"
    },
    {
      "anonymous": false,
      "inputs": [
        {
          "indexed": true,
          "internalType": "address",
          "name": "previousOwner",
          "type": "address"
        },
        {
          "indexed": true,
          "internalType": "address",
          "name": "newOwner",
          "type": "address"
        }
      ],
      "name": "OwnershipTransferred",
      "type": "event"
    },
    {
      "anonymous": false,
      "inputs": [
        {
          "indexed": true,
          "internalType": "address",
          "name": "from",
          "type": "address"
        },
        {
          "indexed": true,
          "internalType": "address",
          "name": "to",
          "type": "address"
        },
        {
          "indexed": true,
          "internalType": "uint256",
          "name": "tokenId",
          "type": "uint256"
        }
      ],
      "name": "Transfer",
      "type": "event"
    },
    {
      "inputs": [
        {
          "internalType": "uint256",
          "name": "serial",
          "type": "uint256"
        }
      ],
      "name": "addSerial",
      "outputs": [],
      "stateMutability": "nonpayable",
      "type": "function"
    },
    {
      "inputs": [
        {
          "internalType": "string",
          "name": "name",
          "type": "string"
        },
        {
          "internalType": "address",
          "name": "_member",
          "type": "address"
        },
        {
          "internalType": "bool",
          "name": "isSellar",
          "type": "bool"
        }
      ],
      "name": "addUser",
      "outputs": [],
      "stateMutability": "nonpayable",
      "type": "function"
    },
    {
      "inputs": [
        {
          "internalType": "address",
          "name": "to",
          "type": "address"
        },
        {
          "internalType": "uint256",
          "name": "tokenId",
          "type": "uint256"
        }
      ],
      "name": "approve",
      "outputs": [],
      "stateMutability": "nonpayable",
      "type": "function"
    },
    {
      "inputs": [
        {
          "internalType": "address",
          "name": "owner",
          "type": "address"
        }
      ],
      "name": "balanceOf",
      "outputs": [
        {
          "internalType": "uint256",
          "name": "",
          "type": "uint256"
        }
      ],
      "stateMutability": "view",
      "type": "function",
      "constant": true
    },
    {
      "inputs": [
        {
          "internalType": "uint256",
          "name": "tokenId",
          "type": "uint256"
        }
      ],
      "name": "getApproved",
      "outputs": [
        {
          "internalType": "address",
          "name": "",
          "type": "address"
        }
      ],
      "stateMutability": "view",
      "type": "function",
      "constant": true
    },
    {
      "inputs": [],
      "name": "getBoughtLicenses",
      "outputs": [
        {
          "internalType": "uint256[]",
          "name": "",
          "type": "uint256[]"
        }
      ],
      "stateMutability": "view",
      "type": "function",
      "constant": true
    },
    {
      "inputs": [
        {
          "internalType": "uint16[]",
          "name": "parts",
          "type": "uint16[]"
        }
      ],
      "name": "getCurrentOwner",
      "outputs": [
        {
          "internalType": "address",
          "name": "",
          "type": "address"
        }
      ],
      "stateMutability": "view",
      "type": "function",
      "constant": true
    },
    {
      "inputs": [],
      "name": "getIssuedLicense",
      "outputs": [
        {
          "internalType": "uint256[]",
          "name": "",
          "type": "uint256[]"
        }
      ],
      "stateMutability": "view",
      "type": "function",
      "constant": true
    },
    {
      "inputs": [],
      "name": "getName",
      "outputs": [
        {
          "internalType": "string",
          "name": "",
          "type": "string"
        }
      ],
      "stateMutability": "view",
      "type": "function",
      "constant": true
    },
    {
      "inputs": [
        {
          "internalType": "uint16[]",
          "name": "parts",
          "type": "uint16[]"
        }
      ],
      "name": "getOwnerList",
      "outputs": [
        {
          "internalType": "address[]",
          "name": "",
          "type": "address[]"
        }
      ],
      "stateMutability": "view",
      "type": "function",
      "constant": true
    },
    {
      "inputs": [
        {
          "internalType": "uint16[]",
          "name": "parts",
          "type": "uint16[]"
        }
      ],
      "name": "getProduct",
      "outputs": [
        {
          "components": [
            {
              "internalType": "string",
              "name": "name",
              "type": "string"
            },
            {
              "internalType": "uint256",
              "name": "serialID",
              "type": "uint256"
            },
            {
              "internalType": "address",
              "name": "sellar",
              "type": "address"
            },
            {
              "internalType": "uint64",
              "name": "birthtime",
              "type": "uint64"
            },
            {
              "internalType": "uint64",
              "name": "lifespan",
              "type": "uint64"
            },
            {
              "internalType": "bool",
              "name": "onSale",
              "type": "bool"
            }
          ],
          "internalType": "struct Whitelist.product",
          "name": "",
          "type": "tuple"
        }
      ],
      "stateMutability": "view",
      "type": "function",
      "constant": true
    },
    {
      "inputs": [
        {
          "internalType": "address",
          "name": "owner",
          "type": "address"
        },
        {
          "internalType": "address",
          "name": "operator",
          "type": "address"
        }
      ],
      "name": "isApprovedForAll",
      "outputs": [
        {
          "internalType": "bool",
          "name": "",
          "type": "bool"
        }
      ],
      "stateMutability": "view",
      "type": "function",
      "constant": true
    },
    {
      "inputs": [],
      "name": "isRegistered",
      "outputs": [],
      "stateMutability": "view",
      "type": "function",
      "constant": true
    },
    {
      "inputs": [],
      "name": "kickSellar",
      "outputs": [],
      "stateMutability": "nonpayable",
      "type": "function"
    },
    {
      "inputs": [],
      "name": "makeSellar",
      "outputs": [],
      "stateMutability": "nonpayable",
      "type": "function"
    },
    {
      "inputs": [],
      "name": "name",
      "outputs": [
        {
          "internalType": "string",
          "name": "",
          "type": "string"
        }
      ],
      "stateMutability": "view",
      "type": "function",
      "constant": true
    },
    {
      "inputs": [],
      "name": "owner",
      "outputs": [
        {
          "internalType": "address",
          "name": "",
          "type": "address"
        }
      ],
      "stateMutability": "view",
      "type": "function",
      "constant": true
    },
    {
      "inputs": [
        {
          "internalType": "uint256",
          "name": "tokenId",
          "type": "uint256"
        }
      ],
      "name": "ownerOf",
      "outputs": [
        {
          "internalType": "address",
          "name": "",
          "type": "address"
        }
      ],
      "stateMutability": "view",
      "type": "function",
      "constant": true
    },
    {
      "inputs": [],
      "name": "renounceOwnership",
      "outputs": [],
      "stateMutability": "nonpayable",
      "type": "function"
    },
    {
      "inputs": [
        {
          "internalType": "address",
          "name": "from",
          "type": "address"
        },
        {
          "internalType": "address",
          "name": "to",
          "type": "address"
        },
        {
          "internalType": "uint256",
          "name": "tokenId",
          "type": "uint256"
        }
      ],
      "name": "safeTransferFrom",
      "outputs": [],
      "stateMutability": "nonpayable",
      "type": "function"
    },
    {
      "inputs": [
        {
          "internalType": "address",
          "name": "from",
          "type": "address"
        },
        {
          "internalType": "address",
          "name": "to",
          "type": "address"
        },
        {
          "internalType": "uint256",
          "name": "tokenId",
          "type": "uint256"
        },
        {
          "internalType": "bytes",
          "name": "data",
          "type": "bytes"
        }
      ],
      "name": "safeTransferFrom",
      "outputs": [],
      "stateMutability": "nonpayable",
      "type": "function"
    },
    {
      "inputs": [
        {
          "internalType": "address",
          "name": "operator",
          "type": "address"
        },
        {
          "internalType": "bool",
          "name": "approved",
          "type": "bool"
        }
      ],
      "name": "setApprovalForAll",
      "outputs": [],
      "stateMutability": "nonpayable",
      "type": "function"
    },
    {
      "inputs": [
        {
          "internalType": "uint16[]",
          "name": "parts",
          "type": "uint16[]"
        }
      ],
      "name": "setOnSale",
      "outputs": [],
      "stateMutability": "nonpayable",
      "type": "function"
    },
    {
      "inputs": [
        {
          "internalType": "bytes4",
          "name": "interfaceId",
          "type": "bytes4"
        }
      ],
      "name": "supportsInterface",
      "outputs": [
        {
          "internalType": "bool",
          "name": "",
          "type": "bool"
        }
      ],
      "stateMutability": "view",
      "type": "function",
      "constant": true
    },
    {
      "inputs": [],
      "name": "symbol",
      "outputs": [
        {
          "internalType": "string",
          "name": "",
          "type": "string"
        }
      ],
      "stateMutability": "view",
      "type": "function",
      "constant": true
    },
    {
      "inputs": [
        {
          "internalType": "uint16[]",
          "name": "parts",
          "type": "uint16[]"
        }
      ],
      "name": "takeDownFromSale",
      "outputs": [],
      "stateMutability": "nonpayable",
      "type": "function"
    },
    {
      "inputs": [],
      "name": "time",
      "outputs": [
        {
          "internalType": "uint256",
          "name": "",
          "type": "uint256"
        }
      ],
      "stateMutability": "view",
      "type": "function",
      "constant": true
    },
    {
      "inputs": [
        {
          "internalType": "address",
          "name": "from",
          "type": "address"
        },
        {
          "internalType": "address",
          "name": "to",
          "type": "address"
        },
        {
          "internalType": "uint256",
          "name": "tokenId",
          "type": "uint256"
        }
      ],
      "name": "transferFrom",
      "outputs": [],
      "stateMutability": "nonpayable",
      "type": "function"
    },
    {
      "inputs": [
        {
          "internalType": "address",
          "name": "newOwner",
          "type": "address"
        }
      ],
      "name": "transferOwnership",
      "outputs": [],
      "stateMutability": "nonpayable",
      "type": "function"
    },
    {
      "inputs": [],
      "name": "getTime",
      "outputs": [
        {
          "internalType": "string",
          "name": "",
          "type": "string"
        }
      ],
      "stateMutability": "view",
      "type": "function",
      "constant": true
    },
    {
      "inputs": [
        {
          "internalType": "string",
          "name": "name",
          "type": "string"
        },
        {
          "internalType": "uint256",
          "name": "serialID",
          "type": "uint256"
        },
        {
          "internalType": "address",
          "name": "to",
          "type": "address"
        },
        {
          "internalType": "uint16[]",
          "name": "seeds",
          "type": "uint16[]"
        },
        {
          "internalType": "string",
          "name": "uri",
          "type": "string"
        },
        {
          "internalType": "uint64",
          "name": "secs",
          "type": "uint64"
        }
      ],
      "name": "mint",
      "outputs": [],
      "stateMutability": "nonpayable",
      "type": "function"
    },
    {
      "inputs": [],
      "name": "getTokenURI",
      "outputs": [
        {
          "internalType": "string",
          "name": "",
          "type": "string"
        }
      ],
      "stateMutability": "view",
      "type": "function",
      "constant": true
    },
    {
      "inputs": [
        {
          "internalType": "uint16[]",
          "name": "parts",
          "type": "uint16[]"
        }
      ],
      "name": "setTokenURI",
      "outputs": [
        {
          "internalType": "string",
          "name": "",
          "type": "string"
        }
      ],
      "stateMutability": "nonpayable",
      "type": "function"
    },
    {
      "inputs": [
        {
          "internalType": "uint256",
          "name": "tokenId",
          "type": "uint256"
        }
      ],
      "name": "tokenURI",
      "outputs": [
        {
          "internalType": "string",
          "name": "",
          "type": "string"
        }
      ],
      "stateMutability": "view",
      "type": "function",
      "constant": true
    }
  ],
  "bytecode": "0x60806040523480156200001157600080fd5b506040518060400160405280600781526020017f4c6963656e7365000000000000000000000000000000000000000000000000008152506040518060400160405280600781526020017f4c6963656e73650000000000000000000000000000000000000000000000000081525081600090816200008f91906200043e565b508060019081620000a191906200043e565b505050620000c4620000b8620000f660201b60201c565b620000fe60201b60201c565b60016009600080815260200190815260200160002060006101000a81548160ff02191690831515021790555062000525565b600033905090565b6000600760009054906101000a900473ffffffffffffffffffffffffffffffffffffffff16905081600760006101000a81548173ffffffffffffffffffffffffffffffffffffffff021916908373ffffffffffffffffffffffffffffffffffffffff1602179055508173ffffffffffffffffffffffffffffffffffffffff168173ffffffffffffffffffffffffffffffffffffffff167f8be0079c531659141344cd1fd0a4f28419497f9722a3daafe3b4186f6b6457e060405160405180910390a35050565b600081519050919050565b7f4e487b7100000000000000000000000000000000000000000000000000000000600052604160045260246000fd5b7f4e487b7100000000000000000000000000000000000000000000000000000000600052602260045260246000fd5b600060028204905060018216806200024657607f821691505b6020821081036200025c576200025b620001fe565b5b50919050565b60008190508160005260206000209050919050565b60006020601f8301049050919050565b600082821b905092915050565b600060088302620002c67fffffffffffffffffffffffffffffffffffffffffffffffffffffffffffffffff8262000287565b620002d2868362000287565b95508019841693508086168417925050509392505050565b6000819050919050565b6000819050919050565b60006200031f620003196200031384620002ea565b620002f4565b620002ea565b9050919050565b6000819050919050565b6200033b83620002fe565b620003536200034a8262000326565b84845462000294565b825550505050565b600090565b6200036a6200035b565b6200037781848462000330565b505050565b5b818110156200039f576200039360008262000360565b6001810190506200037d565b5050565b601f821115620003ee57620003b88162000262565b620003c38462000277565b81016020851015620003d3578190505b620003eb620003e28562000277565b8301826200037c565b50505b505050565b600082821c905092915050565b60006200041360001984600802620003f3565b1980831691505092915050565b60006200042e838362000400565b9150826002028217905092915050565b6200044982620001c4565b67ffffffffffffffff811115620004655762000464620001cf565b5b6200047182546200022d565b6200047e828285620003a3565b600060209050601f831160018114620004b65760008415620004a1578287015190505b620004ad858262000420565b8655506200051d565b601f198416620004c68662000262565b60005b82811015620004f057848901518255600182019150602085019450602081019050620004c9565b868310156200051057848901516200050c601f89168262000400565b8355505b6001600288020188555050505b505050505050565b615e7580620005356000396000f3fe608060405234801561001057600080fd5b50600436106102065760003560e01c8063715018a61161011a578063b69c85d6116100ad578063dd49dbd71161007c578063dd49dbd7146105b3578063e985e9c5146105bd578063f15c1b46146105ed578063f2fde38b1461061d578063fd43d2e01461063957610206565b8063b69c85d61461052d578063b88d4fde14610549578063c87b56dd14610565578063d4a191161461059557610206565b80638da5cb5b116100e95780638da5cb5b146104a557806395d89b41146104c3578063a22cb465146104e1578063b012381e146104fd57610206565b8063715018a614610445578063737b23761461044f57806385a1556e1461046b5780638c22bfcd1461047557610206565b806320a71c7b1161019d57806342842e0e1161016c57806342842e0e1461037b57806350177a2514610397578063557ed1ba146103c75780636352211e146103e557806370a082311461041557610206565b806320a71c7b1461031b578063223668441461033957806323b872dd1461034357806337ac7cf11461035f57610206565b8063095ea7b3116101d9578063095ea7b3146102a757806316ada547146102c357806316c23ec6146102e157806317d7de7c146102fd57610206565b806301ffc9a71461020b578063045b94551461023b57806306fdde0314610259578063081812fc14610277575b600080fd5b61022560048036038101906102209190613f65565b610655565b6040516102329190613fad565b60405180910390f35b610243610737565b6040516102509190614090565b60405180910390f35b6102616107cf565b60405161026e919061414b565b60405180910390f35b610291600480360381019061028c9190614199565b610861565b60405161029e9190614207565b60405180910390f35b6102c160048036038101906102bc919061424e565b6108a7565b005b6102cb6109be565b6040516102d8919061429d565b60405180910390f35b6102fb60048036038101906102f6919061443a565b6109c4565b005b610305610aed565b604051610312919061414b565b60405180910390f35b610323610c4b565b6040516103309190614090565b60405180910390f35b610341610d74565b005b61035d60048036038101906103589190614483565b610e02565b005b610379600480360381019061037491906145cb565b610e62565b005b61039560048036038101906103909190614483565b61123d565b005b6103b160048036038101906103ac919061443a565b61125d565b6040516103be919061476a565b60405180910390f35b6103cf6113db565b6040516103dc919061414b565b60405180910390f35b6103ff60048036038101906103fa9190614199565b6113ed565b60405161040c9190614207565b60405180910390f35b61042f600480360381019061042a919061478c565b61149e565b60405161043c919061429d565b60405180910390f35b61044d611555565b005b6104696004803603810190610464919061443a565b611569565b005b610473611692565b005b61048f600480360381019061048a919061443a565b611777565b60405161049c919061414b565b60405180910390f35b6104ad6118ac565b6040516104ba9190614207565b60405180910390f35b6104cb6118d6565b6040516104d8919061414b565b60405180910390f35b6104fb60048036038101906104f691906147e5565b611968565b005b6105176004803603810190610512919061443a565b61197e565b6040516105249190614916565b60405180910390f35b61054760048036038101906105429190614199565b611b24565b005b610563600480360381019061055e91906149d9565b611ccd565b005b61057f600480360381019061057a9190614199565b611d2f565b60405161058c919061414b565b60405180910390f35b61059d611f4c565b6040516105aa919061414b565b60405180910390f35b6105bb61201b565b005b6105d760048036038101906105d29190614a5c565b612078565b6040516105e49190613fad565b60405180910390f35b6106076004803603810190610602919061443a565b61210c565b6040516106149190614207565b60405180910390f35b6106376004803603810190610632919061478c565b612263565b005b610653600480360381019061064e9190614a9c565b6122e6565b005b60007f80ac58cd000000000000000000000000000000000000000000000000000000007bffffffffffffffffffffffffffffffffffffffffffffffffffffffff1916827bffffffffffffffffffffffffffffffffffffffffffffffffffffffff1916148061072057507f5b5e139f000000000000000000000000000000000000000000000000000000007bffffffffffffffffffffffffffffffffffffffffffffffffffffffff1916827bffffffffffffffffffffffffffffffffffffffffffffffffffffffff1916145b80610730575061072f82612541565b5b9050919050565b6060600a60003373ffffffffffffffffffffffffffffffffffffffff1673ffffffffffffffffffffffffffffffffffffffff1681526020019081526020016000206001018054806020026020016040519081016040528092919081815260200182805480156107c557602002820191906000526020600020905b8154815260200190600101908083116107b1575b5050505050905090565b6060600080546107de90614b3a565b80601f016020809104026020016040519081016040528092919081815260200182805461080a90614b3a565b80156108575780601f1061082c57610100808354040283529160200191610857565b820191906000526020600020905b81548152906001019060200180831161083a57829003601f168201915b5050505050905090565b600061086c826125ab565b6004600083815260200190815260200160002060009054906101000a900473ffffffffffffffffffffffffffffffffffffffff169050919050565b60006108b2826113ed565b90508073ffffffffffffffffffffffffffffffffffffffff168373ffffffffffffffffffffffffffffffffffffffff1603610922576040517f08c379a000000000000000000000000000000000000000000000000000000000815260040161091990614bdd565b60405180910390fd5b8073ffffffffffffffffffffffffffffffffffffffff166109416125f6565b73ffffffffffffffffffffffffffffffffffffffff161480610970575061096f8161096a6125f6565b612078565b5b6109af576040517f08c379a00000000000000000000000000000000000000000000000000000000081526004016109a690614c6f565b60405180910390fd5b6109b983836125fe565b505050565b600f5481565b8060006109d0826126b7565b90503373ffffffffffffffffffffffffffffffffffffffff16600c60008381526020019081526020016000206001600c600085815260200190815260200160002080549050610a1f9190614cbe565b81548110610a3057610a2f614cf2565b5b9060005260206000200160009054906101000a900473ffffffffffffffffffffffffffffffffffffffff1673ffffffffffffffffffffffffffffffffffffffff1614610ab1576040517f08c379a0000000000000000000000000000000000000000000000000000000008152600401610aa890614d93565b60405180910390fd5b6000600b6000610ac0866126b7565b815260200190815260200160002060030160086101000a81548160ff021916908315150217905550505050565b6060600860003373ffffffffffffffffffffffffffffffffffffffff1673ffffffffffffffffffffffffffffffffffffffff16815260200190815260200160002060009054906101000a900460ff16610b7b576040517f08c379a0000000000000000000000000000000000000000000000000000000008152600401610b7290614dff565b60405180910390fd5b600a60003373ffffffffffffffffffffffffffffffffffffffff1673ffffffffffffffffffffffffffffffffffffffff1681526020019081526020016000206000018054610bc890614b3a565b80601f0160208091040260200160405190810160405280929190818152602001828054610bf490614b3a565b8015610c415780601f10610c1657610100808354040283529160200191610c41565b820191906000526020600020905b815481529060010190602001808311610c2457829003601f168201915b5050505050905090565b606033600a60008273ffffffffffffffffffffffffffffffffffffffff1673ffffffffffffffffffffffffffffffffffffffff16815260200190815260200160002060030160009054906101000a900460ff16610cdd576040517f08c379a0000000000000000000000000000000000000000000000000000000008152600401610cd490614e6b565b60405180910390fd5b600a60003373ffffffffffffffffffffffffffffffffffffffff1673ffffffffffffffffffffffffffffffffffffffff168152602001908152602001600020600201805480602002602001604051908101604052809291908181526020018280548015610d6957602002820191906000526020600020905b815481526020019060010190808311610d55575b505050505091505090565b600860003373ffffffffffffffffffffffffffffffffffffffff1673ffffffffffffffffffffffffffffffffffffffff16815260200190815260200160002060009054906101000a900460ff16610e00576040517f08c379a0000000000000000000000000000000000000000000000000000000008152600401610df790614dff565b60405180910390fd5b565b610e13610e0d6125f6565b82612722565b610e52576040517f08c379a0000000000000000000000000000000000000000000000000000000008152600401610e4990614efd565b60405180910390fd5b610e5d8383836127b7565b505050565b600860003373ffffffffffffffffffffffffffffffffffffffff1673ffffffffffffffffffffffffffffffffffffffff16815260200190815260200160002060009054906101000a900460ff16610eee576040517f08c379a0000000000000000000000000000000000000000000000000000000008152600401610ee590614dff565b60405180910390fd5b33600a60008273ffffffffffffffffffffffffffffffffffffffff1673ffffffffffffffffffffffffffffffffffffffff16815260200190815260200160002060030160009054906101000a900460ff16610f7e576040517f08c379a0000000000000000000000000000000000000000000000000000000008152600401610f7590614e6b565b60405180910390fd5b600860008673ffffffffffffffffffffffffffffffffffffffff1673ffffffffffffffffffffffffffffffffffffffff16815260200190815260200160002060009054906101000a900460ff1661100a576040517f08c379a000000000000000000000000000000000000000000000000000000000815260040161100190614dff565b60405180910390fd5b600d8360405161101a9190614f59565b908152602001604051809103902060009054906101000a900460ff1615611076576040517f08c379a000000000000000000000000000000000000000000000000000000000815260040161106d90614fbc565b60405180910390fd5b6000611081856126b7565b905061108c81611b24565b6110968682612a1d565b6110a08185612a3b565b6001600d856040516110b29190614f59565b908152602001604051809103902060006101000a81548160ff0219169083151502179055506040518060c001604052808981526020018881526020013373ffffffffffffffffffffffffffffffffffffffff1681526020014267ffffffffffffffff1681526020018467ffffffffffffffff16815260200160001515815250600b600083815260200190815260200160002060008201518160000190816111599190615188565b506020820151816001015560408201518160020160006101000a81548173ffffffffffffffffffffffffffffffffffffffff021916908373ffffffffffffffffffffffffffffffffffffffff16021790555060608201518160020160146101000a81548167ffffffffffffffff021916908367ffffffffffffffff16021790555060808201518160030160006101000a81548167ffffffffffffffff021916908367ffffffffffffffff16021790555060a08201518160030160086101000a81548160ff02191690831515021790555090505042600f819055505050505050505050565b61125883838360405180602001604052806000815250611ccd565b505050565b6060600061126a836126b7565b9050600b600082815260200190815260200160002060030160089054906101000a900460ff16806112fc57503373ffffffffffffffffffffffffffffffffffffffff16600b600083815260200190815260200160002060020160009054906101000a900473ffffffffffffffffffffffffffffffffffffffff1673ffffffffffffffffffffffffffffffffffffffff16145b61133b576040517f08c379a0000000000000000000000000000000000000000000000000000000008152600401611332906152cc565b60405180910390fd5b600c60008281526020019081526020016000208054806020026020016040519081016040528092919081815260200182805480156113ce57602002820191906000526020600020905b8160009054906101000a900473ffffffffffffffffffffffffffffffffffffffff1673ffffffffffffffffffffffffffffffffffffffff1681526020019060010190808311611384575b5050505050915050919050565b60606113e8600f54612aa8565b905090565b6000806002600084815260200190815260200160002060009054906101000a900473ffffffffffffffffffffffffffffffffffffffff169050600073ffffffffffffffffffffffffffffffffffffffff168173ffffffffffffffffffffffffffffffffffffffff1603611495576040517f08c379a000000000000000000000000000000000000000000000000000000000815260040161148c90615338565b60405180910390fd5b80915050919050565b60008073ffffffffffffffffffffffffffffffffffffffff168273ffffffffffffffffffffffffffffffffffffffff160361150e576040517f08c379a0000000000000000000000000000000000000000000000000000000008152600401611505906153ca565b60405180910390fd5b600360008373ffffffffffffffffffffffffffffffffffffffff1673ffffffffffffffffffffffffffffffffffffffff168152602001908152602001600020549050919050565b61155d612c7d565b6115676000612cfb565b565b806000611575826126b7565b90503373ffffffffffffffffffffffffffffffffffffffff16600c60008381526020019081526020016000206001600c6000858152602001908152602001600020805490506115c49190614cbe565b815481106115d5576115d4614cf2565b5b9060005260206000200160009054906101000a900473ffffffffffffffffffffffffffffffffffffffff1673ffffffffffffffffffffffffffffffffffffffff1614611656576040517f08c379a000000000000000000000000000000000000000000000000000000000815260040161164d90614d93565b60405180910390fd5b6001600b6000611665866126b7565b815260200190815260200160002060030160086101000a81548160ff021916908315150217905550505050565b6000600a60003373ffffffffffffffffffffffffffffffffffffffff1673ffffffffffffffffffffffffffffffffffffffff168152602001908152602001600020600201805490501461171a576040517f08c379a00000000000000000000000000000000000000000000000000000000081526004016117119061545c565b60405180910390fd5b6000600a60003373ffffffffffffffffffffffffffffffffffffffff1673ffffffffffffffffffffffffffffffffffffffff16815260200190815260200160002060030160006101000a81548160ff021916908315150217905550565b606060004290506000611789846126b7565b9050600b600082815260200190815260200160002060030160009054906101000a900467ffffffffffffffff1667ffffffffffffffff16600b600083815260200190815260200160002060020160149054906101000a900467ffffffffffffffff16836117f6919061547c565b67ffffffffffffffff16106118505761180e81612dc1565b600061184f576040517f08c379a0000000000000000000000000000000000000000000000000000000008152600401611846906154fc565b60405180910390fd5b5b61185981611d2f565b600e60003373ffffffffffffffffffffffffffffffffffffffff1673ffffffffffffffffffffffffffffffffffffffff16815260200190815260200160002090816118a49190615188565b505050919050565b6000600760009054906101000a900473ffffffffffffffffffffffffffffffffffffffff16905090565b6060600180546118e590614b3a565b80601f016020809104026020016040519081016040528092919081815260200182805461191190614b3a565b801561195e5780601f106119335761010080835404028352916020019161195e565b820191906000526020600020905b81548152906001019060200180831161194157829003601f168201915b5050505050905090565b61197a6119736125f6565b8383612f7a565b5050565b611986613ded565b600b6000611993846126b7565b81526020019081526020016000206040518060c00160405290816000820180546119bc90614b3a565b80601f01602080910402602001604051908101604052809291908181526020018280546119e890614b3a565b8015611a355780601f10611a0a57610100808354040283529160200191611a35565b820191906000526020600020905b815481529060010190602001808311611a1857829003601f168201915b50505050508152602001600182015481526020016002820160009054906101000a900473ffffffffffffffffffffffffffffffffffffffff1673ffffffffffffffffffffffffffffffffffffffff1673ffffffffffffffffffffffffffffffffffffffff1681526020016002820160149054906101000a900467ffffffffffffffff1667ffffffffffffffff1667ffffffffffffffff1681526020016003820160009054906101000a900467ffffffffffffffff1667ffffffffffffffff1667ffffffffffffffff1681526020016003820160089054906101000a900460ff1615151515815250509050919050565b33600a60008273ffffffffffffffffffffffffffffffffffffffff1673ffffffffffffffffffffffffffffffffffffffff16815260200190815260200160002060030160009054906101000a900460ff16611bb4576040517f08c379a0000000000000000000000000000000000000000000000000000000008152600401611bab90614e6b565b60405180910390fd5b6009600083815260200190815260200160002060009054906101000a900460ff1615611c5b611c206040518060400160405280600781526020017f53657269616c2000000000000000000000000000000000000000000000000000815250611c1b86612aa8565b6130e6565b6040518060400160405280600f81526020017f20616c726561647920696e2075736500000000000000000000000000000000008152506130e6565b90611c9c576040517f08c379a0000000000000000000000000000000000000000000000000000000008152600401611c93919061414b565b60405180910390fd5b5060016009600084815260200190815260200160002060006101000a81548160ff0219169083151502179055505050565b611cde611cd86125f6565b83612722565b611d1d576040517f08c379a0000000000000000000000000000000000000000000000000000000008152600401611d1490614efd565b60405180910390fd5b611d2984848484613112565b50505050565b6060600b600083815260200190815260200160002060020160009054906101000a900473ffffffffffffffffffffffffffffffffffffffff1673ffffffffffffffffffffffffffffffffffffffff163373ffffffffffffffffffffffffffffffffffffffff161480611e3d5750600c60008381526020019081526020016000206001600c600085815260200190815260200160002080549050611dd29190614cbe565b81548110611de357611de2614cf2565b5b9060005260206000200160009054906101000a900473ffffffffffffffffffffffffffffffffffffffff1673ffffffffffffffffffffffffffffffffffffffff163373ffffffffffffffffffffffffffffffffffffffff16145b611e7c576040517f08c379a0000000000000000000000000000000000000000000000000000000008152600401611e739061558e565b60405180910390fd5b6000429050600b600084815260200190815260200160002060030160009054906101000a900467ffffffffffffffff1667ffffffffffffffff16600b600085815260200190815260200160002060020160149054906101000a900467ffffffffffffffff1682611eec919061547c565b67ffffffffffffffff161015611f0d57611f058361316e565b915050611f47565b6040518060400160405280600e81526020017f496c6c6567616c204163636573730000000000000000000000000000000000008152509150505b919050565b6060600e60003373ffffffffffffffffffffffffffffffffffffffff1673ffffffffffffffffffffffffffffffffffffffff1681526020019081526020016000208054611f9890614b3a565b80601f0160208091040260200160405190810160405280929190818152602001828054611fc490614b3a565b80156120115780601f10611fe657610100808354040283529160200191612011565b820191906000526020600020905b815481529060010190602001808311611ff457829003601f168201915b5050505050905090565b6001600a60003373ffffffffffffffffffffffffffffffffffffffff1673ffffffffffffffffffffffffffffffffffffffff16815260200190815260200160002060030160006101000a81548160ff021916908315150217905550565b6000600560008473ffffffffffffffffffffffffffffffffffffffff1673ffffffffffffffffffffffffffffffffffffffff16815260200190815260200160002060008373ffffffffffffffffffffffffffffffffffffffff1673ffffffffffffffffffffffffffffffffffffffff16815260200190815260200160002060009054906101000a900460ff16905092915050565b600080612118836126b7565b9050600b600082815260200190815260200160002060030160089054906101000a900460ff16806121aa57503373ffffffffffffffffffffffffffffffffffffffff16600b600083815260200190815260200160002060020160009054906101000a900473ffffffffffffffffffffffffffffffffffffffff1673ffffffffffffffffffffffffffffffffffffffff16145b6121e9576040517f08c379a00000000000000000000000000000000000000000000000000000000081526004016121e090615620565b60405180910390fd5b600c60008281526020019081526020016000206001600c60008481526020019081526020016000208054905061221f9190614cbe565b815481106122305761222f614cf2565b5b9060005260206000200160009054906101000a900473ffffffffffffffffffffffffffffffffffffffff16915050919050565b61226b612c7d565b600073ffffffffffffffffffffffffffffffffffffffff168173ffffffffffffffffffffffffffffffffffffffff16036122da576040517f08c379a00000000000000000000000000000000000000000000000000000000081526004016122d1906156b2565b60405180910390fd5b6122e381612cfb565b50565b600860008373ffffffffffffffffffffffffffffffffffffffff1673ffffffffffffffffffffffffffffffffffffffff16815260200190815260200160002060009054906101000a900460ff1615612373576040517f08c379a000000000000000000000000000000000000000000000000000000000815260040161236a9061571e565b60405180910390fd5b6001600860008473ffffffffffffffffffffffffffffffffffffffff1673ffffffffffffffffffffffffffffffffffffffff16815260200190815260200160002060006101000a81548160ff02191690831515021790555060008067ffffffffffffffff8111156123e7576123e66142bd565b5b6040519080825280602002602001820160405280156124155781602001602082028036833780820191505090505b50905060008067ffffffffffffffff811115612434576124336142bd565b5b6040519080825280602002602001820160405280156124625781602001602082028036833780820191505090505b5090506040518060800160405280868152602001838152602001828152602001841515815250600a60008673ffffffffffffffffffffffffffffffffffffffff1673ffffffffffffffffffffffffffffffffffffffff16815260200190815260200160002060008201518160000190816124dc9190615188565b5060208201518160010190805190602001906124f9929190613e4f565b506040820151816002019080519060200190612516929190613e4f565b5060608201518160030160006101000a81548160ff0219169083151502179055509050505050505050565b60007f01ffc9a7000000000000000000000000000000000000000000000000000000007bffffffffffffffffffffffffffffffffffffffffffffffffffffffff1916827bffffffffffffffffffffffffffffffffffffffffffffffffffffffff1916149050919050565b6125b481613280565b6125f3576040517f08c379a00000000000000000000000000000000000000000000000000000000081526004016125ea90615338565b60405180910390fd5b50565b600033905090565b816004600083815260200190815260200160002060006101000a81548173ffffffffffffffffffffffffffffffffffffffff021916908373ffffffffffffffffffffffffffffffffffffffff160217905550808273ffffffffffffffffffffffffffffffffffffffff16612671836113ed565b73ffffffffffffffffffffffffffffffffffffffff167f8c5be1e5ebec7d5bd14f71427d1e84f3dd0314c0f7b2291e5b200ac8c7c3b92560405160405180910390a45050565b6000806000601090505b6001811061271857836001826126d79190614cbe565b815181106126e8576126e7614cf2565b5b602002602001015161ffff16601083901b612703919061573e565b9150808061271090615794565b9150506126c1565b5080915050919050565b60008061272e836113ed565b90508073ffffffffffffffffffffffffffffffffffffffff168473ffffffffffffffffffffffffffffffffffffffff161480612770575061276f8185612078565b5b806127ae57508373ffffffffffffffffffffffffffffffffffffffff1661279684610861565b73ffffffffffffffffffffffffffffffffffffffff16145b91505092915050565b8273ffffffffffffffffffffffffffffffffffffffff166127d7826113ed565b73ffffffffffffffffffffffffffffffffffffffff161461282d576040517f08c379a00000000000000000000000000000000000000000000000000000000081526004016128249061582f565b60405180910390fd5b600073ffffffffffffffffffffffffffffffffffffffff168273ffffffffffffffffffffffffffffffffffffffff160361289c576040517f08c379a0000000000000000000000000000000000000000000000000000000008152600401612893906158c1565b60405180910390fd5b6128a78383836132ec565b6128b26000826125fe565b6001600360008573ffffffffffffffffffffffffffffffffffffffff1673ffffffffffffffffffffffffffffffffffffffff16815260200190815260200160002060008282546129029190614cbe565b925050819055506001600360008473ffffffffffffffffffffffffffffffffffffffff1673ffffffffffffffffffffffffffffffffffffffff1681526020019081526020016000206000828254612959919061573e565b92505081905550816002600083815260200190815260200160002060006101000a81548173ffffffffffffffffffffffffffffffffffffffff021916908373ffffffffffffffffffffffffffffffffffffffff160217905550808273ffffffffffffffffffffffffffffffffffffffff168473ffffffffffffffffffffffffffffffffffffffff167fddf252ad1be2c89b69c2b068fc378daa952ba7f163c4a11628f55a4df523b3ef60405160405180910390a4612a1883838361356e565b505050565b612a378282604051806020016040528060008152506136b4565b5050565b612a4482613280565b612a83576040517f08c379a0000000000000000000000000000000000000000000000000000000008152600401612a7a90615953565b60405180910390fd5b80600660008481526020019081526020016000209081612aa39190615188565b505050565b60606000606467ffffffffffffffff811115612ac757612ac66142bd565b5b6040519080825280601f01601f191660200182016040528015612af95781602001600182028036833780820191505090505b50905060005b6000841115612b8857600a84612b1591906159a2565b6030612b21919061573e565b60f81b828281518110612b3757612b36614cf2565b5b60200101907effffffffffffffffffffffffffffffffffffffffffffffffffffffffffffff1916908160001a905350600a84612b7391906159d3565b93508080612b8090615a04565b915050612aff565b6000825167ffffffffffffffff811115612ba557612ba46142bd565b5b6040519080825280601f01601f191660200182016040528015612bd75781602001600182028036833780820191505090505b50905060005b8351811015612c7157836001828651612bf69190614cbe565b612c009190614cbe565b81518110612c1157612c10614cf2565b5b602001015160f81c60f81b828281518110612c2f57612c2e614cf2565b5b60200101907effffffffffffffffffffffffffffffffffffffffffffffffffffffffffffff1916908160001a9053508080612c6990615a04565b915050612bdd565b50809350505050919050565b612c856125f6565b73ffffffffffffffffffffffffffffffffffffffff16612ca36118ac565b73ffffffffffffffffffffffffffffffffffffffff1614612cf9576040517f08c379a0000000000000000000000000000000000000000000000000000000008152600401612cf090615a98565b60405180910390fd5b565b6000600760009054906101000a900473ffffffffffffffffffffffffffffffffffffffff16905081600760006101000a81548173ffffffffffffffffffffffffffffffffffffffff021916908373ffffffffffffffffffffffffffffffffffffffff1602179055508173ffffffffffffffffffffffffffffffffffffffff168173ffffffffffffffffffffffffffffffffffffffff167f8be0079c531659141344cd1fd0a4f28419497f9722a3daafe3b4186f6b6457e060405160405180910390a35050565b60006009600083815260200190815260200160002060006101000a81548160ff0219169083151502179055506040518060c0016040528060405180602001604052806000815250815260200160008152602001600073ffffffffffffffffffffffffffffffffffffffff168152602001600067ffffffffffffffff168152602001600067ffffffffffffffff16815260200160001515815250600b60008381526020019081526020016000206000820151816000019081612e829190615188565b506020820151816001015560408201518160020160006101000a81548173ffffffffffffffffffffffffffffffffffffffff021916908373ffffffffffffffffffffffffffffffffffffffff16021790555060608201518160020160146101000a81548167ffffffffffffffff021916908367ffffffffffffffff16021790555060808201518160030160006101000a81548167ffffffffffffffff021916908367ffffffffffffffff16021790555060a08201518160030160086101000a81548160ff021916908315150217905550905050612f6e8160405180602001604052806000815250612a3b565b612f778161370f565b50565b8173ffffffffffffffffffffffffffffffffffffffff168373ffffffffffffffffffffffffffffffffffffffff1603612fe8576040517f08c379a0000000000000000000000000000000000000000000000000000000008152600401612fdf90615b04565b60405180910390fd5b80600560008573ffffffffffffffffffffffffffffffffffffffff1673ffffffffffffffffffffffffffffffffffffffff16815260200190815260200160002060008473ffffffffffffffffffffffffffffffffffffffff1673ffffffffffffffffffffffffffffffffffffffff16815260200190815260200160002060006101000a81548160ff0219169083151502179055508173ffffffffffffffffffffffffffffffffffffffff168373ffffffffffffffffffffffffffffffffffffffff167f17307eab39ab6107e8899845ad3d59bd9653f200f220920489ca2b5937696c31836040516130d99190613fad565b60405180910390a3505050565b606082826040516020016130fb929190615b70565b604051602081830303815290604052905092915050565b61311d8484846127b7565b6131298484848461371b565b613168576040517f08c379a000000000000000000000000000000000000000000000000000000000815260040161315f90615c11565b60405180910390fd5b50505050565b6060613179826125ab565b600060066000848152602001908152602001600020805461319990614b3a565b80601f01602080910402602001604051908101604052809291908181526020018280546131c590614b3a565b80156132125780601f106131e757610100808354040283529160200191613212565b820191906000526020600020905b8154815290600101906020018083116131f557829003601f168201915b5050505050905060006132236138a2565b9050600081510361323857819250505061327b565b60008251111561326d578082604051602001613255929190615c31565b6040516020818303038152906040529250505061327b565b613276846138b9565b925050505b919050565b60008073ffffffffffffffffffffffffffffffffffffffff166002600084815260200190815260200160002060009054906101000a900473ffffffffffffffffffffffffffffffffffffffff1673ffffffffffffffffffffffffffffffffffffffff1614159050919050565b600073ffffffffffffffffffffffffffffffffffffffff168373ffffffffffffffffffffffffffffffffffffffff16146135695760005b600a60008573ffffffffffffffffffffffffffffffffffffffff1673ffffffffffffffffffffffffffffffffffffffff168152602001908152602001600020600101805490508110156135675781600a60008673ffffffffffffffffffffffffffffffffffffffff1673ffffffffffffffffffffffffffffffffffffffff16815260200190815260200160002060010182815481106133c5576133c4614cf2565b5b90600052602060002001540361355457600a60008573ffffffffffffffffffffffffffffffffffffffff1673ffffffffffffffffffffffffffffffffffffffff1681526020019081526020016000206001016001600a60008773ffffffffffffffffffffffffffffffffffffffff1673ffffffffffffffffffffffffffffffffffffffff168152602001908152602001600020600101805490506134699190614cbe565b8154811061347a57613479614cf2565b5b9060005260206000200154600a60008673ffffffffffffffffffffffffffffffffffffffff1673ffffffffffffffffffffffffffffffffffffffff16815260200190815260200160002060010182815481106134d9576134d8614cf2565b5b9060005260206000200181905550600a60008573ffffffffffffffffffffffffffffffffffffffff1673ffffffffffffffffffffffffffffffffffffffff16815260200190815260200160002060010180548061353957613538615c55565b5b60019003818190600052602060002001600090559055613567565b808061355f90615a04565b915050613323565b505b505050565b600073ffffffffffffffffffffffffffffffffffffffff168273ffffffffffffffffffffffffffffffffffffffff16146136af57600a60008373ffffffffffffffffffffffffffffffffffffffff1673ffffffffffffffffffffffffffffffffffffffff168152602001908152602001600020600101819080600181540180825580915050600190039060005260206000200160009091909190915055600c6000828152602001908152602001600020829080600181540180825580915050600190039060005260206000200160009091909190916101000a81548173ffffffffffffffffffffffffffffffffffffffff021916908373ffffffffffffffffffffffffffffffffffffffff1602179055506000600b600083815260200190815260200160002060030160086101000a81548160ff0219169083151502179055505b505050565b6136be8383613921565b6136cb600084848461371b565b61370a576040517f08c379a000000000000000000000000000000000000000000000000000000000815260040161370190615c11565b60405180910390fd5b505050565b61371881613afa565b50565b600061373c8473ffffffffffffffffffffffffffffffffffffffff16613b4d565b15613895578373ffffffffffffffffffffffffffffffffffffffff1663150b7a026137656125f6565b8786866040518563ffffffff1660e01b81526004016137879493929190615cd9565b6020604051808303816000875af19250505080156137c357506040513d601f19601f820116820180604052508101906137c09190615d3a565b60015b613845573d80600081146137f3576040519150601f19603f3d011682016040523d82523d6000602084013e6137f8565b606091505b50600081510361383d576040517f08c379a000000000000000000000000000000000000000000000000000000000815260040161383490615c11565b60405180910390fd5b805181602001fd5b63150b7a0260e01b7bffffffffffffffffffffffffffffffffffffffffffffffffffffffff1916817bffffffffffffffffffffffffffffffffffffffffffffffffffffffff19161491505061389a565b600190505b949350505050565b606060405180602001604052806000815250905090565b60606138c4826125ab565b60006138ce6138a2565b905060008151116138ee5760405180602001604052806000815250613919565b806138f884613b70565b604051602001613909929190615c31565b6040516020818303038152906040525b915050919050565b600073ffffffffffffffffffffffffffffffffffffffff168273ffffffffffffffffffffffffffffffffffffffff1603613990576040517f08c379a000000000000000000000000000000000000000000000000000000000815260040161398790615db3565b60405180910390fd5b61399981613280565b156139d9576040517f08c379a00000000000000000000000000000000000000000000000000000000081526004016139d090615e1f565b60405180910390fd5b6139e5600083836132ec565b6001600360008473ffffffffffffffffffffffffffffffffffffffff1673ffffffffffffffffffffffffffffffffffffffff1681526020019081526020016000206000828254613a35919061573e565b92505081905550816002600083815260200190815260200160002060006101000a81548173ffffffffffffffffffffffffffffffffffffffff021916908373ffffffffffffffffffffffffffffffffffffffff160217905550808273ffffffffffffffffffffffffffffffffffffffff16600073ffffffffffffffffffffffffffffffffffffffff167fddf252ad1be2c89b69c2b068fc378daa952ba7f163c4a11628f55a4df523b3ef60405160405180910390a4613af66000838361356e565b5050565b613b0381613cd0565b6000600660008381526020019081526020016000208054613b2390614b3a565b905014613b4a57600660008281526020019081526020016000206000613b499190613e9c565b5b50565b6000808273ffffffffffffffffffffffffffffffffffffffff163b119050919050565b606060008203613bb7576040518060400160405280600181526020017f30000000000000000000000000000000000000000000000000000000000000008152509050613ccb565b600082905060005b60008214613be9578080613bd290615a04565b915050600a82613be291906159d3565b9150613bbf565b60008167ffffffffffffffff811115613c0557613c046142bd565b5b6040519080825280601f01601f191660200182016040528015613c375781602001600182028036833780820191505090505b5090505b60008514613cc457600182613c509190614cbe565b9150600a85613c5f91906159a2565b6030613c6b919061573e565b60f81b818381518110613c8157613c80614cf2565b5b60200101907effffffffffffffffffffffffffffffffffffffffffffffffffffffffffffff1916908160001a905350600a85613cbd91906159d3565b9450613c3b565b8093505050505b919050565b6000613cdb826113ed565b9050613ce9816000846132ec565b613cf46000836125fe565b6001600360008373ffffffffffffffffffffffffffffffffffffffff1673ffffffffffffffffffffffffffffffffffffffff1681526020019081526020016000206000828254613d449190614cbe565b925050819055506002600083815260200190815260200160002060006101000a81549073ffffffffffffffffffffffffffffffffffffffff021916905581600073ffffffffffffffffffffffffffffffffffffffff168273ffffffffffffffffffffffffffffffffffffffff167fddf252ad1be2c89b69c2b068fc378daa952ba7f163c4a11628f55a4df523b3ef60405160405180910390a4613de98160008461356e565b5050565b6040518060c001604052806060815260200160008152602001600073ffffffffffffffffffffffffffffffffffffffff168152602001600067ffffffffffffffff168152602001600067ffffffffffffffff1681526020016000151581525090565b828054828255906000526020600020908101928215613e8b579160200282015b82811115613e8a578251825591602001919060010190613e6f565b5b509050613e989190613edc565b5090565b508054613ea890614b3a565b6000825580601f10613eba5750613ed9565b601f016020900490600052602060002090810190613ed89190613edc565b5b50565b5b80821115613ef5576000816000905550600101613edd565b5090565b6000604051905090565b600080fd5b600080fd5b60007fffffffff0000000000000000000000000000000000000000000000000000000082169050919050565b613f4281613f0d565b8114613f4d57600080fd5b50565b600081359050613f5f81613f39565b92915050565b600060208284031215613f7b57613f7a613f03565b5b6000613f8984828501613f50565b91505092915050565b60008115159050919050565b613fa781613f92565b82525050565b6000602082019050613fc26000830184613f9e565b92915050565b600081519050919050565b600082825260208201905092915050565b6000819050602082019050919050565b6000819050919050565b61400781613ff4565b82525050565b60006140198383613ffe565b60208301905092915050565b6000602082019050919050565b600061403d82613fc8565b6140478185613fd3565b935061405283613fe4565b8060005b8381101561408357815161406a888261400d565b975061407583614025565b925050600181019050614056565b5085935050505092915050565b600060208201905081810360008301526140aa8184614032565b905092915050565b600081519050919050565b600082825260208201905092915050565b60005b838110156140ec5780820151818401526020810190506140d1565b838111156140fb576000848401525b50505050565b6000601f19601f8301169050919050565b600061411d826140b2565b61412781856140bd565b93506141378185602086016140ce565b61414081614101565b840191505092915050565b600060208201905081810360008301526141658184614112565b905092915050565b61417681613ff4565b811461418157600080fd5b50565b6000813590506141938161416d565b92915050565b6000602082840312156141af576141ae613f03565b5b60006141bd84828501614184565b91505092915050565b600073ffffffffffffffffffffffffffffffffffffffff82169050919050565b60006141f1826141c6565b9050919050565b614201816141e6565b82525050565b600060208201905061421c60008301846141f8565b92915050565b61422b816141e6565b811461423657600080fd5b50565b60008135905061424881614222565b92915050565b6000806040838503121561426557614264613f03565b5b600061427385828601614239565b925050602061428485828601614184565b9150509250929050565b61429781613ff4565b82525050565b60006020820190506142b2600083018461428e565b92915050565b600080fd5b7f4e487b7100000000000000000000000000000000000000000000000000000000600052604160045260246000fd5b6142f582614101565b810181811067ffffffffffffffff82111715614314576143136142bd565b5b80604052505050565b6000614327613ef9565b905061433382826142ec565b919050565b600067ffffffffffffffff821115614353576143526142bd565b5b602082029050602081019050919050565b600080fd5b600061ffff82169050919050565b61438081614369565b811461438b57600080fd5b50565b60008135905061439d81614377565b92915050565b60006143b66143b184614338565b61431d565b905080838252602082019050602084028301858111156143d9576143d8614364565b5b835b8181101561440257806143ee888261438e565b8452602084019350506020810190506143db565b5050509392505050565b600082601f830112614421576144206142b8565b5b81356144318482602086016143a3565b91505092915050565b6000602082840312156144505761444f613f03565b5b600082013567ffffffffffffffff81111561446e5761446d613f08565b5b61447a8482850161440c565b91505092915050565b60008060006060848603121561449c5761449b613f03565b5b60006144aa86828701614239565b93505060206144bb86828701614239565b92505060406144cc86828701614184565b9150509250925092565b600080fd5b600067ffffffffffffffff8211156144f6576144f56142bd565b5b6144ff82614101565b9050602081019050919050565b82818337600083830152505050565b600061452e614529846144db565b61431d565b90508281526020810184848401111561454a576145496144d6565b5b61455584828561450c565b509392505050565b600082601f830112614572576145716142b8565b5b813561458284826020860161451b565b91505092915050565b600067ffffffffffffffff82169050919050565b6145a88161458b565b81146145b357600080fd5b50565b6000813590506145c58161459f565b92915050565b60008060008060008060c087890312156145e8576145e7613f03565b5b600087013567ffffffffffffffff81111561460657614605613f08565b5b61461289828a0161455d565b965050602061462389828a01614184565b955050604061463489828a01614239565b945050606087013567ffffffffffffffff81111561465557614654613f08565b5b61466189828a0161440c565b935050608087013567ffffffffffffffff81111561468257614681613f08565b5b61468e89828a0161455d565b92505060a061469f89828a016145b6565b9150509295509295509295565b600081519050919050565b600082825260208201905092915050565b6000819050602082019050919050565b6146e1816141e6565b82525050565b60006146f383836146d8565b60208301905092915050565b6000602082019050919050565b6000614717826146ac565b61472181856146b7565b935061472c836146c8565b8060005b8381101561475d57815161474488826146e7565b975061474f836146ff565b925050600181019050614730565b5085935050505092915050565b60006020820190508181036000830152614784818461470c565b905092915050565b6000602082840312156147a2576147a1613f03565b5b60006147b084828501614239565b91505092915050565b6147c281613f92565b81146147cd57600080fd5b50565b6000813590506147df816147b9565b92915050565b600080604083850312156147fc576147fb613f03565b5b600061480a85828601614239565b925050602061481b858286016147d0565b9150509250929050565b600082825260208201905092915050565b6000614841826140b2565b61484b8185614825565b935061485b8185602086016140ce565b61486481614101565b840191505092915050565b6148788161458b565b82525050565b61488781613f92565b82525050565b600060c08301600083015184820360008601526148aa8282614836565b91505060208301516148bf6020860182613ffe565b5060408301516148d260408601826146d8565b5060608301516148e5606086018261486f565b5060808301516148f8608086018261486f565b5060a083015161490b60a086018261487e565b508091505092915050565b60006020820190508181036000830152614930818461488d565b905092915050565b600067ffffffffffffffff821115614953576149526142bd565b5b61495c82614101565b9050602081019050919050565b600061497c61497784614938565b61431d565b905082815260208101848484011115614998576149976144d6565b5b6149a384828561450c565b509392505050565b600082601f8301126149c0576149bf6142b8565b5b81356149d0848260208601614969565b91505092915050565b600080600080608085870312156149f3576149f2613f03565b5b6000614a0187828801614239565b9450506020614a1287828801614239565b9350506040614a2387828801614184565b925050606085013567ffffffffffffffff811115614a4457614a43613f08565b5b614a50878288016149ab565b91505092959194509250565b60008060408385031215614a7357614a72613f03565b5b6000614a8185828601614239565b9250506020614a9285828601614239565b9150509250929050565b600080600060608486031215614ab557614ab4613f03565b5b600084013567ffffffffffffffff811115614ad357614ad2613f08565b5b614adf8682870161455d565b9350506020614af086828701614239565b9250506040614b01868287016147d0565b9150509250925092565b7f4e487b7100000000000000000000000000000000000000000000000000000000600052602260045260246000fd5b60006002820490506001821680614b5257607f821691505b602082108103614b6557614b64614b0b565b5b50919050565b7f4552433732313a20617070726f76616c20746f2063757272656e74206f776e6560008201527f7200000000000000000000000000000000000000000000000000000000000000602082015250565b6000614bc76021836140bd565b9150614bd282614b6b565b604082019050919050565b60006020820190508181036000830152614bf681614bba565b9050919050565b7f4552433732313a20617070726f76652063616c6c6572206973206e6f7420746f60008201527f6b656e206f776e6572206e6f7220617070726f76656420666f7220616c6c0000602082015250565b6000614c59603e836140bd565b9150614c6482614bfd565b604082019050919050565b60006020820190508181036000830152614c8881614c4c565b9050919050565b7f4e487b7100000000000000000000000000000000000000000000000000000000600052601160045260246000fd5b6000614cc982613ff4565b9150614cd483613ff4565b925082821015614ce757614ce6614c8f565b5b828203905092915050565b7f4e487b7100000000000000000000000000000000000000000000000000000000600052603260045260246000fd5b7f204f6e6c7920746865206f776e6572206f6620746869732070726f647563742060008201527f63616e2061636365737320746869730000000000000000000000000000000000602082015250565b6000614d7d602f836140bd565b9150614d8882614d21565b604082019050919050565b60006020820190508181036000830152614dac81614d70565b9050919050565b7f4f6e6c792072656769737465726564206d656d6265727320616c6c6f77656400600082015250565b6000614de9601f836140bd565b9150614df482614db3565b602082019050919050565b60006020820190508181036000830152614e1881614ddc565b9050919050565b7f4f6e6c792073656c6c6172732063616e20616363657373207468697300000000600082015250565b6000614e55601c836140bd565b9150614e6082614e1f565b602082019050919050565b60006020820190508181036000830152614e8481614e48565b9050919050565b7f4552433732313a2063616c6c6572206973206e6f7420746f6b656e206f776e6560008201527f72206e6f7220617070726f766564000000000000000000000000000000000000602082015250565b6000614ee7602e836140bd565b9150614ef282614e8b565b604082019050919050565b60006020820190508181036000830152614f1681614eda565b9050919050565b600081905092915050565b6000614f33826140b2565b614f3d8185614f1d565b9350614f4d8185602086016140ce565b80840191505092915050565b6000614f658284614f28565b915081905092915050565b7f55524920616c726561647920696e207573652e00000000000000000000000000600082015250565b6000614fa66013836140bd565b9150614fb182614f70565b602082019050919050565b60006020820190508181036000830152614fd581614f99565b9050919050565b60008190508160005260206000209050919050565b60006020601f8301049050919050565b600082821b905092915050565b60006008830261503e7fffffffffffffffffffffffffffffffffffffffffffffffffffffffffffffffff82615001565b6150488683615001565b95508019841693508086168417925050509392505050565b6000819050919050565b600061508561508061507b84613ff4565b615060565b613ff4565b9050919050565b6000819050919050565b61509f8361506a565b6150b36150ab8261508c565b84845461500e565b825550505050565b600090565b6150c86150bb565b6150d3818484615096565b505050565b5b818110156150f7576150ec6000826150c0565b6001810190506150d9565b5050565b601f82111561513c5761510d81614fdc565b61511684614ff1565b81016020851015615125578190505b61513961513185614ff1565b8301826150d8565b50505b505050565b600082821c905092915050565b600061515f60001984600802615141565b1980831691505092915050565b6000615178838361514e565b9150826002028217905092915050565b615191826140b2565b67ffffffffffffffff8111156151aa576151a96142bd565b5b6151b48254614b3a565b6151bf8282856150fb565b600060209050601f8311600181146151f257600084156151e0578287015190505b6151ea858261516c565b865550615252565b601f19841661520086614fdc565b60005b8281101561522857848901518255600182019150602085019450602081019050615203565b868310156152455784890151615241601f89168261514e565b8355505b6001600288020188555050505b505050505050565b7f46756e6374696f6e2061636365737369626c65206f6e6c79206279207468652060008201527f6d656d626572206f6620746865206272616e6421210000000000000000000000602082015250565b60006152b66035836140bd565b91506152c18261525a565b604082019050919050565b600060208201905081810360008301526152e5816152a9565b9050919050565b7f4552433732313a20696e76616c696420746f6b656e2049440000000000000000600082015250565b60006153226018836140bd565b915061532d826152ec565b602082019050919050565b6000602082019050818103600083015261535181615315565b9050919050565b7f4552433732313a2061646472657373207a65726f206973206e6f74206120766160008201527f6c6964206f776e65720000000000000000000000000000000000000000000000602082015250565b60006153b46029836140bd565b91506153bf82615358565b604082019050919050565b600060208201905081810360008301526153e3816153a7565b9050919050565b7f416c6c206c6963656e736573206e65656420746f20657870697265206265666f60008201527f7265206c656176696e672074686520627573696e657373000000000000000000602082015250565b60006154466037836140bd565b9150615451826153ea565b604082019050919050565b6000602082019050818103600083015261547581615439565b9050919050565b60006154878261458b565b91506154928361458b565b9250828210156154a5576154a4614c8f565b5b828203905092915050565b7f4c6963656e736520697320616c72656164792065787069726564000000000000600082015250565b60006154e6601a836140bd565b91506154f1826154b0565b602082019050919050565b60006020820190508181036000830152615515816154d9565b9050919050565b7f4f6e6c7920746865206f776e6572206f6620746869732061646472657373206360008201527f616e2073656520697427732064657461696c7300000000000000000000000000602082015250565b60006155786033836140bd565b91506155838261551c565b604082019050919050565b600060208201905081810360008301526155a78161556b565b9050919050565b7f50726f64756374206d757374206265206f6e2073616c6520746f20616363657360008201527f7320746869730000000000000000000000000000000000000000000000000000602082015250565b600061560a6026836140bd565b9150615615826155ae565b604082019050919050565b60006020820190508181036000830152615639816155fd565b9050919050565b7f4f776e61626c653a206e6577206f776e657220697320746865207a65726f206160008201527f6464726573730000000000000000000000000000000000000000000000000000602082015250565b600061569c6026836140bd565b91506156a782615640565b604082019050919050565b600060208201905081810360008301526156cb8161568f565b9050919050565b7f4164647265737320616c72656164792072656769737465726564000000000000600082015250565b6000615708601a836140bd565b9150615713826156d2565b602082019050919050565b60006020820190508181036000830152615737816156fb565b9050919050565b600061574982613ff4565b915061575483613ff4565b9250827fffffffffffffffffffffffffffffffffffffffffffffffffffffffffffffffff0382111561578957615788614c8f565b5b828201905092915050565b600061579f82613ff4565b9150600082036157b2576157b1614c8f565b5b600182039050919050565b7f4552433732313a207472616e736665722066726f6d20696e636f72726563742060008201527f6f776e6572000000000000000000000000000000000000000000000000000000602082015250565b60006158196025836140bd565b9150615824826157bd565b604082019050919050565b600060208201905081810360008301526158488161580c565b9050919050565b7f4552433732313a207472616e7366657220746f20746865207a65726f2061646460008201527f7265737300000000000000000000000000000000000000000000000000000000602082015250565b60006158ab6024836140bd565b91506158b68261584f565b604082019050919050565b600060208201905081810360008301526158da8161589e565b9050919050565b7f45524337323155524953746f726167653a2055524920736574206f66206e6f6e60008201527f6578697374656e7420746f6b656e000000000000000000000000000000000000602082015250565b600061593d602e836140bd565b9150615948826158e1565b604082019050919050565b6000602082019050818103600083015261596c81615930565b9050919050565b7f4e487b7100000000000000000000000000000000000000000000000000000000600052601260045260246000fd5b60006159ad82613ff4565b91506159b883613ff4565b9250826159c8576159c7615973565b5b828206905092915050565b60006159de82613ff4565b91506159e983613ff4565b9250826159f9576159f8615973565b5b828204905092915050565b6000615a0f82613ff4565b91507fffffffffffffffffffffffffffffffffffffffffffffffffffffffffffffffff8203615a4157615a40614c8f565b5b600182019050919050565b7f4f776e61626c653a2063616c6c6572206973206e6f7420746865206f776e6572600082015250565b6000615a826020836140bd565b9150615a8d82615a4c565b602082019050919050565b60006020820190508181036000830152615ab181615a75565b9050919050565b7f4552433732313a20617070726f766520746f2063616c6c657200000000000000600082015250565b6000615aee6019836140bd565b9150615af982615ab8565b602082019050919050565b60006020820190508181036000830152615b1d81615ae1565b9050919050565b7f2000000000000000000000000000000000000000000000000000000000000000600082015250565b6000615b5a600183614f1d565b9150615b6582615b24565b600182019050919050565b6000615b7c8285614f28565b9150615b8782615b4d565b9150615b938284614f28565b91508190509392505050565b7f4552433732313a207472616e7366657220746f206e6f6e20455243373231526560008201527f63656976657220696d706c656d656e7465720000000000000000000000000000602082015250565b6000615bfb6032836140bd565b9150615c0682615b9f565b604082019050919050565b60006020820190508181036000830152615c2a81615bee565b9050919050565b6000615c3d8285614f28565b9150615c498284614f28565b91508190509392505050565b7f4e487b7100000000000000000000000000000000000000000000000000000000600052603160045260246000fd5b600081519050919050565b600082825260208201905092915050565b6000615cab82615c84565b615cb58185615c8f565b9350615cc58185602086016140ce565b615cce81614101565b840191505092915050565b6000608082019050615cee60008301876141f8565b615cfb60208301866141f8565b615d08604083018561428e565b8181036060830152615d1a8184615ca0565b905095945050505050565b600081519050615d3481613f39565b92915050565b600060208284031215615d5057615d4f613f03565b5b6000615d5e84828501615d25565b91505092915050565b7f4552433732313a206d696e7420746f20746865207a65726f2061646472657373600082015250565b6000615d9d6020836140bd565b9150615da882615d67565b602082019050919050565b60006020820190508181036000830152615dcc81615d90565b9050919050565b7f4552433732313a20746f6b656e20616c7265616479206d696e74656400000000600082015250565b6000615e09601c836140bd565b9150615e1482615dd3565b602082019050919050565b60006020820190508181036000830152615e3881615dfc565b905091905056fea2646970667358221220bea0c270fd8f6b8fd5f68ba514f5a7bbc4bca61e5cfe1ee8fb23880721c7dff064736f6c634300080f0033",
  "immutableReferences": {},
  "source": "// SPDX-License-Identifier: MIT\npragma solidity ^0.8.4;\n\nimport \"@openzeppelin/contracts/token/ERC721/ERC721.sol\";\nimport \"@openzeppelin/contracts/token/ERC721/extensions/ERC721URIStorage.sol\";\nimport \"./Ownership.sol\";\nimport \"./Misc.sol\";\n\ncontract License is ERC721, ERC721URIStorage, Whitelist {\n    mapping(string => bool) private existingURIs;\n    mapping(address => string) private addressURIMap;\n\n    constructor() ERC721(\"License\", \"License\") {}\n\n    // function _baseURI() internal pure override returns (string memory) {\n    //     return \"ipfs://\";\n    // }\n\n    uint256 public time;\n\n    function getTime() public view returns (string memory) {\n        return uintToString(time);\n    }\n\n    function mint(\n        string memory name,\n        uint256 serialID,\n        address to,\n        uint16[] memory seeds,\n        string memory uri,\n        uint64 secs\n    ) public onlyRegistered onlySellar(msg.sender) {\n        require(usedBrandIDs[to], \"Only registered members allowed\");\n        require(!existingURIs[uri], \"URI already in use.\");\n        uint256 tokenId = combine(seeds);\n        addSerial(tokenId);\n        _safeMint(to, tokenId);\n        _setTokenURI(tokenId, uri);\n        existingURIs[uri] = true;\n        serialProductMap[tokenId] = product(\n            name,\n            serialID,\n            msg.sender,\n            uint64(block.timestamp),\n            secs,\n            false\n        );\n        time = block.timestamp;\n    }\n\n    function safeBurn(uint256 tokenId) internal {\n        usedSerials[tokenId] = false;\n        serialProductMap[tokenId] = product(\n            \"\",\n            0,\n            address(0),\n            uint64(0),\n            uint64(0),\n            false\n        );\n        _setTokenURI(tokenId, \"\");\n        _burn(tokenId);\n    }\n\n    function _burn(uint256 tokenId)\n        internal\n        override(ERC721, ERC721URIStorage)\n    {\n        super._burn(tokenId);\n    }\n\n    function getTokenURI() public view returns (string memory) {\n        return addressURIMap[msg.sender];\n    }\n\n    function setTokenURI(uint16[] memory parts) public returns (string memory) {\n        uint64 current = uint64(block.timestamp);\n        uint256 tokenId = combine(parts);\n        if (\n            (current - serialProductMap[tokenId].birthtime) >=\n            serialProductMap[tokenId].lifespan\n        ) {\n            safeBurn(tokenId);\n            require(false, \"License is already expired\");\n        }\n        addressURIMap[msg.sender] = tokenURI(tokenId);\n    }\n\n    function tokenURI(uint256 tokenId)\n        public\n        view\n        override(ERC721, ERC721URIStorage)\n        returns (string memory)\n    {\n        require(\n            msg.sender == serialProductMap[tokenId].sellar ||\n                msg.sender ==\n                serialOwnerListMap[tokenId][\n                    serialOwnerListMap[tokenId].length - 1\n                ],\n            \"Only the owner of this address can see it's details\"\n        );\n        uint64 current = uint64(block.timestamp);\n        if (\n            (current - serialProductMap[tokenId].birthtime) <\n            serialProductMap[tokenId].lifespan\n        ) {\n            return super.tokenURI(tokenId);\n            // return uintToString(current);\n        }\n        return \"Illegal Access\";\n    }\n\n    function _beforeTokenTransfer(\n        address from,\n        address to,\n        uint256 serial\n    ) internal virtual override {\n        if (from != address(0)) {\n            uint256 i;\n            for (i = 0; i < addressUserMap[from].boughtList.length; i++) {\n                if (addressUserMap[from].boughtList[i] == serial) {\n                    addressUserMap[from].boughtList[i] = addressUserMap[from]\n                        .boughtList[addressUserMap[from].boughtList.length - 1];\n                    addressUserMap[from].boughtList.pop();\n                    break;\n                }\n            }\n        }\n    }\n\n    function _afterTokenTransfer(\n        address from,\n        address to,\n        uint256 serial\n    ) internal virtual override {\n        if (to != address(0)) {\n            addressUserMap[to].boughtList.push(serial);\n            serialOwnerListMap[serial].push(to);\n            serialProductMap[serial].onSale = false;\n        }\n    }\n}\n",
  "sourcePath": "/Users/monjoy/Desktop/LicenseNFT/smart_contract/contracts/License.sol",
  "compiler": {
    "name": "solc",
    "version": "0.8.15+commit.e14f2714.Emscripten.clang"
  },
  "schemaVersion": "3.4.8",
  "updatedAt": "2022-07-24T06:25:59.201Z",
  "networkType": "ethereum",
  "devdoc": {
    "kind": "dev",
    "methods": {
      "approve(address,uint256)": {
        "details": "See {IERC721-approve}."
      },
      "balanceOf(address)": {
        "details": "See {IERC721-balanceOf}."
      },
      "getApproved(uint256)": {
        "details": "See {IERC721-getApproved}."
      },
      "isApprovedForAll(address,address)": {
        "details": "See {IERC721-isApprovedForAll}."
      },
      "name()": {
        "details": "See {IERC721Metadata-name}."
      },
      "owner()": {
        "details": "Returns the address of the current owner."
      },
      "ownerOf(uint256)": {
        "details": "See {IERC721-ownerOf}."
      },
      "renounceOwnership()": {
        "details": "Leaves the contract without owner. It will not be possible to call `onlyOwner` functions anymore. Can only be called by the current owner. NOTE: Renouncing ownership will leave the contract without an owner, thereby removing any functionality that is only available to the owner."
      },
      "safeTransferFrom(address,address,uint256)": {
        "details": "See {IERC721-safeTransferFrom}."
      },
      "safeTransferFrom(address,address,uint256,bytes)": {
        "details": "See {IERC721-safeTransferFrom}."
      },
      "setApprovalForAll(address,bool)": {
        "details": "See {IERC721-setApprovalForAll}."
      },
      "supportsInterface(bytes4)": {
        "details": "See {IERC165-supportsInterface}."
      },
      "symbol()": {
        "details": "See {IERC721Metadata-symbol}."
      },
      "transferFrom(address,address,uint256)": {
        "details": "See {IERC721-transferFrom}."
      },
      "transferOwnership(address)": {
        "details": "Transfers ownership of the contract to a new account (`newOwner`). Can only be called by the current owner."
      }
    },
    "version": 1
  },
  "userdoc": {
    "kind": "user",
    "methods": {},
    "version": 1
  }
}