{
  "contractName": "License",
  "abi": [
    {
      "inputs": [],
      "stateMutability": "nonpayable",
      "type": "constructor"
    },
    {
      "anonymous": false,
      "inputs": [
        {
          "indexed": true,
          "internalType": "address",
          "name": "owner",
          "type": "address"
        },
        {
          "indexed": true,
          "internalType": "address",
          "name": "approved",
          "type": "address"
        },
        {
          "indexed": true,
          "internalType": "uint256",
          "name": "tokenId",
          "type": "uint256"
        }
      ],
      "name": "Approval",
      "type": "event"
    },
    {
      "anonymous": false,
      "inputs": [
        {
          "indexed": true,
          "internalType": "address",
          "name": "owner",
          "type": "address"
        },
        {
          "indexed": true,
          "internalType": "address",
          "name": "operator",
          "type": "address"
        },
        {
          "indexed": false,
          "internalType": "bool",
          "name": "approved",
          "type": "bool"
        }
      ],
      "name": "ApprovalForAll",
      "type": "event"
    },
    {
      "anonymous": false,
      "inputs": [
        {
          "indexed": true,
          "internalType": "address",
          "name": "previousOwner",
          "type": "address"
        },
        {
          "indexed": true,
          "internalType": "address",
          "name": "newOwner",
          "type": "address"
        }
      ],
      "name": "OwnershipTransferred",
      "type": "event"
    },
    {
      "anonymous": false,
      "inputs": [
        {
          "indexed": true,
          "internalType": "address",
          "name": "from",
          "type": "address"
        },
        {
          "indexed": true,
          "internalType": "address",
          "name": "to",
          "type": "address"
        },
        {
          "indexed": true,
          "internalType": "uint256",
          "name": "tokenId",
          "type": "uint256"
        }
      ],
      "name": "Transfer",
      "type": "event"
    },
    {
      "inputs": [
        {
          "internalType": "uint256",
          "name": "serial",
          "type": "uint256"
        }
      ],
      "name": "addSerial",
      "outputs": [],
      "stateMutability": "nonpayable",
      "type": "function"
    },
    {
      "inputs": [
        {
          "internalType": "string",
          "name": "name",
          "type": "string"
        },
        {
          "internalType": "address",
          "name": "_member",
          "type": "address"
        },
        {
          "internalType": "bool",
          "name": "isSellar",
          "type": "bool"
        }
      ],
      "name": "addUser",
      "outputs": [],
      "stateMutability": "nonpayable",
      "type": "function"
    },
    {
      "inputs": [
        {
          "internalType": "address",
          "name": "to",
          "type": "address"
        },
        {
          "internalType": "uint256",
          "name": "tokenId",
          "type": "uint256"
        }
      ],
      "name": "approve",
      "outputs": [],
      "stateMutability": "nonpayable",
      "type": "function"
    },
    {
      "inputs": [
        {
          "internalType": "address",
          "name": "owner",
          "type": "address"
        }
      ],
      "name": "balanceOf",
      "outputs": [
        {
          "internalType": "uint256",
          "name": "",
          "type": "uint256"
        }
      ],
      "stateMutability": "view",
      "type": "function",
      "constant": true
    },
    {
      "inputs": [
        {
          "internalType": "uint256",
          "name": "tokenId",
          "type": "uint256"
        }
      ],
      "name": "getApproved",
      "outputs": [
        {
          "internalType": "address",
          "name": "",
          "type": "address"
        }
      ],
      "stateMutability": "view",
      "type": "function",
      "constant": true
    },
    {
      "inputs": [],
      "name": "getBoughtLicenses",
      "outputs": [
        {
          "internalType": "uint256[]",
          "name": "",
          "type": "uint256[]"
        }
      ],
      "stateMutability": "view",
      "type": "function",
      "constant": true
    },
    {
      "inputs": [],
      "name": "getIssuedLicense",
      "outputs": [
        {
          "internalType": "uint256[]",
          "name": "",
          "type": "uint256[]"
        }
      ],
      "stateMutability": "view",
      "type": "function",
      "constant": true
    },
    {
      "inputs": [],
      "name": "getName",
      "outputs": [
        {
          "internalType": "string",
          "name": "",
          "type": "string"
        }
      ],
      "stateMutability": "view",
      "type": "function",
      "constant": true
    },
    {
      "inputs": [
        {
          "internalType": "uint16[]",
          "name": "parts",
          "type": "uint16[]"
        }
      ],
      "name": "getProduct",
      "outputs": [
        {
          "components": [
            {
              "internalType": "string",
              "name": "name",
              "type": "string"
            },
            {
              "internalType": "address",
              "name": "sellar",
              "type": "address"
            },
            {
              "internalType": "address[]",
              "name": "ownerList",
              "type": "address[]"
            },
            {
              "internalType": "uint64",
              "name": "birthtime",
              "type": "uint64"
            },
            {
              "internalType": "uint24",
              "name": "lifespan",
              "type": "uint24"
            }
          ],
          "internalType": "struct Whitelist.product",
          "name": "",
          "type": "tuple"
        }
      ],
      "stateMutability": "view",
      "type": "function",
      "constant": true
    },
    {
      "inputs": [
        {
          "internalType": "address",
          "name": "owner",
          "type": "address"
        },
        {
          "internalType": "address",
          "name": "operator",
          "type": "address"
        }
      ],
      "name": "isApprovedForAll",
      "outputs": [
        {
          "internalType": "bool",
          "name": "",
          "type": "bool"
        }
      ],
      "stateMutability": "view",
      "type": "function",
      "constant": true
    },
    {
      "inputs": [],
      "name": "isRegistered",
      "outputs": [],
      "stateMutability": "view",
      "type": "function",
      "constant": true
    },
    {
      "inputs": [],
      "name": "kickSellar",
      "outputs": [],
      "stateMutability": "nonpayable",
      "type": "function"
    },
    {
      "inputs": [],
      "name": "makeSellar",
      "outputs": [],
      "stateMutability": "nonpayable",
      "type": "function"
    },
    {
      "inputs": [],
      "name": "name",
      "outputs": [
        {
          "internalType": "string",
          "name": "",
          "type": "string"
        }
      ],
      "stateMutability": "view",
      "type": "function",
      "constant": true
    },
    {
      "inputs": [],
      "name": "owner",
      "outputs": [
        {
          "internalType": "address",
          "name": "",
          "type": "address"
        }
      ],
      "stateMutability": "view",
      "type": "function",
      "constant": true
    },
    {
      "inputs": [
        {
          "internalType": "uint256",
          "name": "tokenId",
          "type": "uint256"
        }
      ],
      "name": "ownerOf",
      "outputs": [
        {
          "internalType": "address",
          "name": "",
          "type": "address"
        }
      ],
      "stateMutability": "view",
      "type": "function",
      "constant": true
    },
    {
      "inputs": [],
      "name": "renounceOwnership",
      "outputs": [],
      "stateMutability": "nonpayable",
      "type": "function"
    },
    {
      "inputs": [
        {
          "internalType": "address",
          "name": "from",
          "type": "address"
        },
        {
          "internalType": "address",
          "name": "to",
          "type": "address"
        },
        {
          "internalType": "uint256",
          "name": "tokenId",
          "type": "uint256"
        }
      ],
      "name": "safeTransferFrom",
      "outputs": [],
      "stateMutability": "nonpayable",
      "type": "function"
    },
    {
      "inputs": [
        {
          "internalType": "address",
          "name": "from",
          "type": "address"
        },
        {
          "internalType": "address",
          "name": "to",
          "type": "address"
        },
        {
          "internalType": "uint256",
          "name": "tokenId",
          "type": "uint256"
        },
        {
          "internalType": "bytes",
          "name": "data",
          "type": "bytes"
        }
      ],
      "name": "safeTransferFrom",
      "outputs": [],
      "stateMutability": "nonpayable",
      "type": "function"
    },
    {
      "inputs": [
        {
          "internalType": "address",
          "name": "operator",
          "type": "address"
        },
        {
          "internalType": "bool",
          "name": "approved",
          "type": "bool"
        }
      ],
      "name": "setApprovalForAll",
      "outputs": [],
      "stateMutability": "nonpayable",
      "type": "function"
    },
    {
      "inputs": [
        {
          "internalType": "bytes4",
          "name": "interfaceId",
          "type": "bytes4"
        }
      ],
      "name": "supportsInterface",
      "outputs": [
        {
          "internalType": "bool",
          "name": "",
          "type": "bool"
        }
      ],
      "stateMutability": "view",
      "type": "function",
      "constant": true
    },
    {
      "inputs": [],
      "name": "symbol",
      "outputs": [
        {
          "internalType": "string",
          "name": "",
          "type": "string"
        }
      ],
      "stateMutability": "view",
      "type": "function",
      "constant": true
    },
    {
      "inputs": [
        {
          "internalType": "address",
          "name": "from",
          "type": "address"
        },
        {
          "internalType": "address",
          "name": "to",
          "type": "address"
        },
        {
          "internalType": "uint256",
          "name": "tokenId",
          "type": "uint256"
        }
      ],
      "name": "transferFrom",
      "outputs": [],
      "stateMutability": "nonpayable",
      "type": "function"
    },
    {
      "inputs": [
        {
          "internalType": "address",
          "name": "newOwner",
          "type": "address"
        }
      ],
      "name": "transferOwnership",
      "outputs": [],
      "stateMutability": "nonpayable",
      "type": "function"
    },
    {
      "inputs": [
        {
          "internalType": "string",
          "name": "name",
          "type": "string"
        },
        {
          "internalType": "address",
          "name": "to",
          "type": "address"
        },
        {
          "internalType": "uint16[]",
          "name": "seeds",
          "type": "uint16[]"
        },
        {
          "internalType": "string",
          "name": "uri",
          "type": "string"
        },
        {
          "internalType": "uint24",
          "name": "day",
          "type": "uint24"
        }
      ],
      "name": "mint",
      "outputs": [],
      "stateMutability": "nonpayable",
      "type": "function"
    },
    {
      "inputs": [
        {
          "internalType": "uint16[]",
          "name": "parts",
          "type": "uint16[]"
        }
      ],
      "name": "getTokenURI",
      "outputs": [
        {
          "internalType": "string",
          "name": "",
          "type": "string"
        }
      ],
      "stateMutability": "view",
      "type": "function",
      "constant": true
    },
    {
      "inputs": [
        {
          "internalType": "uint256",
          "name": "tokenId",
          "type": "uint256"
        }
      ],
      "name": "tokenURI",
      "outputs": [
        {
          "internalType": "string",
          "name": "",
          "type": "string"
        }
      ],
      "stateMutability": "view",
      "type": "function",
      "constant": true
    }
  ],
  "bytecode": "0x6080604052600067ffffffffffffffff81111562000022576200002162000494565b5b604051908082528060200260200182016040528015620000515781602001602082028036833780820191505090505b50600d908051906020019062000069929190620003e6565b506040518060a00160405280604051806020016040528060008152508152602001600073ffffffffffffffffffffffffffffffffffffffff168152602001600d8054806020026020016040519081016040528092919081815260200182805480156200012b57602002820191906000526020600020905b8160009054906101000a900473ffffffffffffffffffffffffffffffffffffffff1673ffffffffffffffffffffffffffffffffffffffff1681526020019060010190808311620000e0575b50505050508152602001600067ffffffffffffffff168152602001600062ffffff16815250600e60008201518160000190816200016991906200070e565b5060208201518160010160006101000a81548173ffffffffffffffffffffffffffffffffffffffff021916908373ffffffffffffffffffffffffffffffffffffffff1602179055506040820151816002019080519060200190620001cf929190620003e6565b5060608201518160030160006101000a81548167ffffffffffffffff021916908367ffffffffffffffff16021790555060808201518160030160086101000a81548162ffffff021916908362ffffff16021790555050503480156200023357600080fd5b506040518060400160405280600781526020017f4c6963656e7365000000000000000000000000000000000000000000000000008152506040518060400160405280600781526020017f4c6963656e7365000000000000000000000000000000000000000000000000008152508160009081620002b191906200070e565b508060019081620002c391906200070e565b505050620002e6620002da6200031860201b60201c565b6200032060201b60201c565b6001600a600080815260200190815260200160002060006101000a81548160ff021916908315150217905550620007f5565b600033905090565b6000600760009054906101000a900473ffffffffffffffffffffffffffffffffffffffff16905081600760006101000a81548173ffffffffffffffffffffffffffffffffffffffff021916908373ffffffffffffffffffffffffffffffffffffffff1602179055508173ffffffffffffffffffffffffffffffffffffffff168173ffffffffffffffffffffffffffffffffffffffff167f8be0079c531659141344cd1fd0a4f28419497f9722a3daafe3b4186f6b6457e060405160405180910390a35050565b82805482825590600052602060002090810192821562000462579160200282015b82811115620004615782518260006101000a81548173ffffffffffffffffffffffffffffffffffffffff021916908373ffffffffffffffffffffffffffffffffffffffff1602179055509160200191906001019062000407565b5b50905062000471919062000475565b5090565b5b808211156200049057600081600090555060010162000476565b5090565b7f4e487b7100000000000000000000000000000000000000000000000000000000600052604160045260246000fd5b600081519050919050565b7f4e487b7100000000000000000000000000000000000000000000000000000000600052602260045260246000fd5b600060028204905060018216806200051657607f821691505b6020821081036200052c576200052b620004ce565b5b50919050565b60008190508160005260206000209050919050565b60006020601f8301049050919050565b600082821b905092915050565b600060088302620005967fffffffffffffffffffffffffffffffffffffffffffffffffffffffffffffffff8262000557565b620005a2868362000557565b95508019841693508086168417925050509392505050565b6000819050919050565b6000819050919050565b6000620005ef620005e9620005e384620005ba565b620005c4565b620005ba565b9050919050565b6000819050919050565b6200060b83620005ce565b620006236200061a82620005f6565b84845462000564565b825550505050565b600090565b6200063a6200062b565b6200064781848462000600565b505050565b5b818110156200066f576200066360008262000630565b6001810190506200064d565b5050565b601f821115620006be57620006888162000532565b620006938462000547565b81016020851015620006a3578190505b620006bb620006b28562000547565b8301826200064c565b50505b505050565b600082821c905092915050565b6000620006e360001984600802620006c3565b1980831691505092915050565b6000620006fe8383620006d0565b9150826002028217905092915050565b6200071982620004c3565b67ffffffffffffffff81111562000735576200073462000494565b5b620007418254620004fd565b6200074e82828562000673565b600060209050601f83116001811462000786576000841562000771578287015190505b6200077d8582620006f0565b865550620007ed565b601f198416620007968662000532565b60005b82811015620007c05784890151825560018201915060208501945060208101905062000799565b86831015620007e05784890151620007dc601f891682620006d0565b8355505b6001600288020188555050505b505050505050565b6150d080620008056000396000f3fe608060405234801561001057600080fd5b50600436106101a95760003560e01c806385a1556e116100f9578063c87b56dd11610097578063e7d9c3b011610071578063e7d9c3b01461046e578063e985e9c51461049e578063f2fde38b146104ce578063fd43d2e0146104ea576101a9565b8063c87b56dd14610418578063d8e753b114610448578063dd49dbd714610464576101a9565b8063a22cb465116100d3578063a22cb46514610394578063b012381e146103b0578063b69c85d6146103e0578063b88d4fde146103fc576101a9565b806385a1556e1461034e5780638da5cb5b1461035857806395d89b4114610376576101a9565b806320a71c7b1161016657806342842e0e1161014057806342842e0e146102c85780636352211e146102e457806370a0823114610314578063715018a614610344576101a9565b806320a71c7b1461028457806322366844146102a257806323b872dd146102ac576101a9565b806301ffc9a7146101ae578063045b9455146101de57806306fdde03146101fc578063081812fc1461021a578063095ea7b31461024a57806317d7de7c14610266575b600080fd5b6101c860048036038101906101c39190613376565b610506565b6040516101d591906133be565b60405180910390f35b6101e66105e8565b6040516101f391906134a1565b60405180910390f35b610204610680565b604051610211919061355c565b60405180910390f35b610234600480360381019061022f91906135aa565b610712565b6040516102419190613618565b60405180910390f35b610264600480360381019061025f919061365f565b610758565b005b61026e61086f565b60405161027b919061355c565b60405180910390f35b61028c610941565b60405161029991906134a1565b60405180910390f35b6102aa610a6a565b005b6102c660048036038101906102c1919061369f565b610af8565b005b6102e260048036038101906102dd919061369f565b610b58565b005b6102fe60048036038101906102f991906135aa565b610b78565b60405161030b9190613618565b60405180910390f35b61032e600480360381019061032991906136f2565b610c29565b60405161033b919061372e565b60405180910390f35b61034c610ce0565b005b610356610cf4565b005b610360610dd9565b60405161036d9190613618565b60405180910390f35b61037e610e03565b60405161038b919061355c565b60405180910390f35b6103ae60048036038101906103a99190613775565b610e95565b005b6103ca60048036038101906103c59190613937565b610eab565b6040516103d79190613b46565b60405180910390f35b6103fa60048036038101906103f591906135aa565b6110ab565b005b61041660048036038101906104119190613c1d565b611254565b005b610432600480360381019061042d91906135aa565b6112b6565b60405161043f919061355c565b60405180910390f35b610462600480360381019061045d9190613d6d565b6114e6565b005b61046c61188e565b005b61048860048036038101906104839190613937565b6118eb565b604051610495919061355c565b60405180910390f35b6104b860048036038101906104b39190613e3c565b611905565b6040516104c591906133be565b60405180910390f35b6104e860048036038101906104e391906136f2565b611999565b005b61050460048036038101906104ff9190613e7c565b611a1c565b005b60007f80ac58cd000000000000000000000000000000000000000000000000000000007bffffffffffffffffffffffffffffffffffffffffffffffffffffffff1916827bffffffffffffffffffffffffffffffffffffffffffffffffffffffff191614806105d157507f5b5e139f000000000000000000000000000000000000000000000000000000007bffffffffffffffffffffffffffffffffffffffffffffffffffffffff1916827bffffffffffffffffffffffffffffffffffffffffffffffffffffffff1916145b806105e157506105e082611c77565b5b9050919050565b6060600b60003373ffffffffffffffffffffffffffffffffffffffff1673ffffffffffffffffffffffffffffffffffffffff16815260200190815260200160002060010180548060200260200160405190810160405280929190818152602001828054801561067657602002820191906000526020600020905b815481526020019060010190808311610662575b5050505050905090565b60606000805461068f90613f1a565b80601f01602080910402602001604051908101604052809291908181526020018280546106bb90613f1a565b80156107085780601f106106dd57610100808354040283529160200191610708565b820191906000526020600020905b8154815290600101906020018083116106eb57829003601f168201915b5050505050905090565b600061071d82611ce1565b6004600083815260200190815260200160002060009054906101000a900473ffffffffffffffffffffffffffffffffffffffff169050919050565b600061076382610b78565b90508073ffffffffffffffffffffffffffffffffffffffff168373ffffffffffffffffffffffffffffffffffffffff16036107d3576040517f08c379a00000000000000000000000000000000000000000000000000000000081526004016107ca90613fbd565b60405180910390fd5b8073ffffffffffffffffffffffffffffffffffffffff166107f2611d2c565b73ffffffffffffffffffffffffffffffffffffffff16148061082157506108208161081b611d2c565b611905565b5b610860576040517f08c379a00000000000000000000000000000000000000000000000000000000081526004016108579061404f565b60405180910390fd5b61086a8383611d34565b505050565b6060600b60003373ffffffffffffffffffffffffffffffffffffffff1673ffffffffffffffffffffffffffffffffffffffff16815260200190815260200160002060000180546108be90613f1a565b80601f01602080910402602001604051908101604052809291908181526020018280546108ea90613f1a565b80156109375780601f1061090c57610100808354040283529160200191610937565b820191906000526020600020905b81548152906001019060200180831161091a57829003601f168201915b5050505050905090565b606033600b60008273ffffffffffffffffffffffffffffffffffffffff1673ffffffffffffffffffffffffffffffffffffffff16815260200190815260200160002060030160009054906101000a900460ff166109d3576040517f08c379a00000000000000000000000000000000000000000000000000000000081526004016109ca906140bb565b60405180910390fd5b600b60003373ffffffffffffffffffffffffffffffffffffffff1673ffffffffffffffffffffffffffffffffffffffff168152602001908152602001600020600201805480602002602001604051908101604052809291908181526020018280548015610a5f57602002820191906000526020600020905b815481526020019060010190808311610a4b575b505050505091505090565b600960003373ffffffffffffffffffffffffffffffffffffffff1673ffffffffffffffffffffffffffffffffffffffff16815260200190815260200160002060009054906101000a900460ff16610af6576040517f08c379a0000000000000000000000000000000000000000000000000000000008152600401610aed90614127565b60405180910390fd5b565b610b09610b03611d2c565b82611ded565b610b48576040517f08c379a0000000000000000000000000000000000000000000000000000000008152600401610b3f906141b9565b60405180910390fd5b610b53838383611e82565b505050565b610b7383838360405180602001604052806000815250611254565b505050565b6000806002600084815260200190815260200160002060009054906101000a900473ffffffffffffffffffffffffffffffffffffffff169050600073ffffffffffffffffffffffffffffffffffffffff168173ffffffffffffffffffffffffffffffffffffffff1603610c20576040517f08c379a0000000000000000000000000000000000000000000000000000000008152600401610c1790614225565b60405180910390fd5b80915050919050565b60008073ffffffffffffffffffffffffffffffffffffffff168273ffffffffffffffffffffffffffffffffffffffff1603610c99576040517f08c379a0000000000000000000000000000000000000000000000000000000008152600401610c90906142b7565b60405180910390fd5b600360008373ffffffffffffffffffffffffffffffffffffffff1673ffffffffffffffffffffffffffffffffffffffff168152602001908152602001600020549050919050565b610ce86120e8565b610cf26000612166565b565b6000600b60003373ffffffffffffffffffffffffffffffffffffffff1673ffffffffffffffffffffffffffffffffffffffff1681526020019081526020016000206002018054905014610d7c576040517f08c379a0000000000000000000000000000000000000000000000000000000008152600401610d7390614349565b60405180910390fd5b6000600b60003373ffffffffffffffffffffffffffffffffffffffff1673ffffffffffffffffffffffffffffffffffffffff16815260200190815260200160002060030160006101000a81548160ff021916908315150217905550565b6000600760009054906101000a900473ffffffffffffffffffffffffffffffffffffffff16905090565b606060018054610e1290613f1a565b80601f0160208091040260200160405190810160405280929190818152602001828054610e3e90613f1a565b8015610e8b5780601f10610e6057610100808354040283529160200191610e8b565b820191906000526020600020905b815481529060010190602001808311610e6e57829003601f168201915b5050505050905090565b610ea7610ea0611d2c565b838361222c565b5050565b610eb36131c2565b600c6000610ec084612398565b81526020019081526020016000206040518060a0016040529081600082018054610ee990613f1a565b80601f0160208091040260200160405190810160405280929190818152602001828054610f1590613f1a565b8015610f625780601f10610f3757610100808354040283529160200191610f62565b820191906000526020600020905b815481529060010190602001808311610f4557829003601f168201915b505050505081526020016001820160009054906101000a900473ffffffffffffffffffffffffffffffffffffffff1673ffffffffffffffffffffffffffffffffffffffff1673ffffffffffffffffffffffffffffffffffffffff1681526020016002820180548060200260200160405190810160405280929190818152602001828054801561104657602002820191906000526020600020905b8160009054906101000a900473ffffffffffffffffffffffffffffffffffffffff1673ffffffffffffffffffffffffffffffffffffffff1681526020019060010190808311610ffc575b505050505081526020016003820160009054906101000a900467ffffffffffffffff1667ffffffffffffffff1667ffffffffffffffff1681526020016003820160089054906101000a900462ffffff1662ffffff1662ffffff16815250509050919050565b33600b60008273ffffffffffffffffffffffffffffffffffffffff1673ffffffffffffffffffffffffffffffffffffffff16815260200190815260200160002060030160009054906101000a900460ff1661113b576040517f08c379a0000000000000000000000000000000000000000000000000000000008152600401611132906140bb565b60405180910390fd5b600a600083815260200190815260200160002060009054906101000a900460ff16156111e26111a76040518060400160405280600781526020017f53657269616c20000000000000000000000000000000000000000000000000008152506111a286612403565b6125d8565b6040518060400160405280600f81526020017f20616c726561647920696e2075736500000000000000000000000000000000008152506125d8565b90611223576040517f08c379a000000000000000000000000000000000000000000000000000000000815260040161121a919061355c565b60405180910390fd5b506001600a600084815260200190815260200160002060006101000a81548160ff0219169083151502179055505050565b61126561125f611d2c565b83611ded565b6112a4576040517f08c379a000000000000000000000000000000000000000000000000000000000815260040161129b906141b9565b60405180910390fd5b6112b084848484612604565b50505050565b6060600c600083815260200190815260200160002060010160009054906101000a900473ffffffffffffffffffffffffffffffffffffffff1673ffffffffffffffffffffffffffffffffffffffff163373ffffffffffffffffffffffffffffffffffffffff1614806113ca5750600c60008381526020019081526020016000206002016001600c60008581526020019081526020016000206002018054905061135f9190614398565b815481106113705761136f6143cc565b5b9060005260206000200160009054906101000a900473ffffffffffffffffffffffffffffffffffffffff1673ffffffffffffffffffffffffffffffffffffffff163373ffffffffffffffffffffffffffffffffffffffff16145b611409576040517f08c379a00000000000000000000000000000000000000000000000000000000081526004016114009061446d565b60405180910390fd5b6000429050600c600084815260200190815260200160002060030160089054906101000a900462ffffff1662ffffff1662015180600c600086815260200190815260200160002060030160009054906101000a900467ffffffffffffffff1683611473919061448d565b61147d91906144f0565b67ffffffffffffffff16101561149e5761149683612660565b9150506114e1565b60006114df576040517f08c379a00000000000000000000000000000000000000000000000000000000081526004016114d69061456d565b60405180910390fd5b505b919050565b600960003373ffffffffffffffffffffffffffffffffffffffff1673ffffffffffffffffffffffffffffffffffffffff16815260200190815260200160002060009054906101000a900460ff16611572576040517f08c379a000000000000000000000000000000000000000000000000000000000815260040161156990614127565b60405180910390fd5b33600b60008273ffffffffffffffffffffffffffffffffffffffff1673ffffffffffffffffffffffffffffffffffffffff16815260200190815260200160002060030160009054906101000a900460ff16611602576040517f08c379a00000000000000000000000000000000000000000000000000000000081526004016115f9906140bb565b60405180910390fd5b60128360405161161291906145c9565b908152602001604051809103902060009054906101000a900460ff161561166e576040517f08c379a00000000000000000000000000000000000000000000000000000000081526004016116659061462c565b60405180910390fd5b600061167985612398565b9050611684816110ab565b61168e8682612772565b6116988185612790565b60016012856040516116aa91906145c9565b908152602001604051809103902060006101000a81548160ff0219169083151502179055506040518060a001604052808881526020013373ffffffffffffffffffffffffffffffffffffffff168152602001600d80548060200260200160405190810160405280929190818152602001828054801561177e57602002820191906000526020600020905b8160009054906101000a900473ffffffffffffffffffffffffffffffffffffffff1673ffffffffffffffffffffffffffffffffffffffff1681526020019060010190808311611734575b505050505081526020014267ffffffffffffffff1681526020018462ffffff16815250600c600083815260200190815260200160002060008201518160000190816117c991906147f8565b5060208201518160010160006101000a81548173ffffffffffffffffffffffffffffffffffffffff021916908373ffffffffffffffffffffffffffffffffffffffff160217905550604082015181600201908051906020019061182d929190613216565b5060608201518160030160006101000a81548167ffffffffffffffff021916908367ffffffffffffffff16021790555060808201518160030160086101000a81548162ffffff021916908362ffffff16021790555090505050505050505050565b6001600b60003373ffffffffffffffffffffffffffffffffffffffff1673ffffffffffffffffffffffffffffffffffffffff16815260200190815260200160002060030160006101000a81548160ff021916908315150217905550565b60606118fe6118f983612398565b6112b6565b9050919050565b6000600560008473ffffffffffffffffffffffffffffffffffffffff1673ffffffffffffffffffffffffffffffffffffffff16815260200190815260200160002060008373ffffffffffffffffffffffffffffffffffffffff1673ffffffffffffffffffffffffffffffffffffffff16815260200190815260200160002060009054906101000a900460ff16905092915050565b6119a16120e8565b600073ffffffffffffffffffffffffffffffffffffffff168173ffffffffffffffffffffffffffffffffffffffff1603611a10576040517f08c379a0000000000000000000000000000000000000000000000000000000008152600401611a079061493c565b60405180910390fd5b611a1981612166565b50565b600960008373ffffffffffffffffffffffffffffffffffffffff1673ffffffffffffffffffffffffffffffffffffffff16815260200190815260200160002060009054906101000a900460ff1615611aa9576040517f08c379a0000000000000000000000000000000000000000000000000000000008152600401611aa0906149a8565b60405180910390fd5b6001600960008473ffffffffffffffffffffffffffffffffffffffff1673ffffffffffffffffffffffffffffffffffffffff16815260200190815260200160002060006101000a81548160ff02191690831515021790555060008067ffffffffffffffff811115611b1d57611b1c6137ba565b5b604051908082528060200260200182016040528015611b4b5781602001602082028036833780820191505090505b50905060008067ffffffffffffffff811115611b6a57611b696137ba565b5b604051908082528060200260200182016040528015611b985781602001602082028036833780820191505090505b5090506040518060800160405280868152602001838152602001828152602001841515815250600b60008673ffffffffffffffffffffffffffffffffffffffff1673ffffffffffffffffffffffffffffffffffffffff1681526020019081526020016000206000820151816000019081611c1291906147f8565b506020820151816001019080519060200190611c2f9291906132a0565b506040820151816002019080519060200190611c4c9291906132a0565b5060608201518160030160006101000a81548160ff0219169083151502179055509050505050505050565b60007f01ffc9a7000000000000000000000000000000000000000000000000000000007bffffffffffffffffffffffffffffffffffffffffffffffffffffffff1916827bffffffffffffffffffffffffffffffffffffffffffffffffffffffff1916149050919050565b611cea816127fd565b611d29576040517f08c379a0000000000000000000000000000000000000000000000000000000008152600401611d2090614225565b60405180910390fd5b50565b600033905090565b816004600083815260200190815260200160002060006101000a81548173ffffffffffffffffffffffffffffffffffffffff021916908373ffffffffffffffffffffffffffffffffffffffff160217905550808273ffffffffffffffffffffffffffffffffffffffff16611da783610b78565b73ffffffffffffffffffffffffffffffffffffffff167f8c5be1e5ebec7d5bd14f71427d1e84f3dd0314c0f7b2291e5b200ac8c7c3b92560405160405180910390a45050565b600080611df983610b78565b90508073ffffffffffffffffffffffffffffffffffffffff168473ffffffffffffffffffffffffffffffffffffffff161480611e3b5750611e3a8185611905565b5b80611e7957508373ffffffffffffffffffffffffffffffffffffffff16611e6184610712565b73ffffffffffffffffffffffffffffffffffffffff16145b91505092915050565b8273ffffffffffffffffffffffffffffffffffffffff16611ea282610b78565b73ffffffffffffffffffffffffffffffffffffffff1614611ef8576040517f08c379a0000000000000000000000000000000000000000000000000000000008152600401611eef90614a3a565b60405180910390fd5b600073ffffffffffffffffffffffffffffffffffffffff168273ffffffffffffffffffffffffffffffffffffffff1603611f67576040517f08c379a0000000000000000000000000000000000000000000000000000000008152600401611f5e90614acc565b60405180910390fd5b611f72838383612869565b611f7d600082611d34565b6001600360008573ffffffffffffffffffffffffffffffffffffffff1673ffffffffffffffffffffffffffffffffffffffff1681526020019081526020016000206000828254611fcd9190614398565b925050819055506001600360008473ffffffffffffffffffffffffffffffffffffffff1673ffffffffffffffffffffffffffffffffffffffff16815260200190815260200160002060008282546120249190614aec565b92505081905550816002600083815260200190815260200160002060006101000a81548173ffffffffffffffffffffffffffffffffffffffff021916908373ffffffffffffffffffffffffffffffffffffffff160217905550808273ffffffffffffffffffffffffffffffffffffffff168473ffffffffffffffffffffffffffffffffffffffff167fddf252ad1be2c89b69c2b068fc378daa952ba7f163c4a11628f55a4df523b3ef60405160405180910390a46120e3838383612aeb565b505050565b6120f0611d2c565b73ffffffffffffffffffffffffffffffffffffffff1661210e610dd9565b73ffffffffffffffffffffffffffffffffffffffff1614612164576040517f08c379a000000000000000000000000000000000000000000000000000000000815260040161215b90614b8e565b60405180910390fd5b565b6000600760009054906101000a900473ffffffffffffffffffffffffffffffffffffffff16905081600760006101000a81548173ffffffffffffffffffffffffffffffffffffffff021916908373ffffffffffffffffffffffffffffffffffffffff1602179055508173ffffffffffffffffffffffffffffffffffffffff168173ffffffffffffffffffffffffffffffffffffffff167f8be0079c531659141344cd1fd0a4f28419497f9722a3daafe3b4186f6b6457e060405160405180910390a35050565b8173ffffffffffffffffffffffffffffffffffffffff168373ffffffffffffffffffffffffffffffffffffffff160361229a576040517f08c379a000000000000000000000000000000000000000000000000000000000815260040161229190614bfa565b60405180910390fd5b80600560008573ffffffffffffffffffffffffffffffffffffffff1673ffffffffffffffffffffffffffffffffffffffff16815260200190815260200160002060008473ffffffffffffffffffffffffffffffffffffffff1673ffffffffffffffffffffffffffffffffffffffff16815260200190815260200160002060006101000a81548160ff0219169083151502179055508173ffffffffffffffffffffffffffffffffffffffff168373ffffffffffffffffffffffffffffffffffffffff167f17307eab39ab6107e8899845ad3d59bd9653f200f220920489ca2b5937696c318360405161238b91906133be565b60405180910390a3505050565b6000806000601090505b600181106123f957836001826123b89190614398565b815181106123c9576123c86143cc565b5b602002602001015161ffff16601083901b6123e49190614aec565b915080806123f190614c1a565b9150506123a2565b5080915050919050565b60606000606467ffffffffffffffff811115612422576124216137ba565b5b6040519080825280601f01601f1916602001820160405280156124545781602001600182028036833780820191505090505b50905060005b60008411156124e357600a846124709190614c43565b603061247c9190614aec565b60f81b828281518110612492576124916143cc565b5b60200101907effffffffffffffffffffffffffffffffffffffffffffffffffffffffffffff1916908160001a905350600a846124ce9190614c74565b935080806124db90614ca5565b91505061245a565b6000825167ffffffffffffffff811115612500576124ff6137ba565b5b6040519080825280601f01601f1916602001820160405280156125325781602001600182028036833780820191505090505b50905060005b83518110156125cc578360018286516125519190614398565b61255b9190614398565b8151811061256c5761256b6143cc565b5b602001015160f81c60f81b82828151811061258a576125896143cc565b5b60200101907effffffffffffffffffffffffffffffffffffffffffffffffffffffffffffff1916908160001a90535080806125c490614ca5565b915050612538565b50809350505050919050565b606082826040516020016125ed929190614d39565b604051602081830303815290604052905092915050565b61260f848484611e82565b61261b84848484612c05565b61265a576040517f08c379a000000000000000000000000000000000000000000000000000000000815260040161265190614dda565b60405180910390fd5b50505050565b606061266b82611ce1565b600060066000848152602001908152602001600020805461268b90613f1a565b80601f01602080910402602001604051908101604052809291908181526020018280546126b790613f1a565b80156127045780601f106126d957610100808354040283529160200191612704565b820191906000526020600020905b8154815290600101906020018083116126e757829003601f168201915b505050505090506000612715612d8c565b9050600081510361272a57819250505061276d565b60008251111561275f578082604051602001612747929190614dfa565b6040516020818303038152906040529250505061276d565b61276884612da3565b925050505b919050565b61278c828260405180602001604052806000815250612e0b565b5050565b612799826127fd565b6127d8576040517f08c379a00000000000000000000000000000000000000000000000000000000081526004016127cf90614e90565b60405180910390fd5b806006600084815260200190815260200160002090816127f891906147f8565b505050565b60008073ffffffffffffffffffffffffffffffffffffffff166002600084815260200190815260200160002060009054906101000a900473ffffffffffffffffffffffffffffffffffffffff1673ffffffffffffffffffffffffffffffffffffffff1614159050919050565b600073ffffffffffffffffffffffffffffffffffffffff168373ffffffffffffffffffffffffffffffffffffffff1614612ae65760005b600b60008573ffffffffffffffffffffffffffffffffffffffff1673ffffffffffffffffffffffffffffffffffffffff16815260200190815260200160002060010180549050811015612ae45781600b60008673ffffffffffffffffffffffffffffffffffffffff1673ffffffffffffffffffffffffffffffffffffffff1681526020019081526020016000206001018281548110612942576129416143cc565b5b906000526020600020015403612ad157600b60008573ffffffffffffffffffffffffffffffffffffffff1673ffffffffffffffffffffffffffffffffffffffff1681526020019081526020016000206001016001600b60008773ffffffffffffffffffffffffffffffffffffffff1673ffffffffffffffffffffffffffffffffffffffff168152602001908152602001600020600101805490506129e69190614398565b815481106129f7576129f66143cc565b5b9060005260206000200154600b60008673ffffffffffffffffffffffffffffffffffffffff1673ffffffffffffffffffffffffffffffffffffffff1681526020019081526020016000206001018281548110612a5657612a556143cc565b5b9060005260206000200181905550600b60008573ffffffffffffffffffffffffffffffffffffffff1673ffffffffffffffffffffffffffffffffffffffff168152602001908152602001600020600101805480612ab657612ab5614eb0565b5b60019003818190600052602060002001600090559055612ae4565b8080612adc90614ca5565b9150506128a0565b505b505050565b600073ffffffffffffffffffffffffffffffffffffffff168273ffffffffffffffffffffffffffffffffffffffff1614612c0057600b60008373ffffffffffffffffffffffffffffffffffffffff1673ffffffffffffffffffffffffffffffffffffffff168152602001908152602001600020600101819080600181540180825580915050600190039060005260206000200160009091909190915055600c6000828152602001908152602001600020600201829080600181540180825580915050600190039060005260206000200160009091909190916101000a81548173ffffffffffffffffffffffffffffffffffffffff021916908373ffffffffffffffffffffffffffffffffffffffff1602179055505b505050565b6000612c268473ffffffffffffffffffffffffffffffffffffffff16612e66565b15612d7f578373ffffffffffffffffffffffffffffffffffffffff1663150b7a02612c4f611d2c565b8786866040518563ffffffff1660e01b8152600401612c719493929190614f34565b6020604051808303816000875af1925050508015612cad57506040513d601f19601f82011682018060405250810190612caa9190614f95565b60015b612d2f573d8060008114612cdd576040519150601f19603f3d011682016040523d82523d6000602084013e612ce2565b606091505b506000815103612d27576040517f08c379a0000000000000000000000000000000000000000000000000000000008152600401612d1e90614dda565b60405180910390fd5b805181602001fd5b63150b7a0260e01b7bffffffffffffffffffffffffffffffffffffffffffffffffffffffff1916817bffffffffffffffffffffffffffffffffffffffffffffffffffffffff191614915050612d84565b600190505b949350505050565b606060405180602001604052806000815250905090565b6060612dae82611ce1565b6000612db8612d8c565b90506000815111612dd85760405180602001604052806000815250612e03565b80612de284612e89565b604051602001612df3929190614dfa565b6040516020818303038152906040525b915050919050565b612e158383612fe9565b612e226000848484612c05565b612e61576040517f08c379a0000000000000000000000000000000000000000000000000000000008152600401612e5890614dda565b60405180910390fd5b505050565b6000808273ffffffffffffffffffffffffffffffffffffffff163b119050919050565b606060008203612ed0576040518060400160405280600181526020017f30000000000000000000000000000000000000000000000000000000000000008152509050612fe4565b600082905060005b60008214612f02578080612eeb90614ca5565b915050600a82612efb9190614c74565b9150612ed8565b60008167ffffffffffffffff811115612f1e57612f1d6137ba565b5b6040519080825280601f01601f191660200182016040528015612f505781602001600182028036833780820191505090505b5090505b60008514612fdd57600182612f699190614398565b9150600a85612f789190614c43565b6030612f849190614aec565b60f81b818381518110612f9a57612f996143cc565b5b60200101907effffffffffffffffffffffffffffffffffffffffffffffffffffffffffffff1916908160001a905350600a85612fd69190614c74565b9450612f54565b8093505050505b919050565b600073ffffffffffffffffffffffffffffffffffffffff168273ffffffffffffffffffffffffffffffffffffffff1603613058576040517f08c379a000000000000000000000000000000000000000000000000000000000815260040161304f9061500e565b60405180910390fd5b613061816127fd565b156130a1576040517f08c379a00000000000000000000000000000000000000000000000000000000081526004016130989061507a565b60405180910390fd5b6130ad60008383612869565b6001600360008473ffffffffffffffffffffffffffffffffffffffff1673ffffffffffffffffffffffffffffffffffffffff16815260200190815260200160002060008282546130fd9190614aec565b92505081905550816002600083815260200190815260200160002060006101000a81548173ffffffffffffffffffffffffffffffffffffffff021916908373ffffffffffffffffffffffffffffffffffffffff160217905550808273ffffffffffffffffffffffffffffffffffffffff16600073ffffffffffffffffffffffffffffffffffffffff167fddf252ad1be2c89b69c2b068fc378daa952ba7f163c4a11628f55a4df523b3ef60405160405180910390a46131be60008383612aeb565b5050565b6040518060a0016040528060608152602001600073ffffffffffffffffffffffffffffffffffffffff16815260200160608152602001600067ffffffffffffffff168152602001600062ffffff1681525090565b82805482825590600052602060002090810192821561328f579160200282015b8281111561328e5782518260006101000a81548173ffffffffffffffffffffffffffffffffffffffff021916908373ffffffffffffffffffffffffffffffffffffffff16021790555091602001919060010190613236565b5b50905061329c91906132ed565b5090565b8280548282559060005260206000209081019282156132dc579160200282015b828111156132db5782518255916020019190600101906132c0565b5b5090506132e991906132ed565b5090565b5b808211156133065760008160009055506001016132ee565b5090565b6000604051905090565b600080fd5b600080fd5b60007fffffffff0000000000000000000000000000000000000000000000000000000082169050919050565b6133538161331e565b811461335e57600080fd5b50565b6000813590506133708161334a565b92915050565b60006020828403121561338c5761338b613314565b5b600061339a84828501613361565b91505092915050565b60008115159050919050565b6133b8816133a3565b82525050565b60006020820190506133d360008301846133af565b92915050565b600081519050919050565b600082825260208201905092915050565b6000819050602082019050919050565b6000819050919050565b61341881613405565b82525050565b600061342a838361340f565b60208301905092915050565b6000602082019050919050565b600061344e826133d9565b61345881856133e4565b9350613463836133f5565b8060005b8381101561349457815161347b888261341e565b975061348683613436565b925050600181019050613467565b5085935050505092915050565b600060208201905081810360008301526134bb8184613443565b905092915050565b600081519050919050565b600082825260208201905092915050565b60005b838110156134fd5780820151818401526020810190506134e2565b8381111561350c576000848401525b50505050565b6000601f19601f8301169050919050565b600061352e826134c3565b61353881856134ce565b93506135488185602086016134df565b61355181613512565b840191505092915050565b600060208201905081810360008301526135768184613523565b905092915050565b61358781613405565b811461359257600080fd5b50565b6000813590506135a48161357e565b92915050565b6000602082840312156135c0576135bf613314565b5b60006135ce84828501613595565b91505092915050565b600073ffffffffffffffffffffffffffffffffffffffff82169050919050565b6000613602826135d7565b9050919050565b613612816135f7565b82525050565b600060208201905061362d6000830184613609565b92915050565b61363c816135f7565b811461364757600080fd5b50565b60008135905061365981613633565b92915050565b6000806040838503121561367657613675613314565b5b60006136848582860161364a565b925050602061369585828601613595565b9150509250929050565b6000806000606084860312156136b8576136b7613314565b5b60006136c68682870161364a565b93505060206136d78682870161364a565b92505060406136e886828701613595565b9150509250925092565b60006020828403121561370857613707613314565b5b60006137168482850161364a565b91505092915050565b61372881613405565b82525050565b6000602082019050613743600083018461371f565b92915050565b613752816133a3565b811461375d57600080fd5b50565b60008135905061376f81613749565b92915050565b6000806040838503121561378c5761378b613314565b5b600061379a8582860161364a565b92505060206137ab85828601613760565b9150509250929050565b600080fd5b7f4e487b7100000000000000000000000000000000000000000000000000000000600052604160045260246000fd5b6137f282613512565b810181811067ffffffffffffffff82111715613811576138106137ba565b5b80604052505050565b600061382461330a565b905061383082826137e9565b919050565b600067ffffffffffffffff8211156138505761384f6137ba565b5b602082029050602081019050919050565b600080fd5b600061ffff82169050919050565b61387d81613866565b811461388857600080fd5b50565b60008135905061389a81613874565b92915050565b60006138b36138ae84613835565b61381a565b905080838252602082019050602084028301858111156138d6576138d5613861565b5b835b818110156138ff57806138eb888261388b565b8452602084019350506020810190506138d8565b5050509392505050565b600082601f83011261391e5761391d6137b5565b5b813561392e8482602086016138a0565b91505092915050565b60006020828403121561394d5761394c613314565b5b600082013567ffffffffffffffff81111561396b5761396a613319565b5b61397784828501613909565b91505092915050565b600082825260208201905092915050565b600061399c826134c3565b6139a68185613980565b93506139b68185602086016134df565b6139bf81613512565b840191505092915050565b6139d3816135f7565b82525050565b600081519050919050565b600082825260208201905092915050565b6000819050602082019050919050565b6000613a1183836139ca565b60208301905092915050565b6000602082019050919050565b6000613a35826139d9565b613a3f81856139e4565b9350613a4a836139f5565b8060005b83811015613a7b578151613a628882613a05565b9750613a6d83613a1d565b925050600181019050613a4e565b5085935050505092915050565b600067ffffffffffffffff82169050919050565b613aa581613a88565b82525050565b600062ffffff82169050919050565b613ac381613aab565b82525050565b600060a0830160008301518482036000860152613ae68282613991565b9150506020830151613afb60208601826139ca565b5060408301518482036040860152613b138282613a2a565b9150506060830151613b286060860182613a9c565b506080830151613b3b6080860182613aba565b508091505092915050565b60006020820190508181036000830152613b608184613ac9565b905092915050565b600080fd5b600067ffffffffffffffff821115613b8857613b876137ba565b5b613b9182613512565b9050602081019050919050565b82818337600083830152505050565b6000613bc0613bbb84613b6d565b61381a565b905082815260208101848484011115613bdc57613bdb613b68565b5b613be7848285613b9e565b509392505050565b600082601f830112613c0457613c036137b5565b5b8135613c14848260208601613bad565b91505092915050565b60008060008060808587031215613c3757613c36613314565b5b6000613c458782880161364a565b9450506020613c568782880161364a565b9350506040613c6787828801613595565b925050606085013567ffffffffffffffff811115613c8857613c87613319565b5b613c9487828801613bef565b91505092959194509250565b600067ffffffffffffffff821115613cbb57613cba6137ba565b5b613cc482613512565b9050602081019050919050565b6000613ce4613cdf84613ca0565b61381a565b905082815260208101848484011115613d0057613cff613b68565b5b613d0b848285613b9e565b509392505050565b600082601f830112613d2857613d276137b5565b5b8135613d38848260208601613cd1565b91505092915050565b613d4a81613aab565b8114613d5557600080fd5b50565b600081359050613d6781613d41565b92915050565b600080600080600060a08688031215613d8957613d88613314565b5b600086013567ffffffffffffffff811115613da757613da6613319565b5b613db388828901613d13565b9550506020613dc48882890161364a565b945050604086013567ffffffffffffffff811115613de557613de4613319565b5b613df188828901613909565b935050606086013567ffffffffffffffff811115613e1257613e11613319565b5b613e1e88828901613d13565b9250506080613e2f88828901613d58565b9150509295509295909350565b60008060408385031215613e5357613e52613314565b5b6000613e618582860161364a565b9250506020613e728582860161364a565b9150509250929050565b600080600060608486031215613e9557613e94613314565b5b600084013567ffffffffffffffff811115613eb357613eb2613319565b5b613ebf86828701613d13565b9350506020613ed08682870161364a565b9250506040613ee186828701613760565b9150509250925092565b7f4e487b7100000000000000000000000000000000000000000000000000000000600052602260045260246000fd5b60006002820490506001821680613f3257607f821691505b602082108103613f4557613f44613eeb565b5b50919050565b7f4552433732313a20617070726f76616c20746f2063757272656e74206f776e6560008201527f7200000000000000000000000000000000000000000000000000000000000000602082015250565b6000613fa76021836134ce565b9150613fb282613f4b565b604082019050919050565b60006020820190508181036000830152613fd681613f9a565b9050919050565b7f4552433732313a20617070726f76652063616c6c6572206973206e6f7420746f60008201527f6b656e206f776e6572206e6f7220617070726f76656420666f7220616c6c0000602082015250565b6000614039603e836134ce565b915061404482613fdd565b604082019050919050565b600060208201905081810360008301526140688161402c565b9050919050565b7f4f6e6c792073656c6c6172732063616e20616363657373207468697300000000600082015250565b60006140a5601c836134ce565b91506140b08261406f565b602082019050919050565b600060208201905081810360008301526140d481614098565b9050919050565b7f4f6e6c792072656769737465726564206d656d6265727320616c6c6f77656400600082015250565b6000614111601f836134ce565b915061411c826140db565b602082019050919050565b6000602082019050818103600083015261414081614104565b9050919050565b7f4552433732313a2063616c6c6572206973206e6f7420746f6b656e206f776e6560008201527f72206e6f7220617070726f766564000000000000000000000000000000000000602082015250565b60006141a3602e836134ce565b91506141ae82614147565b604082019050919050565b600060208201905081810360008301526141d281614196565b9050919050565b7f4552433732313a20696e76616c696420746f6b656e2049440000000000000000600082015250565b600061420f6018836134ce565b915061421a826141d9565b602082019050919050565b6000602082019050818103600083015261423e81614202565b9050919050565b7f4552433732313a2061646472657373207a65726f206973206e6f74206120766160008201527f6c6964206f776e65720000000000000000000000000000000000000000000000602082015250565b60006142a16029836134ce565b91506142ac82614245565b604082019050919050565b600060208201905081810360008301526142d081614294565b9050919050565b7f416c6c206c6963656e736573206e65656420746f20657870697265206265666f60008201527f7265206c656176696e672074686520627573696e657373000000000000000000602082015250565b60006143336037836134ce565b915061433e826142d7565b604082019050919050565b6000602082019050818103600083015261436281614326565b9050919050565b7f4e487b7100000000000000000000000000000000000000000000000000000000600052601160045260246000fd5b60006143a382613405565b91506143ae83613405565b9250828210156143c1576143c0614369565b5b828203905092915050565b7f4e487b7100000000000000000000000000000000000000000000000000000000600052603260045260246000fd5b7f4f6e6c7920746865206f776e6572206f6620746869732061646472657373206360008201527f616e2073656520697427732064657461696c7300000000000000000000000000602082015250565b60006144576033836134ce565b9150614462826143fb565b604082019050919050565b600060208201905081810360008301526144868161444a565b9050919050565b600061449882613a88565b91506144a383613a88565b9250828210156144b6576144b5614369565b5b828203905092915050565b7f4e487b7100000000000000000000000000000000000000000000000000000000600052601260045260246000fd5b60006144fb82613a88565b915061450683613a88565b925082614516576145156144c1565b5b828204905092915050565b7f4c6963656e736520697320616c72656164792065787069726564000000000000600082015250565b6000614557601a836134ce565b915061456282614521565b602082019050919050565b600060208201905081810360008301526145868161454a565b9050919050565b600081905092915050565b60006145a3826134c3565b6145ad818561458d565b93506145bd8185602086016134df565b80840191505092915050565b60006145d58284614598565b915081905092915050565b7f55524920616c726561647920696e207573652e00000000000000000000000000600082015250565b60006146166013836134ce565b9150614621826145e0565b602082019050919050565b6000602082019050818103600083015261464581614609565b9050919050565b60008190508160005260206000209050919050565b60006020601f8301049050919050565b600082821b905092915050565b6000600883026146ae7fffffffffffffffffffffffffffffffffffffffffffffffffffffffffffffffff82614671565b6146b88683614671565b95508019841693508086168417925050509392505050565b6000819050919050565b60006146f56146f06146eb84613405565b6146d0565b613405565b9050919050565b6000819050919050565b61470f836146da565b61472361471b826146fc565b84845461467e565b825550505050565b600090565b61473861472b565b614743818484614706565b505050565b5b818110156147675761475c600082614730565b600181019050614749565b5050565b601f8211156147ac5761477d8161464c565b61478684614661565b81016020851015614795578190505b6147a96147a185614661565b830182614748565b50505b505050565b600082821c905092915050565b60006147cf600019846008026147b1565b1980831691505092915050565b60006147e883836147be565b9150826002028217905092915050565b614801826134c3565b67ffffffffffffffff81111561481a576148196137ba565b5b6148248254613f1a565b61482f82828561476b565b600060209050601f8311600181146148625760008415614850578287015190505b61485a85826147dc565b8655506148c2565b601f1984166148708661464c565b60005b8281101561489857848901518255600182019150602085019450602081019050614873565b868310156148b557848901516148b1601f8916826147be565b8355505b6001600288020188555050505b505050505050565b7f4f776e61626c653a206e6577206f776e657220697320746865207a65726f206160008201527f6464726573730000000000000000000000000000000000000000000000000000602082015250565b60006149266026836134ce565b9150614931826148ca565b604082019050919050565b6000602082019050818103600083015261495581614919565b9050919050565b7f4164647265737320616c72656164792072656769737465726564000000000000600082015250565b6000614992601a836134ce565b915061499d8261495c565b602082019050919050565b600060208201905081810360008301526149c181614985565b9050919050565b7f4552433732313a207472616e736665722066726f6d20696e636f72726563742060008201527f6f776e6572000000000000000000000000000000000000000000000000000000602082015250565b6000614a246025836134ce565b9150614a2f826149c8565b604082019050919050565b60006020820190508181036000830152614a5381614a17565b9050919050565b7f4552433732313a207472616e7366657220746f20746865207a65726f2061646460008201527f7265737300000000000000000000000000000000000000000000000000000000602082015250565b6000614ab66024836134ce565b9150614ac182614a5a565b604082019050919050565b60006020820190508181036000830152614ae581614aa9565b9050919050565b6000614af782613405565b9150614b0283613405565b9250827fffffffffffffffffffffffffffffffffffffffffffffffffffffffffffffffff03821115614b3757614b36614369565b5b828201905092915050565b7f4f776e61626c653a2063616c6c6572206973206e6f7420746865206f776e6572600082015250565b6000614b786020836134ce565b9150614b8382614b42565b602082019050919050565b60006020820190508181036000830152614ba781614b6b565b9050919050565b7f4552433732313a20617070726f766520746f2063616c6c657200000000000000600082015250565b6000614be46019836134ce565b9150614bef82614bae565b602082019050919050565b60006020820190508181036000830152614c1381614bd7565b9050919050565b6000614c2582613405565b915060008203614c3857614c37614369565b5b600182039050919050565b6000614c4e82613405565b9150614c5983613405565b925082614c6957614c686144c1565b5b828206905092915050565b6000614c7f82613405565b9150614c8a83613405565b925082614c9a57614c996144c1565b5b828204905092915050565b6000614cb082613405565b91507fffffffffffffffffffffffffffffffffffffffffffffffffffffffffffffffff8203614ce257614ce1614369565b5b600182019050919050565b7f2000000000000000000000000000000000000000000000000000000000000000600082015250565b6000614d2360018361458d565b9150614d2e82614ced565b600182019050919050565b6000614d458285614598565b9150614d5082614d16565b9150614d5c8284614598565b91508190509392505050565b7f4552433732313a207472616e7366657220746f206e6f6e20455243373231526560008201527f63656976657220696d706c656d656e7465720000000000000000000000000000602082015250565b6000614dc46032836134ce565b9150614dcf82614d68565b604082019050919050565b60006020820190508181036000830152614df381614db7565b9050919050565b6000614e068285614598565b9150614e128284614598565b91508190509392505050565b7f45524337323155524953746f726167653a2055524920736574206f66206e6f6e60008201527f6578697374656e7420746f6b656e000000000000000000000000000000000000602082015250565b6000614e7a602e836134ce565b9150614e8582614e1e565b604082019050919050565b60006020820190508181036000830152614ea981614e6d565b9050919050565b7f4e487b7100000000000000000000000000000000000000000000000000000000600052603160045260246000fd5b600081519050919050565b600082825260208201905092915050565b6000614f0682614edf565b614f108185614eea565b9350614f208185602086016134df565b614f2981613512565b840191505092915050565b6000608082019050614f496000830187613609565b614f566020830186613609565b614f63604083018561371f565b8181036060830152614f758184614efb565b905095945050505050565b600081519050614f8f8161334a565b92915050565b600060208284031215614fab57614faa613314565b5b6000614fb984828501614f80565b91505092915050565b7f4552433732313a206d696e7420746f20746865207a65726f2061646472657373600082015250565b6000614ff86020836134ce565b915061500382614fc2565b602082019050919050565b6000602082019050818103600083015261502781614feb565b9050919050565b7f4552433732313a20746f6b656e20616c7265616479206d696e74656400000000600082015250565b6000615064601c836134ce565b915061506f8261502e565b602082019050919050565b6000602082019050818103600083015261509381615057565b905091905056fea2646970667358221220fee58e5aaf5b8d5b46b3114cf492917771d4fdfa3155e26fd98511b5021cdd5b64736f6c634300080f0033",
  "immutableReferences": {},
  "source": "// SPDX-License-Identifier: MIT\npragma solidity ^0.8.4;\n\nimport \"@openzeppelin/contracts/token/ERC721/ERC721.sol\";\nimport \"@openzeppelin/contracts/token/ERC721/extensions/ERC721URIStorage.sol\";\nimport \"./Ownership.sol\";\nimport \"./Misc.sol\";\n\ncontract License is ERC721, ERC721URIStorage, Whitelist {\n    using Counters for Counters.Counter;\n\n    mapping(string => bool) private existingURIs;\n\n    constructor() ERC721(\"License\", \"License\") {}\n\n    // function _baseURI() internal pure override returns (string memory) {\n    //     return \"ipfs://\";\n    // }\n\n    function mint(\n        string memory name,\n        address to,\n        uint16[] memory seeds,\n        string memory uri,\n        uint24 day\n    ) public onlyRegistered onlySellar(msg.sender) {\n        require(!existingURIs[uri], \"URI already in use.\");\n        uint256 tokenId = combine(seeds);\n        addSerial(tokenId);\n        _safeMint(to, tokenId);\n        _setTokenURI(tokenId, uri);\n        existingURIs[uri] = true;\n        serialProductMap[tokenId] = product(\n            name,\n            msg.sender,\n            null_add_arr,\n            uint64(block.timestamp),\n            day\n        );\n    }\n\n    function safeBurn(uint16[] memory parts) internal {\n        _safeBurn(combine(parts));\n    }\n\n    function _safeBurn(uint256 tokenId) internal {\n        usedSerials[tokenId] = false;\n        serialProductMap[tokenId] = null_product;\n        _setTokenURI(tokenId, \"\");\n        _burn(tokenId);\n    }\n\n    function _burn(uint256 tokenId)\n        internal\n        override(ERC721, ERC721URIStorage)\n    {\n        super._burn(tokenId);\n    }\n\n    function getTokenURI(uint16[] memory parts)\n        public\n        view\n        returns (string memory)\n    {\n        return tokenURI(combine(parts));\n    }\n\n    function tokenURI(uint256 tokenId)\n        public\n        view\n        override(ERC721, ERC721URIStorage)\n        returns (string memory)\n    {\n        require(\n            msg.sender == serialProductMap[tokenId].sellar ||\n                msg.sender ==\n                serialProductMap[tokenId].ownerList[\n                    serialProductMap[tokenId].ownerList.length - 1\n                ],\n            \"Only the owner of this address can see it's details\"\n        );\n        uint64 current = uint64(block.timestamp);\n        if (\n            (current - serialProductMap[tokenId].birthtime) / (24 * 3600) <\n            serialProductMap[tokenId].lifespan\n        ) {\n            return super.tokenURI(tokenId);\n        } else {\n            require(false, \"License is already expired\");\n        }\n    }\n\n    function _beforeTokenTransfer(\n        address from,\n        address to,\n        uint256 serial\n    ) internal virtual override {\n        if (from != address(0)) {\n            uint256 i;\n            for (i = 0; i < addressUserMap[from].boughtList.length; i++) {\n                if (addressUserMap[from].boughtList[i] == serial) {\n                    addressUserMap[from].boughtList[i] = addressUserMap[from]\n                        .boughtList[addressUserMap[from].boughtList.length - 1];\n                    addressUserMap[from].boughtList.pop();\n                    break;\n                }\n            }\n        }\n    }\n\n    function _afterTokenTransfer(\n        address from,\n        address to,\n        uint256 serial\n    ) internal virtual override {\n        if (to != address(0)) {\n            addressUserMap[to].boughtList.push(serial);\n            serialProductMap[serial].ownerList.push(to);\n        }\n    }\n}\n",
  "sourcePath": "/Users/monjoy/Desktop/LicenseNFT/smart_contract/contracts/License.sol",
  "compiler": {
    "name": "solc",
    "version": "0.8.15+commit.e14f2714.Emscripten.clang"
  },
  "schemaVersion": "3.4.8",
  "updatedAt": "2022-07-22T09:55:17.892Z",
  "networkType": "ethereum",
  "devdoc": {
    "kind": "dev",
    "methods": {
      "approve(address,uint256)": {
        "details": "See {IERC721-approve}."
      },
      "balanceOf(address)": {
        "details": "See {IERC721-balanceOf}."
      },
      "getApproved(uint256)": {
        "details": "See {IERC721-getApproved}."
      },
      "isApprovedForAll(address,address)": {
        "details": "See {IERC721-isApprovedForAll}."
      },
      "name()": {
        "details": "See {IERC721Metadata-name}."
      },
      "owner()": {
        "details": "Returns the address of the current owner."
      },
      "ownerOf(uint256)": {
        "details": "See {IERC721-ownerOf}."
      },
      "renounceOwnership()": {
        "details": "Leaves the contract without owner. It will not be possible to call `onlyOwner` functions anymore. Can only be called by the current owner. NOTE: Renouncing ownership will leave the contract without an owner, thereby removing any functionality that is only available to the owner."
      },
      "safeTransferFrom(address,address,uint256)": {
        "details": "See {IERC721-safeTransferFrom}."
      },
      "safeTransferFrom(address,address,uint256,bytes)": {
        "details": "See {IERC721-safeTransferFrom}."
      },
      "setApprovalForAll(address,bool)": {
        "details": "See {IERC721-setApprovalForAll}."
      },
      "supportsInterface(bytes4)": {
        "details": "See {IERC165-supportsInterface}."
      },
      "symbol()": {
        "details": "See {IERC721Metadata-symbol}."
      },
      "transferFrom(address,address,uint256)": {
        "details": "See {IERC721-transferFrom}."
      },
      "transferOwnership(address)": {
        "details": "Transfers ownership of the contract to a new account (`newOwner`). Can only be called by the current owner."
      }
    },
    "version": 1
  },
  "userdoc": {
    "kind": "user",
    "methods": {},
    "version": 1
  }
}