{
  "contractName": "License",
  "abi": [
    {
      "inputs": [],
      "stateMutability": "nonpayable",
      "type": "constructor"
    },
    {
      "anonymous": false,
      "inputs": [
        {
          "indexed": true,
          "internalType": "address",
          "name": "owner",
          "type": "address"
        },
        {
          "indexed": true,
          "internalType": "address",
          "name": "approved",
          "type": "address"
        },
        {
          "indexed": true,
          "internalType": "uint256",
          "name": "tokenId",
          "type": "uint256"
        }
      ],
      "name": "Approval",
      "type": "event"
    },
    {
      "anonymous": false,
      "inputs": [
        {
          "indexed": true,
          "internalType": "address",
          "name": "owner",
          "type": "address"
        },
        {
          "indexed": true,
          "internalType": "address",
          "name": "operator",
          "type": "address"
        },
        {
          "indexed": false,
          "internalType": "bool",
          "name": "approved",
          "type": "bool"
        }
      ],
      "name": "ApprovalForAll",
      "type": "event"
    },
    {
      "anonymous": false,
      "inputs": [
        {
          "indexed": true,
          "internalType": "address",
          "name": "previousOwner",
          "type": "address"
        },
        {
          "indexed": true,
          "internalType": "address",
          "name": "newOwner",
          "type": "address"
        }
      ],
      "name": "OwnershipTransferred",
      "type": "event"
    },
    {
      "anonymous": false,
      "inputs": [
        {
          "indexed": true,
          "internalType": "address",
          "name": "from",
          "type": "address"
        },
        {
          "indexed": true,
          "internalType": "address",
          "name": "to",
          "type": "address"
        },
        {
          "indexed": true,
          "internalType": "uint256",
          "name": "tokenId",
          "type": "uint256"
        }
      ],
      "name": "Transfer",
      "type": "event"
    },
    {
      "inputs": [
        {
          "internalType": "uint256",
          "name": "serial",
          "type": "uint256"
        }
      ],
      "name": "addSerial",
      "outputs": [],
      "stateMutability": "nonpayable",
      "type": "function"
    },
    {
      "inputs": [
        {
          "internalType": "string",
          "name": "name",
          "type": "string"
        },
        {
          "internalType": "address",
          "name": "_member",
          "type": "address"
        },
        {
          "internalType": "bool",
          "name": "isSellar",
          "type": "bool"
        }
      ],
      "name": "addUser",
      "outputs": [],
      "stateMutability": "nonpayable",
      "type": "function"
    },
    {
      "inputs": [
        {
          "internalType": "address",
          "name": "to",
          "type": "address"
        },
        {
          "internalType": "uint256",
          "name": "tokenId",
          "type": "uint256"
        }
      ],
      "name": "approve",
      "outputs": [],
      "stateMutability": "nonpayable",
      "type": "function"
    },
    {
      "inputs": [
        {
          "internalType": "address",
          "name": "owner",
          "type": "address"
        }
      ],
      "name": "balanceOf",
      "outputs": [
        {
          "internalType": "uint256",
          "name": "",
          "type": "uint256"
        }
      ],
      "stateMutability": "view",
      "type": "function",
      "constant": true
    },
    {
      "inputs": [
        {
          "internalType": "uint256",
          "name": "tokenId",
          "type": "uint256"
        }
      ],
      "name": "getApproved",
      "outputs": [
        {
          "internalType": "address",
          "name": "",
          "type": "address"
        }
      ],
      "stateMutability": "view",
      "type": "function",
      "constant": true
    },
    {
      "inputs": [],
      "name": "getBoughtLicenses",
      "outputs": [
        {
          "internalType": "uint256[]",
          "name": "",
          "type": "uint256[]"
        }
      ],
      "stateMutability": "view",
      "type": "function",
      "constant": true
    },
    {
      "inputs": [],
      "name": "getIssuedLicense",
      "outputs": [
        {
          "internalType": "uint256[]",
          "name": "",
          "type": "uint256[]"
        }
      ],
      "stateMutability": "view",
      "type": "function",
      "constant": true
    },
    {
      "inputs": [],
      "name": "getName",
      "outputs": [
        {
          "internalType": "string",
          "name": "",
          "type": "string"
        }
      ],
      "stateMutability": "view",
      "type": "function",
      "constant": true
    },
    {
      "inputs": [
        {
          "internalType": "uint16[]",
          "name": "parts",
          "type": "uint16[]"
        }
      ],
      "name": "getProduct",
      "outputs": [
        {
          "components": [
            {
              "internalType": "string",
              "name": "name",
              "type": "string"
            },
            {
              "internalType": "uint256",
              "name": "serialID",
              "type": "uint256"
            },
            {
              "internalType": "address",
              "name": "sellar",
              "type": "address"
            },
            {
              "internalType": "address[]",
              "name": "ownerList",
              "type": "address[]"
            },
            {
              "internalType": "uint64",
              "name": "birthtime",
              "type": "uint64"
            },
            {
              "internalType": "uint24",
              "name": "lifespan",
              "type": "uint24"
            }
          ],
          "internalType": "struct Whitelist.product",
          "name": "",
          "type": "tuple"
        }
      ],
      "stateMutability": "view",
      "type": "function",
      "constant": true
    },
    {
      "inputs": [
        {
          "internalType": "address",
          "name": "owner",
          "type": "address"
        },
        {
          "internalType": "address",
          "name": "operator",
          "type": "address"
        }
      ],
      "name": "isApprovedForAll",
      "outputs": [
        {
          "internalType": "bool",
          "name": "",
          "type": "bool"
        }
      ],
      "stateMutability": "view",
      "type": "function",
      "constant": true
    },
    {
      "inputs": [],
      "name": "isRegistered",
      "outputs": [],
      "stateMutability": "view",
      "type": "function",
      "constant": true
    },
    {
      "inputs": [],
      "name": "kickSellar",
      "outputs": [],
      "stateMutability": "nonpayable",
      "type": "function"
    },
    {
      "inputs": [],
      "name": "makeSellar",
      "outputs": [],
      "stateMutability": "nonpayable",
      "type": "function"
    },
    {
      "inputs": [],
      "name": "name",
      "outputs": [
        {
          "internalType": "string",
          "name": "",
          "type": "string"
        }
      ],
      "stateMutability": "view",
      "type": "function",
      "constant": true
    },
    {
      "inputs": [],
      "name": "owner",
      "outputs": [
        {
          "internalType": "address",
          "name": "",
          "type": "address"
        }
      ],
      "stateMutability": "view",
      "type": "function",
      "constant": true
    },
    {
      "inputs": [
        {
          "internalType": "uint256",
          "name": "tokenId",
          "type": "uint256"
        }
      ],
      "name": "ownerOf",
      "outputs": [
        {
          "internalType": "address",
          "name": "",
          "type": "address"
        }
      ],
      "stateMutability": "view",
      "type": "function",
      "constant": true
    },
    {
      "inputs": [],
      "name": "renounceOwnership",
      "outputs": [],
      "stateMutability": "nonpayable",
      "type": "function"
    },
    {
      "inputs": [
        {
          "internalType": "address",
          "name": "from",
          "type": "address"
        },
        {
          "internalType": "address",
          "name": "to",
          "type": "address"
        },
        {
          "internalType": "uint256",
          "name": "tokenId",
          "type": "uint256"
        }
      ],
      "name": "safeTransferFrom",
      "outputs": [],
      "stateMutability": "nonpayable",
      "type": "function"
    },
    {
      "inputs": [
        {
          "internalType": "address",
          "name": "from",
          "type": "address"
        },
        {
          "internalType": "address",
          "name": "to",
          "type": "address"
        },
        {
          "internalType": "uint256",
          "name": "tokenId",
          "type": "uint256"
        },
        {
          "internalType": "bytes",
          "name": "data",
          "type": "bytes"
        }
      ],
      "name": "safeTransferFrom",
      "outputs": [],
      "stateMutability": "nonpayable",
      "type": "function"
    },
    {
      "inputs": [
        {
          "internalType": "address",
          "name": "operator",
          "type": "address"
        },
        {
          "internalType": "bool",
          "name": "approved",
          "type": "bool"
        }
      ],
      "name": "setApprovalForAll",
      "outputs": [],
      "stateMutability": "nonpayable",
      "type": "function"
    },
    {
      "inputs": [
        {
          "internalType": "bytes4",
          "name": "interfaceId",
          "type": "bytes4"
        }
      ],
      "name": "supportsInterface",
      "outputs": [
        {
          "internalType": "bool",
          "name": "",
          "type": "bool"
        }
      ],
      "stateMutability": "view",
      "type": "function",
      "constant": true
    },
    {
      "inputs": [],
      "name": "symbol",
      "outputs": [
        {
          "internalType": "string",
          "name": "",
          "type": "string"
        }
      ],
      "stateMutability": "view",
      "type": "function",
      "constant": true
    },
    {
      "inputs": [],
      "name": "time",
      "outputs": [
        {
          "internalType": "uint256",
          "name": "",
          "type": "uint256"
        }
      ],
      "stateMutability": "view",
      "type": "function",
      "constant": true
    },
    {
      "inputs": [
        {
          "internalType": "address",
          "name": "from",
          "type": "address"
        },
        {
          "internalType": "address",
          "name": "to",
          "type": "address"
        },
        {
          "internalType": "uint256",
          "name": "tokenId",
          "type": "uint256"
        }
      ],
      "name": "transferFrom",
      "outputs": [],
      "stateMutability": "nonpayable",
      "type": "function"
    },
    {
      "inputs": [
        {
          "internalType": "address",
          "name": "newOwner",
          "type": "address"
        }
      ],
      "name": "transferOwnership",
      "outputs": [],
      "stateMutability": "nonpayable",
      "type": "function"
    },
    {
      "inputs": [],
      "name": "getTime",
      "outputs": [
        {
          "internalType": "string",
          "name": "",
          "type": "string"
        }
      ],
      "stateMutability": "view",
      "type": "function",
      "constant": true
    },
    {
      "inputs": [
        {
          "internalType": "string",
          "name": "name",
          "type": "string"
        },
        {
          "internalType": "uint256",
          "name": "serialID",
          "type": "uint256"
        },
        {
          "internalType": "address",
          "name": "to",
          "type": "address"
        },
        {
          "internalType": "uint16[]",
          "name": "seeds",
          "type": "uint16[]"
        },
        {
          "internalType": "string",
          "name": "uri",
          "type": "string"
        },
        {
          "internalType": "uint24",
          "name": "day",
          "type": "uint24"
        }
      ],
      "name": "mint",
      "outputs": [],
      "stateMutability": "nonpayable",
      "type": "function"
    },
    {
      "inputs": [
        {
          "internalType": "uint16[]",
          "name": "parts",
          "type": "uint16[]"
        }
      ],
      "name": "getTokenURI",
      "outputs": [
        {
          "internalType": "string",
          "name": "",
          "type": "string"
        }
      ],
      "stateMutability": "view",
      "type": "function",
      "constant": true
    },
    {
      "inputs": [
        {
          "internalType": "uint256",
          "name": "tokenId",
          "type": "uint256"
        }
      ],
      "name": "tokenURI",
      "outputs": [
        {
          "internalType": "string",
          "name": "",
          "type": "string"
        }
      ],
      "stateMutability": "view",
      "type": "function",
      "constant": true
    }
  ],
  "bytecode": "0x6080604052600067ffffffffffffffff811115620000225762000021620004a5565b5b604051908082528060200260200182016040528015620000515781602001602082028036833780820191505090505b50600c908051906020019062000069929190620003f7565b506040518060c0016040528060405180602001604052806000815250815260200160008152602001600073ffffffffffffffffffffffffffffffffffffffff168152602001600c8054806020026020016040519081016040528092919081815260200182805480156200013257602002820191906000526020600020905b8160009054906101000a900473ffffffffffffffffffffffffffffffffffffffff1673ffffffffffffffffffffffffffffffffffffffff1681526020019060010190808311620000e7575b50505050508152602001600067ffffffffffffffff168152602001600062ffffff16815250600d60008201518160000190816200017091906200071f565b506020820151816001015560408201518160020160006101000a81548173ffffffffffffffffffffffffffffffffffffffff021916908373ffffffffffffffffffffffffffffffffffffffff1602179055506060820151816003019080519060200190620001e0929190620003f7565b5060808201518160040160006101000a81548167ffffffffffffffff021916908367ffffffffffffffff16021790555060a08201518160040160086101000a81548162ffffff021916908362ffffff16021790555050503480156200024457600080fd5b506040518060400160405280600781526020017f4c6963656e7365000000000000000000000000000000000000000000000000008152506040518060400160405280600781526020017f4c6963656e7365000000000000000000000000000000000000000000000000008152508160009081620002c291906200071f565b508060019081620002d491906200071f565b505050620002f7620002eb6200032960201b60201c565b6200033160201b60201c565b60016009600080815260200190815260200160002060006101000a81548160ff02191690831515021790555062000806565b600033905090565b6000600760009054906101000a900473ffffffffffffffffffffffffffffffffffffffff16905081600760006101000a81548173ffffffffffffffffffffffffffffffffffffffff021916908373ffffffffffffffffffffffffffffffffffffffff1602179055508173ffffffffffffffffffffffffffffffffffffffff168173ffffffffffffffffffffffffffffffffffffffff167f8be0079c531659141344cd1fd0a4f28419497f9722a3daafe3b4186f6b6457e060405160405180910390a35050565b82805482825590600052602060002090810192821562000473579160200282015b82811115620004725782518260006101000a81548173ffffffffffffffffffffffffffffffffffffffff021916908373ffffffffffffffffffffffffffffffffffffffff1602179055509160200191906001019062000418565b5b50905062000482919062000486565b5090565b5b80821115620004a157600081600090555060010162000487565b5090565b7f4e487b7100000000000000000000000000000000000000000000000000000000600052604160045260246000fd5b600081519050919050565b7f4e487b7100000000000000000000000000000000000000000000000000000000600052602260045260246000fd5b600060028204905060018216806200052757607f821691505b6020821081036200053d576200053c620004df565b5b50919050565b60008190508160005260206000209050919050565b60006020601f8301049050919050565b600082821b905092915050565b600060088302620005a77fffffffffffffffffffffffffffffffffffffffffffffffffffffffffffffffff8262000568565b620005b3868362000568565b95508019841693508086168417925050509392505050565b6000819050919050565b6000819050919050565b600062000600620005fa620005f484620005cb565b620005d5565b620005cb565b9050919050565b6000819050919050565b6200061c83620005df565b620006346200062b8262000607565b84845462000575565b825550505050565b600090565b6200064b6200063c565b6200065881848462000611565b505050565b5b8181101562000680576200067460008262000641565b6001810190506200065e565b5050565b601f821115620006cf57620006998162000543565b620006a48462000558565b81016020851015620006b4578190505b620006cc620006c38562000558565b8301826200065d565b50505b505050565b600082821c905092915050565b6000620006f460001984600802620006d4565b1980831691505092915050565b60006200070f8383620006e1565b9150826002028217905092915050565b6200072a82620004d4565b67ffffffffffffffff811115620007465762000745620004a5565b5b6200075282546200050e565b6200075f82828562000684565b600060209050601f83116001811462000797576000841562000782578287015190505b6200078e858262000701565b865550620007fe565b601f198416620007a78662000543565b60005b82811015620007d157848901518255600182019150602085019450602081019050620007aa565b86831015620007f15784890151620007ed601f891682620006e1565b8355505b6001600288020188555050505b505050505050565b6152b080620008166000396000f3fe608060405234801561001057600080fd5b50600436106101cf5760003560e01c806370a0823111610104578063b69c85d6116100a2578063e7d9c3b011610071578063e7d9c3b0146104d0578063e985e9c514610500578063f2fde38b14610530578063fd43d2e01461054c576101cf565b8063b69c85d61461045e578063b88d4fde1461047a578063c87b56dd14610496578063dd49dbd7146104c6576101cf565b80638da5cb5b116100de5780638da5cb5b146103d657806395d89b41146103f4578063a22cb46514610412578063b012381e1461042e576101cf565b806370a0823114610392578063715018a6146103c257806385a1556e146103cc576101cf565b806317d7de7c1161017157806323b872dd1161014b57806323b872dd1461030c57806342842e0e14610328578063557ed1ba146103445780636352211e14610362576101cf565b806317d7de7c146102c657806320a71c7b146102e45780632236684414610302576101cf565b8063081812fc116101ad578063081812fc14610240578063095ea7b314610270578063097599a81461028c57806316ada547146102a8576101cf565b806301ffc9a7146101d4578063045b94551461020457806306fdde0314610222575b600080fd5b6101ee60048036038101906101e99190613531565b610568565b6040516101fb9190613579565b60405180910390f35b61020c61064a565b604051610219919061365c565b60405180910390f35b61022a6106e2565b6040516102379190613717565b60405180910390f35b61025a60048036038101906102559190613765565b610774565b60405161026791906137d3565b60405180910390f35b61028a6004803603810190610285919061381a565b6107ba565b005b6102a660048036038101906102a19190613acc565b6108d1565b005b6102b0610d1d565b6040516102bd9190613bbc565b60405180910390f35b6102ce610d23565b6040516102db9190613717565b60405180910390f35b6102ec610e81565b6040516102f9919061365c565b60405180910390f35b61030a610faa565b005b61032660048036038101906103219190613bd7565b611038565b005b610342600480360381019061033d9190613bd7565b611098565b005b61034c6110b8565b6040516103599190613717565b60405180910390f35b61037c60048036038101906103779190613765565b6110ca565b60405161038991906137d3565b60405180910390f35b6103ac60048036038101906103a79190613c2a565b61117b565b6040516103b99190613bbc565b60405180910390f35b6103ca611232565b005b6103d4611246565b005b6103de61132b565b6040516103eb91906137d3565b60405180910390f35b6103fc611355565b6040516104099190613717565b60405180910390f35b61042c60048036038101906104279190613c83565b6113e7565b005b61044860048036038101906104439190613cc3565b6113fd565b6040516104559190613ed6565b60405180910390f35b61047860048036038101906104739190613765565b611607565b005b610494600480360381019061048f9190613f99565b6117b0565b005b6104b060048036038101906104ab9190613765565b611812565b6040516104bd9190613717565b60405180910390f35b6104ce611a42565b005b6104ea60048036038101906104e59190613cc3565b611a9f565b6040516104f79190613717565b60405180910390f35b61051a6004803603810190610515919061401c565b611ab9565b6040516105279190613579565b60405180910390f35b61054a60048036038101906105459190613c2a565b611b4d565b005b6105666004803603810190610561919061405c565b611bd0565b005b60007f80ac58cd000000000000000000000000000000000000000000000000000000007bffffffffffffffffffffffffffffffffffffffffffffffffffffffff1916827bffffffffffffffffffffffffffffffffffffffffffffffffffffffff1916148061063357507f5b5e139f000000000000000000000000000000000000000000000000000000007bffffffffffffffffffffffffffffffffffffffffffffffffffffffff1916827bffffffffffffffffffffffffffffffffffffffffffffffffffffffff1916145b80610643575061064282611e2b565b5b9050919050565b6060600a60003373ffffffffffffffffffffffffffffffffffffffff1673ffffffffffffffffffffffffffffffffffffffff1681526020019081526020016000206001018054806020026020016040519081016040528092919081815260200182805480156106d857602002820191906000526020600020905b8154815260200190600101908083116106c4575b5050505050905090565b6060600080546106f1906140fa565b80601f016020809104026020016040519081016040528092919081815260200182805461071d906140fa565b801561076a5780601f1061073f5761010080835404028352916020019161076a565b820191906000526020600020905b81548152906001019060200180831161074d57829003601f168201915b5050505050905090565b600061077f82611e95565b6004600083815260200190815260200160002060009054906101000a900473ffffffffffffffffffffffffffffffffffffffff169050919050565b60006107c5826110ca565b90508073ffffffffffffffffffffffffffffffffffffffff168373ffffffffffffffffffffffffffffffffffffffff1603610835576040517f08c379a000000000000000000000000000000000000000000000000000000000815260040161082c9061419d565b60405180910390fd5b8073ffffffffffffffffffffffffffffffffffffffff16610854611ee0565b73ffffffffffffffffffffffffffffffffffffffff16148061088357506108828161087d611ee0565b611ab9565b5b6108c2576040517f08c379a00000000000000000000000000000000000000000000000000000000081526004016108b99061422f565b60405180910390fd5b6108cc8383611ee8565b505050565b600860003373ffffffffffffffffffffffffffffffffffffffff1673ffffffffffffffffffffffffffffffffffffffff16815260200190815260200160002060009054906101000a900460ff1661095d576040517f08c379a00000000000000000000000000000000000000000000000000000000081526004016109549061429b565b60405180910390fd5b33600a60008273ffffffffffffffffffffffffffffffffffffffff1673ffffffffffffffffffffffffffffffffffffffff16815260200190815260200160002060030160009054906101000a900460ff166109ed576040517f08c379a00000000000000000000000000000000000000000000000000000000081526004016109e490614307565b60405180910390fd5b600860008673ffffffffffffffffffffffffffffffffffffffff1673ffffffffffffffffffffffffffffffffffffffff16815260200190815260200160002060009054906101000a900460ff16610a79576040517f08c379a0000000000000000000000000000000000000000000000000000000008152600401610a709061429b565b60405180910390fd5b601283604051610a899190614363565b908152602001604051809103902060009054906101000a900460ff1615610ae5576040517f08c379a0000000000000000000000000000000000000000000000000000000008152600401610adc906143c6565b60405180910390fd5b6000610af085611fa1565b9050610afb81611607565b610b05868261200c565b610b0f818561202a565b6001601285604051610b219190614363565b908152602001604051809103902060006101000a81548160ff0219169083151502179055506040518060c001604052808981526020018881526020013373ffffffffffffffffffffffffffffffffffffffff168152602001600c805480602002602001604051908101604052809291908181526020018280548015610bfb57602002820191906000526020600020905b8160009054906101000a900473ffffffffffffffffffffffffffffffffffffffff1673ffffffffffffffffffffffffffffffffffffffff1681526020019060010190808311610bb1575b505050505081526020014267ffffffffffffffff1681526020018462ffffff16815250600b60008381526020019081526020016000206000820151816000019081610c469190614592565b506020820151816001015560408201518160020160006101000a81548173ffffffffffffffffffffffffffffffffffffffff021916908373ffffffffffffffffffffffffffffffffffffffff1602179055506060820151816003019080519060200190610cb4929190613376565b5060808201518160040160006101000a81548167ffffffffffffffff021916908367ffffffffffffffff16021790555060a08201518160040160086101000a81548162ffffff021916908362ffffff160217905550905050426013819055505050505050505050565b60135481565b6060600860003373ffffffffffffffffffffffffffffffffffffffff1673ffffffffffffffffffffffffffffffffffffffff16815260200190815260200160002060009054906101000a900460ff16610db1576040517f08c379a0000000000000000000000000000000000000000000000000000000008152600401610da89061429b565b60405180910390fd5b600a60003373ffffffffffffffffffffffffffffffffffffffff1673ffffffffffffffffffffffffffffffffffffffff1681526020019081526020016000206000018054610dfe906140fa565b80601f0160208091040260200160405190810160405280929190818152602001828054610e2a906140fa565b8015610e775780601f10610e4c57610100808354040283529160200191610e77565b820191906000526020600020905b815481529060010190602001808311610e5a57829003601f168201915b5050505050905090565b606033600a60008273ffffffffffffffffffffffffffffffffffffffff1673ffffffffffffffffffffffffffffffffffffffff16815260200190815260200160002060030160009054906101000a900460ff16610f13576040517f08c379a0000000000000000000000000000000000000000000000000000000008152600401610f0a90614307565b60405180910390fd5b600a60003373ffffffffffffffffffffffffffffffffffffffff1673ffffffffffffffffffffffffffffffffffffffff168152602001908152602001600020600201805480602002602001604051908101604052809291908181526020018280548015610f9f57602002820191906000526020600020905b815481526020019060010190808311610f8b575b505050505091505090565b600860003373ffffffffffffffffffffffffffffffffffffffff1673ffffffffffffffffffffffffffffffffffffffff16815260200190815260200160002060009054906101000a900460ff16611036576040517f08c379a000000000000000000000000000000000000000000000000000000000815260040161102d9061429b565b60405180910390fd5b565b611049611043611ee0565b82612097565b611088576040517f08c379a000000000000000000000000000000000000000000000000000000000815260040161107f906146d6565b60405180910390fd5b61109383838361212c565b505050565b6110b3838383604051806020016040528060008152506117b0565b505050565b60606110c5601354612392565b905090565b6000806002600084815260200190815260200160002060009054906101000a900473ffffffffffffffffffffffffffffffffffffffff169050600073ffffffffffffffffffffffffffffffffffffffff168173ffffffffffffffffffffffffffffffffffffffff1603611172576040517f08c379a000000000000000000000000000000000000000000000000000000000815260040161116990614742565b60405180910390fd5b80915050919050565b60008073ffffffffffffffffffffffffffffffffffffffff168273ffffffffffffffffffffffffffffffffffffffff16036111eb576040517f08c379a00000000000000000000000000000000000000000000000000000000081526004016111e2906147d4565b60405180910390fd5b600360008373ffffffffffffffffffffffffffffffffffffffff1673ffffffffffffffffffffffffffffffffffffffff168152602001908152602001600020549050919050565b61123a612567565b61124460006125e5565b565b6000600a60003373ffffffffffffffffffffffffffffffffffffffff1673ffffffffffffffffffffffffffffffffffffffff16815260200190815260200160002060020180549050146112ce576040517f08c379a00000000000000000000000000000000000000000000000000000000081526004016112c590614866565b60405180910390fd5b6000600a60003373ffffffffffffffffffffffffffffffffffffffff1673ffffffffffffffffffffffffffffffffffffffff16815260200190815260200160002060030160006101000a81548160ff021916908315150217905550565b6000600760009054906101000a900473ffffffffffffffffffffffffffffffffffffffff16905090565b606060018054611364906140fa565b80601f0160208091040260200160405190810160405280929190818152602001828054611390906140fa565b80156113dd5780601f106113b2576101008083540402835291602001916113dd565b820191906000526020600020905b8154815290600101906020018083116113c057829003601f168201915b5050505050905090565b6113f96113f2611ee0565b83836126ab565b5050565b611405613400565b600b600061141284611fa1565b81526020019081526020016000206040518060c001604052908160008201805461143b906140fa565b80601f0160208091040260200160405190810160405280929190818152602001828054611467906140fa565b80156114b45780601f10611489576101008083540402835291602001916114b4565b820191906000526020600020905b81548152906001019060200180831161149757829003601f168201915b50505050508152602001600182015481526020016002820160009054906101000a900473ffffffffffffffffffffffffffffffffffffffff1673ffffffffffffffffffffffffffffffffffffffff1673ffffffffffffffffffffffffffffffffffffffff168152602001600382018054806020026020016040519081016040528092919081815260200182805480156115a257602002820191906000526020600020905b8160009054906101000a900473ffffffffffffffffffffffffffffffffffffffff1673ffffffffffffffffffffffffffffffffffffffff1681526020019060010190808311611558575b505050505081526020016004820160009054906101000a900467ffffffffffffffff1667ffffffffffffffff1667ffffffffffffffff1681526020016004820160089054906101000a900462ffffff1662ffffff1662ffffff16815250509050919050565b33600a60008273ffffffffffffffffffffffffffffffffffffffff1673ffffffffffffffffffffffffffffffffffffffff16815260200190815260200160002060030160009054906101000a900460ff16611697576040517f08c379a000000000000000000000000000000000000000000000000000000000815260040161168e90614307565b60405180910390fd5b6009600083815260200190815260200160002060009054906101000a900460ff161561173e6117036040518060400160405280600781526020017f53657269616c20000000000000000000000000000000000000000000000000008152506116fe86612392565b612817565b6040518060400160405280600f81526020017f20616c726561647920696e207573650000000000000000000000000000000000815250612817565b9061177f576040517f08c379a00000000000000000000000000000000000000000000000000000000081526004016117769190613717565b60405180910390fd5b5060016009600084815260200190815260200160002060006101000a81548160ff0219169083151502179055505050565b6117c16117bb611ee0565b83612097565b611800576040517f08c379a00000000000000000000000000000000000000000000000000000000081526004016117f7906146d6565b60405180910390fd5b61180c84848484612843565b50505050565b6060600b600083815260200190815260200160002060020160009054906101000a900473ffffffffffffffffffffffffffffffffffffffff1673ffffffffffffffffffffffffffffffffffffffff163373ffffffffffffffffffffffffffffffffffffffff1614806119265750600b60008381526020019081526020016000206003016001600b6000858152602001908152602001600020600301805490506118bb91906148b5565b815481106118cc576118cb6148e9565b5b9060005260206000200160009054906101000a900473ffffffffffffffffffffffffffffffffffffffff1673ffffffffffffffffffffffffffffffffffffffff163373ffffffffffffffffffffffffffffffffffffffff16145b611965576040517f08c379a000000000000000000000000000000000000000000000000000000000815260040161195c9061498a565b60405180910390fd5b6000429050600b600084815260200190815260200160002060040160089054906101000a900462ffffff1662ffffff1662015180600b600086815260200190815260200160002060040160009054906101000a900467ffffffffffffffff16836119cf91906149aa565b6119d99190614a0d565b67ffffffffffffffff1610156119fa576119f28361289f565b915050611a3d565b6000611a3b576040517f08c379a0000000000000000000000000000000000000000000000000000000008152600401611a3290614a8a565b60405180910390fd5b505b919050565b6001600a60003373ffffffffffffffffffffffffffffffffffffffff1673ffffffffffffffffffffffffffffffffffffffff16815260200190815260200160002060030160006101000a81548160ff021916908315150217905550565b6060611ab2611aad83611fa1565b611812565b9050919050565b6000600560008473ffffffffffffffffffffffffffffffffffffffff1673ffffffffffffffffffffffffffffffffffffffff16815260200190815260200160002060008373ffffffffffffffffffffffffffffffffffffffff1673ffffffffffffffffffffffffffffffffffffffff16815260200190815260200160002060009054906101000a900460ff16905092915050565b611b55612567565b600073ffffffffffffffffffffffffffffffffffffffff168173ffffffffffffffffffffffffffffffffffffffff1603611bc4576040517f08c379a0000000000000000000000000000000000000000000000000000000008152600401611bbb90614b1c565b60405180910390fd5b611bcd816125e5565b50565b600860008373ffffffffffffffffffffffffffffffffffffffff1673ffffffffffffffffffffffffffffffffffffffff16815260200190815260200160002060009054906101000a900460ff1615611c5d576040517f08c379a0000000000000000000000000000000000000000000000000000000008152600401611c5490614b88565b60405180910390fd5b6001600860008473ffffffffffffffffffffffffffffffffffffffff1673ffffffffffffffffffffffffffffffffffffffff16815260200190815260200160002060006101000a81548160ff02191690831515021790555060008067ffffffffffffffff811115611cd157611cd0613864565b5b604051908082528060200260200182016040528015611cff5781602001602082028036833780820191505090505b50905060008067ffffffffffffffff811115611d1e57611d1d613864565b5b604051908082528060200260200182016040528015611d4c5781602001602082028036833780820191505090505b5090506040518060800160405280868152602001838152602001828152602001841515815250600a60008673ffffffffffffffffffffffffffffffffffffffff1673ffffffffffffffffffffffffffffffffffffffff1681526020019081526020016000206000820151816000019081611dc69190614592565b506020820151816001019080519060200190611de392919061345b565b506040820151816002019080519060200190611e0092919061345b565b5060608201518160030160006101000a81548160ff0219169083151502179055509050505050505050565b60007f01ffc9a7000000000000000000000000000000000000000000000000000000007bffffffffffffffffffffffffffffffffffffffffffffffffffffffff1916827bffffffffffffffffffffffffffffffffffffffffffffffffffffffff1916149050919050565b611e9e816129b1565b611edd576040517f08c379a0000000000000000000000000000000000000000000000000000000008152600401611ed490614742565b60405180910390fd5b50565b600033905090565b816004600083815260200190815260200160002060006101000a81548173ffffffffffffffffffffffffffffffffffffffff021916908373ffffffffffffffffffffffffffffffffffffffff160217905550808273ffffffffffffffffffffffffffffffffffffffff16611f5b836110ca565b73ffffffffffffffffffffffffffffffffffffffff167f8c5be1e5ebec7d5bd14f71427d1e84f3dd0314c0f7b2291e5b200ac8c7c3b92560405160405180910390a45050565b6000806000601090505b600181106120025783600182611fc191906148b5565b81518110611fd257611fd16148e9565b5b602002602001015161ffff16601083901b611fed9190614ba8565b91508080611ffa90614bfe565b915050611fab565b5080915050919050565b612026828260405180602001604052806000815250612a1d565b5050565b612033826129b1565b612072576040517f08c379a000000000000000000000000000000000000000000000000000000000815260040161206990614c99565b60405180910390fd5b806006600084815260200190815260200160002090816120929190614592565b505050565b6000806120a3836110ca565b90508073ffffffffffffffffffffffffffffffffffffffff168473ffffffffffffffffffffffffffffffffffffffff1614806120e557506120e48185611ab9565b5b8061212357508373ffffffffffffffffffffffffffffffffffffffff1661210b84610774565b73ffffffffffffffffffffffffffffffffffffffff16145b91505092915050565b8273ffffffffffffffffffffffffffffffffffffffff1661214c826110ca565b73ffffffffffffffffffffffffffffffffffffffff16146121a2576040517f08c379a000000000000000000000000000000000000000000000000000000000815260040161219990614d2b565b60405180910390fd5b600073ffffffffffffffffffffffffffffffffffffffff168273ffffffffffffffffffffffffffffffffffffffff1603612211576040517f08c379a000000000000000000000000000000000000000000000000000000000815260040161220890614dbd565b60405180910390fd5b61221c838383612a78565b612227600082611ee8565b6001600360008573ffffffffffffffffffffffffffffffffffffffff1673ffffffffffffffffffffffffffffffffffffffff168152602001908152602001600020600082825461227791906148b5565b925050819055506001600360008473ffffffffffffffffffffffffffffffffffffffff1673ffffffffffffffffffffffffffffffffffffffff16815260200190815260200160002060008282546122ce9190614ba8565b92505081905550816002600083815260200190815260200160002060006101000a81548173ffffffffffffffffffffffffffffffffffffffff021916908373ffffffffffffffffffffffffffffffffffffffff160217905550808273ffffffffffffffffffffffffffffffffffffffff168473ffffffffffffffffffffffffffffffffffffffff167fddf252ad1be2c89b69c2b068fc378daa952ba7f163c4a11628f55a4df523b3ef60405160405180910390a461238d838383612cfa565b505050565b60606000606467ffffffffffffffff8111156123b1576123b0613864565b5b6040519080825280601f01601f1916602001820160405280156123e35781602001600182028036833780820191505090505b50905060005b600084111561247257600a846123ff9190614ddd565b603061240b9190614ba8565b60f81b828281518110612421576124206148e9565b5b60200101907effffffffffffffffffffffffffffffffffffffffffffffffffffffffffffff1916908160001a905350600a8461245d9190614e0e565b9350808061246a90614e3f565b9150506123e9565b6000825167ffffffffffffffff81111561248f5761248e613864565b5b6040519080825280601f01601f1916602001820160405280156124c15781602001600182028036833780820191505090505b50905060005b835181101561255b578360018286516124e091906148b5565b6124ea91906148b5565b815181106124fb576124fa6148e9565b5b602001015160f81c60f81b828281518110612519576125186148e9565b5b60200101907effffffffffffffffffffffffffffffffffffffffffffffffffffffffffffff1916908160001a905350808061255390614e3f565b9150506124c7565b50809350505050919050565b61256f611ee0565b73ffffffffffffffffffffffffffffffffffffffff1661258d61132b565b73ffffffffffffffffffffffffffffffffffffffff16146125e3576040517f08c379a00000000000000000000000000000000000000000000000000000000081526004016125da90614ed3565b60405180910390fd5b565b6000600760009054906101000a900473ffffffffffffffffffffffffffffffffffffffff16905081600760006101000a81548173ffffffffffffffffffffffffffffffffffffffff021916908373ffffffffffffffffffffffffffffffffffffffff1602179055508173ffffffffffffffffffffffffffffffffffffffff168173ffffffffffffffffffffffffffffffffffffffff167f8be0079c531659141344cd1fd0a4f28419497f9722a3daafe3b4186f6b6457e060405160405180910390a35050565b8173ffffffffffffffffffffffffffffffffffffffff168373ffffffffffffffffffffffffffffffffffffffff1603612719576040517f08c379a000000000000000000000000000000000000000000000000000000000815260040161271090614f3f565b60405180910390fd5b80600560008573ffffffffffffffffffffffffffffffffffffffff1673ffffffffffffffffffffffffffffffffffffffff16815260200190815260200160002060008473ffffffffffffffffffffffffffffffffffffffff1673ffffffffffffffffffffffffffffffffffffffff16815260200190815260200160002060006101000a81548160ff0219169083151502179055508173ffffffffffffffffffffffffffffffffffffffff168373ffffffffffffffffffffffffffffffffffffffff167f17307eab39ab6107e8899845ad3d59bd9653f200f220920489ca2b5937696c318360405161280a9190613579565b60405180910390a3505050565b6060828260405160200161282c929190614fab565b604051602081830303815290604052905092915050565b61284e84848461212c565b61285a84848484612e14565b612899576040517f08c379a00000000000000000000000000000000000000000000000000000000081526004016128909061504c565b60405180910390fd5b50505050565b60606128aa82611e95565b60006006600084815260200190815260200160002080546128ca906140fa565b80601f01602080910402602001604051908101604052809291908181526020018280546128f6906140fa565b80156129435780601f1061291857610100808354040283529160200191612943565b820191906000526020600020905b81548152906001019060200180831161292657829003601f168201915b505050505090506000612954612f9b565b905060008151036129695781925050506129ac565b60008251111561299e57808260405160200161298692919061506c565b604051602081830303815290604052925050506129ac565b6129a784612fb2565b925050505b919050565b60008073ffffffffffffffffffffffffffffffffffffffff166002600084815260200190815260200160002060009054906101000a900473ffffffffffffffffffffffffffffffffffffffff1673ffffffffffffffffffffffffffffffffffffffff1614159050919050565b612a27838361301a565b612a346000848484612e14565b612a73576040517f08c379a0000000000000000000000000000000000000000000000000000000008152600401612a6a9061504c565b60405180910390fd5b505050565b600073ffffffffffffffffffffffffffffffffffffffff168373ffffffffffffffffffffffffffffffffffffffff1614612cf55760005b600a60008573ffffffffffffffffffffffffffffffffffffffff1673ffffffffffffffffffffffffffffffffffffffff16815260200190815260200160002060010180549050811015612cf35781600a60008673ffffffffffffffffffffffffffffffffffffffff1673ffffffffffffffffffffffffffffffffffffffff1681526020019081526020016000206001018281548110612b5157612b506148e9565b5b906000526020600020015403612ce057600a60008573ffffffffffffffffffffffffffffffffffffffff1673ffffffffffffffffffffffffffffffffffffffff1681526020019081526020016000206001016001600a60008773ffffffffffffffffffffffffffffffffffffffff1673ffffffffffffffffffffffffffffffffffffffff16815260200190815260200160002060010180549050612bf591906148b5565b81548110612c0657612c056148e9565b5b9060005260206000200154600a60008673ffffffffffffffffffffffffffffffffffffffff1673ffffffffffffffffffffffffffffffffffffffff1681526020019081526020016000206001018281548110612c6557612c646148e9565b5b9060005260206000200181905550600a60008573ffffffffffffffffffffffffffffffffffffffff1673ffffffffffffffffffffffffffffffffffffffff168152602001908152602001600020600101805480612cc557612cc4615090565b5b60019003818190600052602060002001600090559055612cf3565b8080612ceb90614e3f565b915050612aaf565b505b505050565b600073ffffffffffffffffffffffffffffffffffffffff168273ffffffffffffffffffffffffffffffffffffffff1614612e0f57600a60008373ffffffffffffffffffffffffffffffffffffffff1673ffffffffffffffffffffffffffffffffffffffff168152602001908152602001600020600101819080600181540180825580915050600190039060005260206000200160009091909190915055600b6000828152602001908152602001600020600301829080600181540180825580915050600190039060005260206000200160009091909190916101000a81548173ffffffffffffffffffffffffffffffffffffffff021916908373ffffffffffffffffffffffffffffffffffffffff1602179055505b505050565b6000612e358473ffffffffffffffffffffffffffffffffffffffff166131f3565b15612f8e578373ffffffffffffffffffffffffffffffffffffffff1663150b7a02612e5e611ee0565b8786866040518563ffffffff1660e01b8152600401612e809493929190615114565b6020604051808303816000875af1925050508015612ebc57506040513d601f19601f82011682018060405250810190612eb99190615175565b60015b612f3e573d8060008114612eec576040519150601f19603f3d011682016040523d82523d6000602084013e612ef1565b606091505b506000815103612f36576040517f08c379a0000000000000000000000000000000000000000000000000000000008152600401612f2d9061504c565b60405180910390fd5b805181602001fd5b63150b7a0260e01b7bffffffffffffffffffffffffffffffffffffffffffffffffffffffff1916817bffffffffffffffffffffffffffffffffffffffffffffffffffffffff191614915050612f93565b600190505b949350505050565b606060405180602001604052806000815250905090565b6060612fbd82611e95565b6000612fc7612f9b565b90506000815111612fe75760405180602001604052806000815250613012565b80612ff184613216565b60405160200161300292919061506c565b6040516020818303038152906040525b915050919050565b600073ffffffffffffffffffffffffffffffffffffffff168273ffffffffffffffffffffffffffffffffffffffff1603613089576040517f08c379a0000000000000000000000000000000000000000000000000000000008152600401613080906151ee565b60405180910390fd5b613092816129b1565b156130d2576040517f08c379a00000000000000000000000000000000000000000000000000000000081526004016130c99061525a565b60405180910390fd5b6130de60008383612a78565b6001600360008473ffffffffffffffffffffffffffffffffffffffff1673ffffffffffffffffffffffffffffffffffffffff168152602001908152602001600020600082825461312e9190614ba8565b92505081905550816002600083815260200190815260200160002060006101000a81548173ffffffffffffffffffffffffffffffffffffffff021916908373ffffffffffffffffffffffffffffffffffffffff160217905550808273ffffffffffffffffffffffffffffffffffffffff16600073ffffffffffffffffffffffffffffffffffffffff167fddf252ad1be2c89b69c2b068fc378daa952ba7f163c4a11628f55a4df523b3ef60405160405180910390a46131ef60008383612cfa565b5050565b6000808273ffffffffffffffffffffffffffffffffffffffff163b119050919050565b60606000820361325d576040518060400160405280600181526020017f30000000000000000000000000000000000000000000000000000000000000008152509050613371565b600082905060005b6000821461328f57808061327890614e3f565b915050600a826132889190614e0e565b9150613265565b60008167ffffffffffffffff8111156132ab576132aa613864565b5b6040519080825280601f01601f1916602001820160405280156132dd5781602001600182028036833780820191505090505b5090505b6000851461336a576001826132f691906148b5565b9150600a856133059190614ddd565b60306133119190614ba8565b60f81b818381518110613327576133266148e9565b5b60200101907effffffffffffffffffffffffffffffffffffffffffffffffffffffffffffff1916908160001a905350600a856133639190614e0e565b94506132e1565b8093505050505b919050565b8280548282559060005260206000209081019282156133ef579160200282015b828111156133ee5782518260006101000a81548173ffffffffffffffffffffffffffffffffffffffff021916908373ffffffffffffffffffffffffffffffffffffffff16021790555091602001919060010190613396565b5b5090506133fc91906134a8565b5090565b6040518060c001604052806060815260200160008152602001600073ffffffffffffffffffffffffffffffffffffffff16815260200160608152602001600067ffffffffffffffff168152602001600062ffffff1681525090565b828054828255906000526020600020908101928215613497579160200282015b8281111561349657825182559160200191906001019061347b565b5b5090506134a491906134a8565b5090565b5b808211156134c15760008160009055506001016134a9565b5090565b6000604051905090565b600080fd5b600080fd5b60007fffffffff0000000000000000000000000000000000000000000000000000000082169050919050565b61350e816134d9565b811461351957600080fd5b50565b60008135905061352b81613505565b92915050565b600060208284031215613547576135466134cf565b5b60006135558482850161351c565b91505092915050565b60008115159050919050565b6135738161355e565b82525050565b600060208201905061358e600083018461356a565b92915050565b600081519050919050565b600082825260208201905092915050565b6000819050602082019050919050565b6000819050919050565b6135d3816135c0565b82525050565b60006135e583836135ca565b60208301905092915050565b6000602082019050919050565b600061360982613594565b613613818561359f565b935061361e836135b0565b8060005b8381101561364f57815161363688826135d9565b9750613641836135f1565b925050600181019050613622565b5085935050505092915050565b6000602082019050818103600083015261367681846135fe565b905092915050565b600081519050919050565b600082825260208201905092915050565b60005b838110156136b857808201518184015260208101905061369d565b838111156136c7576000848401525b50505050565b6000601f19601f8301169050919050565b60006136e98261367e565b6136f38185613689565b935061370381856020860161369a565b61370c816136cd565b840191505092915050565b6000602082019050818103600083015261373181846136de565b905092915050565b613742816135c0565b811461374d57600080fd5b50565b60008135905061375f81613739565b92915050565b60006020828403121561377b5761377a6134cf565b5b600061378984828501613750565b91505092915050565b600073ffffffffffffffffffffffffffffffffffffffff82169050919050565b60006137bd82613792565b9050919050565b6137cd816137b2565b82525050565b60006020820190506137e860008301846137c4565b92915050565b6137f7816137b2565b811461380257600080fd5b50565b600081359050613814816137ee565b92915050565b60008060408385031215613831576138306134cf565b5b600061383f85828601613805565b925050602061385085828601613750565b9150509250929050565b600080fd5b600080fd5b7f4e487b7100000000000000000000000000000000000000000000000000000000600052604160045260246000fd5b61389c826136cd565b810181811067ffffffffffffffff821117156138bb576138ba613864565b5b80604052505050565b60006138ce6134c5565b90506138da8282613893565b919050565b600067ffffffffffffffff8211156138fa576138f9613864565b5b613903826136cd565b9050602081019050919050565b82818337600083830152505050565b600061393261392d846138df565b6138c4565b90508281526020810184848401111561394e5761394d61385f565b5b613959848285613910565b509392505050565b600082601f8301126139765761397561385a565b5b813561398684826020860161391f565b91505092915050565b600067ffffffffffffffff8211156139aa576139a9613864565b5b602082029050602081019050919050565b600080fd5b600061ffff82169050919050565b6139d7816139c0565b81146139e257600080fd5b50565b6000813590506139f4816139ce565b92915050565b6000613a0d613a088461398f565b6138c4565b90508083825260208201905060208402830185811115613a3057613a2f6139bb565b5b835b81811015613a595780613a4588826139e5565b845260208401935050602081019050613a32565b5050509392505050565b600082601f830112613a7857613a7761385a565b5b8135613a888482602086016139fa565b91505092915050565b600062ffffff82169050919050565b613aa981613a91565b8114613ab457600080fd5b50565b600081359050613ac681613aa0565b92915050565b60008060008060008060c08789031215613ae957613ae86134cf565b5b600087013567ffffffffffffffff811115613b0757613b066134d4565b5b613b1389828a01613961565b9650506020613b2489828a01613750565b9550506040613b3589828a01613805565b945050606087013567ffffffffffffffff811115613b5657613b556134d4565b5b613b6289828a01613a63565b935050608087013567ffffffffffffffff811115613b8357613b826134d4565b5b613b8f89828a01613961565b92505060a0613ba089828a01613ab7565b9150509295509295509295565b613bb6816135c0565b82525050565b6000602082019050613bd16000830184613bad565b92915050565b600080600060608486031215613bf057613bef6134cf565b5b6000613bfe86828701613805565b9350506020613c0f86828701613805565b9250506040613c2086828701613750565b9150509250925092565b600060208284031215613c4057613c3f6134cf565b5b6000613c4e84828501613805565b91505092915050565b613c608161355e565b8114613c6b57600080fd5b50565b600081359050613c7d81613c57565b92915050565b60008060408385031215613c9a57613c996134cf565b5b6000613ca885828601613805565b9250506020613cb985828601613c6e565b9150509250929050565b600060208284031215613cd957613cd86134cf565b5b600082013567ffffffffffffffff811115613cf757613cf66134d4565b5b613d0384828501613a63565b91505092915050565b600082825260208201905092915050565b6000613d288261367e565b613d328185613d0c565b9350613d4281856020860161369a565b613d4b816136cd565b840191505092915050565b613d5f816137b2565b82525050565b600081519050919050565b600082825260208201905092915050565b6000819050602082019050919050565b6000613d9d8383613d56565b60208301905092915050565b6000602082019050919050565b6000613dc182613d65565b613dcb8185613d70565b9350613dd683613d81565b8060005b83811015613e07578151613dee8882613d91565b9750613df983613da9565b925050600181019050613dda565b5085935050505092915050565b600067ffffffffffffffff82169050919050565b613e3181613e14565b82525050565b613e4081613a91565b82525050565b600060c0830160008301518482036000860152613e638282613d1d565b9150506020830151613e7860208601826135ca565b506040830151613e8b6040860182613d56565b5060608301518482036060860152613ea38282613db6565b9150506080830151613eb86080860182613e28565b5060a0830151613ecb60a0860182613e37565b508091505092915050565b60006020820190508181036000830152613ef08184613e46565b905092915050565b600067ffffffffffffffff821115613f1357613f12613864565b5b613f1c826136cd565b9050602081019050919050565b6000613f3c613f3784613ef8565b6138c4565b905082815260208101848484011115613f5857613f5761385f565b5b613f63848285613910565b509392505050565b600082601f830112613f8057613f7f61385a565b5b8135613f90848260208601613f29565b91505092915050565b60008060008060808587031215613fb357613fb26134cf565b5b6000613fc187828801613805565b9450506020613fd287828801613805565b9350506040613fe387828801613750565b925050606085013567ffffffffffffffff811115614004576140036134d4565b5b61401087828801613f6b565b91505092959194509250565b60008060408385031215614033576140326134cf565b5b600061404185828601613805565b925050602061405285828601613805565b9150509250929050565b600080600060608486031215614075576140746134cf565b5b600084013567ffffffffffffffff811115614093576140926134d4565b5b61409f86828701613961565b93505060206140b086828701613805565b92505060406140c186828701613c6e565b9150509250925092565b7f4e487b7100000000000000000000000000000000000000000000000000000000600052602260045260246000fd5b6000600282049050600182168061411257607f821691505b602082108103614125576141246140cb565b5b50919050565b7f4552433732313a20617070726f76616c20746f2063757272656e74206f776e6560008201527f7200000000000000000000000000000000000000000000000000000000000000602082015250565b6000614187602183613689565b91506141928261412b565b604082019050919050565b600060208201905081810360008301526141b68161417a565b9050919050565b7f4552433732313a20617070726f76652063616c6c6572206973206e6f7420746f60008201527f6b656e206f776e6572206e6f7220617070726f76656420666f7220616c6c0000602082015250565b6000614219603e83613689565b9150614224826141bd565b604082019050919050565b600060208201905081810360008301526142488161420c565b9050919050565b7f4f6e6c792072656769737465726564206d656d6265727320616c6c6f77656400600082015250565b6000614285601f83613689565b91506142908261424f565b602082019050919050565b600060208201905081810360008301526142b481614278565b9050919050565b7f4f6e6c792073656c6c6172732063616e20616363657373207468697300000000600082015250565b60006142f1601c83613689565b91506142fc826142bb565b602082019050919050565b60006020820190508181036000830152614320816142e4565b9050919050565b600081905092915050565b600061433d8261367e565b6143478185614327565b935061435781856020860161369a565b80840191505092915050565b600061436f8284614332565b915081905092915050565b7f55524920616c726561647920696e207573652e00000000000000000000000000600082015250565b60006143b0601383613689565b91506143bb8261437a565b602082019050919050565b600060208201905081810360008301526143df816143a3565b9050919050565b60008190508160005260206000209050919050565b60006020601f8301049050919050565b600082821b905092915050565b6000600883026144487fffffffffffffffffffffffffffffffffffffffffffffffffffffffffffffffff8261440b565b614452868361440b565b95508019841693508086168417925050509392505050565b6000819050919050565b600061448f61448a614485846135c0565b61446a565b6135c0565b9050919050565b6000819050919050565b6144a983614474565b6144bd6144b582614496565b848454614418565b825550505050565b600090565b6144d26144c5565b6144dd8184846144a0565b505050565b5b81811015614501576144f66000826144ca565b6001810190506144e3565b5050565b601f82111561454657614517816143e6565b614520846143fb565b8101602085101561452f578190505b61454361453b856143fb565b8301826144e2565b50505b505050565b600082821c905092915050565b60006145696000198460080261454b565b1980831691505092915050565b60006145828383614558565b9150826002028217905092915050565b61459b8261367e565b67ffffffffffffffff8111156145b4576145b3613864565b5b6145be82546140fa565b6145c9828285614505565b600060209050601f8311600181146145fc57600084156145ea578287015190505b6145f48582614576565b86555061465c565b601f19841661460a866143e6565b60005b828110156146325784890151825560018201915060208501945060208101905061460d565b8683101561464f578489015161464b601f891682614558565b8355505b6001600288020188555050505b505050505050565b7f4552433732313a2063616c6c6572206973206e6f7420746f6b656e206f776e6560008201527f72206e6f7220617070726f766564000000000000000000000000000000000000602082015250565b60006146c0602e83613689565b91506146cb82614664565b604082019050919050565b600060208201905081810360008301526146ef816146b3565b9050919050565b7f4552433732313a20696e76616c696420746f6b656e2049440000000000000000600082015250565b600061472c601883613689565b9150614737826146f6565b602082019050919050565b6000602082019050818103600083015261475b8161471f565b9050919050565b7f4552433732313a2061646472657373207a65726f206973206e6f74206120766160008201527f6c6964206f776e65720000000000000000000000000000000000000000000000602082015250565b60006147be602983613689565b91506147c982614762565b604082019050919050565b600060208201905081810360008301526147ed816147b1565b9050919050565b7f416c6c206c6963656e736573206e65656420746f20657870697265206265666f60008201527f7265206c656176696e672074686520627573696e657373000000000000000000602082015250565b6000614850603783613689565b915061485b826147f4565b604082019050919050565b6000602082019050818103600083015261487f81614843565b9050919050565b7f4e487b7100000000000000000000000000000000000000000000000000000000600052601160045260246000fd5b60006148c0826135c0565b91506148cb836135c0565b9250828210156148de576148dd614886565b5b828203905092915050565b7f4e487b7100000000000000000000000000000000000000000000000000000000600052603260045260246000fd5b7f4f6e6c7920746865206f776e6572206f6620746869732061646472657373206360008201527f616e2073656520697427732064657461696c7300000000000000000000000000602082015250565b6000614974603383613689565b915061497f82614918565b604082019050919050565b600060208201905081810360008301526149a381614967565b9050919050565b60006149b582613e14565b91506149c083613e14565b9250828210156149d3576149d2614886565b5b828203905092915050565b7f4e487b7100000000000000000000000000000000000000000000000000000000600052601260045260246000fd5b6000614a1882613e14565b9150614a2383613e14565b925082614a3357614a326149de565b5b828204905092915050565b7f4c6963656e736520697320616c72656164792065787069726564000000000000600082015250565b6000614a74601a83613689565b9150614a7f82614a3e565b602082019050919050565b60006020820190508181036000830152614aa381614a67565b9050919050565b7f4f776e61626c653a206e6577206f776e657220697320746865207a65726f206160008201527f6464726573730000000000000000000000000000000000000000000000000000602082015250565b6000614b06602683613689565b9150614b1182614aaa565b604082019050919050565b60006020820190508181036000830152614b3581614af9565b9050919050565b7f4164647265737320616c72656164792072656769737465726564000000000000600082015250565b6000614b72601a83613689565b9150614b7d82614b3c565b602082019050919050565b60006020820190508181036000830152614ba181614b65565b9050919050565b6000614bb3826135c0565b9150614bbe836135c0565b9250827fffffffffffffffffffffffffffffffffffffffffffffffffffffffffffffffff03821115614bf357614bf2614886565b5b828201905092915050565b6000614c09826135c0565b915060008203614c1c57614c1b614886565b5b600182039050919050565b7f45524337323155524953746f726167653a2055524920736574206f66206e6f6e60008201527f6578697374656e7420746f6b656e000000000000000000000000000000000000602082015250565b6000614c83602e83613689565b9150614c8e82614c27565b604082019050919050565b60006020820190508181036000830152614cb281614c76565b9050919050565b7f4552433732313a207472616e736665722066726f6d20696e636f72726563742060008201527f6f776e6572000000000000000000000000000000000000000000000000000000602082015250565b6000614d15602583613689565b9150614d2082614cb9565b604082019050919050565b60006020820190508181036000830152614d4481614d08565b9050919050565b7f4552433732313a207472616e7366657220746f20746865207a65726f2061646460008201527f7265737300000000000000000000000000000000000000000000000000000000602082015250565b6000614da7602483613689565b9150614db282614d4b565b604082019050919050565b60006020820190508181036000830152614dd681614d9a565b9050919050565b6000614de8826135c0565b9150614df3836135c0565b925082614e0357614e026149de565b5b828206905092915050565b6000614e19826135c0565b9150614e24836135c0565b925082614e3457614e336149de565b5b828204905092915050565b6000614e4a826135c0565b91507fffffffffffffffffffffffffffffffffffffffffffffffffffffffffffffffff8203614e7c57614e7b614886565b5b600182019050919050565b7f4f776e61626c653a2063616c6c6572206973206e6f7420746865206f776e6572600082015250565b6000614ebd602083613689565b9150614ec882614e87565b602082019050919050565b60006020820190508181036000830152614eec81614eb0565b9050919050565b7f4552433732313a20617070726f766520746f2063616c6c657200000000000000600082015250565b6000614f29601983613689565b9150614f3482614ef3565b602082019050919050565b60006020820190508181036000830152614f5881614f1c565b9050919050565b7f2000000000000000000000000000000000000000000000000000000000000000600082015250565b6000614f95600183614327565b9150614fa082614f5f565b600182019050919050565b6000614fb78285614332565b9150614fc282614f88565b9150614fce8284614332565b91508190509392505050565b7f4552433732313a207472616e7366657220746f206e6f6e20455243373231526560008201527f63656976657220696d706c656d656e7465720000000000000000000000000000602082015250565b6000615036603283613689565b915061504182614fda565b604082019050919050565b6000602082019050818103600083015261506581615029565b9050919050565b60006150788285614332565b91506150848284614332565b91508190509392505050565b7f4e487b7100000000000000000000000000000000000000000000000000000000600052603160045260246000fd5b600081519050919050565b600082825260208201905092915050565b60006150e6826150bf565b6150f081856150ca565b935061510081856020860161369a565b615109816136cd565b840191505092915050565b600060808201905061512960008301876137c4565b61513660208301866137c4565b6151436040830185613bad565b818103606083015261515581846150db565b905095945050505050565b60008151905061516f81613505565b92915050565b60006020828403121561518b5761518a6134cf565b5b600061519984828501615160565b91505092915050565b7f4552433732313a206d696e7420746f20746865207a65726f2061646472657373600082015250565b60006151d8602083613689565b91506151e3826151a2565b602082019050919050565b60006020820190508181036000830152615207816151cb565b9050919050565b7f4552433732313a20746f6b656e20616c7265616479206d696e74656400000000600082015250565b6000615244601c83613689565b915061524f8261520e565b602082019050919050565b6000602082019050818103600083015261527381615237565b905091905056fea26469706673582212207882e245cde49e04cc37f75066cafdb09ab15bf7a9e1f13a7e99ffcb6f6c5d9464736f6c634300080f0033",
  "immutableReferences": {},
  "source": "// SPDX-License-Identifier: MIT\npragma solidity ^0.8.4;\n\nimport \"@openzeppelin/contracts/token/ERC721/ERC721.sol\";\nimport \"@openzeppelin/contracts/token/ERC721/extensions/ERC721URIStorage.sol\";\nimport \"./Ownership.sol\";\nimport \"./Misc.sol\";\n\ncontract License is ERC721, ERC721URIStorage, Whitelist {\n    mapping(string => bool) private existingURIs;\n\n    constructor() ERC721(\"License\", \"License\") {}\n\n    // function _baseURI() internal pure override returns (string memory) {\n    //     return \"ipfs://\";\n    // }\n\n    uint256 public time;\n\n    function getTime() public view returns (string memory) {\n        return uintToString(time);\n    }\n\n    function mint(\n        string memory name,\n        uint256 serialID,\n        address to,\n        uint16[] memory seeds,\n        string memory uri,\n        uint24 day\n    ) public onlyRegistered onlySellar(msg.sender) {\n        require(usedBrandIDs[to], \"Only registered members allowed\");\n        require(!existingURIs[uri], \"URI already in use.\");\n        uint256 tokenId = combine(seeds);\n        addSerial(tokenId);\n        _safeMint(to, tokenId);\n        _setTokenURI(tokenId, uri);\n        existingURIs[uri] = true;\n        serialProductMap[tokenId] = product(\n            name,\n            serialID,\n            msg.sender,\n            null_add_arr,\n            uint64(block.timestamp),\n            day\n        );\n        time = block.timestamp;\n    }\n\n    function safeBurn(uint16[] memory parts) internal {\n        _safeBurn(combine(parts));\n    }\n\n    function _safeBurn(uint256 tokenId) internal {\n        usedSerials[tokenId] = false;\n        serialProductMap[tokenId] = null_product;\n        _setTokenURI(tokenId, \"\");\n        _burn(tokenId);\n    }\n\n    function _burn(uint256 tokenId)\n        internal\n        override(ERC721, ERC721URIStorage)\n    {\n        super._burn(tokenId);\n    }\n\n    function getTokenURI(uint16[] memory parts)\n        public\n        view\n        returns (string memory)\n    {\n        return tokenURI(combine(parts));\n    }\n\n    function tokenURI(uint256 tokenId)\n        public\n        view\n        override(ERC721, ERC721URIStorage)\n        returns (string memory)\n    {\n        require(\n            msg.sender == serialProductMap[tokenId].sellar ||\n                msg.sender ==\n                serialProductMap[tokenId].ownerList[\n                    serialProductMap[tokenId].ownerList.length - 1\n                ],\n            \"Only the owner of this address can see it's details\"\n        );\n        uint64 current = uint64(block.timestamp);\n        if (\n            (current - serialProductMap[tokenId].birthtime) / (24 * 3600) <\n            serialProductMap[tokenId].lifespan\n        ) {\n            return super.tokenURI(tokenId);\n        } else {\n            require(false, \"License is already expired\");\n        }\n    }\n\n    function _beforeTokenTransfer(\n        address from,\n        address to,\n        uint256 serial\n    ) internal virtual override {\n        if (from != address(0)) {\n            uint256 i;\n            for (i = 0; i < addressUserMap[from].boughtList.length; i++) {\n                if (addressUserMap[from].boughtList[i] == serial) {\n                    addressUserMap[from].boughtList[i] = addressUserMap[from]\n                        .boughtList[addressUserMap[from].boughtList.length - 1];\n                    addressUserMap[from].boughtList.pop();\n                    break;\n                }\n            }\n        }\n    }\n\n    function _afterTokenTransfer(\n        address from,\n        address to,\n        uint256 serial\n    ) internal virtual override {\n        if (to != address(0)) {\n            addressUserMap[to].boughtList.push(serial);\n            serialProductMap[serial].ownerList.push(to);\n        }\n    }\n}\n",
  "sourcePath": "/Users/monjoy/Desktop/LicenseNFT/smart_contract/contracts/License.sol",
  "compiler": {
    "name": "solc",
    "version": "0.8.15+commit.e14f2714.Emscripten.clang"
  },
  "schemaVersion": "3.4.8",
  "updatedAt": "2022-07-22T14:27:50.765Z",
  "networkType": "ethereum",
  "devdoc": {
    "kind": "dev",
    "methods": {
      "approve(address,uint256)": {
        "details": "See {IERC721-approve}."
      },
      "balanceOf(address)": {
        "details": "See {IERC721-balanceOf}."
      },
      "getApproved(uint256)": {
        "details": "See {IERC721-getApproved}."
      },
      "isApprovedForAll(address,address)": {
        "details": "See {IERC721-isApprovedForAll}."
      },
      "name()": {
        "details": "See {IERC721Metadata-name}."
      },
      "owner()": {
        "details": "Returns the address of the current owner."
      },
      "ownerOf(uint256)": {
        "details": "See {IERC721-ownerOf}."
      },
      "renounceOwnership()": {
        "details": "Leaves the contract without owner. It will not be possible to call `onlyOwner` functions anymore. Can only be called by the current owner. NOTE: Renouncing ownership will leave the contract without an owner, thereby removing any functionality that is only available to the owner."
      },
      "safeTransferFrom(address,address,uint256)": {
        "details": "See {IERC721-safeTransferFrom}."
      },
      "safeTransferFrom(address,address,uint256,bytes)": {
        "details": "See {IERC721-safeTransferFrom}."
      },
      "setApprovalForAll(address,bool)": {
        "details": "See {IERC721-setApprovalForAll}."
      },
      "supportsInterface(bytes4)": {
        "details": "See {IERC165-supportsInterface}."
      },
      "symbol()": {
        "details": "See {IERC721Metadata-symbol}."
      },
      "transferFrom(address,address,uint256)": {
        "details": "See {IERC721-transferFrom}."
      },
      "transferOwnership(address)": {
        "details": "Transfers ownership of the contract to a new account (`newOwner`). Can only be called by the current owner."
      }
    },
    "version": 1
  },
  "userdoc": {
    "kind": "user",
    "methods": {},
    "version": 1
  }
}