{
  "contractName": "License",
  "abi": [
    {
      "inputs": [],
      "stateMutability": "nonpayable",
      "type": "constructor"
    },
    {
      "anonymous": false,
      "inputs": [
        {
          "indexed": true,
          "internalType": "address",
          "name": "owner",
          "type": "address"
        },
        {
          "indexed": true,
          "internalType": "address",
          "name": "approved",
          "type": "address"
        },
        {
          "indexed": true,
          "internalType": "uint256",
          "name": "tokenId",
          "type": "uint256"
        }
      ],
      "name": "Approval",
      "type": "event"
    },
    {
      "anonymous": false,
      "inputs": [
        {
          "indexed": true,
          "internalType": "address",
          "name": "owner",
          "type": "address"
        },
        {
          "indexed": true,
          "internalType": "address",
          "name": "operator",
          "type": "address"
        },
        {
          "indexed": false,
          "internalType": "bool",
          "name": "approved",
          "type": "bool"
        }
      ],
      "name": "ApprovalForAll",
      "type": "event"
    },
    {
      "anonymous": false,
      "inputs": [
        {
          "indexed": true,
          "internalType": "address",
          "name": "from",
          "type": "address"
        },
        {
          "indexed": true,
          "internalType": "address",
          "name": "to",
          "type": "address"
        },
        {
          "indexed": true,
          "internalType": "uint256",
          "name": "tokenId",
          "type": "uint256"
        }
      ],
      "name": "Transfer",
      "type": "event"
    },
    {
      "inputs": [
        {
          "internalType": "uint256",
          "name": "serial",
          "type": "uint256"
        }
      ],
      "name": "addSerial",
      "outputs": [],
      "stateMutability": "nonpayable",
      "type": "function"
    },
    {
      "inputs": [
        {
          "internalType": "string",
          "name": "name",
          "type": "string"
        },
        {
          "internalType": "address",
          "name": "_member",
          "type": "address"
        },
        {
          "internalType": "bool",
          "name": "isSellar",
          "type": "bool"
        }
      ],
      "name": "addUser",
      "outputs": [],
      "stateMutability": "nonpayable",
      "type": "function"
    },
    {
      "inputs": [
        {
          "internalType": "address",
          "name": "to",
          "type": "address"
        },
        {
          "internalType": "uint256",
          "name": "tokenId",
          "type": "uint256"
        }
      ],
      "name": "approve",
      "outputs": [],
      "stateMutability": "nonpayable",
      "type": "function"
    },
    {
      "inputs": [
        {
          "internalType": "address",
          "name": "owner",
          "type": "address"
        }
      ],
      "name": "balanceOf",
      "outputs": [
        {
          "internalType": "uint256",
          "name": "",
          "type": "uint256"
        }
      ],
      "stateMutability": "view",
      "type": "function",
      "constant": true
    },
    {
      "inputs": [
        {
          "internalType": "uint256",
          "name": "tokenId",
          "type": "uint256"
        }
      ],
      "name": "getApproved",
      "outputs": [
        {
          "internalType": "address",
          "name": "",
          "type": "address"
        }
      ],
      "stateMutability": "view",
      "type": "function",
      "constant": true
    },
    {
      "inputs": [],
      "name": "getBoughtLicenses",
      "outputs": [
        {
          "internalType": "uint256[]",
          "name": "",
          "type": "uint256[]"
        }
      ],
      "stateMutability": "view",
      "type": "function",
      "constant": true
    },
    {
      "inputs": [
        {
          "internalType": "uint16[]",
          "name": "parts",
          "type": "uint16[]"
        }
      ],
      "name": "getCurrentOwner",
      "outputs": [
        {
          "internalType": "address",
          "name": "",
          "type": "address"
        }
      ],
      "stateMutability": "view",
      "type": "function",
      "constant": true
    },
    {
      "inputs": [],
      "name": "getIssuedLicense",
      "outputs": [
        {
          "internalType": "uint256[]",
          "name": "",
          "type": "uint256[]"
        }
      ],
      "stateMutability": "view",
      "type": "function",
      "constant": true
    },
    {
      "inputs": [],
      "name": "getName",
      "outputs": [
        {
          "internalType": "string",
          "name": "",
          "type": "string"
        }
      ],
      "stateMutability": "view",
      "type": "function",
      "constant": true
    },
    {
      "inputs": [
        {
          "internalType": "uint16[]",
          "name": "parts",
          "type": "uint16[]"
        }
      ],
      "name": "getOwnerList",
      "outputs": [
        {
          "internalType": "address[]",
          "name": "",
          "type": "address[]"
        }
      ],
      "stateMutability": "view",
      "type": "function",
      "constant": true
    },
    {
      "inputs": [
        {
          "internalType": "uint16[]",
          "name": "parts",
          "type": "uint16[]"
        }
      ],
      "name": "getProduct",
      "outputs": [
        {
          "components": [
            {
              "internalType": "string",
              "name": "name",
              "type": "string"
            },
            {
              "internalType": "uint256",
              "name": "serialID",
              "type": "uint256"
            },
            {
              "internalType": "address",
              "name": "sellar",
              "type": "address"
            },
            {
              "internalType": "uint64",
              "name": "birthtime",
              "type": "uint64"
            },
            {
              "internalType": "uint64",
              "name": "lifespan",
              "type": "uint64"
            },
            {
              "internalType": "bool",
              "name": "onSale",
              "type": "bool"
            },
            {
              "internalType": "enum Whitelist.ProductType",
              "name": "pType",
              "type": "uint8"
            }
          ],
          "internalType": "struct Whitelist.product",
          "name": "",
          "type": "tuple"
        }
      ],
      "stateMutability": "view",
      "type": "function",
      "constant": true
    },
    {
      "inputs": [
        {
          "internalType": "address",
          "name": "owner",
          "type": "address"
        },
        {
          "internalType": "address",
          "name": "operator",
          "type": "address"
        }
      ],
      "name": "isApprovedForAll",
      "outputs": [
        {
          "internalType": "bool",
          "name": "",
          "type": "bool"
        }
      ],
      "stateMutability": "view",
      "type": "function",
      "constant": true
    },
    {
      "inputs": [],
      "name": "isRegistered",
      "outputs": [],
      "stateMutability": "view",
      "type": "function",
      "constant": true
    },
    {
      "inputs": [],
      "name": "kickSellar",
      "outputs": [],
      "stateMutability": "nonpayable",
      "type": "function"
    },
    {
      "inputs": [],
      "name": "makeSellar",
      "outputs": [],
      "stateMutability": "nonpayable",
      "type": "function"
    },
    {
      "inputs": [],
      "name": "name",
      "outputs": [
        {
          "internalType": "string",
          "name": "",
          "type": "string"
        }
      ],
      "stateMutability": "view",
      "type": "function",
      "constant": true
    },
    {
      "inputs": [
        {
          "internalType": "uint256",
          "name": "tokenId",
          "type": "uint256"
        }
      ],
      "name": "ownerOf",
      "outputs": [
        {
          "internalType": "address",
          "name": "",
          "type": "address"
        }
      ],
      "stateMutability": "view",
      "type": "function",
      "constant": true
    },
    {
      "inputs": [
        {
          "internalType": "address",
          "name": "from",
          "type": "address"
        },
        {
          "internalType": "address",
          "name": "to",
          "type": "address"
        },
        {
          "internalType": "uint256",
          "name": "tokenId",
          "type": "uint256"
        }
      ],
      "name": "safeTransferFrom",
      "outputs": [],
      "stateMutability": "nonpayable",
      "type": "function"
    },
    {
      "inputs": [
        {
          "internalType": "address",
          "name": "from",
          "type": "address"
        },
        {
          "internalType": "address",
          "name": "to",
          "type": "address"
        },
        {
          "internalType": "uint256",
          "name": "tokenId",
          "type": "uint256"
        },
        {
          "internalType": "bytes",
          "name": "data",
          "type": "bytes"
        }
      ],
      "name": "safeTransferFrom",
      "outputs": [],
      "stateMutability": "nonpayable",
      "type": "function"
    },
    {
      "inputs": [
        {
          "internalType": "address",
          "name": "operator",
          "type": "address"
        },
        {
          "internalType": "bool",
          "name": "approved",
          "type": "bool"
        }
      ],
      "name": "setApprovalForAll",
      "outputs": [],
      "stateMutability": "nonpayable",
      "type": "function"
    },
    {
      "inputs": [
        {
          "internalType": "uint16[]",
          "name": "parts",
          "type": "uint16[]"
        }
      ],
      "name": "setOnSale",
      "outputs": [],
      "stateMutability": "nonpayable",
      "type": "function"
    },
    {
      "inputs": [
        {
          "internalType": "bytes4",
          "name": "interfaceId",
          "type": "bytes4"
        }
      ],
      "name": "supportsInterface",
      "outputs": [
        {
          "internalType": "bool",
          "name": "",
          "type": "bool"
        }
      ],
      "stateMutability": "view",
      "type": "function",
      "constant": true
    },
    {
      "inputs": [],
      "name": "symbol",
      "outputs": [
        {
          "internalType": "string",
          "name": "",
          "type": "string"
        }
      ],
      "stateMutability": "view",
      "type": "function",
      "constant": true
    },
    {
      "inputs": [
        {
          "internalType": "uint16[]",
          "name": "parts",
          "type": "uint16[]"
        }
      ],
      "name": "takeDownFromSale",
      "outputs": [],
      "stateMutability": "nonpayable",
      "type": "function"
    },
    {
      "inputs": [],
      "name": "time",
      "outputs": [
        {
          "internalType": "uint256",
          "name": "",
          "type": "uint256"
        }
      ],
      "stateMutability": "view",
      "type": "function",
      "constant": true
    },
    {
      "inputs": [
        {
          "internalType": "address",
          "name": "from",
          "type": "address"
        },
        {
          "internalType": "address",
          "name": "to",
          "type": "address"
        },
        {
          "internalType": "uint256",
          "name": "tokenId",
          "type": "uint256"
        }
      ],
      "name": "transferFrom",
      "outputs": [],
      "stateMutability": "nonpayable",
      "type": "function"
    },
    {
      "inputs": [],
      "name": "getTime",
      "outputs": [
        {
          "internalType": "string",
          "name": "",
          "type": "string"
        }
      ],
      "stateMutability": "view",
      "type": "function",
      "constant": true
    },
    {
      "inputs": [
        {
          "internalType": "string",
          "name": "name",
          "type": "string"
        },
        {
          "internalType": "uint256",
          "name": "serialID",
          "type": "uint256"
        },
        {
          "internalType": "address",
          "name": "to",
          "type": "address"
        },
        {
          "internalType": "uint16[]",
          "name": "seeds",
          "type": "uint16[]"
        },
        {
          "internalType": "string",
          "name": "uri",
          "type": "string"
        },
        {
          "internalType": "uint64",
          "name": "secs",
          "type": "uint64"
        },
        {
          "internalType": "enum Whitelist.ProductType",
          "name": "pType",
          "type": "uint8"
        }
      ],
      "name": "mint",
      "outputs": [],
      "stateMutability": "nonpayable",
      "type": "function"
    },
    {
      "inputs": [],
      "name": "getLast",
      "outputs": [
        {
          "internalType": "uint256",
          "name": "",
          "type": "uint256"
        }
      ],
      "stateMutability": "view",
      "type": "function",
      "constant": true
    },
    {
      "inputs": [],
      "name": "getTokenURI",
      "outputs": [
        {
          "internalType": "string",
          "name": "",
          "type": "string"
        }
      ],
      "stateMutability": "view",
      "type": "function",
      "constant": true
    },
    {
      "inputs": [
        {
          "internalType": "uint16[]",
          "name": "parts",
          "type": "uint16[]"
        }
      ],
      "name": "setTokenURI",
      "outputs": [
        {
          "internalType": "string",
          "name": "",
          "type": "string"
        }
      ],
      "stateMutability": "nonpayable",
      "type": "function"
    },
    {
      "inputs": [
        {
          "internalType": "uint256",
          "name": "tokenId",
          "type": "uint256"
        }
      ],
      "name": "tokenURI",
      "outputs": [
        {
          "internalType": "string",
          "name": "",
          "type": "string"
        }
      ],
      "stateMutability": "view",
      "type": "function",
      "constant": true
    }
  ],
  "bytecode": "0x60806040523480156200001157600080fd5b506040518060400160405280600781526020017f4c6963656e7365000000000000000000000000000000000000000000000000008152506040518060400160405280600781526020017f4c6963656e73650000000000000000000000000000000000000000000000000081525081600090816200008f919062000350565b508060019081620000a1919062000350565b50505060016008600080815260200190815260200160002060006101000a81548160ff02191690831515021790555062000437565b600081519050919050565b7f4e487b7100000000000000000000000000000000000000000000000000000000600052604160045260246000fd5b7f4e487b7100000000000000000000000000000000000000000000000000000000600052602260045260246000fd5b600060028204905060018216806200015857607f821691505b6020821081036200016e576200016d62000110565b5b50919050565b60008190508160005260206000209050919050565b60006020601f8301049050919050565b600082821b905092915050565b600060088302620001d87fffffffffffffffffffffffffffffffffffffffffffffffffffffffffffffffff8262000199565b620001e4868362000199565b95508019841693508086168417925050509392505050565b6000819050919050565b6000819050919050565b6000620002316200022b6200022584620001fc565b62000206565b620001fc565b9050919050565b6000819050919050565b6200024d8362000210565b620002656200025c8262000238565b848454620001a6565b825550505050565b600090565b6200027c6200026d565b6200028981848462000242565b505050565b5b81811015620002b157620002a560008262000272565b6001810190506200028f565b5050565b601f8211156200030057620002ca8162000174565b620002d58462000189565b81016020851015620002e5578190505b620002fd620002f48562000189565b8301826200028e565b50505b505050565b600082821c905092915050565b6000620003256000198460080262000305565b1980831691505092915050565b600062000340838362000312565b9150826002028217905092915050565b6200035b82620000d6565b67ffffffffffffffff811115620003775762000376620000e1565b5b6200038382546200013f565b62000390828285620002b5565b600060209050601f831160018114620003c85760008415620003b3578287015190505b620003bf858262000332565b8655506200042f565b601f198416620003d88662000174565b60005b828110156200040257848901518255600182019150602085019450602081019050620003db565b868310156200042257848901516200041e601f89168262000312565b8355505b6001600288020188555050505b505050505050565b615ff080620004476000396000f3fe608060405234801561001057600080fd5b50600436106101f05760003560e01c806370a082311161010f578063b69c85d6116100a2578063dd49dbd711610071578063dd49dbd714610593578063e985e9c51461059d578063f15c1b46146105cd578063fd43d2e0146105fd576101f0565b8063b69c85d61461050d578063b88d4fde14610529578063c87b56dd14610545578063d4a1911614610575576101f0565b806395d89b41116100de57806395d89b411461048757806397dee91f146104a5578063a22cb465146104c1578063b012381e146104dd576101f0565b806370a0823114610401578063737b23761461043157806385a1556e1461044d5780638c22bfcd14610457576101f0565b806320a71c7b116101875780634d622831116101565780634d6228311461036557806350177a2514610383578063557ed1ba146103b35780636352211e146103d1576101f0565b806320a71c7b14610305578063223668441461032357806323b872dd1461032d57806342842e0e14610349576101f0565b8063095ea7b3116101c3578063095ea7b31461029157806316ada547146102ad57806316c23ec6146102cb57806317d7de7c146102e7576101f0565b806301ffc9a7146101f5578063045b94551461022557806306fdde0314610243578063081812fc14610261575b600080fd5b61020f600480360381019061020a919061411a565b610619565b60405161021c9190614162565b60405180910390f35b61022d6106fb565b60405161023a9190614245565b60405180910390f35b61024b610790565b6040516102589190614300565b60405180910390f35b61027b6004803603810190610276919061434e565b610822565b60405161028891906143bc565b60405180910390f35b6102ab60048036038101906102a69190614403565b610868565b005b6102b561097f565b6040516102c29190614452565b60405180910390f35b6102e560048036038101906102e091906145ef565b610985565b005b6102ef610aae565b6040516102fc9190614300565b60405180910390f35b61030d610c0c565b60405161031a9190614245565b60405180910390f35b61032b610d32565b005b61034760048036038101906103429190614638565b610dc0565b005b610363600480360381019061035e9190614638565b610e20565b005b61036d610e40565b60405161037a9190614452565b60405180910390f35b61039d600480360381019061039891906145ef565b610e4a565b6040516103aa9190614749565b60405180910390f35b6103bb610fc8565b6040516103c89190614300565b60405180910390f35b6103eb60048036038101906103e6919061434e565b610fda565b6040516103f891906143bc565b60405180910390f35b61041b6004803603810190610416919061476b565b61108b565b6040516104289190614452565b60405180910390f35b61044b600480360381019061044691906145ef565b611142565b005b61045561126b565b005b610471600480360381019061046c91906145ef565b61134d565b60405161047e9190614300565b60405180910390f35b61048f611482565b60405161049c9190614300565b60405180910390f35b6104bf60048036038101906104ba91906148b2565b611514565b005b6104db60048036038101906104d691906149d4565b611997565b005b6104f760048036038101906104f291906145ef565b6119ad565b6040516105049190614b8f565b60405180910390f35b6105276004803603810190610522919061434e565b611b8e565b005b610543600480360381019061053e9190614c52565b611d37565b005b61055f600480360381019061055a919061434e565b611d99565b60405161056c9190614300565b60405180910390f35b61057d611fb6565b60405161058a9190614300565b60405180910390f35b61059b612085565b005b6105b760048036038101906105b29190614cd5565b6120e2565b6040516105c49190614162565b60405180910390f35b6105e760048036038101906105e291906145ef565b612176565b6040516105f491906143bc565b60405180910390f35b61061760048036038101906106129190614d15565b6122cd565b005b60007f80ac58cd000000000000000000000000000000000000000000000000000000007bffffffffffffffffffffffffffffffffffffffffffffffffffffffff1916827bffffffffffffffffffffffffffffffffffffffffffffffffffffffff191614806106e457507f5b5e139f000000000000000000000000000000000000000000000000000000007bffffffffffffffffffffffffffffffffffffffffffffffffffffffff1916827bffffffffffffffffffffffffffffffffffffffffffffffffffffffff1916145b806106f457506106f3826124e2565b5b9050919050565b6060600c60003373ffffffffffffffffffffffffffffffffffffffff1673ffffffffffffffffffffffffffffffffffffffff16815260200190815260200160002080548060200260200160405190810160405280929190818152602001828054801561078657602002820191906000526020600020905b815481526020019060010190808311610772575b5050505050905090565b60606000805461079f90614db3565b80601f01602080910402602001604051908101604052809291908181526020018280546107cb90614db3565b80156108185780601f106107ed57610100808354040283529160200191610818565b820191906000526020600020905b8154815290600101906020018083116107fb57829003601f168201915b5050505050905090565b600061082d8261254c565b6004600083815260200190815260200160002060009054906101000a900473ffffffffffffffffffffffffffffffffffffffff169050919050565b600061087382610fda565b90508073ffffffffffffffffffffffffffffffffffffffff168373ffffffffffffffffffffffffffffffffffffffff16036108e3576040517f08c379a00000000000000000000000000000000000000000000000000000000081526004016108da90614e56565b60405180910390fd5b8073ffffffffffffffffffffffffffffffffffffffff16610902612597565b73ffffffffffffffffffffffffffffffffffffffff16148061093157506109308161092b612597565b6120e2565b5b610970576040517f08c379a000000000000000000000000000000000000000000000000000000000815260040161096790614ee8565b60405180910390fd5b61097a838361259f565b505050565b60105481565b80600061099182612658565b90503373ffffffffffffffffffffffffffffffffffffffff16600b60008381526020019081526020016000206001600b6000858152602001908152602001600020805490506109e09190614f37565b815481106109f1576109f0614f6b565b5b9060005260206000200160009054906101000a900473ffffffffffffffffffffffffffffffffffffffff1673ffffffffffffffffffffffffffffffffffffffff1614610a72576040517f08c379a0000000000000000000000000000000000000000000000000000000008152600401610a699061500c565b60405180910390fd5b6000600a6000610a8186612658565b815260200190815260200160002060030160086101000a81548160ff021916908315150217905550505050565b6060600760003373ffffffffffffffffffffffffffffffffffffffff1673ffffffffffffffffffffffffffffffffffffffff16815260200190815260200160002060009054906101000a900460ff16610b3c576040517f08c379a0000000000000000000000000000000000000000000000000000000008152600401610b3390615078565b60405180910390fd5b600960003373ffffffffffffffffffffffffffffffffffffffff1673ffffffffffffffffffffffffffffffffffffffff1681526020019081526020016000206000018054610b8990614db3565b80601f0160208091040260200160405190810160405280929190818152602001828054610bb590614db3565b8015610c025780601f10610bd757610100808354040283529160200191610c02565b820191906000526020600020905b815481529060010190602001808311610be557829003601f168201915b5050505050905090565b606033600960008273ffffffffffffffffffffffffffffffffffffffff1673ffffffffffffffffffffffffffffffffffffffff16815260200190815260200160002060010160009054906101000a900460ff16610c9e576040517f08c379a0000000000000000000000000000000000000000000000000000000008152600401610c95906150e4565b60405180910390fd5b600d60003373ffffffffffffffffffffffffffffffffffffffff1673ffffffffffffffffffffffffffffffffffffffff168152602001908152602001600020805480602002602001604051908101604052809291908181526020018280548015610d2757602002820191906000526020600020905b815481526020019060010190808311610d13575b505050505091505090565b600760003373ffffffffffffffffffffffffffffffffffffffff1673ffffffffffffffffffffffffffffffffffffffff16815260200190815260200160002060009054906101000a900460ff16610dbe576040517f08c379a0000000000000000000000000000000000000000000000000000000008152600401610db590615078565b60405180910390fd5b565b610dd1610dcb612597565b826126c3565b610e10576040517f08c379a0000000000000000000000000000000000000000000000000000000008152600401610e0790615176565b60405180910390fd5b610e1b838383612758565b505050565b610e3b83838360405180602001604052806000815250611d37565b505050565b6000601154905090565b60606000610e5783612658565b9050600a600082815260200190815260200160002060030160089054906101000a900460ff1680610ee957503373ffffffffffffffffffffffffffffffffffffffff16600a600083815260200190815260200160002060020160009054906101000a900473ffffffffffffffffffffffffffffffffffffffff1673ffffffffffffffffffffffffffffffffffffffff16145b610f28576040517f08c379a0000000000000000000000000000000000000000000000000000000008152600401610f1f90615208565b60405180910390fd5b600b6000828152602001908152602001600020805480602002602001604051908101604052809291908181526020018280548015610fbb57602002820191906000526020600020905b8160009054906101000a900473ffffffffffffffffffffffffffffffffffffffff1673ffffffffffffffffffffffffffffffffffffffff1681526020019060010190808311610f71575b5050505050915050919050565b6060610fd56010546129be565b905090565b6000806002600084815260200190815260200160002060009054906101000a900473ffffffffffffffffffffffffffffffffffffffff169050600073ffffffffffffffffffffffffffffffffffffffff168173ffffffffffffffffffffffffffffffffffffffff1603611082576040517f08c379a000000000000000000000000000000000000000000000000000000000815260040161107990615274565b60405180910390fd5b80915050919050565b60008073ffffffffffffffffffffffffffffffffffffffff168273ffffffffffffffffffffffffffffffffffffffff16036110fb576040517f08c379a00000000000000000000000000000000000000000000000000000000081526004016110f290615306565b60405180910390fd5b600360008373ffffffffffffffffffffffffffffffffffffffff1673ffffffffffffffffffffffffffffffffffffffff168152602001908152602001600020549050919050565b80600061114e82612658565b90503373ffffffffffffffffffffffffffffffffffffffff16600b60008381526020019081526020016000206001600b60008581526020019081526020016000208054905061119d9190614f37565b815481106111ae576111ad614f6b565b5b9060005260206000200160009054906101000a900473ffffffffffffffffffffffffffffffffffffffff1673ffffffffffffffffffffffffffffffffffffffff161461122f576040517f08c379a00000000000000000000000000000000000000000000000000000000081526004016112269061500c565b60405180910390fd5b6001600a600061123e86612658565b815260200190815260200160002060030160086101000a81548160ff021916908315150217905550505050565b6000600d60003373ffffffffffffffffffffffffffffffffffffffff1673ffffffffffffffffffffffffffffffffffffffff16815260200190815260200160002080549050146112f0576040517f08c379a00000000000000000000000000000000000000000000000000000000081526004016112e790615398565b60405180910390fd5b6000600960003373ffffffffffffffffffffffffffffffffffffffff1673ffffffffffffffffffffffffffffffffffffffff16815260200190815260200160002060010160006101000a81548160ff021916908315150217905550565b60606000429050600061135f84612658565b9050600a600082815260200190815260200160002060030160009054906101000a900467ffffffffffffffff1667ffffffffffffffff16600a600083815260200190815260200160002060020160149054906101000a900467ffffffffffffffff16836113cc91906153b8565b67ffffffffffffffff1610611426576113e481612b93565b6000611425576040517f08c379a000000000000000000000000000000000000000000000000000000000815260040161141c90615438565b60405180910390fd5b5b61142f81611d99565b600f60003373ffffffffffffffffffffffffffffffffffffffff1673ffffffffffffffffffffffffffffffffffffffff168152602001908152602001600020908161147a9190615604565b505050919050565b60606001805461149190614db3565b80601f01602080910402602001604051908101604052809291908181526020018280546114bd90614db3565b801561150a5780601f106114df5761010080835404028352916020019161150a565b820191906000526020600020905b8154815290600101906020018083116114ed57829003601f168201915b5050505050905090565b600760003373ffffffffffffffffffffffffffffffffffffffff1673ffffffffffffffffffffffffffffffffffffffff16815260200190815260200160002060009054906101000a900460ff166115a0576040517f08c379a000000000000000000000000000000000000000000000000000000000815260040161159790615078565b60405180910390fd5b33600960008273ffffffffffffffffffffffffffffffffffffffff1673ffffffffffffffffffffffffffffffffffffffff16815260200190815260200160002060010160009054906101000a900460ff16611630576040517f08c379a0000000000000000000000000000000000000000000000000000000008152600401611627906150e4565b60405180910390fd5b600760008773ffffffffffffffffffffffffffffffffffffffff1673ffffffffffffffffffffffffffffffffffffffff16815260200190815260200160002060009054906101000a900460ff166116bc576040517f08c379a00000000000000000000000000000000000000000000000000000000081526004016116b390615078565b60405180910390fd5b600e846040516116cc9190615712565b908152602001604051809103902060009054906101000a900460ff1615611728576040517f08c379a000000000000000000000000000000000000000000000000000000000815260040161171f90615775565b60405180910390fd5b600061173386612658565b905061173e81611b8e565b61174887826130ed565b611752818661310b565b6001600e866040516117649190615712565b908152602001604051809103902060006101000a81548160ff021916908315150217905550600d60003373ffffffffffffffffffffffffffffffffffffffff1673ffffffffffffffffffffffffffffffffffffffff1681526020019081526020016000208190806001815401808255809150506001900390600052602060002001600090919091909150556040518060e001604052808a81526020018981526020013373ffffffffffffffffffffffffffffffffffffffff1681526020014267ffffffffffffffff1681526020018567ffffffffffffffff16815260200160001515815260200184600581111561185e5761185d614a7c565b5b815250600a600083815260200190815260200160002060008201518160000190816118899190615604565b506020820151816001015560408201518160020160006101000a81548173ffffffffffffffffffffffffffffffffffffffff021916908373ffffffffffffffffffffffffffffffffffffffff16021790555060608201518160020160146101000a81548167ffffffffffffffff021916908367ffffffffffffffff16021790555060808201518160030160006101000a81548167ffffffffffffffff021916908367ffffffffffffffff16021790555060a08201518160030160086101000a81548160ff02191690831515021790555060c08201518160030160096101000a81548160ff0219169083600581111561198457611983614a7c565b5b0217905550905050505050505050505050565b6119a96119a2612597565b8383613178565b5050565b6119b5613fd6565b600a60006119c284612658565b81526020019081526020016000206040518060e00160405290816000820180546119eb90614db3565b80601f0160208091040260200160405190810160405280929190818152602001828054611a1790614db3565b8015611a645780601f10611a3957610100808354040283529160200191611a64565b820191906000526020600020905b815481529060010190602001808311611a4757829003601f168201915b50505050508152602001600182015481526020016002820160009054906101000a900473ffffffffffffffffffffffffffffffffffffffff1673ffffffffffffffffffffffffffffffffffffffff1673ffffffffffffffffffffffffffffffffffffffff1681526020016002820160149054906101000a900467ffffffffffffffff1667ffffffffffffffff1667ffffffffffffffff1681526020016003820160009054906101000a900467ffffffffffffffff1667ffffffffffffffff1667ffffffffffffffff1681526020016003820160089054906101000a900460ff161515151581526020016003820160099054906101000a900460ff166005811115611b7157611b70614a7c565b5b6005811115611b8357611b82614a7c565b5b815250509050919050565b33600960008273ffffffffffffffffffffffffffffffffffffffff1673ffffffffffffffffffffffffffffffffffffffff16815260200190815260200160002060010160009054906101000a900460ff16611c1e576040517f08c379a0000000000000000000000000000000000000000000000000000000008152600401611c15906150e4565b60405180910390fd5b6008600083815260200190815260200160002060009054906101000a900460ff1615611cc5611c8a6040518060400160405280600781526020017f53657269616c2000000000000000000000000000000000000000000000000000815250611c85866129be565b6132e4565b6040518060400160405280600f81526020017f20616c726561647920696e2075736500000000000000000000000000000000008152506132e4565b90611d06576040517f08c379a0000000000000000000000000000000000000000000000000000000008152600401611cfd9190614300565b60405180910390fd5b5060016008600084815260200190815260200160002060006101000a81548160ff0219169083151502179055505050565b611d48611d42612597565b836126c3565b611d87576040517f08c379a0000000000000000000000000000000000000000000000000000000008152600401611d7e90615176565b60405180910390fd5b611d9384848484613310565b50505050565b6060600a600083815260200190815260200160002060020160009054906101000a900473ffffffffffffffffffffffffffffffffffffffff1673ffffffffffffffffffffffffffffffffffffffff163373ffffffffffffffffffffffffffffffffffffffff161480611ea75750600b60008381526020019081526020016000206001600b600085815260200190815260200160002080549050611e3c9190614f37565b81548110611e4d57611e4c614f6b565b5b9060005260206000200160009054906101000a900473ffffffffffffffffffffffffffffffffffffffff1673ffffffffffffffffffffffffffffffffffffffff163373ffffffffffffffffffffffffffffffffffffffff16145b611ee6576040517f08c379a0000000000000000000000000000000000000000000000000000000008152600401611edd90615807565b60405180910390fd5b6000429050600a600084815260200190815260200160002060030160009054906101000a900467ffffffffffffffff1667ffffffffffffffff16600a600085815260200190815260200160002060020160149054906101000a900467ffffffffffffffff1682611f5691906153b8565b67ffffffffffffffff161015611f7757611f6f8361336c565b915050611fb1565b6040518060400160405280600e81526020017f496c6c6567616c204163636573730000000000000000000000000000000000008152509150505b919050565b6060600f60003373ffffffffffffffffffffffffffffffffffffffff1673ffffffffffffffffffffffffffffffffffffffff168152602001908152602001600020805461200290614db3565b80601f016020809104026020016040519081016040528092919081815260200182805461202e90614db3565b801561207b5780601f106120505761010080835404028352916020019161207b565b820191906000526020600020905b81548152906001019060200180831161205e57829003601f168201915b5050505050905090565b6001600960003373ffffffffffffffffffffffffffffffffffffffff1673ffffffffffffffffffffffffffffffffffffffff16815260200190815260200160002060010160006101000a81548160ff021916908315150217905550565b6000600560008473ffffffffffffffffffffffffffffffffffffffff1673ffffffffffffffffffffffffffffffffffffffff16815260200190815260200160002060008373ffffffffffffffffffffffffffffffffffffffff1673ffffffffffffffffffffffffffffffffffffffff16815260200190815260200160002060009054906101000a900460ff16905092915050565b60008061218283612658565b9050600a600082815260200190815260200160002060030160089054906101000a900460ff168061221457503373ffffffffffffffffffffffffffffffffffffffff16600a600083815260200190815260200160002060020160009054906101000a900473ffffffffffffffffffffffffffffffffffffffff1673ffffffffffffffffffffffffffffffffffffffff16145b612253576040517f08c379a000000000000000000000000000000000000000000000000000000000815260040161224a90615899565b60405180910390fd5b600b60008281526020019081526020016000206001600b6000848152602001908152602001600020805490506122899190614f37565b8154811061229a57612299614f6b565b5b9060005260206000200160009054906101000a900473ffffffffffffffffffffffffffffffffffffffff16915050919050565b600760008373ffffffffffffffffffffffffffffffffffffffff1673ffffffffffffffffffffffffffffffffffffffff16815260200190815260200160002060009054906101000a900460ff161561235a576040517f08c379a000000000000000000000000000000000000000000000000000000000815260040161235190615905565b60405180910390fd5b6001600760008473ffffffffffffffffffffffffffffffffffffffff1673ffffffffffffffffffffffffffffffffffffffff16815260200190815260200160002060006101000a81548160ff02191690831515021790555060008067ffffffffffffffff8111156123ce576123cd614472565b5b6040519080825280602002602001820160405280156123fc5781602001602082028036833780820191505090505b50905060008067ffffffffffffffff81111561241b5761241a614472565b5b6040519080825280602002602001820160405280156124495781602001602082028036833780820191505090505b5090506040518060400160405280868152602001841515815250600960008673ffffffffffffffffffffffffffffffffffffffff1673ffffffffffffffffffffffffffffffffffffffff16815260200190815260200160002060008201518160000190816124b79190615604565b5060208201518160010160006101000a81548160ff0219169083151502179055509050505050505050565b60007f01ffc9a7000000000000000000000000000000000000000000000000000000007bffffffffffffffffffffffffffffffffffffffffffffffffffffffff1916827bffffffffffffffffffffffffffffffffffffffffffffffffffffffff1916149050919050565b6125558161347e565b612594576040517f08c379a000000000000000000000000000000000000000000000000000000000815260040161258b90615274565b60405180910390fd5b50565b600033905090565b816004600083815260200190815260200160002060006101000a81548173ffffffffffffffffffffffffffffffffffffffff021916908373ffffffffffffffffffffffffffffffffffffffff160217905550808273ffffffffffffffffffffffffffffffffffffffff1661261283610fda565b73ffffffffffffffffffffffffffffffffffffffff167f8c5be1e5ebec7d5bd14f71427d1e84f3dd0314c0f7b2291e5b200ac8c7c3b92560405160405180910390a45050565b6000806000601090505b600181106126b957836001826126789190614f37565b8151811061268957612688614f6b565b5b602002602001015161ffff16601083901b6126a49190615925565b915080806126b19061597b565b915050612662565b5080915050919050565b6000806126cf83610fda565b90508073ffffffffffffffffffffffffffffffffffffffff168473ffffffffffffffffffffffffffffffffffffffff161480612711575061271081856120e2565b5b8061274f57508373ffffffffffffffffffffffffffffffffffffffff1661273784610822565b73ffffffffffffffffffffffffffffffffffffffff16145b91505092915050565b8273ffffffffffffffffffffffffffffffffffffffff1661277882610fda565b73ffffffffffffffffffffffffffffffffffffffff16146127ce576040517f08c379a00000000000000000000000000000000000000000000000000000000081526004016127c590615a16565b60405180910390fd5b600073ffffffffffffffffffffffffffffffffffffffff168273ffffffffffffffffffffffffffffffffffffffff160361283d576040517f08c379a000000000000000000000000000000000000000000000000000000000815260040161283490615aa8565b60405180910390fd5b6128488383836134ea565b61285360008261259f565b6001600360008573ffffffffffffffffffffffffffffffffffffffff1673ffffffffffffffffffffffffffffffffffffffff16815260200190815260200160002060008282546128a39190614f37565b925050819055506001600360008473ffffffffffffffffffffffffffffffffffffffff1673ffffffffffffffffffffffffffffffffffffffff16815260200190815260200160002060008282546128fa9190615925565b92505081905550816002600083815260200190815260200160002060006101000a81548173ffffffffffffffffffffffffffffffffffffffff021916908373ffffffffffffffffffffffffffffffffffffffff160217905550808273ffffffffffffffffffffffffffffffffffffffff168473ffffffffffffffffffffffffffffffffffffffff167fddf252ad1be2c89b69c2b068fc378daa952ba7f163c4a11628f55a4df523b3ef60405160405180910390a46129b983838361375a565b505050565b60606000606467ffffffffffffffff8111156129dd576129dc614472565b5b6040519080825280601f01601f191660200182016040528015612a0f5781602001600182028036833780820191505090505b50905060005b6000841115612a9e57600a84612a2b9190615af7565b6030612a379190615925565b60f81b828281518110612a4d57612a4c614f6b565b5b60200101907effffffffffffffffffffffffffffffffffffffffffffffffffffffffffffff1916908160001a905350600a84612a899190615b28565b93508080612a9690615b59565b915050612a15565b6000825167ffffffffffffffff811115612abb57612aba614472565b5b6040519080825280601f01601f191660200182016040528015612aed5781602001600182028036833780820191505090505b50905060005b8351811015612b8757836001828651612b0c9190614f37565b612b169190614f37565b81518110612b2757612b26614f6b565b5b602001015160f81c60f81b828281518110612b4557612b44614f6b565b5b60200101907effffffffffffffffffffffffffffffffffffffffffffffffffffffffffffff1916908160001a9053508080612b7f90615b59565b915050612af3565b50809350505050919050565b60006008600083815260200190815260200160002060006101000a81548160ff0219169083151502179055506000600b60008381526020019081526020016000206001600b600085815260200190815260200160002080549050612bf79190614f37565b81548110612c0857612c07614f6b565b5b9060005260206000200160009054906101000a900473ffffffffffffffffffffffffffffffffffffffff169050600c60008273ffffffffffffffffffffffffffffffffffffffff1673ffffffffffffffffffffffffffffffffffffffff1681526020019081526020016000208054905060118190555060005b600c60008373ffffffffffffffffffffffffffffffffffffffff1673ffffffffffffffffffffffffffffffffffffffff16815260200190815260200160002080549050811015612f1557600c60008373ffffffffffffffffffffffffffffffffffffffff1673ffffffffffffffffffffffffffffffffffffffff1681526020019081526020016000208181548110612d1c57612d1b614f6b565b5b906000526020600020015460118190555082600c60008473ffffffffffffffffffffffffffffffffffffffff1673ffffffffffffffffffffffffffffffffffffffff1681526020019081526020016000208281548110612d7f57612d7e614f6b565b5b906000526020600020015403612f0257600c60008373ffffffffffffffffffffffffffffffffffffffff1673ffffffffffffffffffffffffffffffffffffffff1681526020019081526020016000206001600c60008573ffffffffffffffffffffffffffffffffffffffff1673ffffffffffffffffffffffffffffffffffffffff16815260200190815260200160002080549050612e1d9190614f37565b81548110612e2e57612e2d614f6b565b5b9060005260206000200154600c60008473ffffffffffffffffffffffffffffffffffffffff1673ffffffffffffffffffffffffffffffffffffffff1681526020019081526020016000208281548110612e8a57612e89614f6b565b5b9060005260206000200181905550600c60008373ffffffffffffffffffffffffffffffffffffffff1673ffffffffffffffffffffffffffffffffffffffff168152602001908152602001600020805480612ee757612ee6615ba1565b5b60019003818190600052602060002001600090559055612f15565b8080612f0d90615b59565b915050612c81565b506040518060e0016040528060405180602001604052806000815250815260200160008152602001600073ffffffffffffffffffffffffffffffffffffffff168152602001600067ffffffffffffffff168152602001600067ffffffffffffffff16815260200160001515815260200160006005811115612f9957612f98614a7c565b5b815250600a60008481526020019081526020016000206000820151816000019081612fc49190615604565b506020820151816001015560408201518160020160006101000a81548173ffffffffffffffffffffffffffffffffffffffff021916908373ffffffffffffffffffffffffffffffffffffffff16021790555060608201518160020160146101000a81548167ffffffffffffffff021916908367ffffffffffffffff16021790555060808201518160030160006101000a81548167ffffffffffffffff021916908367ffffffffffffffff16021790555060a08201518160030160086101000a81548160ff02191690831515021790555060c08201518160030160096101000a81548160ff021916908360058111156130bf576130be614a7c565b5b02179055509050506130e0826040518060200160405280600081525061310b565b6130e98261389d565b5050565b6131078282604051806020016040528060008152506138a9565b5050565b6131148261347e565b613153576040517f08c379a000000000000000000000000000000000000000000000000000000000815260040161314a90615c42565b60405180910390fd5b806006600084815260200190815260200160002090816131739190615604565b505050565b8173ffffffffffffffffffffffffffffffffffffffff168373ffffffffffffffffffffffffffffffffffffffff16036131e6576040517f08c379a00000000000000000000000000000000000000000000000000000000081526004016131dd90615cae565b60405180910390fd5b80600560008573ffffffffffffffffffffffffffffffffffffffff1673ffffffffffffffffffffffffffffffffffffffff16815260200190815260200160002060008473ffffffffffffffffffffffffffffffffffffffff1673ffffffffffffffffffffffffffffffffffffffff16815260200190815260200160002060006101000a81548160ff0219169083151502179055508173ffffffffffffffffffffffffffffffffffffffff168373ffffffffffffffffffffffffffffffffffffffff167f17307eab39ab6107e8899845ad3d59bd9653f200f220920489ca2b5937696c31836040516132d79190614162565b60405180910390a3505050565b606082826040516020016132f9929190615d1a565b604051602081830303815290604052905092915050565b61331b848484612758565b61332784848484613904565b613366576040517f08c379a000000000000000000000000000000000000000000000000000000000815260040161335d90615dbb565b60405180910390fd5b50505050565b60606133778261254c565b600060066000848152602001908152602001600020805461339790614db3565b80601f01602080910402602001604051908101604052809291908181526020018280546133c390614db3565b80156134105780601f106133e557610100808354040283529160200191613410565b820191906000526020600020905b8154815290600101906020018083116133f357829003601f168201915b505050505090506000613421613a8b565b90506000815103613436578192505050613479565b60008251111561346b578082604051602001613453929190615ddb565b60405160208183030381529060405292505050613479565b61347484613aa2565b925050505b919050565b60008073ffffffffffffffffffffffffffffffffffffffff166002600084815260200190815260200160002060009054906101000a900473ffffffffffffffffffffffffffffffffffffffff1673ffffffffffffffffffffffffffffffffffffffff1614159050919050565b600073ffffffffffffffffffffffffffffffffffffffff168373ffffffffffffffffffffffffffffffffffffffff16146137555760005b600c60008573ffffffffffffffffffffffffffffffffffffffff1673ffffffffffffffffffffffffffffffffffffffff168152602001908152602001600020805490508110156137535781600c60008673ffffffffffffffffffffffffffffffffffffffff1673ffffffffffffffffffffffffffffffffffffffff16815260200190815260200160002082815481106135bd576135bc614f6b565b5b90600052602060002001540361374057600c60008573ffffffffffffffffffffffffffffffffffffffff1673ffffffffffffffffffffffffffffffffffffffff1681526020019081526020016000206001600c60008773ffffffffffffffffffffffffffffffffffffffff1673ffffffffffffffffffffffffffffffffffffffff1681526020019081526020016000208054905061365b9190614f37565b8154811061366c5761366b614f6b565b5b9060005260206000200154600c60008673ffffffffffffffffffffffffffffffffffffffff1673ffffffffffffffffffffffffffffffffffffffff16815260200190815260200160002082815481106136c8576136c7614f6b565b5b9060005260206000200181905550600c60008573ffffffffffffffffffffffffffffffffffffffff1673ffffffffffffffffffffffffffffffffffffffff16815260200190815260200160002080548061372557613724615ba1565b5b60019003818190600052602060002001600090559055613753565b808061374b90615b59565b915050613521565b505b505050565b600073ffffffffffffffffffffffffffffffffffffffff168273ffffffffffffffffffffffffffffffffffffffff161461389857600c60008373ffffffffffffffffffffffffffffffffffffffff1673ffffffffffffffffffffffffffffffffffffffff168152602001908152602001600020819080600181540180825580915050600190039060005260206000200160009091909190915055600b6000828152602001908152602001600020829080600181540180825580915050600190039060005260206000200160009091909190916101000a81548173ffffffffffffffffffffffffffffffffffffffff021916908373ffffffffffffffffffffffffffffffffffffffff1602179055506000600a600083815260200190815260200160002060030160086101000a81548160ff0219169083151502179055505b505050565b6138a681613b0a565b50565b6138b38383613b5d565b6138c06000848484613904565b6138ff576040517f08c379a00000000000000000000000000000000000000000000000000000000081526004016138f690615dbb565b60405180910390fd5b505050565b60006139258473ffffffffffffffffffffffffffffffffffffffff16613d36565b15613a7e578373ffffffffffffffffffffffffffffffffffffffff1663150b7a0261394e612597565b8786866040518563ffffffff1660e01b81526004016139709493929190615e54565b6020604051808303816000875af19250505080156139ac57506040513d601f19601f820116820180604052508101906139a99190615eb5565b60015b613a2e573d80600081146139dc576040519150601f19603f3d011682016040523d82523d6000602084013e6139e1565b606091505b506000815103613a26576040517f08c379a0000000000000000000000000000000000000000000000000000000008152600401613a1d90615dbb565b60405180910390fd5b805181602001fd5b63150b7a0260e01b7bffffffffffffffffffffffffffffffffffffffffffffffffffffffff1916817bffffffffffffffffffffffffffffffffffffffffffffffffffffffff191614915050613a83565b600190505b949350505050565b606060405180602001604052806000815250905090565b6060613aad8261254c565b6000613ab7613a8b565b90506000815111613ad75760405180602001604052806000815250613b02565b80613ae184613d59565b604051602001613af2929190615ddb565b6040516020818303038152906040525b915050919050565b613b1381613eb9565b6000600660008381526020019081526020016000208054613b3390614db3565b905014613b5a57600660008281526020019081526020016000206000613b599190614051565b5b50565b600073ffffffffffffffffffffffffffffffffffffffff168273ffffffffffffffffffffffffffffffffffffffff1603613bcc576040517f08c379a0000000000000000000000000000000000000000000000000000000008152600401613bc390615f2e565b60405180910390fd5b613bd58161347e565b15613c15576040517f08c379a0000000000000000000000000000000000000000000000000000000008152600401613c0c90615f9a565b60405180910390fd5b613c21600083836134ea565b6001600360008473ffffffffffffffffffffffffffffffffffffffff1673ffffffffffffffffffffffffffffffffffffffff1681526020019081526020016000206000828254613c719190615925565b92505081905550816002600083815260200190815260200160002060006101000a81548173ffffffffffffffffffffffffffffffffffffffff021916908373ffffffffffffffffffffffffffffffffffffffff160217905550808273ffffffffffffffffffffffffffffffffffffffff16600073ffffffffffffffffffffffffffffffffffffffff167fddf252ad1be2c89b69c2b068fc378daa952ba7f163c4a11628f55a4df523b3ef60405160405180910390a4613d326000838361375a565b5050565b6000808273ffffffffffffffffffffffffffffffffffffffff163b119050919050565b606060008203613da0576040518060400160405280600181526020017f30000000000000000000000000000000000000000000000000000000000000008152509050613eb4565b600082905060005b60008214613dd2578080613dbb90615b59565b915050600a82613dcb9190615b28565b9150613da8565b60008167ffffffffffffffff811115613dee57613ded614472565b5b6040519080825280601f01601f191660200182016040528015613e205781602001600182028036833780820191505090505b5090505b60008514613ead57600182613e399190614f37565b9150600a85613e489190615af7565b6030613e549190615925565b60f81b818381518110613e6a57613e69614f6b565b5b60200101907effffffffffffffffffffffffffffffffffffffffffffffffffffffffffffff1916908160001a905350600a85613ea69190615b28565b9450613e24565b8093505050505b919050565b6000613ec482610fda565b9050613ed2816000846134ea565b613edd60008361259f565b6001600360008373ffffffffffffffffffffffffffffffffffffffff1673ffffffffffffffffffffffffffffffffffffffff1681526020019081526020016000206000828254613f2d9190614f37565b925050819055506002600083815260200190815260200160002060006101000a81549073ffffffffffffffffffffffffffffffffffffffff021916905581600073ffffffffffffffffffffffffffffffffffffffff168273ffffffffffffffffffffffffffffffffffffffff167fddf252ad1be2c89b69c2b068fc378daa952ba7f163c4a11628f55a4df523b3ef60405160405180910390a4613fd28160008461375a565b5050565b6040518060e001604052806060815260200160008152602001600073ffffffffffffffffffffffffffffffffffffffff168152602001600067ffffffffffffffff168152602001600067ffffffffffffffff1681526020016000151581526020016000600581111561404b5761404a614a7c565b5b81525090565b50805461405d90614db3565b6000825580601f1061406f575061408e565b601f01602090049060005260206000209081019061408d9190614091565b5b50565b5b808211156140aa576000816000905550600101614092565b5090565b6000604051905090565b600080fd5b600080fd5b60007fffffffff0000000000000000000000000000000000000000000000000000000082169050919050565b6140f7816140c2565b811461410257600080fd5b50565b600081359050614114816140ee565b92915050565b6000602082840312156141305761412f6140b8565b5b600061413e84828501614105565b91505092915050565b60008115159050919050565b61415c81614147565b82525050565b60006020820190506141776000830184614153565b92915050565b600081519050919050565b600082825260208201905092915050565b6000819050602082019050919050565b6000819050919050565b6141bc816141a9565b82525050565b60006141ce83836141b3565b60208301905092915050565b6000602082019050919050565b60006141f28261417d565b6141fc8185614188565b935061420783614199565b8060005b8381101561423857815161421f88826141c2565b975061422a836141da565b92505060018101905061420b565b5085935050505092915050565b6000602082019050818103600083015261425f81846141e7565b905092915050565b600081519050919050565b600082825260208201905092915050565b60005b838110156142a1578082015181840152602081019050614286565b838111156142b0576000848401525b50505050565b6000601f19601f8301169050919050565b60006142d282614267565b6142dc8185614272565b93506142ec818560208601614283565b6142f5816142b6565b840191505092915050565b6000602082019050818103600083015261431a81846142c7565b905092915050565b61432b816141a9565b811461433657600080fd5b50565b60008135905061434881614322565b92915050565b600060208284031215614364576143636140b8565b5b600061437284828501614339565b91505092915050565b600073ffffffffffffffffffffffffffffffffffffffff82169050919050565b60006143a68261437b565b9050919050565b6143b68161439b565b82525050565b60006020820190506143d160008301846143ad565b92915050565b6143e08161439b565b81146143eb57600080fd5b50565b6000813590506143fd816143d7565b92915050565b6000806040838503121561441a576144196140b8565b5b6000614428858286016143ee565b925050602061443985828601614339565b9150509250929050565b61444c816141a9565b82525050565b60006020820190506144676000830184614443565b92915050565b600080fd5b7f4e487b7100000000000000000000000000000000000000000000000000000000600052604160045260246000fd5b6144aa826142b6565b810181811067ffffffffffffffff821117156144c9576144c8614472565b5b80604052505050565b60006144dc6140ae565b90506144e882826144a1565b919050565b600067ffffffffffffffff82111561450857614507614472565b5b602082029050602081019050919050565b600080fd5b600061ffff82169050919050565b6145358161451e565b811461454057600080fd5b50565b6000813590506145528161452c565b92915050565b600061456b614566846144ed565b6144d2565b9050808382526020820190506020840283018581111561458e5761458d614519565b5b835b818110156145b757806145a38882614543565b845260208401935050602081019050614590565b5050509392505050565b600082601f8301126145d6576145d561446d565b5b81356145e6848260208601614558565b91505092915050565b600060208284031215614605576146046140b8565b5b600082013567ffffffffffffffff811115614623576146226140bd565b5b61462f848285016145c1565b91505092915050565b600080600060608486031215614651576146506140b8565b5b600061465f868287016143ee565b9350506020614670868287016143ee565b925050604061468186828701614339565b9150509250925092565b600081519050919050565b600082825260208201905092915050565b6000819050602082019050919050565b6146c08161439b565b82525050565b60006146d283836146b7565b60208301905092915050565b6000602082019050919050565b60006146f68261468b565b6147008185614696565b935061470b836146a7565b8060005b8381101561473c57815161472388826146c6565b975061472e836146de565b92505060018101905061470f565b5085935050505092915050565b6000602082019050818103600083015261476381846146eb565b905092915050565b600060208284031215614781576147806140b8565b5b600061478f848285016143ee565b91505092915050565b600080fd5b600067ffffffffffffffff8211156147b8576147b7614472565b5b6147c1826142b6565b9050602081019050919050565b82818337600083830152505050565b60006147f06147eb8461479d565b6144d2565b90508281526020810184848401111561480c5761480b614798565b5b6148178482856147ce565b509392505050565b600082601f8301126148345761483361446d565b5b81356148448482602086016147dd565b91505092915050565b600067ffffffffffffffff82169050919050565b61486a8161484d565b811461487557600080fd5b50565b60008135905061488781614861565b92915050565b6006811061489a57600080fd5b50565b6000813590506148ac8161488d565b92915050565b600080600080600080600060e0888a0312156148d1576148d06140b8565b5b600088013567ffffffffffffffff8111156148ef576148ee6140bd565b5b6148fb8a828b0161481f565b975050602061490c8a828b01614339565b965050604061491d8a828b016143ee565b955050606088013567ffffffffffffffff81111561493e5761493d6140bd565b5b61494a8a828b016145c1565b945050608088013567ffffffffffffffff81111561496b5761496a6140bd565b5b6149778a828b0161481f565b93505060a06149888a828b01614878565b92505060c06149998a828b0161489d565b91505092959891949750929550565b6149b181614147565b81146149bc57600080fd5b50565b6000813590506149ce816149a8565b92915050565b600080604083850312156149eb576149ea6140b8565b5b60006149f9858286016143ee565b9250506020614a0a858286016149bf565b9150509250929050565b600082825260208201905092915050565b6000614a3082614267565b614a3a8185614a14565b9350614a4a818560208601614283565b614a53816142b6565b840191505092915050565b614a678161484d565b82525050565b614a7681614147565b82525050565b7f4e487b7100000000000000000000000000000000000000000000000000000000600052602160045260246000fd5b60068110614abc57614abb614a7c565b5b50565b6000819050614acd82614aab565b919050565b6000614add82614abf565b9050919050565b614aed81614ad2565b82525050565b600060e0830160008301518482036000860152614b108282614a25565b9150506020830151614b2560208601826141b3565b506040830151614b3860408601826146b7565b506060830151614b4b6060860182614a5e565b506080830151614b5e6080860182614a5e565b5060a0830151614b7160a0860182614a6d565b5060c0830151614b8460c0860182614ae4565b508091505092915050565b60006020820190508181036000830152614ba98184614af3565b905092915050565b600067ffffffffffffffff821115614bcc57614bcb614472565b5b614bd5826142b6565b9050602081019050919050565b6000614bf5614bf084614bb1565b6144d2565b905082815260208101848484011115614c1157614c10614798565b5b614c1c8482856147ce565b509392505050565b600082601f830112614c3957614c3861446d565b5b8135614c49848260208601614be2565b91505092915050565b60008060008060808587031215614c6c57614c6b6140b8565b5b6000614c7a878288016143ee565b9450506020614c8b878288016143ee565b9350506040614c9c87828801614339565b925050606085013567ffffffffffffffff811115614cbd57614cbc6140bd565b5b614cc987828801614c24565b91505092959194509250565b60008060408385031215614cec57614ceb6140b8565b5b6000614cfa858286016143ee565b9250506020614d0b858286016143ee565b9150509250929050565b600080600060608486031215614d2e57614d2d6140b8565b5b600084013567ffffffffffffffff811115614d4c57614d4b6140bd565b5b614d588682870161481f565b9350506020614d69868287016143ee565b9250506040614d7a868287016149bf565b9150509250925092565b7f4e487b7100000000000000000000000000000000000000000000000000000000600052602260045260246000fd5b60006002820490506001821680614dcb57607f821691505b602082108103614dde57614ddd614d84565b5b50919050565b7f4552433732313a20617070726f76616c20746f2063757272656e74206f776e6560008201527f7200000000000000000000000000000000000000000000000000000000000000602082015250565b6000614e40602183614272565b9150614e4b82614de4565b604082019050919050565b60006020820190508181036000830152614e6f81614e33565b9050919050565b7f4552433732313a20617070726f76652063616c6c6572206973206e6f7420746f60008201527f6b656e206f776e6572206e6f7220617070726f76656420666f7220616c6c0000602082015250565b6000614ed2603e83614272565b9150614edd82614e76565b604082019050919050565b60006020820190508181036000830152614f0181614ec5565b9050919050565b7f4e487b7100000000000000000000000000000000000000000000000000000000600052601160045260246000fd5b6000614f42826141a9565b9150614f4d836141a9565b925082821015614f6057614f5f614f08565b5b828203905092915050565b7f4e487b7100000000000000000000000000000000000000000000000000000000600052603260045260246000fd5b7f204f6e6c7920746865206f776e6572206f6620746869732070726f647563742060008201527f63616e2061636365737320746869730000000000000000000000000000000000602082015250565b6000614ff6602f83614272565b915061500182614f9a565b604082019050919050565b6000602082019050818103600083015261502581614fe9565b9050919050565b7f4f6e6c792072656769737465726564206d656d6265727320616c6c6f77656400600082015250565b6000615062601f83614272565b915061506d8261502c565b602082019050919050565b6000602082019050818103600083015261509181615055565b9050919050565b7f4f6e6c792073656c6c6172732063616e20616363657373207468697300000000600082015250565b60006150ce601c83614272565b91506150d982615098565b602082019050919050565b600060208201905081810360008301526150fd816150c1565b9050919050565b7f4552433732313a2063616c6c6572206973206e6f7420746f6b656e206f776e6560008201527f72206e6f7220617070726f766564000000000000000000000000000000000000602082015250565b6000615160602e83614272565b915061516b82615104565b604082019050919050565b6000602082019050818103600083015261518f81615153565b9050919050565b7f46756e6374696f6e2061636365737369626c65206f6e6c79206279207468652060008201527f6d656d626572206f6620746865206272616e6421210000000000000000000000602082015250565b60006151f2603583614272565b91506151fd82615196565b604082019050919050565b60006020820190508181036000830152615221816151e5565b9050919050565b7f4552433732313a20696e76616c696420746f6b656e2049440000000000000000600082015250565b600061525e601883614272565b915061526982615228565b602082019050919050565b6000602082019050818103600083015261528d81615251565b9050919050565b7f4552433732313a2061646472657373207a65726f206973206e6f74206120766160008201527f6c6964206f776e65720000000000000000000000000000000000000000000000602082015250565b60006152f0602983614272565b91506152fb82615294565b604082019050919050565b6000602082019050818103600083015261531f816152e3565b9050919050565b7f416c6c206c6963656e736573206e65656420746f20657870697265206265666f60008201527f7265206c656176696e672074686520627573696e657373000000000000000000602082015250565b6000615382603783614272565b915061538d82615326565b604082019050919050565b600060208201905081810360008301526153b181615375565b9050919050565b60006153c38261484d565b91506153ce8361484d565b9250828210156153e1576153e0614f08565b5b828203905092915050565b7f4c6963656e736520697320616c72656164792065787069726564000000000000600082015250565b6000615422601a83614272565b915061542d826153ec565b602082019050919050565b6000602082019050818103600083015261545181615415565b9050919050565b60008190508160005260206000209050919050565b60006020601f8301049050919050565b600082821b905092915050565b6000600883026154ba7fffffffffffffffffffffffffffffffffffffffffffffffffffffffffffffffff8261547d565b6154c4868361547d565b95508019841693508086168417925050509392505050565b6000819050919050565b60006155016154fc6154f7846141a9565b6154dc565b6141a9565b9050919050565b6000819050919050565b61551b836154e6565b61552f61552782615508565b84845461548a565b825550505050565b600090565b615544615537565b61554f818484615512565b505050565b5b818110156155735761556860008261553c565b600181019050615555565b5050565b601f8211156155b85761558981615458565b6155928461546d565b810160208510156155a1578190505b6155b56155ad8561546d565b830182615554565b50505b505050565b600082821c905092915050565b60006155db600019846008026155bd565b1980831691505092915050565b60006155f483836155ca565b9150826002028217905092915050565b61560d82614267565b67ffffffffffffffff81111561562657615625614472565b5b6156308254614db3565b61563b828285615577565b600060209050601f83116001811461566e576000841561565c578287015190505b61566685826155e8565b8655506156ce565b601f19841661567c86615458565b60005b828110156156a45784890151825560018201915060208501945060208101905061567f565b868310156156c157848901516156bd601f8916826155ca565b8355505b6001600288020188555050505b505050505050565b600081905092915050565b60006156ec82614267565b6156f681856156d6565b9350615706818560208601614283565b80840191505092915050565b600061571e82846156e1565b915081905092915050565b7f55524920616c726561647920696e207573652e00000000000000000000000000600082015250565b600061575f601383614272565b915061576a82615729565b602082019050919050565b6000602082019050818103600083015261578e81615752565b9050919050565b7f4f6e6c7920746865206f776e6572206f6620746869732061646472657373206360008201527f616e2073656520697427732064657461696c7300000000000000000000000000602082015250565b60006157f1603383614272565b91506157fc82615795565b604082019050919050565b60006020820190508181036000830152615820816157e4565b9050919050565b7f50726f64756374206d757374206265206f6e2073616c6520746f20616363657360008201527f7320746869730000000000000000000000000000000000000000000000000000602082015250565b6000615883602683614272565b915061588e82615827565b604082019050919050565b600060208201905081810360008301526158b281615876565b9050919050565b7f4164647265737320616c72656164792072656769737465726564000000000000600082015250565b60006158ef601a83614272565b91506158fa826158b9565b602082019050919050565b6000602082019050818103600083015261591e816158e2565b9050919050565b6000615930826141a9565b915061593b836141a9565b9250827fffffffffffffffffffffffffffffffffffffffffffffffffffffffffffffffff038211156159705761596f614f08565b5b828201905092915050565b6000615986826141a9565b91506000820361599957615998614f08565b5b600182039050919050565b7f4552433732313a207472616e736665722066726f6d20696e636f72726563742060008201527f6f776e6572000000000000000000000000000000000000000000000000000000602082015250565b6000615a00602583614272565b9150615a0b826159a4565b604082019050919050565b60006020820190508181036000830152615a2f816159f3565b9050919050565b7f4552433732313a207472616e7366657220746f20746865207a65726f2061646460008201527f7265737300000000000000000000000000000000000000000000000000000000602082015250565b6000615a92602483614272565b9150615a9d82615a36565b604082019050919050565b60006020820190508181036000830152615ac181615a85565b9050919050565b7f4e487b7100000000000000000000000000000000000000000000000000000000600052601260045260246000fd5b6000615b02826141a9565b9150615b0d836141a9565b925082615b1d57615b1c615ac8565b5b828206905092915050565b6000615b33826141a9565b9150615b3e836141a9565b925082615b4e57615b4d615ac8565b5b828204905092915050565b6000615b64826141a9565b91507fffffffffffffffffffffffffffffffffffffffffffffffffffffffffffffffff8203615b9657615b95614f08565b5b600182019050919050565b7f4e487b7100000000000000000000000000000000000000000000000000000000600052603160045260246000fd5b7f45524337323155524953746f726167653a2055524920736574206f66206e6f6e60008201527f6578697374656e7420746f6b656e000000000000000000000000000000000000602082015250565b6000615c2c602e83614272565b9150615c3782615bd0565b604082019050919050565b60006020820190508181036000830152615c5b81615c1f565b9050919050565b7f4552433732313a20617070726f766520746f2063616c6c657200000000000000600082015250565b6000615c98601983614272565b9150615ca382615c62565b602082019050919050565b60006020820190508181036000830152615cc781615c8b565b9050919050565b7f2000000000000000000000000000000000000000000000000000000000000000600082015250565b6000615d046001836156d6565b9150615d0f82615cce565b600182019050919050565b6000615d2682856156e1565b9150615d3182615cf7565b9150615d3d82846156e1565b91508190509392505050565b7f4552433732313a207472616e7366657220746f206e6f6e20455243373231526560008201527f63656976657220696d706c656d656e7465720000000000000000000000000000602082015250565b6000615da5603283614272565b9150615db082615d49565b604082019050919050565b60006020820190508181036000830152615dd481615d98565b9050919050565b6000615de782856156e1565b9150615df382846156e1565b91508190509392505050565b600081519050919050565b600082825260208201905092915050565b6000615e2682615dff565b615e308185615e0a565b9350615e40818560208601614283565b615e49816142b6565b840191505092915050565b6000608082019050615e6960008301876143ad565b615e7660208301866143ad565b615e836040830185614443565b8181036060830152615e958184615e1b565b905095945050505050565b600081519050615eaf816140ee565b92915050565b600060208284031215615ecb57615eca6140b8565b5b6000615ed984828501615ea0565b91505092915050565b7f4552433732313a206d696e7420746f20746865207a65726f2061646472657373600082015250565b6000615f18602083614272565b9150615f2382615ee2565b602082019050919050565b60006020820190508181036000830152615f4781615f0b565b9050919050565b7f4552433732313a20746f6b656e20616c7265616479206d696e74656400000000600082015250565b6000615f84601c83614272565b9150615f8f82615f4e565b602082019050919050565b60006020820190508181036000830152615fb381615f77565b905091905056fea26469706673582212202c525c8390cb55dde46d53e57d2b26cb1d93f2f0fb9ec4787a4b349ac9d37c4d64736f6c634300080f0033",
  "immutableReferences": {},
  "source": "// SPDX-License-Identifier: MIT\npragma solidity ^0.8.4;\n\nimport \"@openzeppelin/contracts/token/ERC721/ERC721.sol\";\nimport \"@openzeppelin/contracts/token/ERC721/extensions/ERC721URIStorage.sol\";\nimport \"./Ownership.sol\";\nimport \"./Misc.sol\";\n\ncontract License is ERC721, ERC721URIStorage, Whitelist {\n    mapping(string => bool) private existingURIs;\n    mapping(address => string) private addressURIMap;\n\n    constructor() ERC721(\"License\", \"License\") {}\n\n    // function _baseURI() internal pure override returns (string memory) {\n    //     return \"ipfs://\";\n    // }\n\n    uint256 public time;\n\n    function getTime() public view returns (string memory) {\n        return uintToString(time);\n    }\n\n    function mint(\n        string memory name,\n        uint256 serialID,\n        address to,\n        uint16[] memory seeds,\n        string memory uri,\n        uint64 secs,\n        ProductType pType\n    ) public onlyRegistered onlySellar(msg.sender) {\n        require(usedBrandIDs[to], \"Only registered members allowed\");\n        require(!existingURIs[uri], \"URI already in use.\");\n        uint256 tokenId = combine(seeds);\n        addSerial(tokenId);\n        _safeMint(to, tokenId);\n        _setTokenURI(tokenId, uri);\n        existingURIs[uri] = true;\n        addressSoldListMap[msg.sender].push(tokenId);\n        serialProductMap[tokenId] = product(\n            name,\n            serialID,\n            msg.sender,\n            uint64(block.timestamp),\n            secs,\n            false,\n            pType\n        );\n    }\n\n    //temporary\n    uint256 lastToken;\n\n    function getLast() public view returns (uint256) {\n        return lastToken;\n    }\n\n    //temporary\n\n    function safeBurn(uint256 tokenId) internal {\n        usedSerials[tokenId] = false;\n        address currOwn = serialOwnerListMap[tokenId][\n            serialOwnerListMap[tokenId].length - 1\n        ];\n        lastToken = addressBoughtListMap[currOwn].length;\n        for (uint256 i = 0; i < addressBoughtListMap[currOwn].length; i++) {\n            lastToken = addressBoughtListMap[currOwn][i];\n            if (addressBoughtListMap[currOwn][i] == tokenId) {\n                addressBoughtListMap[currOwn][i] = addressBoughtListMap[\n                    currOwn\n                ][addressBoughtListMap[currOwn].length - 1];\n                addressBoughtListMap[currOwn].pop();\n                break;\n            }\n        }\n        serialProductMap[tokenId] = product(\n            \"\",\n            0,\n            address(0),\n            uint64(0),\n            uint64(0),\n            false,\n            ProductType.SmartHome\n        );\n        _setTokenURI(tokenId, \"\");\n        _burn(tokenId);\n    }\n\n    function _burn(uint256 tokenId)\n        internal\n        override(ERC721, ERC721URIStorage)\n    {\n        super._burn(tokenId);\n    }\n\n    function getTokenURI() public view returns (string memory) {\n        return addressURIMap[msg.sender];\n    }\n\n    function setTokenURI(uint16[] memory parts) public returns (string memory) {\n        uint64 current = uint64(block.timestamp);\n        uint256 tokenId = combine(parts);\n        if (\n            (current - serialProductMap[tokenId].birthtime) >=\n            serialProductMap[tokenId].lifespan\n        ) {\n            safeBurn(tokenId);\n            require(false, \"License is already expired\");\n        }\n        addressURIMap[msg.sender] = tokenURI(tokenId);\n    }\n\n    function tokenURI(uint256 tokenId)\n        public\n        view\n        override(ERC721, ERC721URIStorage)\n        returns (string memory)\n    {\n        require(\n            msg.sender == serialProductMap[tokenId].sellar ||\n                msg.sender ==\n                serialOwnerListMap[tokenId][\n                    serialOwnerListMap[tokenId].length - 1\n                ],\n            \"Only the owner of this address can see it's details\"\n        );\n        uint64 current = uint64(block.timestamp);\n        if (\n            (current - serialProductMap[tokenId].birthtime) <\n            serialProductMap[tokenId].lifespan\n        ) {\n            return super.tokenURI(tokenId);\n            // return uintToString(current);\n        }\n        return \"Illegal Access\";\n    }\n\n    function _beforeTokenTransfer(\n        address from,\n        address to,\n        uint256 serial\n    ) internal virtual override {\n        if (from != address(0)) {\n            uint256 i;\n            for (i = 0; i < addressBoughtListMap[from].length; i++) {\n                if (addressBoughtListMap[from][i] == serial) {\n                    addressBoughtListMap[from][i] = addressBoughtListMap[from][\n                        addressBoughtListMap[from].length - 1\n                    ];\n                    addressBoughtListMap[from].pop();\n                    break;\n                }\n            }\n        }\n    }\n\n    function _afterTokenTransfer(\n        address from,\n        address to,\n        uint256 serial\n    ) internal virtual override {\n        if (to != address(0)) {\n            addressBoughtListMap[to].push(serial);\n            serialOwnerListMap[serial].push(to);\n            serialProductMap[serial].onSale = false;\n        }\n    }\n}\n",
  "sourcePath": "/Users/monjoy/Desktop/LicenseNFT/smart_contract/contracts/License.sol",
  "compiler": {
    "name": "solc",
    "version": "0.8.15+commit.e14f2714.Emscripten.clang"
  },
  "schemaVersion": "3.4.8",
  "updatedAt": "2022-07-24T09:41:11.767Z",
  "networkType": "ethereum",
  "devdoc": {
    "kind": "dev",
    "methods": {
      "approve(address,uint256)": {
        "details": "See {IERC721-approve}."
      },
      "balanceOf(address)": {
        "details": "See {IERC721-balanceOf}."
      },
      "getApproved(uint256)": {
        "details": "See {IERC721-getApproved}."
      },
      "isApprovedForAll(address,address)": {
        "details": "See {IERC721-isApprovedForAll}."
      },
      "name()": {
        "details": "See {IERC721Metadata-name}."
      },
      "ownerOf(uint256)": {
        "details": "See {IERC721-ownerOf}."
      },
      "safeTransferFrom(address,address,uint256)": {
        "details": "See {IERC721-safeTransferFrom}."
      },
      "safeTransferFrom(address,address,uint256,bytes)": {
        "details": "See {IERC721-safeTransferFrom}."
      },
      "setApprovalForAll(address,bool)": {
        "details": "See {IERC721-setApprovalForAll}."
      },
      "supportsInterface(bytes4)": {
        "details": "See {IERC165-supportsInterface}."
      },
      "symbol()": {
        "details": "See {IERC721Metadata-symbol}."
      },
      "transferFrom(address,address,uint256)": {
        "details": "See {IERC721-transferFrom}."
      }
    },
    "version": 1
  },
  "userdoc": {
    "kind": "user",
    "methods": {},
    "version": 1
  }
}