{
  "contractName": "License",
  "abi": [
    {
      "inputs": [],
      "stateMutability": "nonpayable",
      "type": "constructor"
    },
    {
      "anonymous": false,
      "inputs": [
        {
          "indexed": true,
          "internalType": "address",
          "name": "owner",
          "type": "address"
        },
        {
          "indexed": true,
          "internalType": "address",
          "name": "approved",
          "type": "address"
        },
        {
          "indexed": true,
          "internalType": "uint256",
          "name": "tokenId",
          "type": "uint256"
        }
      ],
      "name": "Approval",
      "type": "event"
    },
    {
      "anonymous": false,
      "inputs": [
        {
          "indexed": true,
          "internalType": "address",
          "name": "owner",
          "type": "address"
        },
        {
          "indexed": true,
          "internalType": "address",
          "name": "operator",
          "type": "address"
        },
        {
          "indexed": false,
          "internalType": "bool",
          "name": "approved",
          "type": "bool"
        }
      ],
      "name": "ApprovalForAll",
      "type": "event"
    },
    {
      "anonymous": false,
      "inputs": [
        {
          "indexed": true,
          "internalType": "address",
          "name": "from",
          "type": "address"
        },
        {
          "indexed": true,
          "internalType": "address",
          "name": "to",
          "type": "address"
        },
        {
          "indexed": true,
          "internalType": "uint256",
          "name": "tokenId",
          "type": "uint256"
        }
      ],
      "name": "Transfer",
      "type": "event"
    },
    {
      "inputs": [
        {
          "internalType": "uint256",
          "name": "serial",
          "type": "uint256"
        }
      ],
      "name": "addSerial",
      "outputs": [],
      "stateMutability": "nonpayable",
      "type": "function"
    },
    {
      "inputs": [
        {
          "internalType": "string",
          "name": "name",
          "type": "string"
        },
        {
          "internalType": "address",
          "name": "_member",
          "type": "address"
        },
        {
          "internalType": "bool",
          "name": "isSellar",
          "type": "bool"
        }
      ],
      "name": "addUser",
      "outputs": [],
      "stateMutability": "nonpayable",
      "type": "function"
    },
    {
      "inputs": [
        {
          "internalType": "address",
          "name": "to",
          "type": "address"
        },
        {
          "internalType": "uint256",
          "name": "tokenId",
          "type": "uint256"
        }
      ],
      "name": "approve",
      "outputs": [],
      "stateMutability": "nonpayable",
      "type": "function"
    },
    {
      "inputs": [
        {
          "internalType": "address",
          "name": "owner",
          "type": "address"
        }
      ],
      "name": "balanceOf",
      "outputs": [
        {
          "internalType": "uint256",
          "name": "",
          "type": "uint256"
        }
      ],
      "stateMutability": "view",
      "type": "function",
      "constant": true
    },
    {
      "inputs": [
        {
          "internalType": "uint256",
          "name": "tokenId",
          "type": "uint256"
        }
      ],
      "name": "getApproved",
      "outputs": [
        {
          "internalType": "address",
          "name": "",
          "type": "address"
        }
      ],
      "stateMutability": "view",
      "type": "function",
      "constant": true
    },
    {
      "inputs": [],
      "name": "getBoughtLicenses",
      "outputs": [
        {
          "internalType": "uint256[]",
          "name": "",
          "type": "uint256[]"
        }
      ],
      "stateMutability": "view",
      "type": "function",
      "constant": true
    },
    {
      "inputs": [
        {
          "internalType": "uint16[]",
          "name": "parts",
          "type": "uint16[]"
        }
      ],
      "name": "getCurrentOwner",
      "outputs": [
        {
          "internalType": "address",
          "name": "",
          "type": "address"
        }
      ],
      "stateMutability": "view",
      "type": "function",
      "constant": true
    },
    {
      "inputs": [],
      "name": "getIssuedLicenses",
      "outputs": [
        {
          "internalType": "uint256[]",
          "name": "",
          "type": "uint256[]"
        }
      ],
      "stateMutability": "view",
      "type": "function",
      "constant": true
    },
    {
      "inputs": [],
      "name": "getName",
      "outputs": [
        {
          "internalType": "string",
          "name": "",
          "type": "string"
        }
      ],
      "stateMutability": "view",
      "type": "function",
      "constant": true
    },
    {
      "inputs": [
        {
          "internalType": "uint16[]",
          "name": "parts",
          "type": "uint16[]"
        }
      ],
      "name": "getOwnerList",
      "outputs": [
        {
          "internalType": "address[]",
          "name": "",
          "type": "address[]"
        }
      ],
      "stateMutability": "view",
      "type": "function",
      "constant": true
    },
    {
      "inputs": [
        {
          "internalType": "uint16[]",
          "name": "parts",
          "type": "uint16[]"
        }
      ],
      "name": "getProduct",
      "outputs": [
        {
          "components": [
            {
              "internalType": "string",
              "name": "name",
              "type": "string"
            },
            {
              "internalType": "uint256",
              "name": "serialID",
              "type": "uint256"
            },
            {
              "internalType": "address",
              "name": "sellar",
              "type": "address"
            },
            {
              "internalType": "uint64",
              "name": "birthtime",
              "type": "uint64"
            },
            {
              "internalType": "uint64",
              "name": "lifespan",
              "type": "uint64"
            },
            {
              "internalType": "bool",
              "name": "onSale",
              "type": "bool"
            },
            {
              "internalType": "enum Whitelist.ProductType",
              "name": "pType",
              "type": "uint8"
            }
          ],
          "internalType": "struct Whitelist.product",
          "name": "",
          "type": "tuple"
        }
      ],
      "stateMutability": "view",
      "type": "function",
      "constant": true
    },
    {
      "inputs": [
        {
          "internalType": "address",
          "name": "owner",
          "type": "address"
        },
        {
          "internalType": "address",
          "name": "operator",
          "type": "address"
        }
      ],
      "name": "isApprovedForAll",
      "outputs": [
        {
          "internalType": "bool",
          "name": "",
          "type": "bool"
        }
      ],
      "stateMutability": "view",
      "type": "function",
      "constant": true
    },
    {
      "inputs": [
        {
          "internalType": "uint16[]",
          "name": "parts",
          "type": "uint16[]"
        }
      ],
      "name": "isDeleted",
      "outputs": [
        {
          "internalType": "bool",
          "name": "",
          "type": "bool"
        }
      ],
      "stateMutability": "view",
      "type": "function",
      "constant": true
    },
    {
      "inputs": [],
      "name": "isRegistered",
      "outputs": [],
      "stateMutability": "view",
      "type": "function",
      "constant": true
    },
    {
      "inputs": [],
      "name": "kickSellar",
      "outputs": [],
      "stateMutability": "nonpayable",
      "type": "function"
    },
    {
      "inputs": [],
      "name": "makeSellar",
      "outputs": [],
      "stateMutability": "nonpayable",
      "type": "function"
    },
    {
      "inputs": [],
      "name": "name",
      "outputs": [
        {
          "internalType": "string",
          "name": "",
          "type": "string"
        }
      ],
      "stateMutability": "view",
      "type": "function",
      "constant": true
    },
    {
      "inputs": [
        {
          "internalType": "uint256",
          "name": "tokenId",
          "type": "uint256"
        }
      ],
      "name": "ownerOf",
      "outputs": [
        {
          "internalType": "address",
          "name": "",
          "type": "address"
        }
      ],
      "stateMutability": "view",
      "type": "function",
      "constant": true
    },
    {
      "inputs": [
        {
          "internalType": "address",
          "name": "from",
          "type": "address"
        },
        {
          "internalType": "address",
          "name": "to",
          "type": "address"
        },
        {
          "internalType": "uint256",
          "name": "tokenId",
          "type": "uint256"
        }
      ],
      "name": "safeTransferFrom",
      "outputs": [],
      "stateMutability": "nonpayable",
      "type": "function"
    },
    {
      "inputs": [
        {
          "internalType": "address",
          "name": "from",
          "type": "address"
        },
        {
          "internalType": "address",
          "name": "to",
          "type": "address"
        },
        {
          "internalType": "uint256",
          "name": "tokenId",
          "type": "uint256"
        },
        {
          "internalType": "bytes",
          "name": "data",
          "type": "bytes"
        }
      ],
      "name": "safeTransferFrom",
      "outputs": [],
      "stateMutability": "nonpayable",
      "type": "function"
    },
    {
      "inputs": [
        {
          "internalType": "address",
          "name": "operator",
          "type": "address"
        },
        {
          "internalType": "bool",
          "name": "approved",
          "type": "bool"
        }
      ],
      "name": "setApprovalForAll",
      "outputs": [],
      "stateMutability": "nonpayable",
      "type": "function"
    },
    {
      "inputs": [
        {
          "internalType": "uint16[]",
          "name": "parts",
          "type": "uint16[]"
        }
      ],
      "name": "setOnSale",
      "outputs": [],
      "stateMutability": "nonpayable",
      "type": "function"
    },
    {
      "inputs": [
        {
          "internalType": "bytes4",
          "name": "interfaceId",
          "type": "bytes4"
        }
      ],
      "name": "supportsInterface",
      "outputs": [
        {
          "internalType": "bool",
          "name": "",
          "type": "bool"
        }
      ],
      "stateMutability": "view",
      "type": "function",
      "constant": true
    },
    {
      "inputs": [],
      "name": "symbol",
      "outputs": [
        {
          "internalType": "string",
          "name": "",
          "type": "string"
        }
      ],
      "stateMutability": "view",
      "type": "function",
      "constant": true
    },
    {
      "inputs": [
        {
          "internalType": "uint16[]",
          "name": "parts",
          "type": "uint16[]"
        }
      ],
      "name": "takeDownFromSale",
      "outputs": [],
      "stateMutability": "nonpayable",
      "type": "function"
    },
    {
      "inputs": [
        {
          "internalType": "address",
          "name": "from",
          "type": "address"
        },
        {
          "internalType": "address",
          "name": "to",
          "type": "address"
        },
        {
          "internalType": "uint256",
          "name": "tokenId",
          "type": "uint256"
        }
      ],
      "name": "transferFrom",
      "outputs": [],
      "stateMutability": "nonpayable",
      "type": "function"
    },
    {
      "inputs": [
        {
          "internalType": "string",
          "name": "name",
          "type": "string"
        },
        {
          "internalType": "uint256",
          "name": "serialID",
          "type": "uint256"
        },
        {
          "internalType": "address",
          "name": "to",
          "type": "address"
        },
        {
          "internalType": "uint16[]",
          "name": "seeds",
          "type": "uint16[]"
        },
        {
          "internalType": "string",
          "name": "uri",
          "type": "string"
        },
        {
          "internalType": "uint64",
          "name": "secs",
          "type": "uint64"
        },
        {
          "internalType": "enum Whitelist.ProductType",
          "name": "pType",
          "type": "uint8"
        }
      ],
      "name": "mint",
      "outputs": [],
      "stateMutability": "nonpayable",
      "type": "function"
    },
    {
      "inputs": [
        {
          "internalType": "uint16[]",
          "name": "parts",
          "type": "uint16[]"
        }
      ],
      "name": "setTokenURI",
      "outputs": [
        {
          "internalType": "string",
          "name": "",
          "type": "string"
        }
      ],
      "stateMutability": "nonpayable",
      "type": "function"
    },
    {
      "inputs": [],
      "name": "getTokenURI",
      "outputs": [
        {
          "internalType": "string",
          "name": "",
          "type": "string"
        }
      ],
      "stateMutability": "view",
      "type": "function",
      "constant": true
    },
    {
      "inputs": [
        {
          "internalType": "uint256",
          "name": "tokenId",
          "type": "uint256"
        }
      ],
      "name": "tokenURI",
      "outputs": [
        {
          "internalType": "string",
          "name": "",
          "type": "string"
        }
      ],
      "stateMutability": "view",
      "type": "function",
      "constant": true
    },
    {
      "inputs": [
        {
          "internalType": "uint16[]",
          "name": "parts",
          "type": "uint16[]"
        },
        {
          "internalType": "address",
          "name": "to",
          "type": "address"
        }
      ],
      "name": "transfer",
      "outputs": [],
      "stateMutability": "nonpayable",
      "type": "function"
    }
  ],
  "bytecode": "0x60806040523480156200001157600080fd5b506040518060400160405280600781526020017f4c6963656e7365000000000000000000000000000000000000000000000000008152506040518060400160405280600781526020017f4c6963656e73650000000000000000000000000000000000000000000000000081525081600090816200008f91906200037c565b508060019081620000a191906200037c565b50505060016009600080815260200190815260200160002060006101000a81548160ff02191690831515021790555060016008600080815260200190815260200160002060006101000a81548160ff02191690831515021790555062000463565b600081519050919050565b7f4e487b7100000000000000000000000000000000000000000000000000000000600052604160045260246000fd5b7f4e487b7100000000000000000000000000000000000000000000000000000000600052602260045260246000fd5b600060028204905060018216806200018457607f821691505b6020821081036200019a57620001996200013c565b5b50919050565b60008190508160005260206000209050919050565b60006020601f8301049050919050565b600082821b905092915050565b600060088302620002047fffffffffffffffffffffffffffffffffffffffffffffffffffffffffffffffff82620001c5565b620002108683620001c5565b95508019841693508086168417925050509392505050565b6000819050919050565b6000819050919050565b60006200025d62000257620002518462000228565b62000232565b62000228565b9050919050565b6000819050919050565b62000279836200023c565b62000291620002888262000264565b848454620001d2565b825550505050565b600090565b620002a862000299565b620002b58184846200026e565b505050565b5b81811015620002dd57620002d16000826200029e565b600181019050620002bb565b5050565b601f8211156200032c57620002f681620001a0565b6200030184620001b5565b8101602085101562000311578190505b620003296200032085620001b5565b830182620002ba565b50505b505050565b600082821c905092915050565b6000620003516000198460080262000331565b1980831691505092915050565b60006200036c83836200033e565b9150826002028217905092915050565b620003878262000102565b67ffffffffffffffff811115620003a357620003a26200010d565b5b620003af82546200016b565b620003bc828285620002e1565b600060209050601f831160018114620003f45760008415620003df578287015190505b620003eb85826200035e565b8655506200045b565b601f1984166200040486620001a0565b60005b828110156200042e5784890151825560018201915060208501945060208101905062000407565b868310156200044e57848901516200044a601f8916826200033e565b8355505b6001600288020188555050505b505050505050565b615e7480620004736000396000f3fe608060405234801561001057600080fd5b50600436106101e55760003560e01c8063737b23761161010f578063b69c85d6116100a2578063dd49dbd711610071578063dd49dbd71461057a578063e985e9c514610584578063f15c1b46146105b4578063fd43d2e0146105e4576101e5565b8063b69c85d6146104f4578063b88d4fde14610510578063c87b56dd1461052c578063d4a191161461055c576101e5565b806397dee91f116100de57806397dee91f146104705780639a3ea5bb1461048c578063a22cb465146104a8578063b012381e146104c4576101e5565b8063737b2376146103fc57806385a1556e146104185780638c22bfcd1461042257806395d89b4114610452576101e5565b8063223668441161018757806342842e0e1161015657806342842e0e1461035057806350177a251461036c5780636352211e1461039c57806370a08231146103cc576101e5565b806322366844146102dc57806323b872dd146102e6578063398ade02146103025780633fbdbc1714610332576101e5565b8063081812fc116101c3578063081812fc14610256578063095ea7b31461028657806316c23ec6146102a257806317d7de7c146102be576101e5565b806301ffc9a7146101ea578063045b94551461021a57806306fdde0314610238575b600080fd5b61020460048036038101906101ff9190613f88565b610600565b6040516102119190613fd0565b60405180910390f35b6102226106e2565b60405161022f91906140b3565b60405180910390f35b610240610777565b60405161024d919061416e565b60405180910390f35b610270600480360381019061026b91906141bc565b610809565b60405161027d919061422a565b60405180910390f35b6102a0600480360381019061029b9190614271565b61084f565b005b6102bc60048036038101906102b79190614433565b610966565b005b6102c6610b51565b6040516102d3919061416e565b60405180910390f35b6102e4610caf565b005b61030060048036038101906102fb919061447c565b610d3d565b005b61031c60048036038101906103179190614433565b610d9d565b6040516103299190613fd0565b60405180910390f35b61033a610dcf565b60405161034791906140b3565b60405180910390f35b61036a6004803603810190610365919061447c565b610ef5565b005b61038660048036038101906103819190614433565b610f15565b604051610393919061458d565b60405180910390f35b6103b660048036038101906103b191906141bc565b611155565b6040516103c3919061422a565b60405180910390f35b6103e660048036038101906103e191906145af565b611206565b6040516103f391906145eb565b60405180910390f35b61041660048036038101906104119190614433565b6112bd565b005b6104206114a8565b005b61043c60048036038101906104379190614433565b61158a565b604051610449919061416e565b60405180910390f35b61045a611850565b604051610467919061416e565b60405180910390f35b61048a60048036038101906104859190614720565b6118e2565b005b6104a660048036038101906104a19190614816565b611cc3565b005b6104c260048036038101906104bd919061489e565b611dda565b005b6104de60048036038101906104d99190614433565b611df0565b6040516104eb9190614a59565b60405180910390f35b61050e600480360381019061050991906141bc565b612093565b005b61052a60048036038101906105259190614b1c565b61223c565b005b610546600480360381019061054191906141bc565b61229e565b604051610553919061416e565b60405180910390f35b6105646122dd565b604051610571919061416e565b60405180910390f35b6105826123ac565b005b61059e60048036038101906105999190614b9f565b612409565b6040516105ab9190613fd0565b60405180910390f35b6105ce60048036038101906105c99190614433565b61249d565b6040516105db919061422a565b60405180910390f35b6105fe60048036038101906105f99190614bdf565b6126b7565b005b60007f80ac58cd000000000000000000000000000000000000000000000000000000007bffffffffffffffffffffffffffffffffffffffffffffffffffffffff1916827bffffffffffffffffffffffffffffffffffffffffffffffffffffffff191614806106cb57507f5b5e139f000000000000000000000000000000000000000000000000000000007bffffffffffffffffffffffffffffffffffffffffffffffffffffffff1916827bffffffffffffffffffffffffffffffffffffffffffffffffffffffff1916145b806106db57506106da82612830565b5b9050919050565b6060600d60003373ffffffffffffffffffffffffffffffffffffffff1673ffffffffffffffffffffffffffffffffffffffff16815260200190815260200160002080548060200260200160405190810160405280929190818152602001828054801561076d57602002820191906000526020600020905b815481526020019060010190808311610759575b5050505050905090565b60606000805461078690614c7d565b80601f01602080910402602001604051908101604052809291908181526020018280546107b290614c7d565b80156107ff5780601f106107d4576101008083540402835291602001916107ff565b820191906000526020600020905b8154815290600101906020018083116107e257829003601f168201915b5050505050905090565b60006108148261289a565b6004600083815260200190815260200160002060009054906101000a900473ffffffffffffffffffffffffffffffffffffffff169050919050565b600061085a82611155565b90508073ffffffffffffffffffffffffffffffffffffffff168373ffffffffffffffffffffffffffffffffffffffff16036108ca576040517f08c379a00000000000000000000000000000000000000000000000000000000081526004016108c190614d20565b60405180910390fd5b8073ffffffffffffffffffffffffffffffffffffffff166108e96128e5565b73ffffffffffffffffffffffffffffffffffffffff1614806109185750610917816109126128e5565b612409565b5b610957576040517f08c379a000000000000000000000000000000000000000000000000000000000815260040161094e90614db2565b60405180910390fd5b61096183836128ed565b505050565b8060086000610974836129a6565b815260200190815260200160002060009054906101000a900460ff1615806109e85750600a60003373ffffffffffffffffffffffffffffffffffffffff1673ffffffffffffffffffffffffffffffffffffffff16815260200190815260200160002060010160009054906101000a900460ff165b610a27576040517f08c379a0000000000000000000000000000000000000000000000000000000008152600401610a1e90614e1e565b60405180910390fd5b816000610a33826129a6565b90503373ffffffffffffffffffffffffffffffffffffffff16600c60008381526020019081526020016000206001600c600085815260200190815260200160002080549050610a829190614e6d565b81548110610a9357610a92614ea1565b5b9060005260206000200160009054906101000a900473ffffffffffffffffffffffffffffffffffffffff1673ffffffffffffffffffffffffffffffffffffffff1614610b14576040517f08c379a0000000000000000000000000000000000000000000000000000000008152600401610b0b90614f42565b60405180910390fd5b6000600b6000610b23876129a6565b815260200190815260200160002060030160086101000a81548160ff02191690831515021790555050505050565b6060600760003373ffffffffffffffffffffffffffffffffffffffff1673ffffffffffffffffffffffffffffffffffffffff16815260200190815260200160002060009054906101000a900460ff16610bdf576040517f08c379a0000000000000000000000000000000000000000000000000000000008152600401610bd690614fae565b60405180910390fd5b600a60003373ffffffffffffffffffffffffffffffffffffffff1673ffffffffffffffffffffffffffffffffffffffff1681526020019081526020016000206000018054610c2c90614c7d565b80601f0160208091040260200160405190810160405280929190818152602001828054610c5890614c7d565b8015610ca55780601f10610c7a57610100808354040283529160200191610ca5565b820191906000526020600020905b815481529060010190602001808311610c8857829003601f168201915b5050505050905090565b600760003373ffffffffffffffffffffffffffffffffffffffff1673ffffffffffffffffffffffffffffffffffffffff16815260200190815260200160002060009054906101000a900460ff16610d3b576040517f08c379a0000000000000000000000000000000000000000000000000000000008152600401610d3290614fae565b60405180910390fd5b565b610d4e610d486128e5565b82612a11565b610d8d576040517f08c379a0000000000000000000000000000000000000000000000000000000008152600401610d8490615040565b60405180910390fd5b610d98838383612aa6565b505050565b600060086000610dac846129a6565b815260200190815260200160002060009054906101000a900460ff169050919050565b606033600a60008273ffffffffffffffffffffffffffffffffffffffff1673ffffffffffffffffffffffffffffffffffffffff16815260200190815260200160002060010160009054906101000a900460ff16610e61576040517f08c379a0000000000000000000000000000000000000000000000000000000008152600401610e58906150ac565b60405180910390fd5b600e60003373ffffffffffffffffffffffffffffffffffffffff1673ffffffffffffffffffffffffffffffffffffffff168152602001908152602001600020805480602002602001604051908101604052809291908181526020018280548015610eea57602002820191906000526020600020905b815481526020019060010190808311610ed6575b505050505091505090565b610f108383836040518060200160405280600081525061223c565b505050565b60608160086000610f25836129a6565b815260200190815260200160002060009054906101000a900460ff161580610f995750600a60003373ffffffffffffffffffffffffffffffffffffffff1673ffffffffffffffffffffffffffffffffffffffff16815260200190815260200160002060010160009054906101000a900460ff165b610fd8576040517f08c379a0000000000000000000000000000000000000000000000000000000008152600401610fcf90614e1e565b60405180910390fd5b6000610fe3846129a6565b9050600b600082815260200190815260200160002060030160089054906101000a900460ff168061107557503373ffffffffffffffffffffffffffffffffffffffff16600b600083815260200190815260200160002060020160009054906101000a900473ffffffffffffffffffffffffffffffffffffffff1673ffffffffffffffffffffffffffffffffffffffff16145b6110b4576040517f08c379a00000000000000000000000000000000000000000000000000000000081526004016110ab9061513e565b60405180910390fd5b600c600082815260200190815260200160002080548060200260200160405190810160405280929190818152602001828054801561114757602002820191906000526020600020905b8160009054906101000a900473ffffffffffffffffffffffffffffffffffffffff1673ffffffffffffffffffffffffffffffffffffffff16815260200190600101908083116110fd575b505050505092505050919050565b6000806002600084815260200190815260200160002060009054906101000a900473ffffffffffffffffffffffffffffffffffffffff169050600073ffffffffffffffffffffffffffffffffffffffff168173ffffffffffffffffffffffffffffffffffffffff16036111fd576040517f08c379a00000000000000000000000000000000000000000000000000000000081526004016111f4906151aa565b60405180910390fd5b80915050919050565b60008073ffffffffffffffffffffffffffffffffffffffff168273ffffffffffffffffffffffffffffffffffffffff1603611276576040517f08c379a000000000000000000000000000000000000000000000000000000000815260040161126d9061523c565b60405180910390fd5b600360008373ffffffffffffffffffffffffffffffffffffffff1673ffffffffffffffffffffffffffffffffffffffff168152602001908152602001600020549050919050565b80600860006112cb836129a6565b815260200190815260200160002060009054906101000a900460ff16158061133f5750600a60003373ffffffffffffffffffffffffffffffffffffffff1673ffffffffffffffffffffffffffffffffffffffff16815260200190815260200160002060010160009054906101000a900460ff165b61137e576040517f08c379a000000000000000000000000000000000000000000000000000000000815260040161137590614e1e565b60405180910390fd5b81600061138a826129a6565b90503373ffffffffffffffffffffffffffffffffffffffff16600c60008381526020019081526020016000206001600c6000858152602001908152602001600020805490506113d99190614e6d565b815481106113ea576113e9614ea1565b5b9060005260206000200160009054906101000a900473ffffffffffffffffffffffffffffffffffffffff1673ffffffffffffffffffffffffffffffffffffffff161461146b576040517f08c379a000000000000000000000000000000000000000000000000000000000815260040161146290614f42565b60405180910390fd5b6001600b600061147a876129a6565b815260200190815260200160002060030160086101000a81548160ff02191690831515021790555050505050565b6000600e60003373ffffffffffffffffffffffffffffffffffffffff1673ffffffffffffffffffffffffffffffffffffffff168152602001908152602001600020805490501461152d576040517f08c379a0000000000000000000000000000000000000000000000000000000008152600401611524906152ce565b60405180910390fd5b6000600a60003373ffffffffffffffffffffffffffffffffffffffff1673ffffffffffffffffffffffffffffffffffffffff16815260200190815260200160002060010160006101000a81548160ff021916908315150217905550565b60606000611597836129a6565b9050600b600082815260200190815260200160002060020160009054906101000a900473ffffffffffffffffffffffffffffffffffffffff1673ffffffffffffffffffffffffffffffffffffffff163373ffffffffffffffffffffffffffffffffffffffff1614806116a55750600c60008281526020019081526020016000206001600c60008481526020019081526020016000208054905061163a9190614e6d565b8154811061164b5761164a614ea1565b5b9060005260206000200160009054906101000a900473ffffffffffffffffffffffffffffffffffffffff1673ffffffffffffffffffffffffffffffffffffffff163373ffffffffffffffffffffffffffffffffffffffff16145b6116e4576040517f08c379a00000000000000000000000000000000000000000000000000000000081526004016116db90615360565b60405180910390fd5b6000429050600b600083815260200190815260200160002060030160009054906101000a900467ffffffffffffffff1667ffffffffffffffff16600b600084815260200190815260200160002060020160149054906101000a900467ffffffffffffffff16826117549190615380565b67ffffffffffffffff16106117f35761176c82612d0c565b6040518060400160405280601281526020017f4c6963656e736520697320657870697265640000000000000000000000000000815250600f60003373ffffffffffffffffffffffffffffffffffffffff1673ffffffffffffffffffffffffffffffffffffffff16815260200190815260200160002090816117ed9190615560565b50611849565b6117fc82612e6d565b600f60003373ffffffffffffffffffffffffffffffffffffffff1673ffffffffffffffffffffffffffffffffffffffff16815260200190815260200160002090816118479190615560565b505b5050919050565b60606001805461185f90614c7d565b80601f016020809104026020016040519081016040528092919081815260200182805461188b90614c7d565b80156118d85780601f106118ad576101008083540402835291602001916118d8565b820191906000526020600020905b8154815290600101906020018083116118bb57829003601f168201915b5050505050905090565b33600a60008273ffffffffffffffffffffffffffffffffffffffff1673ffffffffffffffffffffffffffffffffffffffff16815260200190815260200160002060010160009054906101000a900460ff16611972576040517f08c379a0000000000000000000000000000000000000000000000000000000008152600401611969906150ac565b60405180910390fd5b600760008773ffffffffffffffffffffffffffffffffffffffff1673ffffffffffffffffffffffffffffffffffffffff16815260200190815260200160002060009054906101000a900460ff166119fe576040517f08c379a00000000000000000000000000000000000000000000000000000000081526004016119f590614fae565b60405180910390fd5b6000611a09866129a6565b90506009600082815260200190815260200160002060009054906101000a900460ff1615611a6c576040517f08c379a0000000000000000000000000000000000000000000000000000000008152600401611a639061567e565b60405180910390fd5b611a7581612093565b611a7f8782612f7f565b611a898186612f9d565b600e60003373ffffffffffffffffffffffffffffffffffffffff1673ffffffffffffffffffffffffffffffffffffffff16815260200190815260200160002081908060018154018082558091505060019003906000526020600020016000909190919091505560016009600083815260200190815260200160002060006101000a81548160ff0219169083151502179055506040518060e001604052808a81526020018981526020013373ffffffffffffffffffffffffffffffffffffffff1681526020014267ffffffffffffffff1681526020018567ffffffffffffffff168152602001600015158152602001846005811115611b8a57611b89614946565b5b815250600b60008381526020019081526020016000206000820151816000019081611bb59190615560565b506020820151816001015560408201518160020160006101000a81548173ffffffffffffffffffffffffffffffffffffffff021916908373ffffffffffffffffffffffffffffffffffffffff16021790555060608201518160020160146101000a81548167ffffffffffffffff021916908367ffffffffffffffff16021790555060808201518160030160006101000a81548167ffffffffffffffff021916908367ffffffffffffffff16021790555060a08201518160030160086101000a81548160ff02191690831515021790555060c08201518160030160096101000a81548160ff02191690836005811115611cb057611caf614946565b5b0217905550905050505050505050505050565b816000611ccf826129a6565b90503373ffffffffffffffffffffffffffffffffffffffff16600c60008381526020019081526020016000206001600c600085815260200190815260200160002080549050611d1e9190614e6d565b81548110611d2f57611d2e614ea1565b5b9060005260206000200160009054906101000a900473ffffffffffffffffffffffffffffffffffffffff1673ffffffffffffffffffffffffffffffffffffffff1614611db0576040517f08c379a0000000000000000000000000000000000000000000000000000000008152600401611da790614f42565b60405180910390fd5b6000611dbb856129a6565b9050611dc833858361300a565b611dd333858361316d565b5050505050565b611dec611de56128e5565b83836132b0565b5050565b611df8613e44565b8160086000611e06836129a6565b815260200190815260200160002060009054906101000a900460ff161580611e7a5750600a60003373ffffffffffffffffffffffffffffffffffffffff1673ffffffffffffffffffffffffffffffffffffffff16815260200190815260200160002060010160009054906101000a900460ff165b611eb9576040517f08c379a0000000000000000000000000000000000000000000000000000000008152600401611eb090614e1e565b60405180910390fd5b600b6000611ec6856129a6565b81526020019081526020016000206040518060e0016040529081600082018054611eef90614c7d565b80601f0160208091040260200160405190810160405280929190818152602001828054611f1b90614c7d565b8015611f685780601f10611f3d57610100808354040283529160200191611f68565b820191906000526020600020905b815481529060010190602001808311611f4b57829003601f168201915b50505050508152602001600182015481526020016002820160009054906101000a900473ffffffffffffffffffffffffffffffffffffffff1673ffffffffffffffffffffffffffffffffffffffff1673ffffffffffffffffffffffffffffffffffffffff1681526020016002820160149054906101000a900467ffffffffffffffff1667ffffffffffffffff1667ffffffffffffffff1681526020016003820160009054906101000a900467ffffffffffffffff1667ffffffffffffffff1667ffffffffffffffff1681526020016003820160089054906101000a900460ff161515151581526020016003820160099054906101000a900460ff16600581111561207557612074614946565b5b600581111561208757612086614946565b5b81525050915050919050565b33600a60008273ffffffffffffffffffffffffffffffffffffffff1673ffffffffffffffffffffffffffffffffffffffff16815260200190815260200160002060010160009054906101000a900460ff16612123576040517f08c379a000000000000000000000000000000000000000000000000000000000815260040161211a906150ac565b60405180910390fd5b6009600083815260200190815260200160002060009054906101000a900460ff16156121ca61218f6040518060400160405280600781526020017f53657269616c200000000000000000000000000000000000000000000000000081525061218a8661341c565b6135f1565b6040518060400160405280600f81526020017f20616c726561647920696e2075736500000000000000000000000000000000008152506135f1565b9061220b576040517f08c379a0000000000000000000000000000000000000000000000000000000008152600401612202919061416e565b60405180910390fd5b5060016009600084815260200190815260200160002060006101000a81548160ff0219169083151502179055505050565b61224d6122476128e5565b83612a11565b61228c576040517f08c379a000000000000000000000000000000000000000000000000000000000815260040161228390615040565b60405180910390fd5b6122988484848461361d565b50505050565b60606040518060400160405280600e81526020017f496c6c6567616c204163636573730000000000000000000000000000000000008152509050919050565b6060600f60003373ffffffffffffffffffffffffffffffffffffffff1673ffffffffffffffffffffffffffffffffffffffff168152602001908152602001600020805461232990614c7d565b80601f016020809104026020016040519081016040528092919081815260200182805461235590614c7d565b80156123a25780601f10612377576101008083540402835291602001916123a2565b820191906000526020600020905b81548152906001019060200180831161238557829003601f168201915b5050505050905090565b6001600a60003373ffffffffffffffffffffffffffffffffffffffff1673ffffffffffffffffffffffffffffffffffffffff16815260200190815260200160002060010160006101000a81548160ff021916908315150217905550565b6000600560008473ffffffffffffffffffffffffffffffffffffffff1673ffffffffffffffffffffffffffffffffffffffff16815260200190815260200160002060008373ffffffffffffffffffffffffffffffffffffffff1673ffffffffffffffffffffffffffffffffffffffff16815260200190815260200160002060009054906101000a900460ff16905092915050565b600081600860006124ad836129a6565b815260200190815260200160002060009054906101000a900460ff1615806125215750600a60003373ffffffffffffffffffffffffffffffffffffffff1673ffffffffffffffffffffffffffffffffffffffff16815260200190815260200160002060010160009054906101000a900460ff165b612560576040517f08c379a000000000000000000000000000000000000000000000000000000000815260040161255790614e1e565b60405180910390fd5b600061256b846129a6565b9050600b600082815260200190815260200160002060030160089054906101000a900460ff16806125fd57503373ffffffffffffffffffffffffffffffffffffffff16600b600083815260200190815260200160002060020160009054906101000a900473ffffffffffffffffffffffffffffffffffffffff1673ffffffffffffffffffffffffffffffffffffffff16145b61263c576040517f08c379a000000000000000000000000000000000000000000000000000000000815260040161263390615710565b60405180910390fd5b600c60008281526020019081526020016000206001600c6000848152602001908152602001600020805490506126729190614e6d565b8154811061268357612682614ea1565b5b9060005260206000200160009054906101000a900473ffffffffffffffffffffffffffffffffffffffff1692505050919050565b600760008373ffffffffffffffffffffffffffffffffffffffff1673ffffffffffffffffffffffffffffffffffffffff16815260200190815260200160002060009054906101000a900460ff1615612744576040517f08c379a000000000000000000000000000000000000000000000000000000000815260040161273b9061577c565b60405180910390fd5b6001600760008473ffffffffffffffffffffffffffffffffffffffff1673ffffffffffffffffffffffffffffffffffffffff16815260200190815260200160002060006101000a81548160ff0219169083151502179055506040518060400160405280848152602001821515815250600a60008473ffffffffffffffffffffffffffffffffffffffff1673ffffffffffffffffffffffffffffffffffffffff16815260200190815260200160002060008201518160000190816128079190615560565b5060208201518160010160006101000a81548160ff021916908315150217905550905050505050565b60007f01ffc9a7000000000000000000000000000000000000000000000000000000007bffffffffffffffffffffffffffffffffffffffffffffffffffffffff1916827bffffffffffffffffffffffffffffffffffffffffffffffffffffffff1916149050919050565b6128a381613679565b6128e2576040517f08c379a00000000000000000000000000000000000000000000000000000000081526004016128d9906151aa565b60405180910390fd5b50565b600033905090565b816004600083815260200190815260200160002060006101000a81548173ffffffffffffffffffffffffffffffffffffffff021916908373ffffffffffffffffffffffffffffffffffffffff160217905550808273ffffffffffffffffffffffffffffffffffffffff1661296083611155565b73ffffffffffffffffffffffffffffffffffffffff167f8c5be1e5ebec7d5bd14f71427d1e84f3dd0314c0f7b2291e5b200ac8c7c3b92560405160405180910390a45050565b6000806000601090505b60018110612a0757836001826129c69190614e6d565b815181106129d7576129d6614ea1565b5b602002602001015161ffff16601083901b6129f2919061579c565b915080806129ff906157f2565b9150506129b0565b5080915050919050565b600080612a1d83611155565b90508073ffffffffffffffffffffffffffffffffffffffff168473ffffffffffffffffffffffffffffffffffffffff161480612a5f5750612a5e8185612409565b5b80612a9d57508373ffffffffffffffffffffffffffffffffffffffff16612a8584610809565b73ffffffffffffffffffffffffffffffffffffffff16145b91505092915050565b8273ffffffffffffffffffffffffffffffffffffffff16612ac682611155565b73ffffffffffffffffffffffffffffffffffffffff1614612b1c576040517f08c379a0000000000000000000000000000000000000000000000000000000008152600401612b139061588d565b60405180910390fd5b600073ffffffffffffffffffffffffffffffffffffffff168273ffffffffffffffffffffffffffffffffffffffff1603612b8b576040517f08c379a0000000000000000000000000000000000000000000000000000000008152600401612b829061591f565b60405180910390fd5b612b9683838361300a565b612ba16000826128ed565b6001600360008573ffffffffffffffffffffffffffffffffffffffff1673ffffffffffffffffffffffffffffffffffffffff1681526020019081526020016000206000828254612bf19190614e6d565b925050819055506001600360008473ffffffffffffffffffffffffffffffffffffffff1673ffffffffffffffffffffffffffffffffffffffff1681526020019081526020016000206000828254612c48919061579c565b92505081905550816002600083815260200190815260200160002060006101000a81548173ffffffffffffffffffffffffffffffffffffffff021916908373ffffffffffffffffffffffffffffffffffffffff160217905550808273ffffffffffffffffffffffffffffffffffffffff168473ffffffffffffffffffffffffffffffffffffffff167fddf252ad1be2c89b69c2b068fc378daa952ba7f163c4a11628f55a4df523b3ef60405160405180910390a4612d0783838361316d565b505050565b60016008600083815260200190815260200160002060006101000a81548160ff02191690831515021790555060005b600d60003373ffffffffffffffffffffffffffffffffffffffff1673ffffffffffffffffffffffffffffffffffffffff16815260200190815260200160002080549050811015612e605781600d60003373ffffffffffffffffffffffffffffffffffffffff1673ffffffffffffffffffffffffffffffffffffffff1681526020019081526020016000208281548110612dd757612dd6614ea1565b5b906000526020600020015403612e4d576000600d60003373ffffffffffffffffffffffffffffffffffffffff1673ffffffffffffffffffffffffffffffffffffffff1681526020019081526020016000208281548110612e3a57612e39614ea1565b5b9060005260206000200181905550612e60565b8080612e589061593f565b915050612d3b565b612e69826136e5565b5050565b6060612e788261289a565b6000600660008481526020019081526020016000208054612e9890614c7d565b80601f0160208091040260200160405190810160405280929190818152602001828054612ec490614c7d565b8015612f115780601f10612ee657610100808354040283529160200191612f11565b820191906000526020600020905b815481529060010190602001808311612ef457829003601f168201915b505050505090506000612f226136f1565b90506000815103612f37578192505050612f7a565b600082511115612f6c578082604051602001612f549291906159c3565b60405160208183030381529060405292505050612f7a565b612f758461372e565b925050505b919050565b612f99828260405180602001604052806000815250613796565b5050565b612fa682613679565b612fe5576040517f08c379a0000000000000000000000000000000000000000000000000000000008152600401612fdc90615a59565b60405180910390fd5b806006600084815260200190815260200160002090816130059190615560565b505050565b600073ffffffffffffffffffffffffffffffffffffffff168373ffffffffffffffffffffffffffffffffffffffff16146131685760005b600d60008573ffffffffffffffffffffffffffffffffffffffff1673ffffffffffffffffffffffffffffffffffffffff168152602001908152602001600020805490508110156131665781600d60008673ffffffffffffffffffffffffffffffffffffffff1673ffffffffffffffffffffffffffffffffffffffff16815260200190815260200160002082815481106130dd576130dc614ea1565b5b906000526020600020015403613153576000600d60008673ffffffffffffffffffffffffffffffffffffffff1673ffffffffffffffffffffffffffffffffffffffff16815260200190815260200160002082815481106131405761313f614ea1565b5b9060005260206000200181905550613166565b808061315e9061593f565b915050613041565b505b505050565b600073ffffffffffffffffffffffffffffffffffffffff168273ffffffffffffffffffffffffffffffffffffffff16146132ab57600d60008373ffffffffffffffffffffffffffffffffffffffff1673ffffffffffffffffffffffffffffffffffffffff168152602001908152602001600020819080600181540180825580915050600190039060005260206000200160009091909190915055600c6000828152602001908152602001600020829080600181540180825580915050600190039060005260206000200160009091909190916101000a81548173ffffffffffffffffffffffffffffffffffffffff021916908373ffffffffffffffffffffffffffffffffffffffff1602179055506000600b600083815260200190815260200160002060030160086101000a81548160ff0219169083151502179055505b505050565b8173ffffffffffffffffffffffffffffffffffffffff168373ffffffffffffffffffffffffffffffffffffffff160361331e576040517f08c379a000000000000000000000000000000000000000000000000000000000815260040161331590615ac5565b60405180910390fd5b80600560008573ffffffffffffffffffffffffffffffffffffffff1673ffffffffffffffffffffffffffffffffffffffff16815260200190815260200160002060008473ffffffffffffffffffffffffffffffffffffffff1673ffffffffffffffffffffffffffffffffffffffff16815260200190815260200160002060006101000a81548160ff0219169083151502179055508173ffffffffffffffffffffffffffffffffffffffff168373ffffffffffffffffffffffffffffffffffffffff167f17307eab39ab6107e8899845ad3d59bd9653f200f220920489ca2b5937696c318360405161340f9190613fd0565b60405180910390a3505050565b60606000606467ffffffffffffffff81111561343b5761343a6142b6565b5b6040519080825280601f01601f19166020018201604052801561346d5781602001600182028036833780820191505090505b50905060005b60008411156134fc57600a846134899190615b14565b6030613495919061579c565b60f81b8282815181106134ab576134aa614ea1565b5b60200101907effffffffffffffffffffffffffffffffffffffffffffffffffffffffffffff1916908160001a905350600a846134e79190615b45565b935080806134f49061593f565b915050613473565b6000825167ffffffffffffffff811115613519576135186142b6565b5b6040519080825280601f01601f19166020018201604052801561354b5781602001600182028036833780820191505090505b50905060005b83518110156135e55783600182865161356a9190614e6d565b6135749190614e6d565b8151811061358557613584614ea1565b5b602001015160f81c60f81b8282815181106135a3576135a2614ea1565b5b60200101907effffffffffffffffffffffffffffffffffffffffffffffffffffffffffffff1916908160001a90535080806135dd9061593f565b915050613551565b50809350505050919050565b60608282604051602001613606929190615bc2565b604051602081830303815290604052905092915050565b613628848484612aa6565b613634848484846137f1565b613673576040517f08c379a000000000000000000000000000000000000000000000000000000000815260040161366a90615c63565b60405180910390fd5b50505050565b60008073ffffffffffffffffffffffffffffffffffffffff166002600084815260200190815260200160002060009054906101000a900473ffffffffffffffffffffffffffffffffffffffff1673ffffffffffffffffffffffffffffffffffffffff1614159050919050565b6136ee81613978565b50565b60606040518060400160405280600781526020017f697066733a2f2f00000000000000000000000000000000000000000000000000815250905090565b60606137398261289a565b60006137436136f1565b90506000815111613763576040518060200160405280600081525061378e565b8061376d846139cb565b60405160200161377e9291906159c3565b6040516020818303038152906040525b915050919050565b6137a08383613b2b565b6137ad60008484846137f1565b6137ec576040517f08c379a00000000000000000000000000000000000000000000000000000000081526004016137e390615c63565b60405180910390fd5b505050565b60006138128473ffffffffffffffffffffffffffffffffffffffff16613d04565b1561396b578373ffffffffffffffffffffffffffffffffffffffff1663150b7a0261383b6128e5565b8786866040518563ffffffff1660e01b815260040161385d9493929190615cd8565b6020604051808303816000875af192505050801561389957506040513d601f19601f820116820180604052508101906138969190615d39565b60015b61391b573d80600081146138c9576040519150601f19603f3d011682016040523d82523d6000602084013e6138ce565b606091505b506000815103613913576040517f08c379a000000000000000000000000000000000000000000000000000000000815260040161390a90615c63565b60405180910390fd5b805181602001fd5b63150b7a0260e01b7bffffffffffffffffffffffffffffffffffffffffffffffffffffffff1916817bffffffffffffffffffffffffffffffffffffffffffffffffffffffff191614915050613970565b600190505b949350505050565b61398181613d27565b60006006600083815260200190815260200160002080546139a190614c7d565b9050146139c8576006600082815260200190815260200160002060006139c79190613ebf565b5b50565b606060008203613a12576040518060400160405280600181526020017f30000000000000000000000000000000000000000000000000000000000000008152509050613b26565b600082905060005b60008214613a44578080613a2d9061593f565b915050600a82613a3d9190615b45565b9150613a1a565b60008167ffffffffffffffff811115613a6057613a5f6142b6565b5b6040519080825280601f01601f191660200182016040528015613a925781602001600182028036833780820191505090505b5090505b60008514613b1f57600182613aab9190614e6d565b9150600a85613aba9190615b14565b6030613ac6919061579c565b60f81b818381518110613adc57613adb614ea1565b5b60200101907effffffffffffffffffffffffffffffffffffffffffffffffffffffffffffff1916908160001a905350600a85613b189190615b45565b9450613a96565b8093505050505b919050565b600073ffffffffffffffffffffffffffffffffffffffff168273ffffffffffffffffffffffffffffffffffffffff1603613b9a576040517f08c379a0000000000000000000000000000000000000000000000000000000008152600401613b9190615db2565b60405180910390fd5b613ba381613679565b15613be3576040517f08c379a0000000000000000000000000000000000000000000000000000000008152600401613bda90615e1e565b60405180910390fd5b613bef6000838361300a565b6001600360008473ffffffffffffffffffffffffffffffffffffffff1673ffffffffffffffffffffffffffffffffffffffff1681526020019081526020016000206000828254613c3f919061579c565b92505081905550816002600083815260200190815260200160002060006101000a81548173ffffffffffffffffffffffffffffffffffffffff021916908373ffffffffffffffffffffffffffffffffffffffff160217905550808273ffffffffffffffffffffffffffffffffffffffff16600073ffffffffffffffffffffffffffffffffffffffff167fddf252ad1be2c89b69c2b068fc378daa952ba7f163c4a11628f55a4df523b3ef60405160405180910390a4613d006000838361316d565b5050565b6000808273ffffffffffffffffffffffffffffffffffffffff163b119050919050565b6000613d3282611155565b9050613d408160008461300a565b613d4b6000836128ed565b6001600360008373ffffffffffffffffffffffffffffffffffffffff1673ffffffffffffffffffffffffffffffffffffffff1681526020019081526020016000206000828254613d9b9190614e6d565b925050819055506002600083815260200190815260200160002060006101000a81549073ffffffffffffffffffffffffffffffffffffffff021916905581600073ffffffffffffffffffffffffffffffffffffffff168273ffffffffffffffffffffffffffffffffffffffff167fddf252ad1be2c89b69c2b068fc378daa952ba7f163c4a11628f55a4df523b3ef60405160405180910390a4613e408160008461316d565b5050565b6040518060e001604052806060815260200160008152602001600073ffffffffffffffffffffffffffffffffffffffff168152602001600067ffffffffffffffff168152602001600067ffffffffffffffff16815260200160001515815260200160006005811115613eb957613eb8614946565b5b81525090565b508054613ecb90614c7d565b6000825580601f10613edd5750613efc565b601f016020900490600052602060002090810190613efb9190613eff565b5b50565b5b80821115613f18576000816000905550600101613f00565b5090565b6000604051905090565b600080fd5b600080fd5b60007fffffffff0000000000000000000000000000000000000000000000000000000082169050919050565b613f6581613f30565b8114613f7057600080fd5b50565b600081359050613f8281613f5c565b92915050565b600060208284031215613f9e57613f9d613f26565b5b6000613fac84828501613f73565b91505092915050565b60008115159050919050565b613fca81613fb5565b82525050565b6000602082019050613fe56000830184613fc1565b92915050565b600081519050919050565b600082825260208201905092915050565b6000819050602082019050919050565b6000819050919050565b61402a81614017565b82525050565b600061403c8383614021565b60208301905092915050565b6000602082019050919050565b600061406082613feb565b61406a8185613ff6565b935061407583614007565b8060005b838110156140a657815161408d8882614030565b975061409883614048565b925050600181019050614079565b5085935050505092915050565b600060208201905081810360008301526140cd8184614055565b905092915050565b600081519050919050565b600082825260208201905092915050565b60005b8381101561410f5780820151818401526020810190506140f4565b8381111561411e576000848401525b50505050565b6000601f19601f8301169050919050565b6000614140826140d5565b61414a81856140e0565b935061415a8185602086016140f1565b61416381614124565b840191505092915050565b600060208201905081810360008301526141888184614135565b905092915050565b61419981614017565b81146141a457600080fd5b50565b6000813590506141b681614190565b92915050565b6000602082840312156141d2576141d1613f26565b5b60006141e0848285016141a7565b91505092915050565b600073ffffffffffffffffffffffffffffffffffffffff82169050919050565b6000614214826141e9565b9050919050565b61422481614209565b82525050565b600060208201905061423f600083018461421b565b92915050565b61424e81614209565b811461425957600080fd5b50565b60008135905061426b81614245565b92915050565b6000806040838503121561428857614287613f26565b5b60006142968582860161425c565b92505060206142a7858286016141a7565b9150509250929050565b600080fd5b7f4e487b7100000000000000000000000000000000000000000000000000000000600052604160045260246000fd5b6142ee82614124565b810181811067ffffffffffffffff8211171561430d5761430c6142b6565b5b80604052505050565b6000614320613f1c565b905061432c82826142e5565b919050565b600067ffffffffffffffff82111561434c5761434b6142b6565b5b602082029050602081019050919050565b600080fd5b600061ffff82169050919050565b61437981614362565b811461438457600080fd5b50565b60008135905061439681614370565b92915050565b60006143af6143aa84614331565b614316565b905080838252602082019050602084028301858111156143d2576143d161435d565b5b835b818110156143fb57806143e78882614387565b8452602084019350506020810190506143d4565b5050509392505050565b600082601f83011261441a576144196142b1565b5b813561442a84826020860161439c565b91505092915050565b60006020828403121561444957614448613f26565b5b600082013567ffffffffffffffff81111561446757614466613f2b565b5b61447384828501614405565b91505092915050565b60008060006060848603121561449557614494613f26565b5b60006144a38682870161425c565b93505060206144b48682870161425c565b92505060406144c5868287016141a7565b9150509250925092565b600081519050919050565b600082825260208201905092915050565b6000819050602082019050919050565b61450481614209565b82525050565b600061451683836144fb565b60208301905092915050565b6000602082019050919050565b600061453a826144cf565b61454481856144da565b935061454f836144eb565b8060005b83811015614580578151614567888261450a565b975061457283614522565b925050600181019050614553565b5085935050505092915050565b600060208201905081810360008301526145a7818461452f565b905092915050565b6000602082840312156145c5576145c4613f26565b5b60006145d38482850161425c565b91505092915050565b6145e581614017565b82525050565b600060208201905061460060008301846145dc565b92915050565b600080fd5b600067ffffffffffffffff821115614626576146256142b6565b5b61462f82614124565b9050602081019050919050565b82818337600083830152505050565b600061465e6146598461460b565b614316565b90508281526020810184848401111561467a57614679614606565b5b61468584828561463c565b509392505050565b600082601f8301126146a2576146a16142b1565b5b81356146b284826020860161464b565b91505092915050565b600067ffffffffffffffff82169050919050565b6146d8816146bb565b81146146e357600080fd5b50565b6000813590506146f5816146cf565b92915050565b6006811061470857600080fd5b50565b60008135905061471a816146fb565b92915050565b600080600080600080600060e0888a03121561473f5761473e613f26565b5b600088013567ffffffffffffffff81111561475d5761475c613f2b565b5b6147698a828b0161468d565b975050602061477a8a828b016141a7565b965050604061478b8a828b0161425c565b955050606088013567ffffffffffffffff8111156147ac576147ab613f2b565b5b6147b88a828b01614405565b945050608088013567ffffffffffffffff8111156147d9576147d8613f2b565b5b6147e58a828b0161468d565b93505060a06147f68a828b016146e6565b92505060c06148078a828b0161470b565b91505092959891949750929550565b6000806040838503121561482d5761482c613f26565b5b600083013567ffffffffffffffff81111561484b5761484a613f2b565b5b61485785828601614405565b92505060206148688582860161425c565b9150509250929050565b61487b81613fb5565b811461488657600080fd5b50565b60008135905061489881614872565b92915050565b600080604083850312156148b5576148b4613f26565b5b60006148c38582860161425c565b92505060206148d485828601614889565b9150509250929050565b600082825260208201905092915050565b60006148fa826140d5565b61490481856148de565b93506149148185602086016140f1565b61491d81614124565b840191505092915050565b614931816146bb565b82525050565b61494081613fb5565b82525050565b7f4e487b7100000000000000000000000000000000000000000000000000000000600052602160045260246000fd5b6006811061498657614985614946565b5b50565b600081905061499782614975565b919050565b60006149a782614989565b9050919050565b6149b78161499c565b82525050565b600060e08301600083015184820360008601526149da82826148ef565b91505060208301516149ef6020860182614021565b506040830151614a0260408601826144fb565b506060830151614a156060860182614928565b506080830151614a286080860182614928565b5060a0830151614a3b60a0860182614937565b5060c0830151614a4e60c08601826149ae565b508091505092915050565b60006020820190508181036000830152614a7381846149bd565b905092915050565b600067ffffffffffffffff821115614a9657614a956142b6565b5b614a9f82614124565b9050602081019050919050565b6000614abf614aba84614a7b565b614316565b905082815260208101848484011115614adb57614ada614606565b5b614ae684828561463c565b509392505050565b600082601f830112614b0357614b026142b1565b5b8135614b13848260208601614aac565b91505092915050565b60008060008060808587031215614b3657614b35613f26565b5b6000614b448782880161425c565b9450506020614b558782880161425c565b9350506040614b66878288016141a7565b925050606085013567ffffffffffffffff811115614b8757614b86613f2b565b5b614b9387828801614aee565b91505092959194509250565b60008060408385031215614bb657614bb5613f26565b5b6000614bc48582860161425c565b9250506020614bd58582860161425c565b9150509250929050565b600080600060608486031215614bf857614bf7613f26565b5b600084013567ffffffffffffffff811115614c1657614c15613f2b565b5b614c228682870161468d565b9350506020614c338682870161425c565b9250506040614c4486828701614889565b9150509250925092565b7f4e487b7100000000000000000000000000000000000000000000000000000000600052602260045260246000fd5b60006002820490506001821680614c9557607f821691505b602082108103614ca857614ca7614c4e565b5b50919050565b7f4552433732313a20617070726f76616c20746f2063757272656e74206f776e6560008201527f7200000000000000000000000000000000000000000000000000000000000000602082015250565b6000614d0a6021836140e0565b9150614d1582614cae565b604082019050919050565b60006020820190508181036000830152614d3981614cfd565b9050919050565b7f4552433732313a20617070726f76652063616c6c6572206973206e6f7420746f60008201527f6b656e206f776e6572206e6f7220617070726f76656420666f7220616c6c0000602082015250565b6000614d9c603e836140e0565b9150614da782614d40565b604082019050919050565b60006020820190508181036000830152614dcb81614d8f565b9050919050565b7f546869732070726f6475637420686173206265656e2064656c657465642e0000600082015250565b6000614e08601e836140e0565b9150614e1382614dd2565b602082019050919050565b60006020820190508181036000830152614e3781614dfb565b9050919050565b7f4e487b7100000000000000000000000000000000000000000000000000000000600052601160045260246000fd5b6000614e7882614017565b9150614e8383614017565b925082821015614e9657614e95614e3e565b5b828203905092915050565b7f4e487b7100000000000000000000000000000000000000000000000000000000600052603260045260246000fd5b7f204f6e6c7920746865206f776e6572206f6620746869732070726f647563742060008201527f63616e2061636365737320746869730000000000000000000000000000000000602082015250565b6000614f2c602f836140e0565b9150614f3782614ed0565b604082019050919050565b60006020820190508181036000830152614f5b81614f1f565b9050919050565b7f4f6e6c792072656769737465726564206d656d6265727320616c6c6f77656400600082015250565b6000614f98601f836140e0565b9150614fa382614f62565b602082019050919050565b60006020820190508181036000830152614fc781614f8b565b9050919050565b7f4552433732313a2063616c6c6572206973206e6f7420746f6b656e206f776e6560008201527f72206e6f7220617070726f766564000000000000000000000000000000000000602082015250565b600061502a602e836140e0565b915061503582614fce565b604082019050919050565b600060208201905081810360008301526150598161501d565b9050919050565b7f4f6e6c792073656c6c6172732063616e20616363657373207468697300000000600082015250565b6000615096601c836140e0565b91506150a182615060565b602082019050919050565b600060208201905081810360008301526150c581615089565b9050919050565b7f46756e6374696f6e2061636365737369626c65206f6e6c79206279207468652060008201527f6d656d626572206f6620746865206272616e6421210000000000000000000000602082015250565b60006151286035836140e0565b9150615133826150cc565b604082019050919050565b600060208201905081810360008301526151578161511b565b9050919050565b7f4552433732313a20696e76616c696420746f6b656e2049440000000000000000600082015250565b60006151946018836140e0565b915061519f8261515e565b602082019050919050565b600060208201905081810360008301526151c381615187565b9050919050565b7f4552433732313a2061646472657373207a65726f206973206e6f74206120766160008201527f6c6964206f776e65720000000000000000000000000000000000000000000000602082015250565b60006152266029836140e0565b9150615231826151ca565b604082019050919050565b6000602082019050818103600083015261525581615219565b9050919050565b7f416c6c206c6963656e736573206e65656420746f20657870697265206265666f60008201527f7265206c656176696e672074686520627573696e657373000000000000000000602082015250565b60006152b86037836140e0565b91506152c38261525c565b604082019050919050565b600060208201905081810360008301526152e7816152ab565b9050919050565b7f4f6e6c7920746865206f776e6572206f6620746869732061646472657373206360008201527f616e2073656520697427732064657461696c7300000000000000000000000000602082015250565b600061534a6033836140e0565b9150615355826152ee565b604082019050919050565b600060208201905081810360008301526153798161533d565b9050919050565b600061538b826146bb565b9150615396836146bb565b9250828210156153a9576153a8614e3e565b5b828203905092915050565b60008190508160005260206000209050919050565b60006020601f8301049050919050565b600082821b905092915050565b6000600883026154167fffffffffffffffffffffffffffffffffffffffffffffffffffffffffffffffff826153d9565b61542086836153d9565b95508019841693508086168417925050509392505050565b6000819050919050565b600061545d61545861545384614017565b615438565b614017565b9050919050565b6000819050919050565b61547783615442565b61548b61548382615464565b8484546153e6565b825550505050565b600090565b6154a0615493565b6154ab81848461546e565b505050565b5b818110156154cf576154c4600082615498565b6001810190506154b1565b5050565b601f821115615514576154e5816153b4565b6154ee846153c9565b810160208510156154fd578190505b615511615509856153c9565b8301826154b0565b50505b505050565b600082821c905092915050565b600061553760001984600802615519565b1980831691505092915050565b60006155508383615526565b9150826002028217905092915050565b615569826140d5565b67ffffffffffffffff811115615582576155816142b6565b5b61558c8254614c7d565b6155978282856154d3565b600060209050601f8311600181146155ca57600084156155b8578287015190505b6155c28582615544565b86555061562a565b601f1984166155d8866153b4565b60005b82811015615600578489015182556001820191506020850194506020810190506155db565b8683101561561d5784890151615619601f891682615526565b8355505b6001600288020188555050505b505050505050565b7f53657269616c204944206d75737420626520756e757365640000000000000000600082015250565b60006156686018836140e0565b915061567382615632565b602082019050919050565b600060208201905081810360008301526156978161565b565b9050919050565b7f50726f64756374206d757374206265206f6e2073616c6520746f20616363657360008201527f7320746869730000000000000000000000000000000000000000000000000000602082015250565b60006156fa6026836140e0565b91506157058261569e565b604082019050919050565b60006020820190508181036000830152615729816156ed565b9050919050565b7f4164647265737320616c72656164792072656769737465726564000000000000600082015250565b6000615766601a836140e0565b915061577182615730565b602082019050919050565b6000602082019050818103600083015261579581615759565b9050919050565b60006157a782614017565b91506157b283614017565b9250827fffffffffffffffffffffffffffffffffffffffffffffffffffffffffffffffff038211156157e7576157e6614e3e565b5b828201905092915050565b60006157fd82614017565b9150600082036158105761580f614e3e565b5b600182039050919050565b7f4552433732313a207472616e736665722066726f6d20696e636f72726563742060008201527f6f776e6572000000000000000000000000000000000000000000000000000000602082015250565b60006158776025836140e0565b91506158828261581b565b604082019050919050565b600060208201905081810360008301526158a68161586a565b9050919050565b7f4552433732313a207472616e7366657220746f20746865207a65726f2061646460008201527f7265737300000000000000000000000000000000000000000000000000000000602082015250565b60006159096024836140e0565b9150615914826158ad565b604082019050919050565b60006020820190508181036000830152615938816158fc565b9050919050565b600061594a82614017565b91507fffffffffffffffffffffffffffffffffffffffffffffffffffffffffffffffff820361597c5761597b614e3e565b5b600182019050919050565b600081905092915050565b600061599d826140d5565b6159a78185615987565b93506159b78185602086016140f1565b80840191505092915050565b60006159cf8285615992565b91506159db8284615992565b91508190509392505050565b7f45524337323155524953746f726167653a2055524920736574206f66206e6f6e60008201527f6578697374656e7420746f6b656e000000000000000000000000000000000000602082015250565b6000615a43602e836140e0565b9150615a4e826159e7565b604082019050919050565b60006020820190508181036000830152615a7281615a36565b9050919050565b7f4552433732313a20617070726f766520746f2063616c6c657200000000000000600082015250565b6000615aaf6019836140e0565b9150615aba82615a79565b602082019050919050565b60006020820190508181036000830152615ade81615aa2565b9050919050565b7f4e487b7100000000000000000000000000000000000000000000000000000000600052601260045260246000fd5b6000615b1f82614017565b9150615b2a83614017565b925082615b3a57615b39615ae5565b5b828206905092915050565b6000615b5082614017565b9150615b5b83614017565b925082615b6b57615b6a615ae5565b5b828204905092915050565b7f2000000000000000000000000000000000000000000000000000000000000000600082015250565b6000615bac600183615987565b9150615bb782615b76565b600182019050919050565b6000615bce8285615992565b9150615bd982615b9f565b9150615be58284615992565b91508190509392505050565b7f4552433732313a207472616e7366657220746f206e6f6e20455243373231526560008201527f63656976657220696d706c656d656e7465720000000000000000000000000000602082015250565b6000615c4d6032836140e0565b9150615c5882615bf1565b604082019050919050565b60006020820190508181036000830152615c7c81615c40565b9050919050565b600081519050919050565b600082825260208201905092915050565b6000615caa82615c83565b615cb48185615c8e565b9350615cc48185602086016140f1565b615ccd81614124565b840191505092915050565b6000608082019050615ced600083018761421b565b615cfa602083018661421b565b615d0760408301856145dc565b8181036060830152615d198184615c9f565b905095945050505050565b600081519050615d3381613f5c565b92915050565b600060208284031215615d4f57615d4e613f26565b5b6000615d5d84828501615d24565b91505092915050565b7f4552433732313a206d696e7420746f20746865207a65726f2061646472657373600082015250565b6000615d9c6020836140e0565b9150615da782615d66565b602082019050919050565b60006020820190508181036000830152615dcb81615d8f565b9050919050565b7f4552433732313a20746f6b656e20616c7265616479206d696e74656400000000600082015250565b6000615e08601c836140e0565b9150615e1382615dd2565b602082019050919050565b60006020820190508181036000830152615e3781615dfb565b905091905056fea26469706673582212205c598e188002f6f656db0d73352ae3d3e91a739c83acc391807527f5f9a8f33464736f6c634300080f0033",
  "immutableReferences": {},
  "source": "// SPDX-License-Identifier: MIT\r\npragma solidity ^0.8.4;\r\n\r\nimport \"@openzeppelin/contracts/token/ERC721/ERC721.sol\";\r\nimport \"@openzeppelin/contracts/token/ERC721/extensions/ERC721URIStorage.sol\";\r\nimport \"./Ownership.sol\";\r\nimport \"./Misc.sol\";\r\n\r\ncontract License is ERC721, ERC721URIStorage, Whitelist {\r\n    mapping(address => string) private addressURIMap;\r\n\r\n    constructor() ERC721(\"License\", \"License\") {}\r\n\r\n    function _baseURI() internal pure override returns (string memory) {\r\n        return \"ipfs://\";\r\n    }\r\n\r\n    function mint(\r\n        string memory name,\r\n        uint256 serialID,\r\n        address to,\r\n        uint16[] memory seeds,\r\n        string memory uri,\r\n        uint64 secs,\r\n        ProductType pType\r\n    ) public onlySellar(msg.sender) {\r\n        require(usedBrandIDs[to], \"Only registered members allowed\");\r\n        uint256 tokenId = combine(seeds);\r\n        require(!usedSerials[tokenId], \"Serial ID must be unused\");\r\n        addSerial(tokenId);\r\n        _safeMint(to, tokenId);\r\n        _setTokenURI(tokenId, uri);\r\n        addressSoldListMap[msg.sender].push(tokenId);\r\n        usedSerials[tokenId] = true;\r\n        serialProductMap[tokenId] = product(\r\n            name,\r\n            serialID,\r\n            msg.sender,\r\n            uint64(block.timestamp),\r\n            secs,\r\n            false,\r\n            pType\r\n        );\r\n    }\r\n\r\n    function safeBurn(uint256 tokenId) internal {\r\n        deletedSerials[tokenId] = true;\r\n        uint256 i;\r\n        for (i = 0; i < addressBoughtListMap[msg.sender].length; i++) {\r\n            if (addressBoughtListMap[msg.sender][i] == tokenId) {\r\n                addressBoughtListMap[msg.sender][i] = 0;\r\n                break;\r\n            }\r\n        }\r\n        _burn(tokenId);\r\n    }\r\n\r\n    function _burn(uint256 tokenId)\r\n        internal\r\n        override(ERC721, ERC721URIStorage)\r\n    {\r\n        super._burn(tokenId);\r\n    }\r\n\r\n    function setTokenURI(uint16[] memory parts) public returns (string memory) {\r\n        uint256 tokenId = combine(parts);\r\n        require(\r\n            msg.sender == serialProductMap[tokenId].sellar ||\r\n                msg.sender ==\r\n                serialOwnerListMap[tokenId][\r\n                    serialOwnerListMap[tokenId].length - 1\r\n                ],\r\n            \"Only the owner of this address can see it's details\"\r\n        );\r\n        uint64 current = uint64(block.timestamp);\r\n        if (\r\n            (current - serialProductMap[tokenId].birthtime) >=\r\n            serialProductMap[tokenId].lifespan\r\n        ) {\r\n            safeBurn(tokenId);\r\n            addressURIMap[msg.sender] = \"License is expired\";\r\n        } else {\r\n            addressURIMap[msg.sender] = super.tokenURI(tokenId);\r\n        }\r\n    }\r\n\r\n    function getTokenURI() public view returns (string memory) {\r\n        return addressURIMap[msg.sender];\r\n    }\r\n\r\n    function tokenURI(uint256 tokenId)\r\n        public\r\n        view\r\n        override(ERC721, ERC721URIStorage)\r\n        returns (string memory)\r\n    {\r\n        return \"Illegal Access\";\r\n    }\r\n\r\n    function transfer(uint16[] memory parts, address to)\r\n        public\r\n        onlyCurrentOwner(parts)\r\n    {\r\n        uint256 serial = combine(parts);\r\n        _beforeTokenTransfer(msg.sender, to, serial);\r\n        _afterTokenTransfer(msg.sender, to, serial);\r\n    }\r\n\r\n    function _beforeTokenTransfer(\r\n        address from,\r\n        address to,\r\n        uint256 serial\r\n    ) internal virtual override {\r\n        if (from != address(0)) {\r\n            uint256 i;\r\n            for (i = 0; i < addressBoughtListMap[from].length; i++) {\r\n                if (addressBoughtListMap[from][i] == serial) {\r\n                    addressBoughtListMap[from][i] = 0;\r\n                    break;\r\n                }\r\n            }\r\n        }\r\n    }\r\n\r\n    function _afterTokenTransfer(\r\n        address from,\r\n        address to,\r\n        uint256 serial\r\n    ) internal virtual override {\r\n        if (to != address(0)) {\r\n            addressBoughtListMap[to].push(serial);\r\n            serialOwnerListMap[serial].push(to);\r\n            serialProductMap[serial].onSale = false;\r\n        }\r\n    }\r\n}\r\n",
  "sourcePath": "E:\\projects\\LicenseNFT\\smart_contract\\contracts\\License.sol",
  "compiler": {
    "name": "solc",
    "version": "0.8.15+commit.e14f2714.Emscripten.clang"
  },
  "schemaVersion": "3.4.8",
  "updatedAt": "2022-07-27T06:46:17.785Z",
  "networkType": "ethereum",
  "devdoc": {
    "kind": "dev",
    "methods": {
      "approve(address,uint256)": {
        "details": "See {IERC721-approve}."
      },
      "balanceOf(address)": {
        "details": "See {IERC721-balanceOf}."
      },
      "getApproved(uint256)": {
        "details": "See {IERC721-getApproved}."
      },
      "isApprovedForAll(address,address)": {
        "details": "See {IERC721-isApprovedForAll}."
      },
      "name()": {
        "details": "See {IERC721Metadata-name}."
      },
      "ownerOf(uint256)": {
        "details": "See {IERC721-ownerOf}."
      },
      "safeTransferFrom(address,address,uint256)": {
        "details": "See {IERC721-safeTransferFrom}."
      },
      "safeTransferFrom(address,address,uint256,bytes)": {
        "details": "See {IERC721-safeTransferFrom}."
      },
      "setApprovalForAll(address,bool)": {
        "details": "See {IERC721-setApprovalForAll}."
      },
      "supportsInterface(bytes4)": {
        "details": "See {IERC165-supportsInterface}."
      },
      "symbol()": {
        "details": "See {IERC721Metadata-symbol}."
      },
      "transferFrom(address,address,uint256)": {
        "details": "See {IERC721-transferFrom}."
      }
    },
    "version": 1
  },
  "userdoc": {
    "kind": "user",
    "methods": {},
    "version": 1
  }
}