{
  "contractName": "License",
  "abi": [
    {
      "inputs": [],
      "stateMutability": "nonpayable",
      "type": "constructor"
    },
    {
      "anonymous": false,
      "inputs": [
        {
          "indexed": true,
          "internalType": "address",
          "name": "owner",
          "type": "address"
        },
        {
          "indexed": true,
          "internalType": "address",
          "name": "approved",
          "type": "address"
        },
        {
          "indexed": true,
          "internalType": "uint256",
          "name": "tokenId",
          "type": "uint256"
        }
      ],
      "name": "Approval",
      "type": "event"
    },
    {
      "anonymous": false,
      "inputs": [
        {
          "indexed": true,
          "internalType": "address",
          "name": "owner",
          "type": "address"
        },
        {
          "indexed": true,
          "internalType": "address",
          "name": "operator",
          "type": "address"
        },
        {
          "indexed": false,
          "internalType": "bool",
          "name": "approved",
          "type": "bool"
        }
      ],
      "name": "ApprovalForAll",
      "type": "event"
    },
    {
      "anonymous": false,
      "inputs": [
        {
          "indexed": true,
          "internalType": "address",
          "name": "previousOwner",
          "type": "address"
        },
        {
          "indexed": true,
          "internalType": "address",
          "name": "newOwner",
          "type": "address"
        }
      ],
      "name": "OwnershipTransferred",
      "type": "event"
    },
    {
      "anonymous": false,
      "inputs": [
        {
          "indexed": true,
          "internalType": "address",
          "name": "from",
          "type": "address"
        },
        {
          "indexed": true,
          "internalType": "address",
          "name": "to",
          "type": "address"
        },
        {
          "indexed": true,
          "internalType": "uint256",
          "name": "tokenId",
          "type": "uint256"
        }
      ],
      "name": "Transfer",
      "type": "event"
    },
    {
      "inputs": [
        {
          "internalType": "address",
          "name": "_member",
          "type": "address"
        }
      ],
      "name": "addMember",
      "outputs": [],
      "stateMutability": "nonpayable",
      "type": "function"
    },
    {
      "inputs": [
        {
          "internalType": "uint256",
          "name": "serial",
          "type": "uint256"
        },
        {
          "internalType": "address",
          "name": "to",
          "type": "address"
        }
      ],
      "name": "addSerial",
      "outputs": [],
      "stateMutability": "nonpayable",
      "type": "function"
    },
    {
      "inputs": [
        {
          "internalType": "address",
          "name": "to",
          "type": "address"
        },
        {
          "internalType": "uint256",
          "name": "tokenId",
          "type": "uint256"
        }
      ],
      "name": "approve",
      "outputs": [],
      "stateMutability": "nonpayable",
      "type": "function"
    },
    {
      "inputs": [
        {
          "internalType": "address",
          "name": "owner",
          "type": "address"
        }
      ],
      "name": "balanceOf",
      "outputs": [
        {
          "internalType": "uint256",
          "name": "",
          "type": "uint256"
        }
      ],
      "stateMutability": "view",
      "type": "function",
      "constant": true
    },
    {
      "inputs": [
        {
          "internalType": "uint256",
          "name": "tokenId",
          "type": "uint256"
        }
      ],
      "name": "getApproved",
      "outputs": [
        {
          "internalType": "address",
          "name": "",
          "type": "address"
        }
      ],
      "stateMutability": "view",
      "type": "function",
      "constant": true
    },
    {
      "inputs": [
        {
          "internalType": "address",
          "name": "_user",
          "type": "address"
        }
      ],
      "name": "getBoughtLicenses",
      "outputs": [
        {
          "internalType": "uint256[]",
          "name": "",
          "type": "uint256[]"
        }
      ],
      "stateMutability": "nonpayable",
      "type": "function"
    },
    {
      "inputs": [
        {
          "internalType": "address",
          "name": "_user",
          "type": "address"
        }
      ],
      "name": "getIssuedLicense",
      "outputs": [
        {
          "internalType": "uint256[]",
          "name": "",
          "type": "uint256[]"
        }
      ],
      "stateMutability": "nonpayable",
      "type": "function"
    },
    {
      "inputs": [],
      "name": "getSTR",
      "outputs": [
        {
          "internalType": "string",
          "name": "",
          "type": "string"
        }
      ],
      "stateMutability": "view",
      "type": "function",
      "constant": true
    },
    {
      "inputs": [],
      "name": "getUINT256",
      "outputs": [
        {
          "internalType": "uint256",
          "name": "",
          "type": "uint256"
        }
      ],
      "stateMutability": "view",
      "type": "function",
      "constant": true
    },
    {
      "inputs": [
        {
          "internalType": "address",
          "name": "owner",
          "type": "address"
        },
        {
          "internalType": "address",
          "name": "operator",
          "type": "address"
        }
      ],
      "name": "isApprovedForAll",
      "outputs": [
        {
          "internalType": "bool",
          "name": "",
          "type": "bool"
        }
      ],
      "stateMutability": "view",
      "type": "function",
      "constant": true
    },
    {
      "inputs": [],
      "name": "name",
      "outputs": [
        {
          "internalType": "string",
          "name": "",
          "type": "string"
        }
      ],
      "stateMutability": "view",
      "type": "function",
      "constant": true
    },
    {
      "inputs": [],
      "name": "owner",
      "outputs": [
        {
          "internalType": "address",
          "name": "",
          "type": "address"
        }
      ],
      "stateMutability": "view",
      "type": "function",
      "constant": true
    },
    {
      "inputs": [
        {
          "internalType": "uint256",
          "name": "tokenId",
          "type": "uint256"
        }
      ],
      "name": "ownerOf",
      "outputs": [
        {
          "internalType": "address",
          "name": "",
          "type": "address"
        }
      ],
      "stateMutability": "view",
      "type": "function",
      "constant": true
    },
    {
      "inputs": [],
      "name": "renounceOwnership",
      "outputs": [],
      "stateMutability": "nonpayable",
      "type": "function"
    },
    {
      "inputs": [
        {
          "internalType": "address",
          "name": "from",
          "type": "address"
        },
        {
          "internalType": "address",
          "name": "to",
          "type": "address"
        },
        {
          "internalType": "uint256",
          "name": "tokenId",
          "type": "uint256"
        }
      ],
      "name": "safeTransferFrom",
      "outputs": [],
      "stateMutability": "nonpayable",
      "type": "function"
    },
    {
      "inputs": [
        {
          "internalType": "address",
          "name": "from",
          "type": "address"
        },
        {
          "internalType": "address",
          "name": "to",
          "type": "address"
        },
        {
          "internalType": "uint256",
          "name": "tokenId",
          "type": "uint256"
        },
        {
          "internalType": "bytes",
          "name": "data",
          "type": "bytes"
        }
      ],
      "name": "safeTransferFrom",
      "outputs": [],
      "stateMutability": "nonpayable",
      "type": "function"
    },
    {
      "inputs": [
        {
          "internalType": "address",
          "name": "operator",
          "type": "address"
        },
        {
          "internalType": "bool",
          "name": "approved",
          "type": "bool"
        }
      ],
      "name": "setApprovalForAll",
      "outputs": [],
      "stateMutability": "nonpayable",
      "type": "function"
    },
    {
      "inputs": [
        {
          "internalType": "bytes4",
          "name": "interfaceId",
          "type": "bytes4"
        }
      ],
      "name": "supportsInterface",
      "outputs": [
        {
          "internalType": "bool",
          "name": "",
          "type": "bool"
        }
      ],
      "stateMutability": "view",
      "type": "function",
      "constant": true
    },
    {
      "inputs": [],
      "name": "symbol",
      "outputs": [
        {
          "internalType": "string",
          "name": "",
          "type": "string"
        }
      ],
      "stateMutability": "view",
      "type": "function",
      "constant": true
    },
    {
      "inputs": [
        {
          "internalType": "address",
          "name": "from",
          "type": "address"
        },
        {
          "internalType": "address",
          "name": "to",
          "type": "address"
        },
        {
          "internalType": "uint256",
          "name": "tokenId",
          "type": "uint256"
        }
      ],
      "name": "transferFrom",
      "outputs": [],
      "stateMutability": "nonpayable",
      "type": "function"
    },
    {
      "inputs": [
        {
          "internalType": "address",
          "name": "newOwner",
          "type": "address"
        }
      ],
      "name": "transferOwnership",
      "outputs": [],
      "stateMutability": "nonpayable",
      "type": "function"
    },
    {
      "inputs": [
        {
          "internalType": "address",
          "name": "to",
          "type": "address"
        },
        {
          "internalType": "uint16[]",
          "name": "seeds",
          "type": "uint16[]"
        },
        {
          "internalType": "string",
          "name": "uri",
          "type": "string"
        },
        {
          "internalType": "uint24",
          "name": "day",
          "type": "uint24"
        }
      ],
      "name": "mint",
      "outputs": [
        {
          "internalType": "uint256",
          "name": "",
          "type": "uint256"
        }
      ],
      "stateMutability": "nonpayable",
      "type": "function"
    },
    {
      "inputs": [
        {
          "internalType": "uint16[]",
          "name": "parts",
          "type": "uint16[]"
        }
      ],
      "name": "getTokenURI",
      "outputs": [],
      "stateMutability": "nonpayable",
      "type": "function"
    },
    {
      "inputs": [
        {
          "internalType": "uint256",
          "name": "tokenId",
          "type": "uint256"
        }
      ],
      "name": "tokenURI",
      "outputs": [
        {
          "internalType": "string",
          "name": "",
          "type": "string"
        }
      ],
      "stateMutability": "view",
      "type": "function",
      "constant": true
    }
  ],
  "bytecode": "0x60806040523480156200001157600080fd5b506040518060400160405280600781526020017f4c6963656e7365000000000000000000000000000000000000000000000000008152506040518060400160405280600781526020017f4c6963656e73650000000000000000000000000000000000000000000000000081525081600090816200008f9190620004c2565b508060019081620000a19190620004c2565b505050620000c4620000b86200017a60201b60201c565b6200018260201b60201c565b6001600b60003373ffffffffffffffffffffffffffffffffffffffff1673ffffffffffffffffffffffffffffffffffffffff16815260200190815260200160002060006101000a81548160ff0219169083151502179055506001600f60003373ffffffffffffffffffffffffffffffffffffffff1673ffffffffffffffffffffffffffffffffffffffff16815260200190815260200160002060006101000a81548160ff021916908315150217905550620005a9565b600033905090565b6000600760009054906101000a900473ffffffffffffffffffffffffffffffffffffffff16905081600760006101000a81548173ffffffffffffffffffffffffffffffffffffffff021916908373ffffffffffffffffffffffffffffffffffffffff1602179055508173ffffffffffffffffffffffffffffffffffffffff168173ffffffffffffffffffffffffffffffffffffffff167f8be0079c531659141344cd1fd0a4f28419497f9722a3daafe3b4186f6b6457e060405160405180910390a35050565b600081519050919050565b7f4e487b7100000000000000000000000000000000000000000000000000000000600052604160045260246000fd5b7f4e487b7100000000000000000000000000000000000000000000000000000000600052602260045260246000fd5b60006002820490506001821680620002ca57607f821691505b602082108103620002e057620002df62000282565b5b50919050565b60008190508160005260206000209050919050565b60006020601f8301049050919050565b600082821b905092915050565b6000600883026200034a7fffffffffffffffffffffffffffffffffffffffffffffffffffffffffffffffff826200030b565b6200035686836200030b565b95508019841693508086168417925050509392505050565b6000819050919050565b6000819050919050565b6000620003a36200039d62000397846200036e565b62000378565b6200036e565b9050919050565b6000819050919050565b620003bf8362000382565b620003d7620003ce82620003aa565b84845462000318565b825550505050565b600090565b620003ee620003df565b620003fb818484620003b4565b505050565b5b81811015620004235762000417600082620003e4565b60018101905062000401565b5050565b601f82111562000472576200043c81620002e6565b6200044784620002fb565b8101602085101562000457578190505b6200046f6200046685620002fb565b83018262000400565b50505b505050565b600082821c905092915050565b6000620004976000198460080262000477565b1980831691505092915050565b6000620004b2838362000484565b9150826002028217905092915050565b620004cd8262000248565b67ffffffffffffffff811115620004e957620004e862000253565b5b620004f58254620002b1565b6200050282828562000427565b600060209050601f8311600181146200053a576000841562000525578287015190505b620005318582620004a4565b865550620005a1565b601f1984166200054a86620002e6565b60005b8281101562000574578489015182556001820191506020850194506020810190506200054d565b8683101562000594578489015162000590601f89168262000484565b8355505b6001600288020188555050505b505050505050565b6145c380620005b96000396000f3fe608060405234801561001057600080fd5b50600436106101585760003560e01c8063715018a6116100c3578063ca6d56dc1161007c578063ca6d56dc146103e9578063e2b7647414610405578063e7d9c3b014610423578063e81c98241461043f578063e985e9c51461045d578063f2fde38b1461048d57610158565b8063715018a61461033b5780638da5cb5b1461034557806395d89b4114610363578063a22cb46514610381578063b88d4fde1461039d578063c87b56dd146103b957610158565b806323b872dd1161011557806323b872dd1461025757806342842e0e146102735780634a7065b51461028f5780634fcdb9c5146102ab5780636352211e146102db57806370a082311461030b57610158565b806301ffc9a71461015d57806306fdde031461018d578063081812fc146101ab578063095ea7b3146101db5780630cb94764146101f75780630e913fc214610227575b600080fd5b61017760048036038101906101729190612bbc565b6104a9565b6040516101849190612c04565b60405180910390f35b61019561058b565b6040516101a29190612cb8565b60405180910390f35b6101c560048036038101906101c09190612d10565b61061d565b6040516101d29190612d7e565b60405180910390f35b6101f560048036038101906101f09190612dc5565b610663565b005b610211600480360381019061020c9190613077565b61077a565b60405161021e9190613125565b60405180910390f35b610241600480360381019061023c9190613140565b610953565b60405161024e919061322b565b60405180910390f35b610271600480360381019061026c919061324d565b610a5a565b005b61028d6004803603810190610288919061324d565b610aba565b005b6102a960048036038101906102a491906132a0565b610ada565b005b6102c560048036038101906102c09190613140565b610def565b6040516102d2919061322b565b60405180910390f35b6102f560048036038101906102f09190612d10565b610ef6565b6040516103029190612d7e565b60405180910390f35b61032560048036038101906103209190613140565b610fa7565b6040516103329190613125565b60405180910390f35b61034361105e565b005b61034d611072565b60405161035a9190612d7e565b60405180910390f35b61036b61109c565b6040516103789190612cb8565b60405180910390f35b61039b6004803603810190610396919061330c565b61112e565b005b6103b760048036038101906103b291906133ed565b611144565b005b6103d360048036038101906103ce9190612d10565b6111a6565b6040516103e09190612cb8565b60405180910390f35b61040360048036038101906103fe9190613140565b61137b565b005b61040d611463565b60405161041a9190612cb8565b60405180910390f35b61043d60048036038101906104389190613470565b6114f5565b005b61044761151e565b6040516104549190613125565b60405180910390f35b610477600480360381019061047291906134b9565b611528565b6040516104849190612c04565b60405180910390f35b6104a760048036038101906104a29190613140565b6115bc565b005b60007f80ac58cd000000000000000000000000000000000000000000000000000000007bffffffffffffffffffffffffffffffffffffffffffffffffffffffff1916827bffffffffffffffffffffffffffffffffffffffffffffffffffffffff1916148061057457507f5b5e139f000000000000000000000000000000000000000000000000000000007bffffffffffffffffffffffffffffffffffffffffffffffffffffffff1916827bffffffffffffffffffffffffffffffffffffffffffffffffffffffff1916145b8061058457506105838261163f565b5b9050919050565b60606000805461059a90613528565b80601f01602080910402602001604051908101604052809291908181526020018280546105c690613528565b80156106135780601f106105e857610100808354040283529160200191610613565b820191906000526020600020905b8154815290600101906020018083116105f657829003601f168201915b5050505050905090565b6000610628826116a9565b6004600083815260200190815260200160002060009054906101000a900473ffffffffffffffffffffffffffffffffffffffff169050919050565b600061066e82610ef6565b90508073ffffffffffffffffffffffffffffffffffffffff168373ffffffffffffffffffffffffffffffffffffffff16036106de576040517f08c379a00000000000000000000000000000000000000000000000000000000081526004016106d5906135cb565b60405180910390fd5b8073ffffffffffffffffffffffffffffffffffffffff166106fd6116f4565b73ffffffffffffffffffffffffffffffffffffffff16148061072c575061072b816107266116f4565b611528565b5b61076b576040517f08c379a00000000000000000000000000000000000000000000000000000000081526004016107629061365d565b60405180910390fd5b61077583836116fc565b505050565b6000600b60003373ffffffffffffffffffffffffffffffffffffffff1673ffffffffffffffffffffffffffffffffffffffff16815260200190815260200160002060009054906101000a900460ff16610808576040517f08c379a00000000000000000000000000000000000000000000000000000000081526004016107ff906136c9565b60405180910390fd5b6012836040516108189190613725565b908152602001604051809103902060009054906101000a900460ff1615610874576040517f08c379a000000000000000000000000000000000000000000000000000000000815260040161086b90613788565b60405180910390fd5b600061087f856117b5565b905061088b8187610ada565b6108958682611820565b61089f818561183e565b60016012856040516108b19190613725565b908152602001604051809103902060006101000a81548160ff02191690831515021790555080600881905550826014600083815260200190815260200160002060006101000a81548162ffffff021916908362ffffff160217905550426013600083815260200190815260200160002060006101000a81548167ffffffffffffffff021916908367ffffffffffffffff16021790555080915050949350505050565b6060818073ffffffffffffffffffffffffffffffffffffffff163373ffffffffffffffffffffffffffffffffffffffff16146109c4576040517f08c379a00000000000000000000000000000000000000000000000000000000081526004016109bb9061381a565b60405180910390fd5b601060008473ffffffffffffffffffffffffffffffffffffffff1673ffffffffffffffffffffffffffffffffffffffff168152602001908152602001600020805480602002602001604051908101604052809291908181526020018280548015610a4d57602002820191906000526020600020905b815481526020019060010190808311610a39575b5050505050915050919050565b610a6b610a656116f4565b826118ab565b610aaa576040517f08c379a0000000000000000000000000000000000000000000000000000000008152600401610aa1906138ac565b60405180910390fd5b610ab5838383611940565b505050565b610ad583838360405180602001604052806000815250611144565b505050565b600b60003373ffffffffffffffffffffffffffffffffffffffff1673ffffffffffffffffffffffffffffffffffffffff16815260200190815260200160002060009054906101000a900460ff16610b66576040517f08c379a0000000000000000000000000000000000000000000000000000000008152600401610b5d906136c9565b60405180910390fd5b600c600083815260200190815260200160002060009054906101000a900460ff1615610c0d610bd26040518060400160405280600781526020017f53657269616c2000000000000000000000000000000000000000000000000000815250610bcd86611ba6565b611d7b565b6040518060400160405280600f81526020017f20616c726561647920696e207573650000000000000000000000000000000000815250611d7b565b90610c4e576040517f08c379a0000000000000000000000000000000000000000000000000000000008152600401610c459190612cb8565b60405180910390fd5b506001600c600084815260200190815260200160002060006101000a81548160ff02191690831515021790555033600d600084815260200190815260200160002060006101000a81548173ffffffffffffffffffffffffffffffffffffffff021916908373ffffffffffffffffffffffffffffffffffffffff160217905550601160003373ffffffffffffffffffffffffffffffffffffffff1673ffffffffffffffffffffffffffffffffffffffff168152602001908152602001600020829080600181540180825580915050600190039060005260206000200160009091909190915055601060008273ffffffffffffffffffffffffffffffffffffffff1673ffffffffffffffffffffffffffffffffffffffff16815260200190815260200160002082908060018154018082558091505060019003906000526020600020016000909190919091505580600e600084815260200190815260200160002060006101000a81548173ffffffffffffffffffffffffffffffffffffffff021916908373ffffffffffffffffffffffffffffffffffffffff1602179055505050565b6060818073ffffffffffffffffffffffffffffffffffffffff163373ffffffffffffffffffffffffffffffffffffffff1614610e60576040517f08c379a0000000000000000000000000000000000000000000000000000000008152600401610e579061381a565b60405180910390fd5b601160008473ffffffffffffffffffffffffffffffffffffffff1673ffffffffffffffffffffffffffffffffffffffff168152602001908152602001600020805480602002602001604051908101604052809291908181526020018280548015610ee957602002820191906000526020600020905b815481526020019060010190808311610ed5575b5050505050915050919050565b6000806002600084815260200190815260200160002060009054906101000a900473ffffffffffffffffffffffffffffffffffffffff169050600073ffffffffffffffffffffffffffffffffffffffff168173ffffffffffffffffffffffffffffffffffffffff1603610f9e576040517f08c379a0000000000000000000000000000000000000000000000000000000008152600401610f9590613918565b60405180910390fd5b80915050919050565b60008073ffffffffffffffffffffffffffffffffffffffff168273ffffffffffffffffffffffffffffffffffffffff1603611017576040517f08c379a000000000000000000000000000000000000000000000000000000000815260040161100e906139aa565b60405180910390fd5b600360008373ffffffffffffffffffffffffffffffffffffffff1673ffffffffffffffffffffffffffffffffffffffff168152602001908152602001600020549050919050565b611066611da7565b6110706000611e25565b565b6000600760009054906101000a900473ffffffffffffffffffffffffffffffffffffffff16905090565b6060600180546110ab90613528565b80601f01602080910402602001604051908101604052809291908181526020018280546110d790613528565b80156111245780601f106110f957610100808354040283529160200191611124565b820191906000526020600020905b81548152906001019060200180831161110757829003601f168201915b5050505050905090565b6111406111396116f4565b8383611eeb565b5050565b61115561114f6116f4565b836118ab565b611194576040517f08c379a000000000000000000000000000000000000000000000000000000000815260040161118b906138ac565b60405180910390fd5b6111a084848484612057565b50505050565b6060600d600083815260200190815260200160002060009054906101000a900473ffffffffffffffffffffffffffffffffffffffff1673ffffffffffffffffffffffffffffffffffffffff163373ffffffffffffffffffffffffffffffffffffffff1614806112735750600e600083815260200190815260200160002060009054906101000a900473ffffffffffffffffffffffffffffffffffffffff1673ffffffffffffffffffffffffffffffffffffffff163373ffffffffffffffffffffffffffffffffffffffff16145b6112b2576040517f08c379a00000000000000000000000000000000000000000000000000000000081526004016112a99061381a565b60405180910390fd5b60004290506014600084815260200190815260200160002060009054906101000a900462ffffff1662ffffff166013600085815260200190815260200160002060009054906101000a900467ffffffffffffffff16826113129190613a0d565b67ffffffffffffffff1610156113335761132b836120b3565b915050611376565b6000611374576040517f08c379a000000000000000000000000000000000000000000000000000000000815260040161136b90613a8d565b60405180910390fd5b505b919050565b600b60008273ffffffffffffffffffffffffffffffffffffffff1673ffffffffffffffffffffffffffffffffffffffff16815260200190815260200160002060009054906101000a900460ff1615611408576040517f08c379a00000000000000000000000000000000000000000000000000000000081526004016113ff90613af9565b60405180910390fd5b6001600b60008373ffffffffffffffffffffffffffffffffffffffff1673ffffffffffffffffffffffffffffffffffffffff16815260200190815260200160002060006101000a81548160ff02191690831515021790555050565b60606009805461147290613528565b80601f016020809104026020016040519081016040528092919081815260200182805461149e90613528565b80156114eb5780601f106114c0576101008083540402835291602001916114eb565b820191906000526020600020905b8154815290600101906020018083116114ce57829003601f168201915b5050505050905090565b6000611500826117b5565b905061150b816111a6565b600990816115199190613cc5565b505050565b6000600854905090565b6000600560008473ffffffffffffffffffffffffffffffffffffffff1673ffffffffffffffffffffffffffffffffffffffff16815260200190815260200160002060008373ffffffffffffffffffffffffffffffffffffffff1673ffffffffffffffffffffffffffffffffffffffff16815260200190815260200160002060009054906101000a900460ff16905092915050565b6115c4611da7565b600073ffffffffffffffffffffffffffffffffffffffff168173ffffffffffffffffffffffffffffffffffffffff1603611633576040517f08c379a000000000000000000000000000000000000000000000000000000000815260040161162a90613e09565b60405180910390fd5b61163c81611e25565b50565b60007f01ffc9a7000000000000000000000000000000000000000000000000000000007bffffffffffffffffffffffffffffffffffffffffffffffffffffffff1916827bffffffffffffffffffffffffffffffffffffffffffffffffffffffff1916149050919050565b6116b2816121c5565b6116f1576040517f08c379a00000000000000000000000000000000000000000000000000000000081526004016116e890613918565b60405180910390fd5b50565b600033905090565b816004600083815260200190815260200160002060006101000a81548173ffffffffffffffffffffffffffffffffffffffff021916908373ffffffffffffffffffffffffffffffffffffffff160217905550808273ffffffffffffffffffffffffffffffffffffffff1661176f83610ef6565b73ffffffffffffffffffffffffffffffffffffffff167f8c5be1e5ebec7d5bd14f71427d1e84f3dd0314c0f7b2291e5b200ac8c7c3b92560405160405180910390a45050565b6000806000601090505b6001811061181657836001826117d59190613e29565b815181106117e6576117e5613e5d565b5b602002602001015161ffff16601083901b6118019190613e8c565b9150808061180e90613ee2565b9150506117bf565b5080915050919050565b61183a828260405180602001604052806000815250612231565b5050565b611847826121c5565b611886576040517f08c379a000000000000000000000000000000000000000000000000000000000815260040161187d90613f7d565b60405180910390fd5b806006600084815260200190815260200160002090816118a69190613cc5565b505050565b6000806118b783610ef6565b90508073ffffffffffffffffffffffffffffffffffffffff168473ffffffffffffffffffffffffffffffffffffffff1614806118f957506118f88185611528565b5b8061193757508373ffffffffffffffffffffffffffffffffffffffff1661191f8461061d565b73ffffffffffffffffffffffffffffffffffffffff16145b91505092915050565b8273ffffffffffffffffffffffffffffffffffffffff1661196082610ef6565b73ffffffffffffffffffffffffffffffffffffffff16146119b6576040517f08c379a00000000000000000000000000000000000000000000000000000000081526004016119ad9061400f565b60405180910390fd5b600073ffffffffffffffffffffffffffffffffffffffff168273ffffffffffffffffffffffffffffffffffffffff1603611a25576040517f08c379a0000000000000000000000000000000000000000000000000000000008152600401611a1c906140a1565b60405180910390fd5b611a3083838361228c565b611a3b6000826116fc565b6001600360008573ffffffffffffffffffffffffffffffffffffffff1673ffffffffffffffffffffffffffffffffffffffff1681526020019081526020016000206000828254611a8b9190613e29565b925050819055506001600360008473ffffffffffffffffffffffffffffffffffffffff1673ffffffffffffffffffffffffffffffffffffffff1681526020019081526020016000206000828254611ae29190613e8c565b92505081905550816002600083815260200190815260200160002060006101000a81548173ffffffffffffffffffffffffffffffffffffffff021916908373ffffffffffffffffffffffffffffffffffffffff160217905550808273ffffffffffffffffffffffffffffffffffffffff168473ffffffffffffffffffffffffffffffffffffffff167fddf252ad1be2c89b69c2b068fc378daa952ba7f163c4a11628f55a4df523b3ef60405160405180910390a4611ba18383836124fc565b505050565b60606000606467ffffffffffffffff811115611bc557611bc4612e0a565b5b6040519080825280601f01601f191660200182016040528015611bf75781602001600182028036833780820191505090505b50905060005b6000841115611c8657600a84611c1391906140f0565b6030611c1f9190613e8c565b60f81b828281518110611c3557611c34613e5d565b5b60200101907effffffffffffffffffffffffffffffffffffffffffffffffffffffffffffff1916908160001a905350600a84611c719190614121565b93508080611c7e90614152565b915050611bfd565b6000825167ffffffffffffffff811115611ca357611ca2612e0a565b5b6040519080825280601f01601f191660200182016040528015611cd55781602001600182028036833780820191505090505b50905060005b8351811015611d6f57836001828651611cf49190613e29565b611cfe9190613e29565b81518110611d0f57611d0e613e5d565b5b602001015160f81c60f81b828281518110611d2d57611d2c613e5d565b5b60200101907effffffffffffffffffffffffffffffffffffffffffffffffffffffffffffff1916908160001a9053508080611d6790614152565b915050611cdb565b50809350505050919050565b60608282604051602001611d909291906141e6565b604051602081830303815290604052905092915050565b611daf6116f4565b73ffffffffffffffffffffffffffffffffffffffff16611dcd611072565b73ffffffffffffffffffffffffffffffffffffffff1614611e23576040517f08c379a0000000000000000000000000000000000000000000000000000000008152600401611e1a90614261565b60405180910390fd5b565b6000600760009054906101000a900473ffffffffffffffffffffffffffffffffffffffff16905081600760006101000a81548173ffffffffffffffffffffffffffffffffffffffff021916908373ffffffffffffffffffffffffffffffffffffffff1602179055508173ffffffffffffffffffffffffffffffffffffffff168173ffffffffffffffffffffffffffffffffffffffff167f8be0079c531659141344cd1fd0a4f28419497f9722a3daafe3b4186f6b6457e060405160405180910390a35050565b8173ffffffffffffffffffffffffffffffffffffffff168373ffffffffffffffffffffffffffffffffffffffff1603611f59576040517f08c379a0000000000000000000000000000000000000000000000000000000008152600401611f50906142cd565b60405180910390fd5b80600560008573ffffffffffffffffffffffffffffffffffffffff1673ffffffffffffffffffffffffffffffffffffffff16815260200190815260200160002060008473ffffffffffffffffffffffffffffffffffffffff1673ffffffffffffffffffffffffffffffffffffffff16815260200190815260200160002060006101000a81548160ff0219169083151502179055508173ffffffffffffffffffffffffffffffffffffffff168373ffffffffffffffffffffffffffffffffffffffff167f17307eab39ab6107e8899845ad3d59bd9653f200f220920489ca2b5937696c318360405161204a9190612c04565b60405180910390a3505050565b612062848484611940565b61206e848484846125ee565b6120ad576040517f08c379a00000000000000000000000000000000000000000000000000000000081526004016120a49061435f565b60405180910390fd5b50505050565b60606120be826116a9565b60006006600084815260200190815260200160002080546120de90613528565b80601f016020809104026020016040519081016040528092919081815260200182805461210a90613528565b80156121575780601f1061212c57610100808354040283529160200191612157565b820191906000526020600020905b81548152906001019060200180831161213a57829003601f168201915b505050505090506000612168612775565b9050600081510361217d5781925050506121c0565b6000825111156121b257808260405160200161219a92919061437f565b604051602081830303815290604052925050506121c0565b6121bb8461278c565b925050505b919050565b60008073ffffffffffffffffffffffffffffffffffffffff166002600084815260200190815260200160002060009054906101000a900473ffffffffffffffffffffffffffffffffffffffff1673ffffffffffffffffffffffffffffffffffffffff1614159050919050565b61223b83836127f4565b61224860008484846125ee565b612287576040517f08c379a000000000000000000000000000000000000000000000000000000000815260040161227e9061435f565b60405180910390fd5b505050565b600073ffffffffffffffffffffffffffffffffffffffff168373ffffffffffffffffffffffffffffffffffffffff16146124f75760005b601060008573ffffffffffffffffffffffffffffffffffffffff1673ffffffffffffffffffffffffffffffffffffffff168152602001908152602001600020805490508110156124f55781601060008673ffffffffffffffffffffffffffffffffffffffff1673ffffffffffffffffffffffffffffffffffffffff168152602001908152602001600020828154811061235f5761235e613e5d565b5b9060005260206000200154036124e257601060008573ffffffffffffffffffffffffffffffffffffffff1673ffffffffffffffffffffffffffffffffffffffff1681526020019081526020016000206001601060008773ffffffffffffffffffffffffffffffffffffffff1673ffffffffffffffffffffffffffffffffffffffff168152602001908152602001600020805490506123fd9190613e29565b8154811061240e5761240d613e5d565b5b9060005260206000200154601060008673ffffffffffffffffffffffffffffffffffffffff1673ffffffffffffffffffffffffffffffffffffffff168152602001908152602001600020828154811061246a57612469613e5d565b5b9060005260206000200181905550601060008573ffffffffffffffffffffffffffffffffffffffff1673ffffffffffffffffffffffffffffffffffffffff1681526020019081526020016000208054806124c7576124c66143a3565b5b600190038181906000526020600020016000905590556124f5565b80806124ed90614152565b9150506122c3565b505b505050565b600073ffffffffffffffffffffffffffffffffffffffff168273ffffffffffffffffffffffffffffffffffffffff16146125e957601060008373ffffffffffffffffffffffffffffffffffffffff1673ffffffffffffffffffffffffffffffffffffffff16815260200190815260200160002081908060018154018082558091505060019003906000526020600020016000909190919091505581600e600083815260200190815260200160002060006101000a81548173ffffffffffffffffffffffffffffffffffffffff021916908373ffffffffffffffffffffffffffffffffffffffff1602179055505b505050565b600061260f8473ffffffffffffffffffffffffffffffffffffffff166129cd565b15612768578373ffffffffffffffffffffffffffffffffffffffff1663150b7a026126386116f4565b8786866040518563ffffffff1660e01b815260040161265a9493929190614427565b6020604051808303816000875af192505050801561269657506040513d601f19601f820116820180604052508101906126939190614488565b60015b612718573d80600081146126c6576040519150601f19603f3d011682016040523d82523d6000602084013e6126cb565b606091505b506000815103612710576040517f08c379a00000000000000000000000000000000000000000000000000000000081526004016127079061435f565b60405180910390fd5b805181602001fd5b63150b7a0260e01b7bffffffffffffffffffffffffffffffffffffffffffffffffffffffff1916817bffffffffffffffffffffffffffffffffffffffffffffffffffffffff19161491505061276d565b600190505b949350505050565b606060405180602001604052806000815250905090565b6060612797826116a9565b60006127a1612775565b905060008151116127c157604051806020016040528060008152506127ec565b806127cb846129f0565b6040516020016127dc92919061437f565b6040516020818303038152906040525b915050919050565b600073ffffffffffffffffffffffffffffffffffffffff168273ffffffffffffffffffffffffffffffffffffffff1603612863576040517f08c379a000000000000000000000000000000000000000000000000000000000815260040161285a90614501565b60405180910390fd5b61286c816121c5565b156128ac576040517f08c379a00000000000000000000000000000000000000000000000000000000081526004016128a39061456d565b60405180910390fd5b6128b86000838361228c565b6001600360008473ffffffffffffffffffffffffffffffffffffffff1673ffffffffffffffffffffffffffffffffffffffff16815260200190815260200160002060008282546129089190613e8c565b92505081905550816002600083815260200190815260200160002060006101000a81548173ffffffffffffffffffffffffffffffffffffffff021916908373ffffffffffffffffffffffffffffffffffffffff160217905550808273ffffffffffffffffffffffffffffffffffffffff16600073ffffffffffffffffffffffffffffffffffffffff167fddf252ad1be2c89b69c2b068fc378daa952ba7f163c4a11628f55a4df523b3ef60405160405180910390a46129c9600083836124fc565b5050565b6000808273ffffffffffffffffffffffffffffffffffffffff163b119050919050565b606060008203612a37576040518060400160405280600181526020017f30000000000000000000000000000000000000000000000000000000000000008152509050612b4b565b600082905060005b60008214612a69578080612a5290614152565b915050600a82612a629190614121565b9150612a3f565b60008167ffffffffffffffff811115612a8557612a84612e0a565b5b6040519080825280601f01601f191660200182016040528015612ab75781602001600182028036833780820191505090505b5090505b60008514612b4457600182612ad09190613e29565b9150600a85612adf91906140f0565b6030612aeb9190613e8c565b60f81b818381518110612b0157612b00613e5d565b5b60200101907effffffffffffffffffffffffffffffffffffffffffffffffffffffffffffff1916908160001a905350600a85612b3d9190614121565b9450612abb565b8093505050505b919050565b6000604051905090565b600080fd5b600080fd5b60007fffffffff0000000000000000000000000000000000000000000000000000000082169050919050565b612b9981612b64565b8114612ba457600080fd5b50565b600081359050612bb681612b90565b92915050565b600060208284031215612bd257612bd1612b5a565b5b6000612be084828501612ba7565b91505092915050565b60008115159050919050565b612bfe81612be9565b82525050565b6000602082019050612c196000830184612bf5565b92915050565b600081519050919050565b600082825260208201905092915050565b60005b83811015612c59578082015181840152602081019050612c3e565b83811115612c68576000848401525b50505050565b6000601f19601f8301169050919050565b6000612c8a82612c1f565b612c948185612c2a565b9350612ca4818560208601612c3b565b612cad81612c6e565b840191505092915050565b60006020820190508181036000830152612cd28184612c7f565b905092915050565b6000819050919050565b612ced81612cda565b8114612cf857600080fd5b50565b600081359050612d0a81612ce4565b92915050565b600060208284031215612d2657612d25612b5a565b5b6000612d3484828501612cfb565b91505092915050565b600073ffffffffffffffffffffffffffffffffffffffff82169050919050565b6000612d6882612d3d565b9050919050565b612d7881612d5d565b82525050565b6000602082019050612d936000830184612d6f565b92915050565b612da281612d5d565b8114612dad57600080fd5b50565b600081359050612dbf81612d99565b92915050565b60008060408385031215612ddc57612ddb612b5a565b5b6000612dea85828601612db0565b9250506020612dfb85828601612cfb565b9150509250929050565b600080fd5b7f4e487b7100000000000000000000000000000000000000000000000000000000600052604160045260246000fd5b612e4282612c6e565b810181811067ffffffffffffffff82111715612e6157612e60612e0a565b5b80604052505050565b6000612e74612b50565b9050612e808282612e39565b919050565b600067ffffffffffffffff821115612ea057612e9f612e0a565b5b602082029050602081019050919050565b600080fd5b600061ffff82169050919050565b612ecd81612eb6565b8114612ed857600080fd5b50565b600081359050612eea81612ec4565b92915050565b6000612f03612efe84612e85565b612e6a565b90508083825260208201905060208402830185811115612f2657612f25612eb1565b5b835b81811015612f4f5780612f3b8882612edb565b845260208401935050602081019050612f28565b5050509392505050565b600082601f830112612f6e57612f6d612e05565b5b8135612f7e848260208601612ef0565b91505092915050565b600080fd5b600067ffffffffffffffff821115612fa757612fa6612e0a565b5b612fb082612c6e565b9050602081019050919050565b82818337600083830152505050565b6000612fdf612fda84612f8c565b612e6a565b905082815260208101848484011115612ffb57612ffa612f87565b5b613006848285612fbd565b509392505050565b600082601f83011261302357613022612e05565b5b8135613033848260208601612fcc565b91505092915050565b600062ffffff82169050919050565b6130548161303c565b811461305f57600080fd5b50565b6000813590506130718161304b565b92915050565b6000806000806080858703121561309157613090612b5a565b5b600061309f87828801612db0565b945050602085013567ffffffffffffffff8111156130c0576130bf612b5f565b5b6130cc87828801612f59565b935050604085013567ffffffffffffffff8111156130ed576130ec612b5f565b5b6130f98782880161300e565b925050606061310a87828801613062565b91505092959194509250565b61311f81612cda565b82525050565b600060208201905061313a6000830184613116565b92915050565b60006020828403121561315657613155612b5a565b5b600061316484828501612db0565b91505092915050565b600081519050919050565b600082825260208201905092915050565b6000819050602082019050919050565b6131a281612cda565b82525050565b60006131b48383613199565b60208301905092915050565b6000602082019050919050565b60006131d88261316d565b6131e28185613178565b93506131ed83613189565b8060005b8381101561321e57815161320588826131a8565b9750613210836131c0565b9250506001810190506131f1565b5085935050505092915050565b6000602082019050818103600083015261324581846131cd565b905092915050565b60008060006060848603121561326657613265612b5a565b5b600061327486828701612db0565b935050602061328586828701612db0565b925050604061329686828701612cfb565b9150509250925092565b600080604083850312156132b7576132b6612b5a565b5b60006132c585828601612cfb565b92505060206132d685828601612db0565b9150509250929050565b6132e981612be9565b81146132f457600080fd5b50565b600081359050613306816132e0565b92915050565b6000806040838503121561332357613322612b5a565b5b600061333185828601612db0565b9250506020613342858286016132f7565b9150509250929050565b600067ffffffffffffffff82111561336757613366612e0a565b5b61337082612c6e565b9050602081019050919050565b600061339061338b8461334c565b612e6a565b9050828152602081018484840111156133ac576133ab612f87565b5b6133b7848285612fbd565b509392505050565b600082601f8301126133d4576133d3612e05565b5b81356133e484826020860161337d565b91505092915050565b6000806000806080858703121561340757613406612b5a565b5b600061341587828801612db0565b945050602061342687828801612db0565b935050604061343787828801612cfb565b925050606085013567ffffffffffffffff81111561345857613457612b5f565b5b613464878288016133bf565b91505092959194509250565b60006020828403121561348657613485612b5a565b5b600082013567ffffffffffffffff8111156134a4576134a3612b5f565b5b6134b084828501612f59565b91505092915050565b600080604083850312156134d0576134cf612b5a565b5b60006134de85828601612db0565b92505060206134ef85828601612db0565b9150509250929050565b7f4e487b7100000000000000000000000000000000000000000000000000000000600052602260045260246000fd5b6000600282049050600182168061354057607f821691505b602082108103613553576135526134f9565b5b50919050565b7f4552433732313a20617070726f76616c20746f2063757272656e74206f776e6560008201527f7200000000000000000000000000000000000000000000000000000000000000602082015250565b60006135b5602183612c2a565b91506135c082613559565b604082019050919050565b600060208201905081810360008301526135e4816135a8565b9050919050565b7f4552433732313a20617070726f76652063616c6c6572206973206e6f7420746f60008201527f6b656e206f776e6572206e6f7220617070726f76656420666f7220616c6c0000602082015250565b6000613647603e83612c2a565b9150613652826135eb565b604082019050919050565b600060208201905081810360008301526136768161363a565b9050919050565b7f4f6e6c792072656769737465726564206d656d6265727320616c6c6f77656400600082015250565b60006136b3601f83612c2a565b91506136be8261367d565b602082019050919050565b600060208201905081810360008301526136e2816136a6565b9050919050565b600081905092915050565b60006136ff82612c1f565b61370981856136e9565b9350613719818560208601612c3b565b80840191505092915050565b600061373182846136f4565b915081905092915050565b7f55524920616c726561647920696e207573652e00000000000000000000000000600082015250565b6000613772601383612c2a565b915061377d8261373c565b602082019050919050565b600060208201905081810360008301526137a181613765565b9050919050565b7f4f6e6c7920746865206f776e6572206f6620746869732061646472657373206360008201527f616e2073656520697427732064657461696c7300000000000000000000000000602082015250565b6000613804603383612c2a565b915061380f826137a8565b604082019050919050565b60006020820190508181036000830152613833816137f7565b9050919050565b7f4552433732313a2063616c6c6572206973206e6f7420746f6b656e206f776e6560008201527f72206e6f7220617070726f766564000000000000000000000000000000000000602082015250565b6000613896602e83612c2a565b91506138a18261383a565b604082019050919050565b600060208201905081810360008301526138c581613889565b9050919050565b7f4552433732313a20696e76616c696420746f6b656e2049440000000000000000600082015250565b6000613902601883612c2a565b915061390d826138cc565b602082019050919050565b60006020820190508181036000830152613931816138f5565b9050919050565b7f4552433732313a2061646472657373207a65726f206973206e6f74206120766160008201527f6c6964206f776e65720000000000000000000000000000000000000000000000602082015250565b6000613994602983612c2a565b915061399f82613938565b604082019050919050565b600060208201905081810360008301526139c381613987565b9050919050565b600067ffffffffffffffff82169050919050565b7f4e487b7100000000000000000000000000000000000000000000000000000000600052601160045260246000fd5b6000613a18826139ca565b9150613a23836139ca565b925082821015613a3657613a356139de565b5b828203905092915050565b7f4c6963656e736520697320616c72656164792065787069726564000000000000600082015250565b6000613a77601a83612c2a565b9150613a8282613a41565b602082019050919050565b60006020820190508181036000830152613aa681613a6a565b9050919050565b7f4164647265737320616c72656164792072656769737465726564000000000000600082015250565b6000613ae3601a83612c2a565b9150613aee82613aad565b602082019050919050565b60006020820190508181036000830152613b1281613ad6565b9050919050565b60008190508160005260206000209050919050565b60006020601f8301049050919050565b600082821b905092915050565b600060088302613b7b7fffffffffffffffffffffffffffffffffffffffffffffffffffffffffffffffff82613b3e565b613b858683613b3e565b95508019841693508086168417925050509392505050565b6000819050919050565b6000613bc2613bbd613bb884612cda565b613b9d565b612cda565b9050919050565b6000819050919050565b613bdc83613ba7565b613bf0613be882613bc9565b848454613b4b565b825550505050565b600090565b613c05613bf8565b613c10818484613bd3565b505050565b5b81811015613c3457613c29600082613bfd565b600181019050613c16565b5050565b601f821115613c7957613c4a81613b19565b613c5384613b2e565b81016020851015613c62578190505b613c76613c6e85613b2e565b830182613c15565b50505b505050565b600082821c905092915050565b6000613c9c60001984600802613c7e565b1980831691505092915050565b6000613cb58383613c8b565b9150826002028217905092915050565b613cce82612c1f565b67ffffffffffffffff811115613ce757613ce6612e0a565b5b613cf18254613528565b613cfc828285613c38565b600060209050601f831160018114613d2f5760008415613d1d578287015190505b613d278582613ca9565b865550613d8f565b601f198416613d3d86613b19565b60005b82811015613d6557848901518255600182019150602085019450602081019050613d40565b86831015613d825784890151613d7e601f891682613c8b565b8355505b6001600288020188555050505b505050505050565b7f4f776e61626c653a206e6577206f776e657220697320746865207a65726f206160008201527f6464726573730000000000000000000000000000000000000000000000000000602082015250565b6000613df3602683612c2a565b9150613dfe82613d97565b604082019050919050565b60006020820190508181036000830152613e2281613de6565b9050919050565b6000613e3482612cda565b9150613e3f83612cda565b925082821015613e5257613e516139de565b5b828203905092915050565b7f4e487b7100000000000000000000000000000000000000000000000000000000600052603260045260246000fd5b6000613e9782612cda565b9150613ea283612cda565b9250827fffffffffffffffffffffffffffffffffffffffffffffffffffffffffffffffff03821115613ed757613ed66139de565b5b828201905092915050565b6000613eed82612cda565b915060008203613f0057613eff6139de565b5b600182039050919050565b7f45524337323155524953746f726167653a2055524920736574206f66206e6f6e60008201527f6578697374656e7420746f6b656e000000000000000000000000000000000000602082015250565b6000613f67602e83612c2a565b9150613f7282613f0b565b604082019050919050565b60006020820190508181036000830152613f9681613f5a565b9050919050565b7f4552433732313a207472616e736665722066726f6d20696e636f72726563742060008201527f6f776e6572000000000000000000000000000000000000000000000000000000602082015250565b6000613ff9602583612c2a565b915061400482613f9d565b604082019050919050565b6000602082019050818103600083015261402881613fec565b9050919050565b7f4552433732313a207472616e7366657220746f20746865207a65726f2061646460008201527f7265737300000000000000000000000000000000000000000000000000000000602082015250565b600061408b602483612c2a565b91506140968261402f565b604082019050919050565b600060208201905081810360008301526140ba8161407e565b9050919050565b7f4e487b7100000000000000000000000000000000000000000000000000000000600052601260045260246000fd5b60006140fb82612cda565b915061410683612cda565b925082614116576141156140c1565b5b828206905092915050565b600061412c82612cda565b915061413783612cda565b925082614147576141466140c1565b5b828204905092915050565b600061415d82612cda565b91507fffffffffffffffffffffffffffffffffffffffffffffffffffffffffffffffff820361418f5761418e6139de565b5b600182019050919050565b7f2000000000000000000000000000000000000000000000000000000000000000600082015250565b60006141d06001836136e9565b91506141db8261419a565b600182019050919050565b60006141f282856136f4565b91506141fd826141c3565b915061420982846136f4565b91508190509392505050565b7f4f776e61626c653a2063616c6c6572206973206e6f7420746865206f776e6572600082015250565b600061424b602083612c2a565b915061425682614215565b602082019050919050565b6000602082019050818103600083015261427a8161423e565b9050919050565b7f4552433732313a20617070726f766520746f2063616c6c657200000000000000600082015250565b60006142b7601983612c2a565b91506142c282614281565b602082019050919050565b600060208201905081810360008301526142e6816142aa565b9050919050565b7f4552433732313a207472616e7366657220746f206e6f6e20455243373231526560008201527f63656976657220696d706c656d656e7465720000000000000000000000000000602082015250565b6000614349603283612c2a565b9150614354826142ed565b604082019050919050565b600060208201905081810360008301526143788161433c565b9050919050565b600061438b82856136f4565b915061439782846136f4565b91508190509392505050565b7f4e487b7100000000000000000000000000000000000000000000000000000000600052603160045260246000fd5b600081519050919050565b600082825260208201905092915050565b60006143f9826143d2565b61440381856143dd565b9350614413818560208601612c3b565b61441c81612c6e565b840191505092915050565b600060808201905061443c6000830187612d6f565b6144496020830186612d6f565b6144566040830185613116565b818103606083015261446881846143ee565b905095945050505050565b60008151905061448281612b90565b92915050565b60006020828403121561449e5761449d612b5a565b5b60006144ac84828501614473565b91505092915050565b7f4552433732313a206d696e7420746f20746865207a65726f2061646472657373600082015250565b60006144eb602083612c2a565b91506144f6826144b5565b602082019050919050565b6000602082019050818103600083015261451a816144de565b9050919050565b7f4552433732313a20746f6b656e20616c7265616479206d696e74656400000000600082015250565b6000614557601c83612c2a565b915061456282614521565b602082019050919050565b600060208201905081810360008301526145868161454a565b905091905056fea264697066735822122017bd328884769e5b787c83acef0933fcf0cb2791e13baef054ed89f6aaed943264736f6c634300080f0033",
  "immutableReferences": {},
  "source": "// SPDX-License-Identifier: MIT\npragma solidity ^0.8.4;\n\nimport \"@openzeppelin/contracts/token/ERC721/ERC721.sol\";\nimport \"@openzeppelin/contracts/token/ERC721/extensions/ERC721URIStorage.sol\";\nimport \"./Ownership.sol\";\nimport \"./Misc.sol\";\n\ncontract License is ERC721, ERC721URIStorage, Whitelist {\n    using Counters for Counters.Counter;\n\n    mapping(string => bool) private existingURIs;\n    mapping(uint256 => uint64) private birthtime;\n    mapping(uint256 => uint24) private lifespan;\n\n    constructor() ERC721(\"License\", \"License\") {}\n\n    // function _baseURI() internal pure override returns (string memory) {\n    //     return \"ipfs://\";\n    // }\n\n    function mint(\n        address to,\n        uint16[] memory seeds,\n        string memory uri,\n        uint24 day\n    ) public onlyRegistered returns (uint256) {\n        require(!existingURIs[uri], \"URI already in use.\");\n        uint256 tokenId = combine(seeds);\n        addSerial(tokenId, to);\n        _safeMint(to, tokenId);\n        _setTokenURI(tokenId, uri);\n        existingURIs[uri] = true;\n        pass_uint = tokenId;\n        lifespan[tokenId] = day;\n        birthtime[tokenId] = uint64(block.timestamp);\n        return tokenId;\n    }\n\n    function safeBurn(uint16[] memory parts) internal {\n        _safeBurn(combine(parts));\n    }\n\n    function _safeBurn(uint256 tokenId) internal {\n        birthtime[tokenId] = 0;\n        lifespan[tokenId] = 0;\n        usedSerials[tokenId] = false;\n        address temp = serialBrandMap[tokenId];\n        for (uint256 i = 0; i < brandSerialMap[temp].length; i++) {\n            if (brandSerialMap[temp][i] == tokenId) {\n                brandSerialMap[temp][i] = brandSerialMap[temp][\n                    brandSerialMap[temp].length - 1\n                ];\n                brandSerialMap[temp].pop();\n                break;\n            }\n        }\n        serialBrandMap[tokenId] = address(0);\n        temp = serialUserMap[tokenId];\n        for (uint256 i = 0; i < userSerialMap[temp].length; i++) {\n            if (userSerialMap[temp][i] == tokenId) {\n                userSerialMap[temp][i] = userSerialMap[temp][\n                    userSerialMap[temp].length - 1\n                ];\n                userSerialMap[temp].pop();\n                break;\n            }\n        }\n        serialUserMap[tokenId] = address(0);\n        _burn(tokenId);\n    }\n\n    function _burn(uint256 tokenId)\n        internal\n        override(ERC721, ERC721URIStorage)\n    {\n        super._burn(tokenId);\n    }\n\n    function getTokenURI(uint16[] memory parts) public {\n        uint256 tokenId = combine(parts);\n        pass_str = tokenURI(tokenId);\n    }\n\n    function tokenURI(uint256 tokenId)\n        public\n        view\n        override(ERC721, ERC721URIStorage)\n        returns (string memory)\n    {\n        require(\n            msg.sender == serialBrandMap[tokenId] ||\n                msg.sender == serialUserMap[tokenId],\n            \"Only the owner of this address can see it's details\"\n        );\n        uint64 current = uint64(block.timestamp);\n        if ((current - birthtime[tokenId]) < lifespan[tokenId]) {\n            return super.tokenURI(tokenId);\n        } else {\n            require(false, \"License is already expired\");\n        }\n    }\n\n    function _beforeTokenTransfer(\n        address from,\n        address to,\n        uint256 serial\n    ) internal virtual override {\n        if (from != address(0)) {\n            uint256 i;\n            for (i = 0; i < userSerialMap[from].length; i++) {\n                if (userSerialMap[from][i] == serial) {\n                    userSerialMap[from][i] = userSerialMap[from][\n                        userSerialMap[from].length - 1\n                    ];\n                    userSerialMap[from].pop();\n                    break;\n                }\n            }\n        }\n    }\n\n    function _afterTokenTransfer(\n        address from,\n        address to,\n        uint256 serial\n    ) internal virtual override {\n        if (to != address(0)) {\n            userSerialMap[to].push(serial);\n            serialUserMap[serial] = to;\n        }\n    }\n}\n",
  "sourcePath": "/Users/monjoy/Desktop/LicenseNFT/smart_contract/contracts/License.sol",
  "compiler": {
    "name": "solc",
    "version": "0.8.15+commit.e14f2714.Emscripten.clang"
  },
  "schemaVersion": "3.4.8",
  "updatedAt": "2022-07-21T09:21:24.630Z",
  "networkType": "ethereum",
  "devdoc": {
    "kind": "dev",
    "methods": {
      "approve(address,uint256)": {
        "details": "See {IERC721-approve}."
      },
      "balanceOf(address)": {
        "details": "See {IERC721-balanceOf}."
      },
      "getApproved(uint256)": {
        "details": "See {IERC721-getApproved}."
      },
      "isApprovedForAll(address,address)": {
        "details": "See {IERC721-isApprovedForAll}."
      },
      "name()": {
        "details": "See {IERC721Metadata-name}."
      },
      "owner()": {
        "details": "Returns the address of the current owner."
      },
      "ownerOf(uint256)": {
        "details": "See {IERC721-ownerOf}."
      },
      "renounceOwnership()": {
        "details": "Leaves the contract without owner. It will not be possible to call `onlyOwner` functions anymore. Can only be called by the current owner. NOTE: Renouncing ownership will leave the contract without an owner, thereby removing any functionality that is only available to the owner."
      },
      "safeTransferFrom(address,address,uint256)": {
        "details": "See {IERC721-safeTransferFrom}."
      },
      "safeTransferFrom(address,address,uint256,bytes)": {
        "details": "See {IERC721-safeTransferFrom}."
      },
      "setApprovalForAll(address,bool)": {
        "details": "See {IERC721-setApprovalForAll}."
      },
      "supportsInterface(bytes4)": {
        "details": "See {IERC165-supportsInterface}."
      },
      "symbol()": {
        "details": "See {IERC721Metadata-symbol}."
      },
      "transferFrom(address,address,uint256)": {
        "details": "See {IERC721-transferFrom}."
      },
      "transferOwnership(address)": {
        "details": "Transfers ownership of the contract to a new account (`newOwner`). Can only be called by the current owner."
      }
    },
    "version": 1
  },
  "userdoc": {
    "kind": "user",
    "methods": {},
    "version": 1
  }
}