{
  "contractName": "Whitelist",
  "abi": [
    {
      "inputs": [],
      "stateMutability": "nonpayable",
      "type": "constructor"
    },
    {
      "anonymous": false,
      "inputs": [
        {
          "indexed": true,
          "internalType": "address",
          "name": "previousOwner",
          "type": "address"
        },
        {
          "indexed": true,
          "internalType": "address",
          "name": "newOwner",
          "type": "address"
        }
      ],
      "name": "OwnershipTransferred",
      "type": "event"
    },
    {
      "inputs": [],
      "name": "owner",
      "outputs": [
        {
          "internalType": "address",
          "name": "",
          "type": "address"
        }
      ],
      "stateMutability": "view",
      "type": "function"
    },
    {
      "inputs": [],
      "name": "renounceOwnership",
      "outputs": [],
      "stateMutability": "nonpayable",
      "type": "function"
    },
    {
      "inputs": [
        {
          "internalType": "address",
          "name": "newOwner",
          "type": "address"
        }
      ],
      "name": "transferOwnership",
      "outputs": [],
      "stateMutability": "nonpayable",
      "type": "function"
    },
    {
      "inputs": [],
      "name": "addSerial",
      "outputs": [
        {
          "internalType": "uint256",
          "name": "",
          "type": "uint256"
        }
      ],
      "stateMutability": "nonpayable",
      "type": "function"
    },
    {
      "inputs": [
        {
          "internalType": "address",
          "name": "_member",
          "type": "address"
        }
      ],
      "name": "addMember",
      "outputs": [],
      "stateMutability": "nonpayable",
      "type": "function"
    }
  ],
  "bytecode": "0x608060405234801561001057600080fd5b5061002d6100226100e260201b60201c565b6100ea60201b60201c565b6001600260003373ffffffffffffffffffffffffffffffffffffffff1673ffffffffffffffffffffffffffffffffffffffff16815260200190815260200160002060006101000a81548160ff0219169083151502179055506001600560003373ffffffffffffffffffffffffffffffffffffffff1673ffffffffffffffffffffffffffffffffffffffff16815260200190815260200160002060006101000a81548160ff0219169083151502179055506101ae565b600033905090565b60008060009054906101000a900473ffffffffffffffffffffffffffffffffffffffff169050816000806101000a81548173ffffffffffffffffffffffffffffffffffffffff021916908373ffffffffffffffffffffffffffffffffffffffff1602179055508173ffffffffffffffffffffffffffffffffffffffff168173ffffffffffffffffffffffffffffffffffffffff167f8be0079c531659141344cd1fd0a4f28419497f9722a3daafe3b4186f6b6457e060405160405180910390a35050565b610b33806101bd6000396000f3fe608060405234801561001057600080fd5b50600436106100575760003560e01c80630d43fa571461005c578063715018a61461007a5780638da5cb5b14610084578063ca6d56dc146100a2578063f2fde38b146100be575b600080fd5b6100646100da565b6040516100719190610779565b60405180910390f35b610082610263565b005b61008c610277565b60405161009991906107d5565b60405180910390f35b6100bc60048036038101906100b79190610821565b6102a0565b005b6100d860048036038101906100d39190610821565b610414565b005b60006100e533610497565b61013a600260003373ffffffffffffffffffffffffffffffffffffffff1673ffffffffffffffffffffffffffffffffffffffff16815260200190815260200160002060009054906101000a900460ff16610530565b600260003373ffffffffffffffffffffffffffffffffffffffff1673ffffffffffffffffffffffffffffffffffffffff16815260200190815260200160002060009054906101000a900460ff166101c6576040517f08c379a00000000000000000000000000000000000000000000000000000000081526004016101bd906108ab565b60405180910390fd5b60006101d260016105c9565b90506101de60016105d7565b60016003600083815260200190815260200160002060006101000a81548160ff021916908315150217905550336004600083815260200190815260200160002060006101000a81548173ffffffffffffffffffffffffffffffffffffffff021916908373ffffffffffffffffffffffffffffffffffffffff1602179055508091505090565b61026b6105ed565b610275600061066b565b565b60008060009054906101000a900473ffffffffffffffffffffffffffffffffffffffff16905090565b600560003373ffffffffffffffffffffffffffffffffffffffff1673ffffffffffffffffffffffffffffffffffffffff16815260200190815260200160002060009054906101000a900460ff1661032c576040517f08c379a00000000000000000000000000000000000000000000000000000000081526004016103239061093d565b60405180910390fd5b600260003373ffffffffffffffffffffffffffffffffffffffff1673ffffffffffffffffffffffffffffffffffffffff16815260200190815260200160002060009054906101000a900460ff16156103b9576040517f08c379a00000000000000000000000000000000000000000000000000000000081526004016103b0906109a9565b60405180910390fd5b6001600260008373ffffffffffffffffffffffffffffffffffffffff1673ffffffffffffffffffffffffffffffffffffffff16815260200190815260200160002060006101000a81548160ff02191690831515021790555050565b61041c6105ed565b600073ffffffffffffffffffffffffffffffffffffffff168173ffffffffffffffffffffffffffffffffffffffff160361048b576040517f08c379a000000000000000000000000000000000000000000000000000000000815260040161048290610a3b565b60405180910390fd5b6104948161066b565b50565b61052d816040516024016104ab91906107d5565b6040516020818303038152906040527f2c2ecbc2000000000000000000000000000000000000000000000000000000007bffffffffffffffffffffffffffffffffffffffffffffffffffffffff19166020820180517bffffffffffffffffffffffffffffffffffffffffffffffffffffffff838183161783525050505061072f565b50565b6105c6816040516024016105449190610a76565b6040516020818303038152906040527f32458eed000000000000000000000000000000000000000000000000000000007bffffffffffffffffffffffffffffffffffffffffffffffffffffffff19166020820180517bffffffffffffffffffffffffffffffffffffffffffffffffffffffff838183161783525050505061072f565b50565b600081600001549050919050565b6001816000016000828254019250508190555050565b6105f5610758565b73ffffffffffffffffffffffffffffffffffffffff16610613610277565b73ffffffffffffffffffffffffffffffffffffffff1614610669576040517f08c379a000000000000000000000000000000000000000000000000000000000815260040161066090610add565b60405180910390fd5b565b60008060009054906101000a900473ffffffffffffffffffffffffffffffffffffffff169050816000806101000a81548173ffffffffffffffffffffffffffffffffffffffff021916908373ffffffffffffffffffffffffffffffffffffffff1602179055508173ffffffffffffffffffffffffffffffffffffffff168173ffffffffffffffffffffffffffffffffffffffff167f8be0079c531659141344cd1fd0a4f28419497f9722a3daafe3b4186f6b6457e060405160405180910390a35050565b60008151905060006a636f6e736f6c652e6c6f679050602083016000808483855afa5050505050565b600033905090565b6000819050919050565b61077381610760565b82525050565b600060208201905061078e600083018461076a565b92915050565b600073ffffffffffffffffffffffffffffffffffffffff82169050919050565b60006107bf82610794565b9050919050565b6107cf816107b4565b82525050565b60006020820190506107ea60008301846107c6565b92915050565b600080fd5b6107fe816107b4565b811461080957600080fd5b50565b60008135905061081b816107f5565b92915050565b600060208284031215610837576108366107f0565b5b60006108458482850161080c565b91505092915050565b600082825260208201905092915050565b7f556e7265636f676e69736564206d656d62657200000000000000000000000000600082015250565b600061089560138361084e565b91506108a08261085f565b602082019050919050565b600060208201905081810360008301526108c481610888565b9050919050565b7f46756e6374696f6e2061636365737369626c65206f6e6c79206279207468652060008201527f6d656d626572206f6620746865206272616e6421210000000000000000000000602082015250565b600061092760358361084e565b9150610932826108cb565b604082019050919050565b600060208201905081810360008301526109568161091a565b9050919050565b7f4164647265737320616c72656164792072656769737465726564000000000000600082015250565b6000610993601a8361084e565b915061099e8261095d565b602082019050919050565b600060208201905081810360008301526109c281610986565b9050919050565b7f4f776e61626c653a206e6577206f776e657220697320746865207a65726f206160008201527f6464726573730000000000000000000000000000000000000000000000000000602082015250565b6000610a2560268361084e565b9150610a30826109c9565b604082019050919050565b60006020820190508181036000830152610a5481610a18565b9050919050565b60008115159050919050565b610a7081610a5b565b82525050565b6000602082019050610a8b6000830184610a67565b92915050565b7f4f776e61626c653a2063616c6c6572206973206e6f7420746865206f776e6572600082015250565b6000610ac760208361084e565b9150610ad282610a91565b602082019050919050565b60006020820190508181036000830152610af681610aba565b905091905056fea264697066735822122090bac7906ec7c46257c55ef91e3df6687ba29c5ee703c8da73b5a7e65beb407364736f6c634300080f0033",
  "immutableReferences": {},
  "source": "// SPDX-License-Identifier: MIT\npragma solidity ^0.8.4;\n\nimport \"@openzeppelin/contracts/access/Ownable.sol\";\nimport \"@openzeppelin/contracts/utils/Counters.sol\";\nimport \"hardhat/console.sol\";\n\ncontract Whitelist is Ownable {\n    using Counters for Counters.Counter;\n    Counters.Counter private _SerialIds;\n\n    mapping(address => bool) private usedBrandIDs;\n    mapping(uint256 => bool) private usedSerials;\n    mapping(uint256 => address) private serialBrandMap;\n    mapping(address => bool) private creator;\n\n    constructor() {\n        usedBrandIDs[msg.sender] = true;\n        creator[msg.sender] = true;\n    }\n\n    modifier onlyCreator() {\n        require(\n            creator[msg.sender],\n            \"Function accessible only by the member of the brand!!\"\n        );\n        _;\n    }\n\n    modifier onlyMember(uint256 serial) {\n        require(\n            serialBrandMap[serial] == msg.sender,\n            \"Function accessible only by the member of the brand!!\"\n        );\n        _;\n    }\n\n    modifier onlyRegistered() {\n        console.log(msg.sender);\n        console.log(usedBrandIDs[msg.sender]);\n        require(usedBrandIDs[msg.sender], \"Unrecognised member\");\n        _;\n    }\n\n    function addSerial() public onlyRegistered returns (uint256) {\n        uint256 serial = _SerialIds.current();\n        _SerialIds.increment();\n        usedSerials[serial] = true;\n        serialBrandMap[serial] = msg.sender;\n        return serial;\n    }\n\n    function addMember(address _member) public onlyCreator {\n        require(!usedBrandIDs[msg.sender], \"Address already registered\");\n        usedBrandIDs[_member] = true;\n    }\n}\n",
  "sourcePath": "/home/netradeepakc/Documents/GRID/LicenseNFT/smart_contract/contracts/Ownership.sol",
  "compiler": {
    "name": "solc",
    "version": "0.8.15+commit.e14f2714.Emscripten.clang"
  },
  "schemaVersion": "3.4.8",
  "updatedAt": "2022-07-12T11:56:34.746Z",
  "devdoc": {
    "kind": "dev",
    "methods": {
      "owner()": {
        "details": "Returns the address of the current owner."
      },
      "renounceOwnership()": {
        "details": "Leaves the contract without owner. It will not be possible to call `onlyOwner` functions anymore. Can only be called by the current owner. NOTE: Renouncing ownership will leave the contract without an owner, thereby removing any functionality that is only available to the owner."
      },
      "transferOwnership(address)": {
        "details": "Transfers ownership of the contract to a new account (`newOwner`). Can only be called by the current owner."
      }
    },
    "version": 1
  },
  "userdoc": {
    "kind": "user",
    "methods": {},
    "version": 1
  }
}